:020000040000fa
:080000000002040000000000f2
:020000040000fa
:0400080002030000ef
:020000040000fa
:04000c0014030000d9
:020000040000fa
:0400100024030000c5
:020000040000fa
:040014000a030000db
:020000040000fa
:040018001c030000c5
:020000040000fa
:04001c00aa03000033
:020000040000fa
:040020002c030000ad
:020000040000fa
:04002400aa0300002b
:020000040000fa
:040028007c03000055
:020000040000fa
:04002c00fa020000d4
:020000040000fa
:04003000aa0300001f
:020000040000fa
:04003400aa0300001b
:020000040000fa
:04003800aa03000017
:020000040000fa
:04003c00aa03000013
:020000040000fa
:04004000aa0300000f
:020000040000fa
:04004400aa0300000b
:020000040000fa
:04004800aa03000007
:020000040000fa
:04004c00aa03000003
:020000040000fa
:04005000aa030000ff
:020000040000fa
:04005400aa030000fb
:020000040000fa
:04005800aa030000f7
:020000040000fa
:04005c00aa030000f3
:020000040000fa
:04006000aa030000ef
:020000040000fa
:040064009a030000fb
:020000040000fa
:04006800aa030000e7
:020000040000fa
:04006c00aa030000e3
:020000040000fa
:04007000aa030000df
:020000040000fa
:04007400aa030000db
:020000040000fa
:04007800aa030000d7
:020000040000fa
:04007c00aa030000d3
:020000040000fa
:04008000aa030000cf
:020000040000fa
:04008400aa030000cb
:020000040000fa
:04008800aa030000c7
:020000040000fa
:04008c00aa030000c3
:020000040000fa
:04009000aa030000bf
:020000040000fa
:04009400aa030000bb
:020000040000fa
:04009800aa030000b7
:020000040000fa
:04009c00aa030000b3
:020000040000fa
:0400a000aa030000af
:020000040000fa
:0400a400aa030000ab
:020000040000fa
:0400a800aa030000a7
:020000040000fa
:0400ac00aa030000a3
:020000040000fa
:0400b000aa0300009f
:020000040000fa
:0400b400aa0300009b
:020000040000fa
:0400b800aa03000097
:020000040000fa
:0400bc00aa03000093
:020000040000fa
:0400c000aa0300008f
:020000040000fa
:0400c400aa0300008b
:020000040000fa
:0400c800aa03000087
:020000040000fa
:0400cc00aa03000083
:020000040000fa
:0400d000aa0300007f
:020000040000fa
:0400d400aa0300007b
:020000040000fa
:0400d800aa03000077
:020000040000fa
:0400dc00aa03000073
:020000040000fa
:0400e000aa0300006f
:020000040000fa
:0400e400aa0300006b
:020000040000fa
:0400e800aa03000067
:020000040000fa
:0400ec00aa03000063
:020000040000fa
:0400f000aa0300005f
:020000040000fa
:0400f400aa0300005b
:020000040000fa
:0400f800aa03000057
:020000040000fa
:0400fc00aa03000053
:020000040000fa
:04010000aa0300004e
:020000040000fa
:04010400aa0300004a
:020000040000fa
:04010800aa03000046
:020000040000fa
:04010c00aa03000042
:020000040000fa
:04011000aa0300003e
:020000040000fa
:04011400aa0300003a
:020000040000fa
:04011800aa03000036
:020000040000fa
:04011c00aa03000032
:020000040000fa
:04012000aa0300002e
:020000040000fa
:04012400aa0300002a
:020000040000fa
:04012800aa03000026
:020000040000fa
:04012c00aa03000022
:020000040000fa
:04013000aa0300001e
:020000040000fa
:04013400aa0300001a
:020000040000fa
:04013800aa03000016
:020000040000fa
:04013c00aa03000012
:020000040000fa
:04014000aa0300000e
:020000040000fa
:04014400aa0300000a
:020000040000fa
:04014800aa03000006
:020000040000fa
:04014c00aa03000002
:020000040000fa
:04015000aa030000fe
:020000040000fa
:04015400aa030000fa
:020000040000fa
:04015800aa030000f6
:020000040000fa
:04015c00aa030000f2
:020000040000fa
:04016000aa030000ee
:020000040000fa
:04016400aa030000ea
:020000040000fa
:04016800aa030000e6
:020000040000fa
:04016c00aa030000e2
:020000040000fa
:04017000aa030000de
:020000040000fa
:04017400aa030000da
:020000040000fa
:04017800aa030000d6
:020000040000fa
:04017c00aa030000d2
:020000040000fa
:04018000aa030000ce
:020000040000fa
:04018400aa030000ca
:020000040000fa
:04018800aa030000c6
:020000040000fa
:04018c00aa030000c2
:020000040000fa
:04019000aa030000be
:020000040000fa
:04019400aa030000ba
:020000040000fa
:04019800aa030000b6
:020000040000fa
:04019c00aa030000b2
:020000040000fa
:0401a000aa030000ae
:020000040000fa
:0401a400aa030000aa
:020000040000fa
:0401a800aa030000a6
:020000040000fa
:0401ac00aa030000a2
:020000040000fa
:0401b000aa0300009e
:020000040000fa
:0401b400aa0300009a
:020000040000fa
:0401b800aa03000096
:020000040000fa
:0401bc00aa03000092
:020000040000fa
:0401c000aa0300008e
:020000040000fa
:0401c400aa0300008a
:020000040000fa
:0401c800aa03000086
:020000040000fa
:0401cc00aa03000082
:020000040000fa
:0401d000aa0300007e
:020000040000fa
:0401d400aa0300007a
:020000040000fa
:0401d800aa03000076
:020000040000fa
:0401dc00aa03000072
:020000040000fa
:0401e000aa0300006e
:020000040000fa
:0401e400aa0300006a
:020000040000fa
:0401e800aa03000066
:020000040000fa
:0401ec00aa03000062
:020000040000fa
:0401f000aa0300005e
:020000040000fa
:0401f400aa0300005a
:020000040000fa
:0401f800aa03000056
:020000040000fa
:0401fc00aa03000052
:020000040000fa
:04020000aa0300004d
:020000040000fa
:04020400aa03000049
:020000040000fa
:04020800aa03000045
:020000040000fa
:04020c00aa03000041
:020000040000fa
:04021000aa0300003d
:020000040000fa
:04021400aa03000039
:020000040000fa
:04021800aa03000035
:020000040000fa
:04021c00aa03000031
:020000040000fa
:04022000aa0300002d
:020000040000fa
:04022400aa03000029
:020000040000fa
:04022800aa03000025
:020000040000fa
:04022c00aa03000021
:020000040000fa
:04023000aa0300001d
:020000040000fa
:04023400aa03000019
:020000040000fa
:04023800aa03000015
:020000040000fa
:04023c00aa03000011
:020000040000fa
:04024000aa0300000d
:020000040000fa
:04024400aa03000009
:020000040000fa
:04024800aa03000005
:020000040000fa
:04024c00aa03000001
:020000040000fa
:04025000aa030000fd
:020000040000fa
:04025400aa030000f9
:020000040000fa
:04025800aa030000f5
:020000040000fa
:04025c00aa030000f1
:020000040000fa
:04026000aa030000ed
:020000040000fa
:04026400aa030000e9
:020000040000fa
:04026800aa030000e5
:020000040000fa
:04026c00aa030000e1
:020000040000fa
:04027000aa030000dd
:020000040000fa
:04027400aa030000d9
:020000040000fa
:04027800aa030000d5
:020000040000fa
:04027c00aa030000d1
:020000040000fa
:04028000aa030000cd
:020000040000fa
:04028400aa030000c9
:020000040000fa
:04028800aa030000c5
:020000040000fa
:04028c00aa030000c1
:020000040000fa
:04029000aa030000bd
:020000040000fa
:04029400aa030000b9
:020000040000fa
:04029800aa030000b5
:020000040000fa
:04029c00aa030000b1
:020000040000fa
:0402a000aa030000ad
:020000040000fa
:0402a400aa030000a9
:020000040000fa
:0402a800aa030000a5
:020000040000fa
:0402ac00aa030000a1
:020000040000fa
:0402b000aa0300009d
:020000040000fa
:0402b400aa03000099
:020000040000fa
:0402b800aa03000095
:020000040000fa
:0402bc00aa03000091
:020000040000fa
:0402c000aa0300008d
:020000040000fa
:0402c400aa03000089
:020000040000fa
:0402c800aa03000085
:020000040000fa
:0402cc00aa03000081
:020000040000fa
:0402d000aa0300007d
:020000040000fa
:0402d400aa03000079
:020000040000fa
:0402d800aa03000075
:020000040000fa
:0402dc00aa03000071
:020000040000fa
:0402e000aa0300006d
:020000040000fa
:0402e400aa03000069
:020000040000fa
:0402e800aa03000065
:020000040000fa
:0402ec00aa03000061
:020000040000fa
:0402f000aa0300005d
:020000040000fa
:0402f400aa03000059
:020000040000fa
:0402f800aa03000055
:020000040000fa
:0402fc00aa03000051
:020000040000fa
:04030000aa0300004c
:020000040000fa
:04030400aa03000048
:020000040000fa
:04030800aa03000044
:020000040000fa
:04030c00aa03000040
:020000040000fa
:04031000aa0300003c
:020000040000fa
:04031400aa03000038
:020000040000fa
:04031800aa03000034
:020000040000fa
:04031c00aa03000030
:020000040000fa
:04032000aa0300002c
:020000040000fa
:04032400aa03000028
:020000040000fa
:04032800aa03000024
:020000040000fa
:04032c00aa03000020
:020000040000fa
:04033000aa0300001c
:020000040000fa
:04033400aa03000018
:020000040000fa
:100400002f0221000eff26000e01880000000000d0
:10041000000020000000e000020032000001200087
:100420002002880014000700cc0007000000e00054
:1004300003003a0060af20000100200002003700f6
:100440000000200001002000810f70000100320038
:100450000f000700000020000000e0000200320052
:100460000000020000000000ca0a020000000000b4
:100470000040da000000fe00200020000000e00044
:1004800002003200100020009001880000000600e9
:10049000a1028800800478000000eb001f003700f4
:1004a000e284440054a0b4009905ba00e2844400f8
:1004b00054a0b4009906ba00e284440054a0b400e9
:1004c0000006eb00476fde00fd07b200ae018800ba
:1004d000636ce10003003a000ad801000000eb0061
:1004e0000e003700606ce10008003a00004deb00a0
:1004f0000a05e800020039003420ec000af0a000f0
:100500008b05e900f9ff3e00040037006168e10057
:10051000010032000086eb000b00070019c7ba008b
:100520001905ba000e04e00003003a000a00e000da
:10053000dbff3a0000000600fe07b200ae028800b2
:100540008a047800f5ff37000cd0a300e20f4d00bd
:100550001c00390089027800354dba000a05e80010
:10056000020039003420ec000af0a0008b05e900fd
:100570000f003200254dba000a05e80002003900dc
:100580003420ec000af0a0008b05e90008003200de
:100590000c00e0000600320015cdba000a05e800a4
:1005a000020039003420ec000af0a0008b05e900bd
:1005b0008984e80054a0b4000b00e000e2ff3a0098
:1005c000000006009902ba00055d78008b05e9007d
:1005d000f7ff3200c82ade00055d78008b05e900d0
:1005e000f3ff32000c00e000f1ff320019ddba0029
:1005f000eeff37000000fa000028a9000080fa0092
:10060000004006003600f800c028a9000000eb00fa
:10061000eb0307003600f800ed030700c048a9000f
:1006200010002000e60307003600f800c068a900ab
:1006300020002000e20307003600f800c088a9006f
:1006400030002000de0307003600f800c608a900cd
:1006500070002000da0307003600f8002146800011
:1006600000102000008060000000e0000300320065
:10067000c508a900c0002000d10307002146800062
:1006800000002800008060000000e000030032004d
:10069000c5e8a90080002000c903070021468000aa
:1006a00000022000008060000000e0000300320033
:1006b000c4a8a90090002000c103070020468000c4
:1006c000700060000000e00003003200c488a90050
:1006d000a0002000ba0307002046800061006000ef
:1006e0000000e00003003200c408a900b0002000b0
:1006f000b3030700ffff37003600f800809fbe00fd
:10070000829fbe00849fbe00869fbe000000fa004c
:10071000840307000008a9000080fa004f03be0010
:100720004f02be004f01be004f00be003600f90070
:10073000004006000000fa003f8ea9003faea8006e
:100740003fcea80003e4a90001e8a9000080fa0058
:10075000004006000040da000000fe000000050036
:10076000889fbe008a9fbe008c1f780096000700fd
:100770009d00330003866c006450e1002e003200bf
:100780006420e100330032006150e1002f003200ac
:100790006120e1003100320085855500eb07b00093
:1007a0000900200008042000050037000804440068
:1007b00089844c000a0031000603430087834b0004
:1007c0000001530081815b00f8ff33000203be008b
:1007d0000800a0000804440089844c00f6ff39009a
:1007e000c639dd00830173000100320013002000d0
:1007f0008904d1000884d3000998a30005003200c1
:100800000800a7000300a0008904d1000884d300d9
:100810008b05e8008904d1000884d3000001eb00b7
:100820000281d2002d00070001f0a1000cf0a7000a
:1008300001f0a000750037006420e100770032006d
:100840000801be000200be00f7ff37006120e10092
:10085000720032006000b800f3ff37000000200093
:1008600001f82700f0ff37000001be00410007003b
:100870000470a70003f0a10003f8a30013003a00de
:100880006509b10010003200090035006928e10057
:1008900002003500010028000000050000004000b3
:1008a000818048008502e900fcff3a000000060054
:1008b000f88f4200050035008100d1000080d30090
:1008c0008502e800fcff3a00000006008000eb0013
:1008d000000005006011b80087003700810020008b
:1008e000618055000b003d000b00200061fe2f00d1
:1008f0000100e1001d00340082817100610164008b
:100900008904d1000884d3000000e800faff3a000f
:1009100071002000610064000300700002006000ac
:100920000900320061044400e0844c000988a500fd
:10093000050032008b05e8006808e10002003a007b
:100940008904d1000884d300f20f20000258e1008e
:1009500005003d00c75ddd00f907b2008980750024
:1009600008007800000006000bf827008b007800d4
:1009700000000500c70ade00f107b200f50fb20063
:1009800008003200e1cf4200020032000170a000f6
:1009900024000500810f70000100320004080500ea
:1009a00044000500810f700002003a0014000500a9
:1009b0008502e9000000400081c04800fcff3b00c8
:1009c0000170a000240005000004be00e9ff07003c
:1009d0000003be000405be000200be00e5ff0700e4
:1009e000844f7500000006000200be006450e10064
:1009f000050036006420e100020036000968a3000b
:100a000001003a000800be000160a0004f06780017
:100a10004f05be004f04be0000000600f0ff2f008f
:100a2000f1ff2700f9ff3700889fbe008a9fbe00b4
:100a30008c1f7800e4ff0700ebff330003866c0097
:100a40006450e100240032006420e10027003200fd
:100a50006150e100220032006120e10021003200fb
:100a60008b854200eb07b1000134b800003ab800b2
:100a70000804420089844a00013ab8000030b800f6
:100a80008880400009014a00040033000000400053
:100a900081804800020149008b05e900c909dd0099
:100aa000830170000100320013002000c814de0032
:100ab0004814dd004709de001200b200c808de005d
:100ac0000884700085ff070001f0a1000cf0a7006a
:100ad00001f0a000cdff37006120e100cfff320020
:100ae0000801be000200be00f7ff37006150e100c0
:100af000fcff3a00c9ff3700889fbe008a9fbe00f6
:100b0000008270000402710004827100260032002d
:100b10000004be000200be006011b8006b09200096
:100b2000950220000182cf000a0039000541b10082
:100b30000082cf00070039000541b1000982cf00d3
:100b4000040039000541b1000882cf0001003900de
:100b50000541b10005425200120032000a003b007c
:100b600082817100610164008100d1000080d300a6
:100b70008984d3000884d3008b05e8000442e80090
:100b8000f7ff3a00070037000804440089844c004e
:100b900000004800818048008b05e9000442e9001c
:100ba000f9ff3a004dff07004f05be004f04be009d
:040bb000000006003b
:020000040000fa
:100bb4000000fa0030002000001888000223ef0033
:100bc4000423ef000623ef000823ef0000012000b8
:100bd400501888000c23ef000e23ef001023ef00c1
:100be4001223ef001423ef001623ef001823ef0065
:100bf4001a23ef001c23ef001e23ef002023ef0035
:100c04002223ef002423ef002623ef002823ef0004
:100c14000424ef000624ef000824ef00c0012000a4
:100c24005020880080002000602088000e24ef00ff
:100c34001024ef001224ef001424ef001624ef0018
:100c44001824ef001a24ef001c24ef001e24ef00e8
:100c54002024ef002224ef002424ef00007d200054
:100c6400302188002824ef0080f9200050218800da
:100c74002c24ef002e24ef003024ef003224ef0068
:100c84003424ef0000000000c60107000004a200a5
:100c94000004e000fcff3a008008200010208800d7
:100ca4000080fa00000006000600fa00889fbe00db
:100cb40010079800210798000000eb00000f78004f
:100cc40050218000680040008000eb0000ff070016
:100cd4000004be0002002000832c24001e009000ab
:100ce400ae0090009dfe07000001be000800be009b
:100cf4004cff0700dbfe0700000f78009e00780021
:100d0400312188004f04be000080fa000000060074
:100d14000000fa000080fa00000006000000fa005b
:100d24004140800000082000008060000000e000d6
:100d340002003200f6ff070008e8a9000080fa006c
:100d4400000006000000fa000080fa00000006001f
:100d54000000fa00a1408000002020000080600014
:100d64000000e00002003200f6ff07001528a90089
:100d74000080fa00000006000000fa000080fa007b
:100d8400000006000000fa00a1408000004020009e
:100d9400008060000000e00002003200f6ff07005f
:100da4001548a9000080fa00000006000000fa00bf
:100db4000080fa00000006000000fa00a140800054
:100dc40000802000008060000000e000020032008b
:100dd400f6ff07001568a9000080fa00000006006d
:100de4000000fa000080fa00000006000000fa008b
:100df400a140800000002100008060000000e000ad
:100e040002003200f6ff07001588a9000080fa00ee
:100e1400000006000000fa000080fa00000006004e
:100e24000000fa00a1408000000022000080600061
:100e34000000e00002003200f6ff070015a8a90038
:100e44000080fa00000006000000fa000080fa00aa
:100e5400000006000000fa00a14080000000240009
:100e6400008060000000e00002003200f6ff07008e
:100e740015c8a9000080fa00000006000000fa006e
:100e8400f001200010708800d0ff2f00f07088005f
:100e9400f0fc2f00d07188000080eb00b072880055
:100ea4003b8ea9003baea9003bcea900380ea90099
:100eb400382ea900384ea900386ea90038cea900f2
:100ec40038eea9003f8ea8003faea8003fcea80090
:100ed4000080fa00000006000000fa001000230061
:100ee400307c880060092000407c88008c2fef0053
:100ef40010042000507c880010102800707c8800aa
:100f0400d0072000807c880010022000907c88009c
:100f1400b82fef00ba2fef000000eb0051052000be
:100f2400b1468800a10a2000b14688000068880004
:100f3400a02fef00a42fef00a62fef00a82fef00a3
:100f4400aa2fef00ae2fef00b02fef00b22fef006b
:100f54007200200080072000a109200053f820001f
:100f64008049780081497800824978000001eb00cb
:100f7400600420007105200043f8200080497800b7
:100f840081497800824978000080fa000000060058
:100f94000000fa0030002000001888000223ef004f
:100fa4000423ef000623ef000823ef000a23ef00d9
:100fb4000c23ef000e23ef001023ef001223ef00a9
:100fc4001423ef001623ef001823ef001a23ef0079
:100fd4001c23ef001e23ef002023ef002223ef0049
:100fe4002423ef002623ef002823ef000424ef003e
:100ff4000624ef000824ef00800120005020880020
:101004000c24ef000e24ef001024ef001224ef0054
:101014001424ef001624ef001824ef001a24ef0024
:101024001c24ef001e24ef002024ef002224ef00f4
:101034002424ef0080122000302188002824ef00af
:1010440080242000502188002c24ef002e24ef005f
:101054003024ef003224ef003424ef00800020001d
:10106400102088000080fa00000006000000fa004a
:101074000421ef0030422f00400888006032200035
:10108400000888000028a9002028a8000080fa0091
:10109400000006000000fa002028a80001e1a800d2
:1010a4000080fa00000006000000fa0001e1a90037
:1010b4002028a9000080fa00000006000000fa00c1
:1010c4001100200064210a00400800000080fa009a
:1010d400000006000000fa00007c80000080fa0096
:1010e400000006000200fa00faff0700000f780073
:1010f4001e007800240007000004e0000200320013
:1011040000002800710007001e0078002a00070074
:101114000004e00002003200000024006b0007001d
:101124001e007800320007000004e00002003200d4
:1011340000202000650007001e0078003a00070028
:101144000004e00002003200000820005f000700f5
:101154001e007800420007000004e0000200320094
:1011640000042000590007001e0078004a00070010
:101174000004e000020032000001200053000700d8
:101184000080fa00000006000400fa00100798002e
:101194000040eb00004f78001e0090000000e000cb
:1011a40002003d0010c0b300004f78001e407800dc
:1011b4000080fa00000006000400fa0010079800fe
:1011c4000040eb00004f78009e00900000002400d7
:1011d400008060000000e0000200320010c0b30094
:1011e400004f78001e4078000080fa0000000600de
:1011f4000400fa00100798000040eb00004f78004c
:101204009e00900000202000008060000000e000ac
:101214000200320010c0b300004f78001e40780076
:101224000080fa00000006000400fa00100798008d
:101234000040eb00004f78009e0090000008200062
:10124400008060000000e0000200320010c0b30023
:10125400004f78001e4078000080fa00000006006d
:101264000400fa00100798000040eb00004f7800db
:101274009e00900000042000008060000000e00058
:101284000200320010c0b300004f78001e40780006
:101294000080fa00000006000400fa00100798001d
:1012a4000040eb00004f78001e00900070006000ca
:1012b4000000e0000200320010c0b300004f7800cc
:1012c4001e4078000080fa00000006000200fa00c8
:1012d400000f78009e80ea00007c8000008060009f
:1012e400007c88000080fa00000006000000fa007c
:1012f400802fef000080fa00000006000000fa00d2
:1013040010002300307c880060092000407c8800a5
:101314008c2fef0010022000507c88001010280051
:10132400707c8800d0072000807c88001002200098
:10133400907c8800b82fef00ba2fef00be2fef008b
:10134400002def00a02fef00a42fef00a62fef0039
:10135400a82fef00aa2fef00ae2fef00b02fef0061
:10136400b22fef007200200080072000a1092000a6
:1013740053f8200080497800814978008249780038
:101384000001eb00600420007105200043f82000f8
:101394008049780081497800824978000080fa0009
:1013a400000006000000fa00eea00a008e0f000004
:1013b4000080fb0000f0a7000000ea000000ea0043
:1013c4004f00de00004078000080fa0000000600b4
:1013d4000000fa00062eef00222eef003e2eef0052
:1013e4005a2eef00f001200010708800d0ff2f006b
:1013f400f0708800f0fc2f00d07188000080eb00b2
:10140400b07288003b8ea9003baea9003bcea90078
:101414000c2eef00282eef00442eef00602eef007c
:101424000a2eef00262eef00422eef005e2eef0074
:10143400082eef00242eef00402eef005c2eef006c
:10144400f00120000070880090092000e0708800fe
:10145400f00c2000c071880000c02200a072880037
:101464000000eb0051052000b1468800a10a2000cd
:10147400b14688000068880090c3b30005edb7004a
:101484000080200051052000b1468800a10a2000f8
:10149400b1468800006888000080fa000000060059
:1014a4000200fa00000f780021028000200f2000c3
:1014b400008060001e007000200288000080fa0096
:1014c400000006000000fa00c3e8a80000000000c5
:1014d400000000000080fa00000006000000fa008e
:1014e400bbff070085ff070007000700b0fd0700ea
:1014f40011000700f3ff070000022000e8ff0700c7
:101504000080fa00000006000000fa00110020002c
:10151400ec210a00460800000080fa0000000600e2
:101524000000fa000080fa00000006000000fa0043
:101534000080fa00000006000000fa0001e8a9009b
:10154400c228a80021e8a8000080fa0000000600d4
:101554000000fa0069ff07000080fa00000006009e
:101564000000fa00007c80000080fa000000060001
:101574000000fa00dbfe07000080fa00000006000d
:101584000000fa0059ff07000080fa00000006007e
:101594000000fa0000000000d0ff07003fcea900c1
:1015a4003faea8003f8ea80003e4a800000020007e
:1015b40081242400bcfd0700ffff3700000f7800e2
:1015c4009e00780001808800ffff37000000fa00c9
:1015d4002000210080077800a0012100000188007c
:0815e4000080fa00000006007f
:020000040000fa
:1015ec00021000002000000080000000001000002d
:1015fc000200000082000000ffff0000000000005d
:020000040000fa
:020000040005f5
:047e0000ffff000080
:020000040000fa
:020000040005f5
:047e2000ffffff0061
:020000040000fa
:020000040005f5
:047e30007fffff00d1
:020000040000fa
:020000040005f5
:047e38007fffff00c9
:020000040000fa
:020000040005f5
:047e40006003ff00dc
:020000040000fa
:020000040005f5
:047e4800ffffff0039
:020000040000fa
:020000040005f5
:047e5000dfffff0051
:020000040000fa
:020000040005f5
:047e58000000ff0027
:020000040000fa
:020000040005f5
:047e60000000ff001f
:020000040000fa
:020000040005f5
:047e68000000ff0017
:020000040000fa
:020000040005f5
:047e70000000ff000f
:020000040000fa
:020000040005f5
:047e7800ffffff0009
:020000040000fa
:020000040005f5
:047e8000fffcff0004
:020000040000fa
:020000040005f5
:047e8800ffffff00f9
:020000040000fa
:020000040005f5
:047ff800ffffff0088
:020000040000fa
:020000040100f9
:04300000ffffff00cf
:00000001FF
