:020000040000fa
:080000000002040000000000f2
:020000040000fa
:0400080018030000d9
:020000040000fa
:04000c005a03000093
:020000040000fa
:040010009a0300004f
:020000040000fa
:0400140038030000ad
:020000040000fa
:040018007a03000067
:020000040000fa
:04001c0014040000c8
:020000040000fa
:04002000ba0300001f
:020000040000fa
:0400240014040000c0
:020000040000fa
:0400280014040000bc
:020000040000fa
:04002c0014040000b8
:020000040000fa
:0400300014040000b4
:020000040000fa
:0400340014040000b0
:020000040000fa
:0400380014040000ac
:020000040000fa
:04003c0014040000a8
:020000040000fa
:0400400014040000a4
:020000040000fa
:0400440014040000a0
:020000040000fa
:04004800140400009c
:020000040000fa
:04004c001404000098
:020000040000fa
:040050001404000094
:020000040000fa
:040054001404000090
:020000040000fa
:04005800140400008c
:020000040000fa
:04005c001404000088
:020000040000fa
:040060001404000084
:020000040000fa
:040064001404000080
:020000040000fa
:04006800140400007c
:020000040000fa
:04006c001404000078
:020000040000fa
:040070001404000074
:020000040000fa
:040074001404000070
:020000040000fa
:04007800140400006c
:020000040000fa
:04007c001404000068
:020000040000fa
:040080001404000064
:020000040000fa
:040084001404000060
:020000040000fa
:04008800140400005c
:020000040000fa
:04008c001404000058
:020000040000fa
:040090001404000054
:020000040000fa
:040094001404000050
:020000040000fa
:04009800140400004c
:020000040000fa
:04009c001404000048
:020000040000fa
:0400a0001404000044
:020000040000fa
:0400a4001404000040
:020000040000fa
:0400a800140400003c
:020000040000fa
:0400ac001404000038
:020000040000fa
:0400b0001404000034
:020000040000fa
:0400b4001404000030
:020000040000fa
:0400b800140400002c
:020000040000fa
:0400bc001404000028
:020000040000fa
:0400c0001404000024
:020000040000fa
:0400c4001404000020
:020000040000fa
:0400c800140400001c
:020000040000fa
:0400cc001404000018
:020000040000fa
:0400d0001404000014
:020000040000fa
:0400d4001404000010
:020000040000fa
:0400d800140400000c
:020000040000fa
:0400dc001404000008
:020000040000fa
:0400e0001404000004
:020000040000fa
:0400e4001404000000
:020000040000fa
:0400e80014040000fc
:020000040000fa
:0400ec0014040000f8
:020000040000fa
:0400f00014040000f4
:020000040000fa
:0400f40014040000f0
:020000040000fa
:0400f80014040000ec
:020000040000fa
:0400fc0014040000e8
:020000040000fa
:0401000014040000e3
:020000040000fa
:0401040014040000df
:020000040000fa
:0401080014040000db
:020000040000fa
:04010c0014040000d7
:020000040000fa
:0401100014040000d3
:020000040000fa
:0401140014040000cf
:020000040000fa
:0401180014040000cb
:020000040000fa
:04011c0014040000c7
:020000040000fa
:0401200014040000c3
:020000040000fa
:0401240014040000bf
:020000040000fa
:0401280014040000bb
:020000040000fa
:04012c0014040000b7
:020000040000fa
:0401300014040000b3
:020000040000fa
:0401340014040000af
:020000040000fa
:0401380014040000ab
:020000040000fa
:04013c0014040000a7
:020000040000fa
:0401400014040000a3
:020000040000fa
:04014400140400009f
:020000040000fa
:04014800140400009b
:020000040000fa
:04014c001404000097
:020000040000fa
:040150001404000093
:020000040000fa
:04015400140400008f
:020000040000fa
:04015800140400008b
:020000040000fa
:04015c001404000087
:020000040000fa
:040160001404000083
:020000040000fa
:04016400140400007f
:020000040000fa
:04016800140400007b
:020000040000fa
:04016c001404000077
:020000040000fa
:040170001404000073
:020000040000fa
:04017400140400006f
:020000040000fa
:04017800140400006b
:020000040000fa
:04017c001404000067
:020000040000fa
:040180001404000063
:020000040000fa
:04018400140400005f
:020000040000fa
:04018800140400005b
:020000040000fa
:04018c001404000057
:020000040000fa
:040190001404000053
:020000040000fa
:04019400140400004f
:020000040000fa
:04019800140400004b
:020000040000fa
:04019c001404000047
:020000040000fa
:0401a0001404000043
:020000040000fa
:0401a400140400003f
:020000040000fa
:0401a800140400003b
:020000040000fa
:0401ac001404000037
:020000040000fa
:0401b0001404000033
:020000040000fa
:0401b400140400002f
:020000040000fa
:0401b800140400002b
:020000040000fa
:0401bc001404000027
:020000040000fa
:0401c0001404000023
:020000040000fa
:0401c400140400001f
:020000040000fa
:0401c800140400001b
:020000040000fa
:0401cc001404000017
:020000040000fa
:0401d0001404000013
:020000040000fa
:0401d400140400000f
:020000040000fa
:0401d800140400000b
:020000040000fa
:0401dc001404000007
:020000040000fa
:0401e0001404000003
:020000040000fa
:0401e40014040000ff
:020000040000fa
:0401e80014040000fb
:020000040000fa
:0401ec0014040000f7
:020000040000fa
:0401f00014040000f3
:020000040000fa
:0401f40014040000ef
:020000040000fa
:0401f80014040000eb
:020000040000fa
:0401fc0014040000e7
:020000040000fa
:0402000014040000e2
:020000040000fa
:0402040014040000de
:020000040000fa
:0402080014040000da
:020000040000fa
:04020c0014040000d6
:020000040000fa
:0402100014040000d2
:020000040000fa
:0402140014040000ce
:020000040000fa
:0402180014040000ca
:020000040000fa
:04021c0014040000c6
:020000040000fa
:04022000fa020000de
:020000040000fa
:0402240014040000be
:020000040000fa
:0402280014040000ba
:020000040000fa
:04022c0014040000b6
:020000040000fa
:0402300014040000b2
:020000040000fa
:0402340014040000ae
:020000040000fa
:0402380014040000aa
:020000040000fa
:04023c0014040000a6
:020000040000fa
:0402400014040000a2
:020000040000fa
:04024400140400009e
:020000040000fa
:04024800140400009a
:020000040000fa
:04024c001404000096
:020000040000fa
:040250001404000092
:020000040000fa
:04025400140400008e
:020000040000fa
:04025800140400008a
:020000040000fa
:04025c001404000086
:020000040000fa
:040260001404000082
:020000040000fa
:04026400140400007e
:020000040000fa
:04026800140400007a
:020000040000fa
:04026c001404000076
:020000040000fa
:040270001404000072
:020000040000fa
:04027400140400006e
:020000040000fa
:04027800140400006a
:020000040000fa
:04027c001404000066
:020000040000fa
:040280001404000062
:020000040000fa
:04028400140400005e
:020000040000fa
:04028800140400005a
:020000040000fa
:04028c001404000056
:020000040000fa
:040290001404000052
:020000040000fa
:04029400140400004e
:020000040000fa
:04029800140400004a
:020000040000fa
:04029c001404000046
:020000040000fa
:0402a0001404000042
:020000040000fa
:0402a400140400003e
:020000040000fa
:0402a800140400003a
:020000040000fa
:0402ac001404000036
:020000040000fa
:0402b0001404000032
:020000040000fa
:0402b400140400002e
:020000040000fa
:0402b800140400002a
:020000040000fa
:0402bc001404000026
:020000040000fa
:0402c0001404000022
:020000040000fa
:0402c400140400001e
:020000040000fa
:0402c800140400001a
:020000040000fa
:0402cc001404000016
:020000040000fa
:0402d0001404000012
:020000040000fa
:0402d400140400000e
:020000040000fa
:0402d800140400000a
:020000040000fa
:0402dc001404000006
:020000040000fa
:0402e0001404000002
:020000040000fa
:0402e40014040000fe
:020000040000fa
:0402e80014040000fa
:020000040000fa
:0402ec0014040000f6
:020000040000fa
:0402f00014040000f2
:020000040000fa
:0402f40014040000ee
:020000040000fa
:0402f80014040000ea
:020000040000fa
:0402fc0014040000e6
:020000040000fa
:0403000014040000e1
:020000040000fa
:0403040014040000dd
:020000040000fa
:0403080014040000d9
:020000040000fa
:04030c0014040000d5
:020000040000fa
:0403100014040000d1
:020000040000fa
:0403140014040000cd
:020000040000fa
:0403180014040000c9
:020000040000fa
:04031c0014040000c5
:020000040000fa
:0403200014040000c1
:020000040000fa
:0403240014040000bd
:020000040000fa
:0403280014040000b9
:020000040000fa
:04032c0014040000b5
:020000040000fa
:0403300014040000b1
:020000040000fa
:0403340014040000ad
:020000040000fa
:100400002f0221000eff26000e01880000000000d0
:10041000000020000000e000020032000001200087
:100420002002880014000700010107000000e0001e
:1004300003003a006096200001002000020037000f
:100440000000200001002000810f70000100320038
:100450000f000700000020000000e0000200320052
:100460000000020000000000b607020000000000cb
:100470000040da000000fe00200020000000e00044
:1004800002003200100020009001880000000600e9
:10049000a1028800800478000000eb001f003700f4
:1004a000e284440054a0b4009905ba00e2844400f8
:1004b00054a0b4009906ba00e284440054a0b400e9
:1004c0000006eb00476fde00fd07b200ae018800ba
:1004d000636ce10003003a000ad801000000eb0061
:1004e0000e003700606ce10008003a00004deb00a0
:1004f0000a05e800020039003420ec000af0a000f0
:100500008b05e900f9ff3e00040037006168e10057
:10051000010032000086eb000b00070019c7ba008b
:100520001905ba000e04e00003003a000a00e000da
:10053000dbff3a0000000600fe07b200ae028800b2
:100540008a047800f5ff37000cd0a300e20f4d00bd
:100550001c00390089027800354dba000a05e80010
:10056000020039003420ec000af0a0008b05e900fd
:100570000f003200254dba000a05e80002003900dc
:100580003420ec000af0a0008b05e90008003200de
:100590000c00e0000600320015cdba000a05e800a4
:1005a000020039003420ec000af0a0008b05e900bd
:1005b0008984e80054a0b4000b00e000e2ff3a0098
:1005c000000006009902ba00055d78008b05e9007d
:1005d000f7ff3200c82ade00055d78008b05e900d0
:1005e000f3ff32000c00e000f1ff320019ddba0029
:1005f000eeff37003200f8003400f800881f780062
:1006000018002000a8018800180020009801880028
:100610004f0478000000fa003fcea8003faea900ca
:100620000080fa003400f9003200f90000400600b2
:100630003600f800809fbe00829fbe00849fbe00ef
:10064000869fbe000000fa00c028a9000000eb0051
:10065000090307000080fa004f03be004f02be00ee
:100660004f01be004f00be003600f90000400600fa
:100670003600f800809fbe00829fbe00849fbe00af
:10068000869fbe000000fa0000030700c048a900d2
:1006900010002000f80207000080fa004f03be009f
:1006a0004f02be004f01be004f00be003600f900f1
:1006b000004006003600f800809fbe00829fbe000a
:1006c000849fbe00869fbe000000fa00c068a9009b
:1006d00020002000e80207000080fa004f03be005f
:1006e0004f02be004f01be004f00be003600f900b1
:1006f000004006003600f800809fbe00829fbe00ca
:10070000849fbe00869fbe000000fa00c088a9003a
:1007100030002000d80207000080fa004f03be001e
:100720004f02be004f01be004f00be003600f90070
:10073000004006003600f800809fbe00829fbe0089
:10074000849fbe00869fbe000000fa00c608a90074
:1007500070002000c80207000080fa004f03be00ae
:100760004f02be004f01be004f00be003600f90030
:10077000004006003600f800809fbe00829fbe0049
:10078000849fbe00869fbe000000fa0021468000c4
:1007900000102000008060000000e0000300320034
:1007a000c508a900c0002000b30207002146800050
:1007b00000002800008060000000e000030032001c
:1007c000c5e8a90080002000ab0207002146800098
:1007d00000022000008060000000e0000300320002
:1007e000c4a8a90090002000a302070020468000b2
:1007f000700060000000e00003003200c488a9001f
:10080000a00020009c0207002046800061006000dc
:100810000000e00003003200c408a900b00020007e
:1008200095020700ffff37000040da000000fe00dd
:100830000000050014002000020037006011b8001d
:100840001b003700889fbe008a9fbe00841f78006f
:100850006c0007004f00780011003300f0ff2f00fc
:10086000838f6c0006003b00040565000a00a700aa
:100870000800370009f0a60010002000080037002b
:10088000820f5400838f5c000300390010002000a9
:1008900001003e000000200009f0a7000000ea006f
:1008a0004f05be004f04be000000e000000006003f
:1008b000889fbe008a9fbe00008270000402710003
:1008c00004827100260032000004be000200be0057
:1008d0006011b8006b092000950220000182cf0052
:1008e0000a0039000541b1000082cf00070039003d
:1008f0000541b1000982cf00040039000541b10073
:100900000882cf00010039000541b10005425200c4
:10091000120032000a003b00828171006101640014
:100920008100d1000080d3008984d3000884d300e3
:100930008b05e8000442e800f7ff3a0007003700a3
:100940000804440089844c0000004800818048006d
:100950008b05e9000442e900f9ff3a0003000700b3
:100960004f05be004f04be000000060081002000bd
:10097000618055000b003d000b00200061fe2f0040
:100980000100e1001d0034008281710061016400fa
:100990008904d1000884d3000000e800faff3a007f
:1009a000710020006100640003007000020060001c
:1009b0000900320061044400e0844c000988a5006d
:1009c000050032008b05e8006808e10002003a00eb
:1009d0008904d1000884d300f20f20000258e100fe
:1009e00005003d00c75ddd00f907b2008980750094
:1009f00008007800000006000bf827008b00780044
:100a0000000005000004be00060007000003be0051
:100a10000405be000200be0002000700844f7500fe
:100a200000000600c70ade00f107b200f50fb200b1
:100a300008003200e1cf4200020032000170a00045
:100a400024000500810f7000010032000408050039
:100a500044000500810f700002003a0014000500f8
:100a60008502e9000000400081c04800fcff3b0017
:080a70000170a0002400050044
:020000040000fa
:100a78000000fa00ae22ef00b022ef00b422ef002f
:100a8800bc22ef00c022ef00c222ef00c422ef0018
:100a9800c622ef001000280060158800ade2a8000b
:100aa8000080fa00000006000400fa00000f780039
:100ab8001107980000000000a01580006200600087
:100ac8000000e000fcff3a001e00780010407800ab
:100ad8000080fb00c015880000000000a115800000
:100ae80000022000008060000000e000fbff3a00e8
:100af800c0158000804078001e00900001487800f2
:100b08000080fa00000006001800fa00100f980094
:100b1800210f9800320f98000000eb00000f7800ba
:100b28000000eb00100798000000eb007007980029
:100b38000000eb00000f98001000200060079800ec
:100b48001e0890000000e00005003a000000eb00dd
:100b580050079800700047002007980004003700ed
:100b6800ee009000510798009e0890002107980019
:100b78003e0890000000e00005003a000000eb008d
:100b8800400798006e0047003007980005003700be
:100b9800ee00900041079800be08900031079800c9
:100ba80000000000a0158000620060000000e00066
:100bb800fcff3a001d003700a015800062006000ad
:100bc8000000e00009003a002e0090001040780074
:100bd8000080fb00c0158800ae0090005e00900009
:100be80000804000200798001e0fe800a115800033
:100bf80000022000008060000000e0000b003a00c6
:100c0800c0158000804078003e00900001487800c0
:100c1800be0090004e009000008040003007980011
:100c28001e0090000000e800100798002e089000b1
:100c38009e007800808f5000dfff390010003700d9
:100c4800a115800000022000008060000000e00084
:100c58000b003a00c0158000804078003e009000ec
:100c680001487800be0090004e00900000804000cf
:100c7800300798001e0090000000e8001007980058
:100c88009e0090002e089000808f5000ecff3900e5
:100c98001e0078000080fa00000006000400fa0038
:100ca800204798000e80e8008e0078007eff07003d
:100cb8001e4078000080fa00000006000600fa00d6
:100cc800000f780011079800220798002e01900065
:100cd8009e0090001e0078008bff07000080fa003d
:100ce800000006000000fa00611580000080200066
:100cf800008060000000e0000200320020002000b8
:100d08000800370061158000004020000080600066
:100d18000000e0000200320010002000010037004f
:100d28000000eb000080fa00000006000000fa0056
:100d3800a01580000080fa00000006000000fa00fc
:100d4800007c80000080fa00000006000200fa0023
:100d5800faff0700000f78001e0078002400070043
:100d68000004e000020032000000280071000700c3
:100d78001e0078002a0007000004e000020032008c
:100d8800000024006b0007001e00780032000700f6
:100d98000004e00002003200002020006500070087
:100da8001e0078003a0007000004e000020032004c
:100db800000820005f0007001e00780042000700be
:100dc8000004e0000200320000042000590007007f
:100dd8001e0078004a0007000004e000020032000c
:100de80000012000530007000080fa000000060000
:100df8000400fa00100798000040eb00004f78004c
:100e08001e0090000000e00002003d0010c0b3008a
:100e1800004f78001e4078000080fa0000000600ad
:100e28000400fa00100798000040eb00004f78001b
:100e38009e00900000002400008060000000e00098
:100e48000200320010c0b300004f78001e40780046
:100e58000080fa00000006000400fa00100798005d
:100e68000040eb00004f78009e009000002020001a
:100e7800008060000000e0000200320010c0b300f3
:100e8800004f78001e4078000080fa00000006003d
:100e98000400fa00100798000040eb00004f7800ab
:100ea8009e00900000082000008060000000e00024
:100eb8000200320010c0b300004f78001e407800d6
:100ec8000080fa00000006000400fa0010079800ed
:100ed8000040eb00004f78009e00900000042000c6
:100ee800008060000000e0000200320010c0b30083
:100ef800004f78001e4078000080fa0000000600cd
:100f08000400fa00100798000040eb00004f78003a
:100f18001e009000700060000000e0000200320037
:100f280010c0b300004f78001e4078000080fa001f
:100f3800000006000200fa00000f78009e80ea0018
:100f4800007c800000806000007c88000080fa003f
:100f5800000006000000fa00802fef000080fa0071
:100f6800000006000a00fa00881f7800b600070093
:100f78003b8ea9003baea9003bcea9003fcea900fd
:100f88003faea8003f8ea8000000eb0020079800a5
:100f98000000eb00300798000000eb0040079800c5
:100fa8006000b800008fbe00a00a2000200798004b
:100fb800ba22ef00b822ef002128a8000fc8a80025
:100fc800ade2a800ad62a900ad42a900ad02a9003a
:100fd800ace2a900acc2a900aca2a900aee2a9008b
:100fe800c002a80001003700000000006000b8003f
:100ff800008fbe000500370000000000120020002e
:10100800030020001e0f41005e9749001e00be002d
:1010180008fe070018c0b3000280280003692400f6
:1010280002fe07000000e000010035000044eb006c
:101038000804e000f0ff3a00014080000020200092
:10104800008060000000e000e7ff32003fcea8000b
:101058003f8ea900e5ff37000000fa00062eef00da
:10106800222eef003e2eef005a2eef00f001200056
:101078001070880090ff2f00f07088000080eb004f
:10108800d07188000080eb00b07288000c2eef0051
:10109800282eef00442eef00602eef000a2eef00fe
:1010a800262eef00422eef005e2eef00082eef00f6
:1010b800242eef00402eef005c2eef00f001200000
:1010c80000708800d0092000e0708800f00420003b
:1010d800c071880000002200a07288000000eb00a8
:1010e80051052000b1468800a10a2000b1468800b9
:1010f8000068880070c3b3002cedb700a0c4b3002b
:101108002dedb7005100200050210a00820d00008b
:10111800b0c4b3002eedb7000080200051052000b8
:10112800b1468800a10a2000b146880000688800fe
:101138000080fa00000006000000fa0010002300fa
:10114800307c880060092000407c88008c2fef00ec
:1011580010042000507c880010102800707c880043
:10116800d0072000807c880010022000907c880036
:10117800b82fef00ba2fef00be2fef00002def00c1
:10118800a02fef00a42fef00a62fef00a82fef004d
:10119800aa2fef00ae2fef00b02fef00b22fef0015
:1011a8007200200080072000a109200053f82000c9
:1011b8008049780081497800824978000001eb0075
:1011c800600420007105200043f820008049780061
:1011d80081497800824978000080fa000000060002
:1011e8000000fa00eea00a008e0f00000080fb004d
:1011f80000f0a7000000ea000000ea004f00de004f
:10120800004078000080fa00000006000200fa00a2
:10121800000f780021028000200f2000008060006d
:101228001e007000200288000080fa0000000600fe
:101238000000fa00c3e8a800000000000000000059
:101248000080fa00000006000000fa0082ff070094
:1012580013000700b8ff070005fe0700f4ff0700aa
:1012680000022000e9ff07000080fa0000000600e5
:101278000200fa00000f78009e00780001808800c4
:10128800ffff37000000fa002000210080077800e7
:10129800a0012100000188000080fa00000006007b
:1012a8000000fa001100200064210a004408000030
:1012b8000128a9002128a8000fc8a8000080fa006a
:0412c800000006001c
:020000040000fa
:1012cc000210000020000000800000000010000050
:1012dc000200000082000000ffff00000000000080
:020000040000fa
:020000040005f5
:047e0000ffff000080
:020000040000fa
:020000040005f5
:047e2000ffffff0061
:020000040000fa
:020000040005f5
:047e30007fffff00d1
:020000040000fa
:020000040005f5
:047e3800bbffff008d
:020000040000fa
:020000040005f5
:047e40006003ff00dc
:020000040000fa
:020000040005f5
:047e4800ffffff0039
:020000040000fa
:020000040005f5
:047e5000dfffff0051
:020000040000fa
:020000040005f5
:047e58000000ff0027
:020000040000fa
:020000040005f5
:047e60000000ff001f
:020000040000fa
:020000040005f5
:047e68000000ff0017
:020000040000fa
:020000040005f5
:047e70000000ff000f
:020000040000fa
:020000040005f5
:047e7800ffffff0009
:020000040000fa
:020000040005f5
:047e8000fffcff0004
:020000040000fa
:020000040005f5
:047e8800ffffff00f9
:020000040000fa
:020000040005f5
:047ff800ffffff0088
:020000040000fa
:020000040100f9
:04300000ffffff00cf
:00000001FF
