:020000040000fa
:080000000002040000000000f2
:020000040000fa
:04000800fa020000f8
:020000040000fa
:04000c000c030000e1
:020000040000fa
:040010001c030000cd
:020000040000fa
:0400140002030000e3
:020000040000fa
:0400180014030000cd
:020000040000fa
:04001c002c030000b1
:020000040000fa
:0400200024030000b5
:020000040000fa
:040024002c030000a9
:020000040000fa
:040028002c030000a5
:020000040000fa
:04002c002c030000a1
:020000040000fa
:040030002c0300009d
:020000040000fa
:040034002c03000099
:020000040000fa
:040038002c03000095
:020000040000fa
:04003c002c03000091
:020000040000fa
:040040002c0300008d
:020000040000fa
:040044002c03000089
:020000040000fa
:040048002c03000085
:020000040000fa
:04004c002c03000081
:020000040000fa
:040050002c0300007d
:020000040000fa
:040054002c03000079
:020000040000fa
:040058002c03000075
:020000040000fa
:04005c002c03000071
:020000040000fa
:040060002c0300006d
:020000040000fa
:040064002c03000069
:020000040000fa
:040068002c03000065
:020000040000fa
:04006c002c03000061
:020000040000fa
:040070002c0300005d
:020000040000fa
:040074002c03000059
:020000040000fa
:040078002c03000055
:020000040000fa
:04007c002c03000051
:020000040000fa
:040080002c0300004d
:020000040000fa
:040084002c03000049
:020000040000fa
:040088002c03000045
:020000040000fa
:04008c002c03000041
:020000040000fa
:040090002c0300003d
:020000040000fa
:040094002c03000039
:020000040000fa
:040098002c03000035
:020000040000fa
:04009c002c03000031
:020000040000fa
:0400a0002c0300002d
:020000040000fa
:0400a4002c03000029
:020000040000fa
:0400a8002c03000025
:020000040000fa
:0400ac002c03000021
:020000040000fa
:0400b0002c0300001d
:020000040000fa
:0400b4002c03000019
:020000040000fa
:0400b8002c03000015
:020000040000fa
:0400bc002c03000011
:020000040000fa
:0400c0002c0300000d
:020000040000fa
:0400c4002c03000009
:020000040000fa
:0400c8002c03000005
:020000040000fa
:0400cc002c03000001
:020000040000fa
:0400d0002c030000fd
:020000040000fa
:0400d4002c030000f9
:020000040000fa
:0400d8002c030000f5
:020000040000fa
:0400dc002c030000f1
:020000040000fa
:0400e0002c030000ed
:020000040000fa
:0400e4002c030000e9
:020000040000fa
:0400e8002c030000e5
:020000040000fa
:0400ec002c030000e1
:020000040000fa
:0400f0002c030000dd
:020000040000fa
:0400f4002c030000d9
:020000040000fa
:0400f8002c030000d5
:020000040000fa
:0400fc002c030000d1
:020000040000fa
:040100002c030000cc
:020000040000fa
:040104002c030000c8
:020000040000fa
:040108002c030000c4
:020000040000fa
:04010c002c030000c0
:020000040000fa
:040110002c030000bc
:020000040000fa
:040114002c030000b8
:020000040000fa
:040118002c030000b4
:020000040000fa
:04011c002c030000b0
:020000040000fa
:040120002c030000ac
:020000040000fa
:040124002c030000a8
:020000040000fa
:040128002c030000a4
:020000040000fa
:04012c002c030000a0
:020000040000fa
:040130002c0300009c
:020000040000fa
:040134002c03000098
:020000040000fa
:040138002c03000094
:020000040000fa
:04013c002c03000090
:020000040000fa
:040140002c0300008c
:020000040000fa
:040144002c03000088
:020000040000fa
:040148002c03000084
:020000040000fa
:04014c002c03000080
:020000040000fa
:040150002c0300007c
:020000040000fa
:040154002c03000078
:020000040000fa
:040158002c03000074
:020000040000fa
:04015c002c03000070
:020000040000fa
:040160002c0300006c
:020000040000fa
:040164002c03000068
:020000040000fa
:040168002c03000064
:020000040000fa
:04016c002c03000060
:020000040000fa
:040170002c0300005c
:020000040000fa
:040174002c03000058
:020000040000fa
:040178002c03000054
:020000040000fa
:04017c002c03000050
:020000040000fa
:040180002c0300004c
:020000040000fa
:040184002c03000048
:020000040000fa
:040188002c03000044
:020000040000fa
:04018c002c03000040
:020000040000fa
:040190002c0300003c
:020000040000fa
:040194002c03000038
:020000040000fa
:040198002c03000034
:020000040000fa
:04019c002c03000030
:020000040000fa
:0401a0002c0300002c
:020000040000fa
:0401a4002c03000028
:020000040000fa
:0401a8002c03000024
:020000040000fa
:0401ac002c03000020
:020000040000fa
:0401b0002c0300001c
:020000040000fa
:0401b4002c03000018
:020000040000fa
:0401b8002c03000014
:020000040000fa
:0401bc002c03000010
:020000040000fa
:0401c0002c0300000c
:020000040000fa
:0401c4002c03000008
:020000040000fa
:0401c8002c03000004
:020000040000fa
:0401cc002c03000000
:020000040000fa
:0401d0002c030000fc
:020000040000fa
:0401d4002c030000f8
:020000040000fa
:0401d8002c030000f4
:020000040000fa
:0401dc002c030000f0
:020000040000fa
:0401e0002c030000ec
:020000040000fa
:0401e4002c030000e8
:020000040000fa
:0401e8002c030000e4
:020000040000fa
:0401ec002c030000e0
:020000040000fa
:0401f0002c030000dc
:020000040000fa
:0401f4002c030000d8
:020000040000fa
:0401f8002c030000d4
:020000040000fa
:0401fc002c030000d0
:020000040000fa
:040200002c030000cb
:020000040000fa
:040204002c030000c7
:020000040000fa
:040208002c030000c3
:020000040000fa
:04020c002c030000bf
:020000040000fa
:040210002c030000bb
:020000040000fa
:040214002c030000b7
:020000040000fa
:040218002c030000b3
:020000040000fa
:04021c002c030000af
:020000040000fa
:040220002c030000ab
:020000040000fa
:040224002c030000a7
:020000040000fa
:040228002c030000a3
:020000040000fa
:04022c002c0300009f
:020000040000fa
:040230002c0300009b
:020000040000fa
:040234002c03000097
:020000040000fa
:040238002c03000093
:020000040000fa
:04023c002c0300008f
:020000040000fa
:040240002c0300008b
:020000040000fa
:040244002c03000087
:020000040000fa
:040248002c03000083
:020000040000fa
:04024c002c0300007f
:020000040000fa
:040250002c0300007b
:020000040000fa
:040254002c03000077
:020000040000fa
:040258002c03000073
:020000040000fa
:04025c002c0300006f
:020000040000fa
:040260002c0300006b
:020000040000fa
:040264002c03000067
:020000040000fa
:040268002c03000063
:020000040000fa
:04026c002c0300005f
:020000040000fa
:040270002c0300005b
:020000040000fa
:040274002c03000057
:020000040000fa
:040278002c03000053
:020000040000fa
:04027c002c0300004f
:020000040000fa
:040280002c0300004b
:020000040000fa
:040284002c03000047
:020000040000fa
:040288002c03000043
:020000040000fa
:04028c002c0300003f
:020000040000fa
:040290002c0300003b
:020000040000fa
:040294002c03000037
:020000040000fa
:040298002c03000033
:020000040000fa
:04029c002c0300002f
:020000040000fa
:0402a0002c0300002b
:020000040000fa
:0402a4002c03000027
:020000040000fa
:0402a8002c03000023
:020000040000fa
:0402ac002c0300001f
:020000040000fa
:0402b0002c0300001b
:020000040000fa
:0402b4002c03000017
:020000040000fa
:0402b8002c03000013
:020000040000fa
:0402bc002c0300000f
:020000040000fa
:0402c0002c0300000b
:020000040000fa
:0402c4002c03000007
:020000040000fa
:0402c8002c03000003
:020000040000fa
:0402cc002c030000ff
:020000040000fa
:0402d0002c030000fb
:020000040000fa
:0402d4002c030000f7
:020000040000fa
:0402d8002c030000f3
:020000040000fa
:0402dc002c030000ef
:020000040000fa
:0402e0002c030000eb
:020000040000fa
:0402e4002c030000e7
:020000040000fa
:0402e8002c030000e3
:020000040000fa
:0402ec002c030000df
:020000040000fa
:0402f0002c030000db
:020000040000fa
:0402f4002c030000d7
:020000040000fa
:0402f8002c030000d3
:020000040000fa
:0402fc002c030000cf
:020000040000fa
:040300002c030000ca
:020000040000fa
:040304002c030000c6
:020000040000fa
:040308002c030000c2
:020000040000fa
:04030c002c030000be
:020000040000fa
:040310002c030000ba
:020000040000fa
:040314002c030000b6
:020000040000fa
:040318002c030000b2
:020000040000fa
:04031c002c030000ae
:020000040000fa
:040320002c030000aa
:020000040000fa
:040324002c030000a6
:020000040000fa
:040328002c030000a2
:020000040000fa
:04032c002c0300009e
:020000040000fa
:040330002c0300009a
:020000040000fa
:040334002c03000096
:020000040000fa
:100400002f0221000eff26000e01880000000000d0
:10041000000020000000e000020032000001200087
:1004200020028800140007008d0007000000e00093
:1004300003003a00c06620000100200002003700df
:100440000000200001002000810f70000100320038
:100450000f000700000020000000e0000200320052
:1004600000000200000000007c0602000000000006
:100470000040da000000fe00200020000000e00044
:1004800002003200100020009001880000000600e9
:10049000a1028800800478000000eb001f003700f4
:1004a000e284440054a0b4009905ba00e2844400f8
:1004b00054a0b4009906ba00e284440054a0b400e9
:1004c0000006eb00476fde00fd07b200ae018800ba
:1004d000636ce10003003a000ad801000000eb0061
:1004e0000e003700606ce10008003a00004deb00a0
:1004f0000a05e800020039003420ec000af0a000f0
:100500008b05e900f9ff3e00040037006168e10057
:10051000010032000086eb000b00070019c7ba008b
:100520001905ba000e04e00003003a000a00e000da
:10053000dbff3a0000000600fe07b200ae028800b2
:100540008a047800f5ff37000cd0a300e20f4d00bd
:100550001c00390089027800354dba000a05e80010
:10056000020039003420ec000af0a0008b05e900fd
:100570000f003200254dba000a05e80002003900dc
:100580003420ec000af0a0008b05e90008003200de
:100590000c00e0000600320015cdba000a05e800a4
:1005a000020039003420ec000af0a0008b05e900bd
:1005b0008984e80054a0b4000b00e000e2ff3a0098
:1005c000000006009902ba00055d78008b05e9007d
:1005d000f7ff3200c82ade00055d78008b05e900d0
:1005e000f3ff32000c00e000f1ff320019ddba0029
:1005f000eeff37003600f800c028a9000000eb002d
:10060000aa0107003600f800ac010700c048a900a5
:1006100010002000a50107003600f800c068a900fe
:1006200020002000a10107003600f800c088a900c2
:10063000300020009d0107003600f800c608a90020
:1006400070002000990107003600f800c408a900d6
:10065000b0002000950107000040da000000fe0015
:040660000000050091
:020000040000fa
:100664000000fa0030002000001888000223ef0088
:100674000423ef000623ef000823ef00000120000d
:10068400501888000c23ef000e23ef001023ef0016
:100694001223ef001423ef001623ef001823ef00ba
:1006a4001a23ef001c23ef001e23ef002023ef008a
:1006b4002223ef002423ef002623ef002823ef005a
:1006c4000424ef000624ef000824ef00c0012000fa
:1006d400502088000c24ef000e24ef001024ef00bb
:1006e4001224ef001424ef001624ef001824ef0066
:1006f4001a24ef001c24ef001e24ef002024ef0036
:100704002224ef002424ef008012200030218800ee
:100714002824ef0080242000502188002c24ef009e
:100724002e24ef003024ef003224ef003424ef00b5
:1007340080082000102088000080fa0000000600d5
:100744000000fa000080fa00000006000000fa0031
:100754004140800000082000008060000000e000ac
:1007640002003200f6ff070008e8a9000080fa0042
:10077400000006000000fa000080fa0000000600f5
:100784000000fa00a14080000020200000806000ea
:100794000000e00002003200f6ff07001528a9005f
:1007a4000080fa00000006000000fa000080fa0051
:1007b400000006000000fa00a14080000040200074
:1007c400008060000000e00002003200f6ff070035
:1007d4001548a9000080fa00000006000000fa0095
:1007e4000080fa00000006000000fa00a14080002a
:1007f40000802000008060000000e0000200320061
:10080400f6ff07001568a9000080fa000000060042
:100814000000fa000080fa00000006000000fa0060
:10082400a140800000002100008060000000e00082
:1008340002003200f6ff07001588a9000080fa00c4
:10084400000006000000fa000080fa000000060024
:100854000000fa00a1408000000022000080600037
:100864000000e00002003200f6ff070015a8a9000e
:100874000080fa00000006000000fa000080fa0080
:10088400000006000000fa00a140800000002400df
:10089400008060000000e00002003200f6ff070064
:1008a40015c8a9000080fa00000006000000fa0044
:1008b400007c80000080fa00000006000200fa00bc
:1008c400faff0700000f78001e00780024000700dc
:1008d4000004e0000200320000002800710007005c
:1008e4001e0078002a0007000004e0000200320025
:1008f400000024006b0007001e007800320007008f
:100904000004e0000200320000202000650007001f
:100914001e0078003a0007000004e00002003200e4
:10092400000820005f0007001e0078004200070056
:100934000004e00002003200000420005900070017
:100944001e0078004a0007000004e00002003200a4
:1009540000012000530007000080fa000000060098
:100964000400fa00100798000040eb00004f7800e4
:100974001e0090000000e00002003d0010c0b30023
:10098400004f78001e4078000080fa000000060046
:100994000400fa00100798000040eb00004f7800b4
:1009a4009e00900000002400008060000000e00031
:1009b4000200320010c0b300004f78001e407800df
:1009c4000080fa00000006000400fa0010079800f6
:1009d4000040eb00004f78009e00900000202000b3
:1009e400008060000000e0000200320010c0b3008c
:1009f400004f78001e4078000080fa0000000600d6
:100a04000400fa00100798000040eb00004f780043
:100a14009e00900000082000008060000000e000bc
:100a24000200320010c0b300004f78001e4078006e
:100a34000080fa00000006000400fa001007980085
:100a44000040eb00004f78009e009000000420005e
:100a5400008060000000e0000200320010c0b3001b
:100a6400004f78001e4078000080fa000000060065
:100a74000400fa00100798000040eb00004f7800d3
:100a84001e009000700060000000e00002003200d0
:100a940010c0b300004f78001e4078000080fa00b8
:100aa400000006000200fa00000f78009e80ea00b1
:100ab400007c800000806000007c88000080fa00d8
:100ac400000006000000fa00802fef000080fa000a
:100ad400000006000000fa0010002300307c8800ab
:100ae40060092000407c88008c2fef001004200057
:100af400507c880010102800707c8800d0072000eb
:100b0400807c880010022000907c8800b82fef00c1
:100b1400ba2fef00002def00a02fef00a42fef005d
:100b2400a62fef00a82fef00aa2fef00ae2fef00a3
:100b3400b02fef00b22fef007200200080072000da
:100b4400a109200053f820008049780081497800e9
:100b5400824978000001eb00600420007105200048
:100b640043f8200080497800814978008249780060
:100b74000080fa00000006000000fa00062eef00d4
:100b8400222eef003e2eef005a2eef00f00120003f
:100b940010708800d0ff2f00f0708800f0fc2f0048
:100ba400d07188000080eb00b07288000c2eef003a
:100bb400282eef00442eef00602eef000a2eef00e7
:100bc400262eef00422eef005e2eef00082eef00df
:100bd400242eef00402eef005c2eef00f0012000e9
:100be40000708800d0092000e0708800f00c20001c
:100bf400c071880000c02200a07288000080fa0042
:100c0400000006000200fa00000f780021028000b4
:100c1400200f2000008060001e0070002002880069
:100c24000080fa00000006000000fa00c3e8a800f3
:100c340000000000000000000080fa000000060030
:100c44000000fa00ccff0700a2ff07002c000700f9
:100c540083fe0700f4ff070000022000e9ff0700fd
:100c64000080fa00000006000000fa0099ff070067
:100c74000080fa00000006000000fa00007c8000fa
:100c84000080fa00000006000000fa000bff0700d5
:100c94000080fa00000006000000fa0089ff070047
:100ca4000080fa0000000600000f78009e00780023
:100cb40001808800ffff37000000fa0020002100b7
:100cc40080077800a0012100000188000080fa005c
:040cd4000000060016
:020000040000fa
:100cd800021000002000000080000000001000004a
:100ce8000200000082000000ffff0000000000007a
:020000040000fa
:100cf8000000fa00d1ff0700ffff37000000fa00ec
:080d08000080fa000000060063
:020000040000fa
:020000040005f5
:047e0000ffff000080
:020000040000fa
:020000040005f5
:047e2000ffffff0061
:020000040000fa
:020000040005f5
:047e30007fffff00d1
:020000040000fa
:020000040005f5
:047e3800bfffff0089
:020000040000fa
:020000040005f5
:047e40007f7fff0041
:020000040000fa
:020000040005f5
:047e4800ffffff0039
:020000040000fa
:020000040005f5
:047e5000dfffff0051
:020000040000fa
:020000040005f5
:047e58000000ff0027
:020000040000fa
:020000040005f5
:047e60000000ff001f
:020000040000fa
:020000040005f5
:047e68000000ff0017
:020000040000fa
:020000040005f5
:047e70000000ff000f
:020000040000fa
:020000040005f5
:047e7800ffffff0009
:020000040000fa
:020000040005f5
:047e8000fffcff0004
:020000040000fa
:020000040005f5
:047e8800ffffff00f9
:020000040000fa
:020000040005f5
:047ff800ffffff0088
:020000040000fa
:020000040100f9
:04300000ffffff00cf
:00000001FF
