:020000040000fa
:080000000002040000000000f2
:020000040000fa
:04000800d40400001c
:020000040000fa
:04000c00d404000018
:020000040000fa
:04001000d404000014
:020000040000fa
:04001400d404000010
:020000040000fa
:04001800d40400000c
:020000040000fa
:04001c00d404000008
:020000040000fa
:04002000d404000004
:020000040000fa
:04002400d404000000
:020000040000fa
:04002800d4040000fc
:020000040000fa
:04002c00d4040000f8
:020000040000fa
:04003000d4040000f4
:020000040000fa
:04003400d4040000f0
:020000040000fa
:04003800d4040000ec
:020000040000fa
:04003c00d4040000e8
:020000040000fa
:04004000d4040000e4
:020000040000fa
:04004400d4040000e0
:020000040000fa
:04004800d4040000dc
:020000040000fa
:04004c00d4040000d8
:020000040000fa
:04005000d4040000d4
:020000040000fa
:04005400d4040000d0
:020000040000fa
:04005800d4040000cc
:020000040000fa
:04005c00d4040000c8
:020000040000fa
:04006000d4040000c4
:020000040000fa
:04006400d4040000c0
:020000040000fa
:04006800d4040000bc
:020000040000fa
:04006c000403000089
:020000040000fa
:04007000d4040000b4
:020000040000fa
:04007400d4040000b0
:020000040000fa
:04007800d4040000ac
:020000040000fa
:04007c00d4040000a8
:020000040000fa
:04008000d4040000a4
:020000040000fa
:04008400d4040000a0
:020000040000fa
:04008800d40400009c
:020000040000fa
:04008c00d404000098
:020000040000fa
:04009000d404000094
:020000040000fa
:04009400d404000090
:020000040000fa
:04009800d40400008c
:020000040000fa
:04009c00d404000088
:020000040000fa
:0400a000d404000084
:020000040000fa
:0400a400d404000080
:020000040000fa
:0400a800d40400007c
:020000040000fa
:0400ac00d404000078
:020000040000fa
:0400b000d404000074
:020000040000fa
:0400b400d404000070
:020000040000fa
:0400b800d40400006c
:020000040000fa
:0400bc00d404000068
:020000040000fa
:0400c000d404000064
:020000040000fa
:0400c400d404000060
:020000040000fa
:0400c800d40400005c
:020000040000fa
:0400cc00d404000058
:020000040000fa
:0400d000d404000054
:020000040000fa
:0400d400d404000050
:020000040000fa
:0400d800d40400004c
:020000040000fa
:0400dc00d404000048
:020000040000fa
:0400e000d404000044
:020000040000fa
:0400e400d404000040
:020000040000fa
:0400e800d40400003c
:020000040000fa
:0400ec00d404000038
:020000040000fa
:0400f000d404000034
:020000040000fa
:0400f400d404000030
:020000040000fa
:0400f800d40400002c
:020000040000fa
:0400fc00d404000028
:020000040000fa
:04010000d404000023
:020000040000fa
:04010400d40400001f
:020000040000fa
:04010800d40400001b
:020000040000fa
:04010c00d404000017
:020000040000fa
:04011000d404000013
:020000040000fa
:04011400d40400000f
:020000040000fa
:04011800d40400000b
:020000040000fa
:04011c00d404000007
:020000040000fa
:04012000d404000003
:020000040000fa
:04012400d4040000ff
:020000040000fa
:04012800d4040000fb
:020000040000fa
:04012c00d4040000f7
:020000040000fa
:04013000d4040000f3
:020000040000fa
:04013400d4040000ef
:020000040000fa
:04013800d4040000eb
:020000040000fa
:04013c00d4040000e7
:020000040000fa
:04014000d4040000e3
:020000040000fa
:04014400d4040000df
:020000040000fa
:04014800d4040000db
:020000040000fa
:04014c00d4040000d7
:020000040000fa
:04015000d4040000d3
:020000040000fa
:04015400d4040000cf
:020000040000fa
:04015800d4040000cb
:020000040000fa
:04015c00d4040000c7
:020000040000fa
:04016000d4040000c3
:020000040000fa
:04016400d4040000bf
:020000040000fa
:04016800d4040000bb
:020000040000fa
:04016c00d4040000b7
:020000040000fa
:04017000d4040000b3
:020000040000fa
:04017400d4040000af
:020000040000fa
:04017800d4040000ab
:020000040000fa
:04017c00d4040000a7
:020000040000fa
:04018000d4040000a3
:020000040000fa
:04018400d40400009f
:020000040000fa
:04018800d40400009b
:020000040000fa
:04018c00d404000097
:020000040000fa
:04019000d404000093
:020000040000fa
:04019400d40400008f
:020000040000fa
:04019800d40400008b
:020000040000fa
:04019c00d404000087
:020000040000fa
:0401a000d404000083
:020000040000fa
:0401a400d40400007f
:020000040000fa
:0401a800d40400007b
:020000040000fa
:0401ac00d404000077
:020000040000fa
:0401b000d404000073
:020000040000fa
:0401b400d40400006f
:020000040000fa
:0401b800d40400006b
:020000040000fa
:0401bc00d404000067
:020000040000fa
:0401c000d404000063
:020000040000fa
:0401c400d40400005f
:020000040000fa
:0401c800d40400005b
:020000040000fa
:0401cc00d404000057
:020000040000fa
:0401d000d404000053
:020000040000fa
:0401d400d40400004f
:020000040000fa
:0401d800d40400004b
:020000040000fa
:0401dc00d404000047
:020000040000fa
:0401e000d404000043
:020000040000fa
:0401e400d40400003f
:020000040000fa
:0401e800d40400003b
:020000040000fa
:0401ec00d404000037
:020000040000fa
:0401f000d404000033
:020000040000fa
:0401f400d40400002f
:020000040000fa
:0401f800d40400002b
:020000040000fa
:0401fc00d404000027
:020000040000fa
:04020800d40400001a
:020000040000fa
:04020c00d404000016
:020000040000fa
:04021000d404000012
:020000040000fa
:04021400d40400000e
:020000040000fa
:04021800d40400000a
:020000040000fa
:04021c00d404000006
:020000040000fa
:04022000d404000002
:020000040000fa
:04022400d4040000fe
:020000040000fa
:04022800d4040000fa
:020000040000fa
:04022c00d4040000f6
:020000040000fa
:04023000d4040000f2
:020000040000fa
:04023400d4040000ee
:020000040000fa
:04023800d4040000ea
:020000040000fa
:04023c00d4040000e6
:020000040000fa
:04024000d4040000e2
:020000040000fa
:04024400d4040000de
:020000040000fa
:04024800d4040000da
:020000040000fa
:04024c00d4040000d6
:020000040000fa
:04025000d4040000d2
:020000040000fa
:04025400d4040000ce
:020000040000fa
:04025800d4040000ca
:020000040000fa
:04025c00d4040000c6
:020000040000fa
:04026000d4040000c2
:020000040000fa
:04026400d4040000be
:020000040000fa
:04026800d4040000ba
:020000040000fa
:04026c000403000087
:020000040000fa
:04027000d4040000b2
:020000040000fa
:04027400d4040000ae
:020000040000fa
:04027800d4040000aa
:020000040000fa
:04027c00d4040000a6
:020000040000fa
:04028000d4040000a2
:020000040000fa
:04028400d40400009e
:020000040000fa
:04028800d40400009a
:020000040000fa
:04028c00d404000096
:020000040000fa
:04029000d404000092
:020000040000fa
:04029400d40400008e
:020000040000fa
:04029800d40400008a
:020000040000fa
:04029c00d404000086
:020000040000fa
:0402a000d404000082
:020000040000fa
:0402a400d40400007e
:020000040000fa
:0402a800d40400007a
:020000040000fa
:0402ac00d404000076
:020000040000fa
:0402b000d404000072
:020000040000fa
:0402b400d40400006e
:020000040000fa
:0402b800d40400006a
:020000040000fa
:0402bc00d404000066
:020000040000fa
:0402c000d404000062
:020000040000fa
:0402c400d40400005e
:020000040000fa
:0402c800d40400005a
:020000040000fa
:0402cc00d404000056
:020000040000fa
:0402d000d404000052
:020000040000fa
:0402d400d40400004e
:020000040000fa
:0402d800d40400004a
:020000040000fa
:0402dc00d404000046
:020000040000fa
:0402e000d404000042
:020000040000fa
:0402e400d40400003e
:020000040000fa
:0402e800d40400003a
:020000040000fa
:0402ec00d404000036
:020000040000fa
:0402f000d404000032
:020000040000fa
:0402f400d40400002e
:020000040000fa
:0402f800d40400002a
:020000040000fa
:0402fc00d404000026
:020000040000fa
:04030000d404000021
:020000040000fa
:04030400d40400001d
:020000040000fa
:04030800d404000019
:020000040000fa
:04030c00d404000015
:020000040000fa
:04031000d404000011
:020000040000fa
:04031400d40400000d
:020000040000fa
:04031800d404000009
:020000040000fa
:04031c00d404000005
:020000040000fa
:04032000d404000001
:020000040000fa
:04032400d4040000fd
:020000040000fa
:04032800d4040000f9
:020000040000fa
:04032c00d4040000f5
:020000040000fa
:04033000d4040000f1
:020000040000fa
:04033400d4040000ed
:020000040000fa
:04033800d4040000e9
:020000040000fa
:04033c00d4040000e5
:020000040000fa
:04034000d4040000e1
:020000040000fa
:04034400d4040000dd
:020000040000fa
:04034800d4040000d9
:020000040000fa
:04034c00d4040000d5
:020000040000fa
:04035000d4040000d1
:020000040000fa
:04035400d4040000cd
:020000040000fa
:04035800d4040000c9
:020000040000fa
:04035c00d4040000c5
:020000040000fa
:04036000d4040000c1
:020000040000fa
:04036400d4040000bd
:020000040000fa
:04036800d4040000b9
:020000040000fa
:04036c00d4040000b5
:020000040000fa
:04037000d4040000b1
:020000040000fa
:04037400d4040000ad
:020000040000fa
:04037800d4040000a9
:020000040000fa
:04037c00d4040000a5
:020000040000fa
:04038000d4040000a1
:020000040000fa
:04038400d40400009d
:020000040000fa
:04038800d404000099
:020000040000fa
:04038c00d404000095
:020000040000fa
:04039000d404000091
:020000040000fa
:04039400d40400008d
:020000040000fa
:04039800d404000089
:020000040000fa
:04039c00d404000085
:020000040000fa
:0403a000d404000081
:020000040000fa
:0403a400d40400007d
:020000040000fa
:0403a800d404000079
:020000040000fa
:0403ac00d404000075
:020000040000fa
:0403b000d404000071
:020000040000fa
:0403b400d40400006d
:020000040000fa
:0403b800d404000069
:020000040000fa
:0403bc00d404000065
:020000040000fa
:0403c000d404000061
:020000040000fa
:0403c400d40400005d
:020000040000fa
:0403c800d404000059
:020000040000fa
:0403cc00d404000055
:020000040000fa
:0403d000d404000051
:020000040000fa
:0403d400d40400004d
:020000040000fa
:0403d800d404000049
:020000040000fa
:0403dc00d404000045
:020000040000fa
:0403e000d404000041
:020000040000fa
:0403e400d40400003d
:020000040000fa
:0403e800d404000039
:020000040000fa
:0403ec00d404000035
:020000040000fa
:0403f000d404000031
:020000040000fa
:0403f400d40400002d
:020000040000fa
:0403f800d404000029
:020000040000fa
:0403fc00d404000025
:020000040000fa
:100400004f8120000e7f22000e01880000000000b6
:10041000000020000000e000020032000001200087
:100420002002880014000700610107000000e000be
:1004300003003a0040b22000010020000200370013
:100440000000200001002000810f70000100320038
:1004500014000700000020000000e000020032004d
:100460000000020000000000c808020000000000b8
:100470000040da000000fe004440a90020002000f7
:100480000000e0000300320010002000900188000e
:100490004440a800000006008a1f78008b1f7800e7
:1004a00000000600a1028800800478000000eb0034
:1004b0001f003700e284440054a0b4009905ba003c
:1004c000e284440054a0b4009906ba00e2844400d7
:1004d00054a0b4000006eb00476fde00fd07b20039
:1004e000ae018800636ce10003003a00eaff0700f8
:1004f0000000eb000e003700606ce10008003a00dd
:10050000004deb000a05e800020039003420ec0041
:100510000af0a0008b05e900f9ff3e000400370057
:100520006168e100010032000086eb000b0007006b
:1005300019c7ba001905ba000e04e00003003a001a
:100540000a00e000dbff3a0000000600fe07b200f0
:10055000ae0288008a047800f5ff37000cd0a300b3
:10056000e20f4d001c00390089027800354dba00b9
:100570000a05e800020039003420ec000af0a0006f
:100580008b05e9000f003200254dba000a05e8008e
:10059000020039003420ec000af0a0008b05e900cd
:1005a000080032000c00e0000600320015cdba0051
:1005b0000a05e800020039003420ec000af0a0002f
:1005c0008b05e9008984e80054a0b4000b00e0002a
:1005d000e2ff3a00000006009902ba00055d7800cb
:1005e0008b05e900f7ff3200c82ade00055d7800c0
:1005f0008b05e900f3ff32000c00e000f1ff320050
:1006000019ddba00eeff3700809fbe000000fa003f
:100610009620a9008620a900304080000000e80054
:100620003040880040408000e10f50007e003a00da
:1006300030408000e10f500003003a00804080000d
:1006400010108800d400370030408000e20f5000c6
:100650000b003a004110800000002800008060007c
:100660000000e00003003a002040800010108800e5
:10067000c90037002006200030408800c60037003f
:1006800030408000e30f50000a003a004110800023
:1006900000002800008060000000e00002003a0036
:1006a0000622a800bc003700200620003040880049
:1006b000b900370030408000e40f500003003a00da
:1006c0009040800010108800b30037003040800058
:1006d000e50f50000a003a00411080000000280099
:1006e000008060000000e00002003a000662a800fe
:1006f000a90037002006200030408800a6003700ff
:1007000030408000e60f50000c003a00401080009e
:10071000620060000000e000050032000010800070
:100720000040880006a2a9000682a8009a003700af
:1007300020062000304088009700370030408000bd
:10074000e70f50000a003a00411080000000280026
:10075000008060000000e00002003a000662a8008d
:100760008d00370020062000304088008a003700c6
:1007700030408000e80f50000c003a00401080002c
:10078000620060000000e000050032000010800000
:100790001040880006a2a8000682a8007e0037004c
:1007a00020062000304088007b0037003040800069
:1007b000e90f500004003200314080003006200074
:1007c000808f500002003a000642a80072003700f5
:1007d00030408000ea0f50000400320031408000b9
:1007e00040062000808f50006a003a0040108000d0
:1007f000700060000000e000040032003140800022
:1008000040062000808f500002003a000028ef00d0
:100810000228ef00604080001100200001087800ed
:100820000628ef005c00370050408000e10f5000c8
:1008300059003a0030408000e10f500003003a00b8
:100840008040800010108800530037003040800046
:10085000e20f50000b003a00411080000000280019
:10086000008060000000e00003003a0020408000ab
:100870001010880048003700200620003040880013
:100880004500370030408000e30f50000b003a0075
:100890004110800000002800008060000000e0009f
:1008a00003003a0000408000101088003a00370032
:1008b000200620003040880037003700304080009c
:1008c000e40f50000b003a004110800000002800a7
:1008d000008060000000e00003003a00104080004b
:1008e000101088002c0037002006200030408800bf
:1008f0002900370030408000e50f5000040032002e
:100900003140800030062000808f50000a003a00fd
:100910004110800000002800008060000000e0001e
:1009200003003200704080002100200001087800a0
:100930000642a8001800370030408000e60f500043
:10094000040032003140800040062000808f5000bb
:1009500011003a0040108000700060000000e000cc
:10096000040032003140800040062000808f50009b
:1009700003003a0070408000310020000108780038
:100980007040800011002000010878000628ef0068
:1009900001003700000000009620a8000080fa0047
:1009a0004f00be00004006000040da000000fe00dc
:1009b00000000500889fbe008a9fbe008c1f780043
:1009c000660007006d00330003866c006450e10090
:1009d0002e0032006420e100330032006150e1005b
:1009e0002f0032006120e100310032008585550082
:1009f000eb07b000090020000804200005003700c4
:100a00000804440089844c000a00310006034300b6
:100a100087834b000001530081815b00f8ff3300a6
:100a20000203be000800a0000804440089844c00b2
:100a3000f6ff3900c639dd00830173000100320082
:100a4000130020008904d1000884d3000998a30072
:100a5000050032000800a7000300a0008904d100af
:100a60000884d3008b05e8008904d1000884d300f2
:100a70000001eb000281d2001200070001f0a1008a
:100a80000cf0a70001f0a000450037006420e10051
:100a9000470032000801be000200be00f7ff370029
:100aa0006120e100420032006000b800f3ff37002f
:100ab0000000200001f82700f0ff37006011b800a7
:100ac0007200370081002000618055000b003d005e
:100ad0000b00200061fe2f000100e1001d0034002a
:100ae00082817100610164008904d1000884d3000f
:100af0000000e800faff3a00710020006100640085
:100b0000030070000200600009003200610444002c
:100b1000e0844c000988a500050032008b05e80040
:100b20006808e10002003a008904d1000884d3007b
:100b3000f20f20000258e10005003d00c75ddd0016
:100b4000f907b200898075000800780000000600ef
:100b50000bf827008b007800000005000004be00a1
:100b6000790007000003be000405be000200be00bd
:100b700075000700844f7500000006000200be00eb
:100b80006450e100050036006420e10002003600f8
:100b90000968a30001003a000800be000160a0003f
:100ba0004f0678004f05be004f04be00000006004f
:100bb000f0ff2f00f1ff2700f9ff3700889fbe00ec
:100bc0008a9fbe008c1f7800e4ff0700ebff330014
:100bd00003866c006450e100240032006420e100d0
:100be000270032006150e100220032006120e10064
:100bf000210032008b854200eb07b1000134b800c0
:100c0000003ab8000804420089844a00013ab8005a
:100c10000030b8008880400009014a000400330019
:100c20000000400081804800020149008b05e90076
:100c3000c909dd00830170000100320013002000ab
:100c4000c814de004814dd004709de001200b200bf
:100c5000c808de00088470009aff070001f0a100b8
:100c60000cf0a70001f0a000cdff37006120e100eb
:100c7000cfff32000801be000200be00f7ff3700c0
:100c80006150e100fcff3a00c9ff3700889fbe00b9
:100c90008a9fbe000082700004027100048271000d
:100ca000260032000004be000200be006011b80041
:100cb0006b092000950220000182cf000a00390054
:100cc0000541b1000082cf00070039000541b100a5
:100cd0000982cf00040039000541b1000882cf002d
:100ce000010039000541b1000542520012003200f6
:100cf0000a003b0082817100610164008100d10023
:100d00000080d3008984d3000884d3008b05e800d9
:100d10000442e800f7ff3a000700370008044400e7
:100d200089844c0000004800818048008b05e90060
:100d30000442e900f9ff3a0062ff07004f05be00d8
:100d40004f04be0000000600c70ade00f107b20033
:100d5000f50fb20008003200e1cf4200020032007d
:100d60000170a00024000500810f70000100320016
:100d70000408050044000500810f700002003a00dd
:100d8000140005008502e9000000400081c0480011
:0c0d9000fcff3b000170a00024000500e7
:020000040000fa
:100d9c000000fa00700220002010880007e2a80072
:100dac0007a2a9000782a9000762a9000742a900af
:100dbc000722a9000702a80006e2a80006c2a900a3
:100dcc0006a2a9000682a9000662a9000642a90093
:100ddc000622a9000602a9000822ef008620a9001d
:100dec009620a8000080fa00000006000400fa001b
:100dfc00000f780011079800100020004040880078
:100e0c009e007800214088009e0090006140880080
:100e1c000602a8000080fa00000006001800fa0084
:100e2c00889fbe008a1f780000057800310f98005b
:100e3c000000eb00000f78006000b800100798006d
:100e4c00210798006000b80030079800410798000f
:100e5c006000b80050079800610798006000b80067
:100e6c0070079800010f98006000b800100f9800f0
:100e7c00210f9800104080004800dd00000f780022
:100e8c00004080001e0f7000be089000a0032000e0
:100e9c00808f50000c003a001e0078008000eb00a0
:100eac0003ff070092a729009394230040ff07003b
:100ebc0002002000030824003dff070010079800e3
:100ecc00210798008b003700be089000b00320006b
:100edc00808f500004003200be089000c003200038
:100eec00808f500009003a001e0078008000eb0053
:100efc00effe0700421b200083ad23002cff0700f0
:100f0c0010079800210798007a003700be0890005f
:100f1c00d0032000808f50000c003a001e00780097
:100f2c008000eb00e2fe0700d2c82900435c2300de
:100f3c001fff0700f226210033c823009afe07008a
:100f4c0010079800210798006a003700be0890002f
:100f5c00e0032000808f50000c003a001e00780047
:100f6c008000eb00d2fe0700d2c82900435c2300ae
:100f7c000fff0700f226210033d023008afe070062
:100f8c0010079800210798005a003700be089000ff
:100f9c00f0032000808f50000a003a0060112d00f1
:100fac001e0040008000eb00c1fe070062662600b8
:100fbc00632324007cfe070010079800210798008b
:100fcc004c003700be08900000042000808f5000b9
:100fdc0011003a001e0078008000eb00b4fe070000
:100fec0002002400c3612400f1fe07000004be00cf
:100ffc00505525001e0050008000eb00acfe070091
:10100c000001be000800be0067fe07001007980034
:10101c002107980037003700be08900030042000ec
:10102c00808f50000d003a006000b8001007980047
:10103c00210798001e0078000000e0000300320039
:10104c000000200001f82300010037006000b80008
:10105c00300798004107980026003700be08900022
:10106c0040032000808f500022003a000010200026
:10107c001e0060004800de008000eb008cfe0700c4
:10108c001007980021079800000820001e0060003f
:10109c004700de008000eb0085fe0700300798005b
:1010ac0041079800000420001e0060004600de008e
:1010bc008000eb007efe0700500798006107980047
:1010cc009e007800628060000000d1008000eb0080
:1010dc0077fe070070079800010f98009e007800bb
:1010ec00618060008000eb0071fe0700100f98001b
:1010fc00210f98000228ef000028ef00e2004700c3
:10110c0009000900311d78004a01b1000a0078007d
:10111c004f0578004f04be000080fa000000060066
:10112c000600fa00000f78001107980022079800bb
:10113c00ae00900071408800411080000000240037
:10114c00008060000000e0000c003a00100020005d
:10115c00504088009e007800214088009e0090003e
:10116c00f00f200000806000004088001e009000fe
:10117c004800de00104088000602a8000080fa003b
:10118c00000006003a00fa000000eb00101798006f
:10119c000000eb00201798006000b80020079800b2
:1011ac00310798006000b80040079800510798007c
:1011bc006000b80060079800710798006000b800e4
:1011cc00000f9800110f98006000b800200f9800d5
:1011dc00310f98006000b800400f9800510f980034
:1011ec000000eb00000f78000000eb0010079800e7
:1011fc000000eb00600f98006000b800700f9800c2
:10120c0001179800000000009d00070080000700f7
:10121c00f4e2a800f4c2a800e4e2a800dcfe070097
:10122c00f00f20001007980040012000600f98007c
:10123c00400220000e004000000178000110200048
:10124c006e089000b6ff0700f4e2a9000024240009
:10125c00f1002000e7000700f4e2a80001003700cd
:10126c00000000001e1090000000e00013003a0087
:10127c001e0090000000e00010003a001e007800f4
:10128c000000e00003003a00b003200010079800b3
:10129c00050037001e007800e10f500002003a00f4
:1012ac004003200010079800200220000e00400090
:1012bc00800078001e009000ccfe07001e109000ed
:1012cc00e10f500030003a00600220000e00400098
:1012dc009e009000d1fe07001e0078000000e00088
:1012ec0006003a003e119000ce11900022079800a3
:1012fc0033079800f4e2a900190037001e007800ab
:10130c00e10f500016003a003e119000ce119000f3
:10131c0042079800530798005e119000ee11900060
:10132c0062079800730798007e1190008e19900048
:10133c00020f9800130f98001e199000ae19900020
:10134c00220f9800330f98003e199000ce19900090
:10135c00420f9800530f9800f4e2a800f4c2a900c1
:10136c000000eb00100798000000eb00101798002d
:10137c001e0fe8001e007800e10f50000200340040
:10138c00f00f2000100798002e1090000000e000d5
:10139c00b3ff32002e109000e10f500019003a00fc
:1013ac001e0078000000e00008003a00e4e2a9000a
:1013bc00400220000e0040000001780001102000c7
:1013cc006e08900056ff07000b0037001e007800d7
:1013dc00e10f500008003a00e4e2a800f4c2a900b2
:1013ec00400220000e004000000178008000eb005d
:1013fc006e0890004aff07001e0fe8000000eb008b
:10140c0020179800000000000000000095ff370036
:10141c000000fa0000002300303a88004827ef0053
:10142c004e27ef007027ef007227ef007427ef00b4
:10143c007627ef007827ef007a27ef007c27ef0064
:10144c007200200080072000a109200033742000c6
:10145c008049780081497800824978000001eb00ce
:10146c00600420007105200023742000804978005e
:10147c0081497800824978000080fa00000006005b
:10148c000000fa00cc22ef00d422ef00dc22ef00a7
:10149c00e422ef00ec22ef00f422ef00f00f2f001b
:1014ac00401688000000210080168800f0ff200004
:1014bc00c0168800f00f200000178800b00b200029
:1014cc0040178800c03c200080178800e0e2a9008b
:1014dc00f0c2a900f0e2a9005620ef005820ef005e
:1014ec005a20ef005c20ef005e20ef006020ef0040
:1014fc006e20ef007020ef007220ef007420ef00e0
:10150c007620ef007820ef00ce22ef00d622ef00fd
:10151c00de22ef00e622ef00ee22ef00f622ef00d3
:10152c00c00f2f0010278800f09f2f003027880055
:10153c00000f200040278800900b200050278800c7
:10154c00003c200060278800e8e4a900ecc4a90056
:10155c00ece4a900a804a8000080fa000000060032
:10156c000000fa0061058000f0f82f000080600098
:10157c000040a000600588006105800080ff2f00fe
:10158c00008060000000a000600588000080fa0068
:10159c00000006000800fa006000b800008fbe00d2
:1015ac0000242400f1002000200798003107980047
:1015bc00d922a900d942a900dd22a800dd42a80049
:1015cc000400370012002000030020001e0f410011
:1015dc005e9749002e009000be0090001e01be00d8
:1015ec00800f5100818f5900f6ff39000080fa00fe
:1015fc00000006000800fa00200798003107980048
:10160c006000b800008fbe000400370012002000fc
:10161c00030020001e0f41005e9749002e00900031
:10162c00be0090001e01be00800f5100818f59003a
:0c163c00f6ff39000080fa0000000600f4
:020000040000fa
:10164800100800000400000082000000d000d10053
:1016580000000000000800001000000080000000ea
:04166800000000007e
:00000001FF
