:020000040000fa
:080000000002040000000000f2
:020000040000fa
:04000800fc030000f5
:020000040000fa
:04000c00fc030000f1
:020000040000fa
:04001000fc030000ed
:020000040000fa
:04001400fc030000e9
:020000040000fa
:04001800fc030000e5
:020000040000fa
:04001c00fc030000e1
:020000040000fa
:04002000fc030000dd
:020000040000fa
:04002400fc030000d9
:020000040000fa
:04002800fc030000d5
:020000040000fa
:04002c00fc030000d1
:020000040000fa
:04003000fc030000cd
:020000040000fa
:04003400fc030000c9
:020000040000fa
:04003800fc030000c5
:020000040000fa
:04003c00fc030000c1
:020000040000fa
:04004000fc030000bd
:020000040000fa
:04004400fc030000b9
:020000040000fa
:04004800fc030000b5
:020000040000fa
:04004c00fc030000b1
:020000040000fa
:04005000fc030000ad
:020000040000fa
:04005400fc030000a9
:020000040000fa
:04005800fc030000a5
:020000040000fa
:04005c00fc030000a1
:020000040000fa
:04006000fc0300009d
:020000040000fa
:04006400fc03000099
:020000040000fa
:04006800fc03000095
:020000040000fa
:04006c000403000089
:020000040000fa
:04007000fc0300008d
:020000040000fa
:04007400fc03000089
:020000040000fa
:04007800fc03000085
:020000040000fa
:04007c00fc03000081
:020000040000fa
:04008000fc0300007d
:020000040000fa
:04008400fc03000079
:020000040000fa
:04008800fc03000075
:020000040000fa
:04008c00fc03000071
:020000040000fa
:04009000fc0300006d
:020000040000fa
:04009400fc03000069
:020000040000fa
:04009800fc03000065
:020000040000fa
:04009c00fc03000061
:020000040000fa
:0400a000fc0300005d
:020000040000fa
:0400a400fc03000059
:020000040000fa
:0400a800fc03000055
:020000040000fa
:0400ac00fc03000051
:020000040000fa
:0400b000fc0300004d
:020000040000fa
:0400b400fc03000049
:020000040000fa
:0400b800fc03000045
:020000040000fa
:0400bc00fc03000041
:020000040000fa
:0400c000fc0300003d
:020000040000fa
:0400c400fc03000039
:020000040000fa
:0400c800fc03000035
:020000040000fa
:0400cc00fc03000031
:020000040000fa
:0400d000fc0300002d
:020000040000fa
:0400d400fc03000029
:020000040000fa
:0400d800fc03000025
:020000040000fa
:0400dc00fc03000021
:020000040000fa
:0400e000fc0300001d
:020000040000fa
:0400e400fc03000019
:020000040000fa
:0400e800fc03000015
:020000040000fa
:0400ec00fc03000011
:020000040000fa
:0400f000fc0300000d
:020000040000fa
:0400f400fc03000009
:020000040000fa
:0400f800fc03000005
:020000040000fa
:0400fc00fc03000001
:020000040000fa
:04010000fc030000fc
:020000040000fa
:04010400fc030000f8
:020000040000fa
:04010800fc030000f4
:020000040000fa
:04010c00fc030000f0
:020000040000fa
:04011000fc030000ec
:020000040000fa
:04011400fc030000e8
:020000040000fa
:04011800fc030000e4
:020000040000fa
:04011c00fc030000e0
:020000040000fa
:04012000fc030000dc
:020000040000fa
:04012400fc030000d8
:020000040000fa
:04012800fc030000d4
:020000040000fa
:04012c00fc030000d0
:020000040000fa
:04013000fc030000cc
:020000040000fa
:04013400fc030000c8
:020000040000fa
:04013800fc030000c4
:020000040000fa
:04013c00fc030000c0
:020000040000fa
:04014000fc030000bc
:020000040000fa
:04014400fc030000b8
:020000040000fa
:04014800fc030000b4
:020000040000fa
:04014c00fc030000b0
:020000040000fa
:04015000fc030000ac
:020000040000fa
:04015400fc030000a8
:020000040000fa
:04015800fc030000a4
:020000040000fa
:04015c00fc030000a0
:020000040000fa
:04016000fc0300009c
:020000040000fa
:04016400fc03000098
:020000040000fa
:04016800fc03000094
:020000040000fa
:04016c00fc03000090
:020000040000fa
:04017000fc0300008c
:020000040000fa
:04017400fc03000088
:020000040000fa
:04017800fc03000084
:020000040000fa
:04017c00fc03000080
:020000040000fa
:04018000fc0300007c
:020000040000fa
:04018400fc03000078
:020000040000fa
:04018800fc03000074
:020000040000fa
:04018c00fc03000070
:020000040000fa
:04019000fc0300006c
:020000040000fa
:04019400fc03000068
:020000040000fa
:04019800fc03000064
:020000040000fa
:04019c00fc03000060
:020000040000fa
:0401a000fc0300005c
:020000040000fa
:0401a400fc03000058
:020000040000fa
:0401a800fc03000054
:020000040000fa
:0401ac00fc03000050
:020000040000fa
:0401b000fc0300004c
:020000040000fa
:0401b400fc03000048
:020000040000fa
:0401b800fc03000044
:020000040000fa
:0401bc00fc03000040
:020000040000fa
:0401c000fc0300003c
:020000040000fa
:0401c400fc03000038
:020000040000fa
:0401c800fc03000034
:020000040000fa
:0401cc00fc03000030
:020000040000fa
:0401d000fc0300002c
:020000040000fa
:0401d400fc03000028
:020000040000fa
:0401d800fc03000024
:020000040000fa
:0401dc00fc03000020
:020000040000fa
:0401e000fc0300001c
:020000040000fa
:0401e400fc03000018
:020000040000fa
:0401e800fc03000014
:020000040000fa
:0401ec00fc03000010
:020000040000fa
:0401f000fc0300000c
:020000040000fa
:0401f400fc03000008
:020000040000fa
:0401f800fc03000004
:020000040000fa
:0401fc00fc03000000
:020000040000fa
:04020800fc030000f3
:020000040000fa
:04020c00fc030000ef
:020000040000fa
:04021000fc030000eb
:020000040000fa
:04021400fc030000e7
:020000040000fa
:04021800fc030000e3
:020000040000fa
:04021c00fc030000df
:020000040000fa
:04022000fc030000db
:020000040000fa
:04022400fc030000d7
:020000040000fa
:04022800fc030000d3
:020000040000fa
:04022c00fc030000cf
:020000040000fa
:04023000fc030000cb
:020000040000fa
:04023400fc030000c7
:020000040000fa
:04023800fc030000c3
:020000040000fa
:04023c00fc030000bf
:020000040000fa
:04024000fc030000bb
:020000040000fa
:04024400fc030000b7
:020000040000fa
:04024800fc030000b3
:020000040000fa
:04024c00fc030000af
:020000040000fa
:04025000fc030000ab
:020000040000fa
:04025400fc030000a7
:020000040000fa
:04025800fc030000a3
:020000040000fa
:04025c00fc0300009f
:020000040000fa
:04026000fc0300009b
:020000040000fa
:04026400fc03000097
:020000040000fa
:04026800fc03000093
:020000040000fa
:04026c000403000087
:020000040000fa
:04027000fc0300008b
:020000040000fa
:04027400fc03000087
:020000040000fa
:04027800fc03000083
:020000040000fa
:04027c00fc0300007f
:020000040000fa
:04028000fc0300007b
:020000040000fa
:04028400fc03000077
:020000040000fa
:04028800fc03000073
:020000040000fa
:04028c00fc0300006f
:020000040000fa
:04029000fc0300006b
:020000040000fa
:04029400fc03000067
:020000040000fa
:04029800fc03000063
:020000040000fa
:04029c00fc0300005f
:020000040000fa
:0402a000fc0300005b
:020000040000fa
:0402a400fc03000057
:020000040000fa
:0402a800fc03000053
:020000040000fa
:0402ac00fc0300004f
:020000040000fa
:0402b000fc0300004b
:020000040000fa
:0402b400fc03000047
:020000040000fa
:0402b800fc03000043
:020000040000fa
:0402bc00fc0300003f
:020000040000fa
:0402c000fc0300003b
:020000040000fa
:0402c400fc03000037
:020000040000fa
:0402c800fc03000033
:020000040000fa
:0402cc00fc0300002f
:020000040000fa
:0402d000fc0300002b
:020000040000fa
:0402d400fc03000027
:020000040000fa
:0402d800fc03000023
:020000040000fa
:0402dc00fc0300001f
:020000040000fa
:0402e000fc0300001b
:020000040000fa
:0402e400fc03000017
:020000040000fa
:0402e800fc03000013
:020000040000fa
:0402ec00fc0300000f
:020000040000fa
:0402f000fc0300000b
:020000040000fa
:0402f400fc03000007
:020000040000fa
:0402f800fc03000003
:020000040000fa
:0402fc00fc030000ff
:020000040000fa
:04030000fc030000fa
:020000040000fa
:04030400fc030000f6
:020000040000fa
:04030800fc030000f2
:020000040000fa
:04030c00fc030000ee
:020000040000fa
:04031000fc030000ea
:020000040000fa
:04031400fc030000e6
:020000040000fa
:04031800fc030000e2
:020000040000fa
:04031c00fc030000de
:020000040000fa
:04032000fc030000da
:020000040000fa
:04032400fc030000d6
:020000040000fa
:04032800fc030000d2
:020000040000fa
:04032c00fc030000ce
:020000040000fa
:04033000fc030000ca
:020000040000fa
:04033400fc030000c6
:020000040000fa
:04033800fc030000c2
:020000040000fa
:04033c00fc030000be
:020000040000fa
:04034000fc030000ba
:020000040000fa
:04034400fc030000b6
:020000040000fa
:04034800fc030000b2
:020000040000fa
:04034c00fc030000ae
:020000040000fa
:04035000fc030000aa
:020000040000fa
:04035400fc030000a6
:020000040000fa
:04035800fc030000a2
:020000040000fa
:04035c00fc0300009e
:020000040000fa
:04036000fc0300009a
:020000040000fa
:04036400fc03000096
:020000040000fa
:04036800fc03000092
:020000040000fa
:04036c00fc0300008e
:020000040000fa
:04037000fc0300008a
:020000040000fa
:04037400fc03000086
:020000040000fa
:04037800fc03000082
:020000040000fa
:04037c00fc0300007e
:020000040000fa
:04038000fc0300007a
:020000040000fa
:04038400fc03000076
:020000040000fa
:04038800fc03000072
:020000040000fa
:04038c00fc0300006e
:020000040000fa
:04039000fc0300006a
:020000040000fa
:04039400fc03000066
:020000040000fa
:04039800fc03000062
:020000040000fa
:04039c00fc0300005e
:020000040000fa
:0403a000fc0300005a
:020000040000fa
:0403a400fc03000056
:020000040000fa
:0403a800fc03000052
:020000040000fa
:0403ac00fc0300004e
:020000040000fa
:0403b000fc0300004a
:020000040000fa
:0403b400fc03000046
:020000040000fa
:0403b800fc03000042
:020000040000fa
:0403bc00fc0300003e
:020000040000fa
:0403c000fc0300003a
:020000040000fa
:0403c400fc03000036
:020000040000fa
:0403c800fc03000032
:020000040000fa
:0403cc00fc0300002e
:020000040000fa
:0403d000fc0300002a
:020000040000fa
:0403d400fc03000026
:020000040000fa
:0403d800fc03000022
:020000040000fa
:0403dc00fc0300001e
:020000040000fa
:0403e000fc0300001a
:020000040000fa
:0403e400fc03000016
:020000040000fa
:0403e800fc03000012
:020000040000fa
:0403ec00fc0300000e
:020000040000fa
:0403f000fc0300000a
:020000040000fa
:0403f400fc03000006
:020000040000fa
:0403f800fc03000002
:020000040000fa
:0403fc00fc030000fe
:020000040000fa
:100400006f8120000e7f22000e0188000000000096
:10041000000020000000e000020032000001200087
:100420002002880014000700f50007000000e0002b
:1004300003003a0040532000010020000200370072
:100440000000200001002000810f70000100320038
:1004500014000700000020000000e000020032004d
:1004600000000200000000001e0502000000000065
:100470000040da000000fe004440a90020002000f7
:100480000000e0000300320010002000900188000e
:100490004440a800000006008a1f78008b1f7800e7
:1004a00000000600a1028800800478000000eb0034
:1004b0001f003700e284440054a0b4009905ba003c
:1004c000e284440054a0b4009906ba00e2844400d7
:1004d00054a0b4000006eb00476fde00fd07b20039
:1004e000ae018800636ce10003003a00eaff0700f8
:1004f0000000eb000e003700606ce10008003a00dd
:10050000004deb000a05e800020039003420ec0041
:100510000af0a0008b05e900f9ff3e000400370057
:100520006168e100010032000086eb000b0007006b
:1005300019c7ba001905ba000e04e00003003a001a
:100540000a00e000dbff3a0000000600fe07b200f0
:10055000ae0288008a047800f5ff37000cd0a300b3
:10056000e20f4d001c00390089027800354dba00b9
:100570000a05e800020039003420ec000af0a0006f
:100580008b05e9000f003200254dba000a05e8008e
:10059000020039003420ec000af0a0008b05e900cd
:1005a000080032000c00e0000600320015cdba0051
:1005b0000a05e800020039003420ec000af0a0002f
:1005c0008b05e9008984e80054a0b4000b00e0002a
:1005d000e2ff3a00000006009902ba00055d7800cb
:1005e0008b05e900f7ff3200c82ade00055d7800c0
:1005f0008b05e900f3ff32000c00e000f1ff320050
:1006000019ddba00eeff3700809fbe000000fa003f
:100610009620a9008620a900f4e2a800e4e2a9003f
:10062000f4c2a800404080000000e800404088007c
:1006300050408000e10f50006b003a0040408000c5
:10064000e10f500003003a000040800010108800c5
:100650006500370040408000e20f50000b003a0078
:100660006140800000002800008060000000e00081
:1006700003003a0030408000101088005a00370014
:10068000200620004040880057003700404080008e
:10069000e30f50000a003a0061408000000028008b
:1006a000008060000000e00002003a000622a8007e
:1006b0004d00370020062000404088004a003700e7
:1006c00040408000e40f500003003a00a04080004a
:1006d000101088004400370040408000e50f5000b3
:1006e0000a003a006140800000002800008060009d
:1006f0000000e00002003a000662a8003a0037005d
:10070000200620004040880037003700404080002d
:10071000e60f50000b003a0060408000620060006d
:100720000000e0000400320000108000104088004b
:100730000662a8002c0037002006200040408800f8
:100740002900370040408000e70f50000b003a00be
:1007500060408000620060000000e00004003200a1
:1007600000108000204088000682a8001e0037008c
:1007700020062000404088001b00370040408000d9
:10078000e80f500004003200414080003006200095
:10079000808f500002003a000642a8001200370085
:1007a00040408000e90f50000400320041408000ca
:1007b00040062000808f50000b003a00604080000f
:1007c000700060000000e000040032004140800042
:1007d00040062000808f500002003a000228ef00ff
:1007e0000428ef000828ef001028a8000080fa0075
:1007f0004f00be00004006000040da000000fe008e
:0408000000000500ef
:020000040000fa
:100804000000fa0000002300303a88004827ef0077
:100814004e27ef007027ef007227ef007427ef00d8
:100824007627ef007827ef007a27ef007c27ef0088
:100834007200200080072000a109200033742000ea
:100844008049780081497800824978000001eb00f2
:100854006004200071052000237420008049780082
:1008640081497800824978000080fa00000006007f
:100874000000fa00cc22ef00d422ef00dc22ef00cb
:10088400e422ef00ec22ef00f422ef00f00f2f003f
:10089400401688000000210080168800f0ff200028
:1008a400c0168800f00f200000178800b00b20004d
:1008b40040178800c03c200080178800e0e2a900af
:1008c400f0c2a900f0e2a9005620ef005820ef0082
:1008d4005a20ef005c20ef005e20ef006020ef0064
:1008e4006e20ef007020ef007220ef007420ef0004
:1008f4007620ef007820ef00ce22ef00d622ef0022
:10090400de22ef00e622ef00ee22ef00f622ef00f7
:10091400c00f2f0010278800f09f2f003027880079
:10092400000f200040278800900b200050278800eb
:10093400003c200060278800e8e4a900ecc4a9007a
:10094400ece4a900a804a8000080fa000000060056
:100954000000fa0061058000f0f82f0000806000bc
:100964000040a000600588006105800080ff2f0022
:10097400008060000000a000600588000080fa008c
:10098400000006000000fa00700220002010880019
:1009940007e2a80007a2a9000782a9000762a9002c
:1009a4000742a9000722a9000702a90006e2a8003d
:1009b40006c2a90006a2a9000682a9000662a9002f
:1009c4000642a9000622a9000602a9000822ef0097
:1009d4008620a9009620a8000080fa0000000600e6
:1009e4000200fa00000f7800100020005040880038
:1009f4009e007800314088000602a8000080fa00ba
:100a0400000006000200fa000000eb00000f78006e
:100a1400204080004800dd00000f78001040800076
:100a24001e0f70000428ef000228ef001e0078005b
:100a34000080fa00000006000000fa000000000038
:100a44008bff07006eff0700f4e2a800f4c2a800c1
:100a5400e4e2a800cbff0700b0032000e0ff07009a
:040a6400ffff370059
:020000040000fa
:100a680000080000140000008000000014080000c6
:100a78000200000082000000d10000000000000019
:00000001FF
