:020000040000fa
:080000000002040000000000f2
:020000040000fa
:0400080026030000cb
:020000040000fa
:04000c0004030000e9
:020000040000fa
:0400100016030000d3
:020000040000fa
:040014000c030000d9
:020000040000fa
:040018001e030000c3
:020000040000fa
:04001c0026030000b7
:020000040000fa
:0400200026030000b3
:020000040000fa
:0400240026030000af
:020000040000fa
:0400280026030000ab
:020000040000fa
:04002c0026030000a7
:020000040000fa
:0400300026030000a3
:020000040000fa
:04003400260300009f
:020000040000fa
:04003800260300009b
:020000040000fa
:04003c002603000097
:020000040000fa
:040040002603000093
:020000040000fa
:04004400260300008f
:020000040000fa
:04004800260300008b
:020000040000fa
:04004c002603000087
:020000040000fa
:040050002603000083
:020000040000fa
:04005400260300007f
:020000040000fa
:04005800260300007b
:020000040000fa
:04005c002603000077
:020000040000fa
:040060002603000073
:020000040000fa
:04006400260300006f
:020000040000fa
:04006800260300006b
:020000040000fa
:04006c002603000067
:020000040000fa
:040070002603000063
:020000040000fa
:04007400260300005f
:020000040000fa
:04007800260300005b
:020000040000fa
:04007c002603000057
:020000040000fa
:040080002603000053
:020000040000fa
:04008400260300004f
:020000040000fa
:04008800260300004b
:020000040000fa
:04008c002603000047
:020000040000fa
:040090002603000043
:020000040000fa
:04009400260300003f
:020000040000fa
:04009800260300003b
:020000040000fa
:04009c002603000037
:020000040000fa
:0400a0002603000033
:020000040000fa
:0400a400260300002f
:020000040000fa
:0400a800260300002b
:020000040000fa
:0400ac002603000027
:020000040000fa
:0400b0002603000023
:020000040000fa
:0400b400260300001f
:020000040000fa
:0400b800260300001b
:020000040000fa
:0400bc002603000017
:020000040000fa
:0400c0002603000013
:020000040000fa
:0400c400260300000f
:020000040000fa
:0400c800260300000b
:020000040000fa
:0400cc002603000007
:020000040000fa
:0400d0002603000003
:020000040000fa
:0400d40026030000ff
:020000040000fa
:0400d80026030000fb
:020000040000fa
:0400dc0026030000f7
:020000040000fa
:0400e00026030000f3
:020000040000fa
:0400e40026030000ef
:020000040000fa
:0400e80026030000eb
:020000040000fa
:0400ec0026030000e7
:020000040000fa
:0400f00026030000e3
:020000040000fa
:0400f40026030000df
:020000040000fa
:0400f80026030000db
:020000040000fa
:0400fc0026030000d7
:020000040000fa
:0401000026030000d2
:020000040000fa
:0401040026030000ce
:020000040000fa
:0401080026030000ca
:020000040000fa
:04010c0026030000c6
:020000040000fa
:0401100026030000c2
:020000040000fa
:0401140026030000be
:020000040000fa
:0401180026030000ba
:020000040000fa
:04011c0026030000b6
:020000040000fa
:0401200026030000b2
:020000040000fa
:0401240026030000ae
:020000040000fa
:0401280026030000aa
:020000040000fa
:04012c0026030000a6
:020000040000fa
:0401300026030000a2
:020000040000fa
:04013400260300009e
:020000040000fa
:04013800260300009a
:020000040000fa
:04013c002603000096
:020000040000fa
:040140002603000092
:020000040000fa
:04014400260300008e
:020000040000fa
:04014800260300008a
:020000040000fa
:04014c002603000086
:020000040000fa
:040150002603000082
:020000040000fa
:04015400260300007e
:020000040000fa
:04015800260300007a
:020000040000fa
:04015c002603000076
:020000040000fa
:040160002603000072
:020000040000fa
:04016400260300006e
:020000040000fa
:04016800260300006a
:020000040000fa
:04016c002603000066
:020000040000fa
:040170002603000062
:020000040000fa
:04017400260300005e
:020000040000fa
:04017800260300005a
:020000040000fa
:04017c002603000056
:020000040000fa
:040180002603000052
:020000040000fa
:04018400260300004e
:020000040000fa
:04018800260300004a
:020000040000fa
:04018c002603000046
:020000040000fa
:040190002603000042
:020000040000fa
:04019400260300003e
:020000040000fa
:04019800260300003a
:020000040000fa
:04019c002603000036
:020000040000fa
:0401a0002603000032
:020000040000fa
:0401a400260300002e
:020000040000fa
:0401a800260300002a
:020000040000fa
:0401ac002603000026
:020000040000fa
:0401b0002603000022
:020000040000fa
:0401b400260300001e
:020000040000fa
:0401b800260300001a
:020000040000fa
:0401bc002603000016
:020000040000fa
:0401c0002603000012
:020000040000fa
:0401c400260300000e
:020000040000fa
:0401c800260300000a
:020000040000fa
:0401cc002603000006
:020000040000fa
:0401d0002603000002
:020000040000fa
:0401d40026030000fe
:020000040000fa
:0401d80026030000fa
:020000040000fa
:0401dc0026030000f6
:020000040000fa
:0401e00026030000f2
:020000040000fa
:0401e40026030000ee
:020000040000fa
:0401e80026030000ea
:020000040000fa
:0401ec0026030000e6
:020000040000fa
:0401f00026030000e2
:020000040000fa
:0401f40026030000de
:020000040000fa
:0401f80026030000da
:020000040000fa
:0401fc0026030000d6
:020000040000fa
:0402080026030000c9
:020000040000fa
:04020c0004030000e7
:020000040000fa
:0402100016030000d1
:020000040000fa
:040214000c030000d7
:020000040000fa
:040218001e030000c1
:020000040000fa
:04021c0026030000b5
:020000040000fa
:0402200026030000b1
:020000040000fa
:0402240026030000ad
:020000040000fa
:0402280026030000a9
:020000040000fa
:04022c0026030000a5
:020000040000fa
:0402300026030000a1
:020000040000fa
:04023400260300009d
:020000040000fa
:040238002603000099
:020000040000fa
:04023c002603000095
:020000040000fa
:040240002603000091
:020000040000fa
:04024400260300008d
:020000040000fa
:040248002603000089
:020000040000fa
:04024c002603000085
:020000040000fa
:040250002603000081
:020000040000fa
:04025400260300007d
:020000040000fa
:040258002603000079
:020000040000fa
:04025c002603000075
:020000040000fa
:040260002603000071
:020000040000fa
:04026400260300006d
:020000040000fa
:040268002603000069
:020000040000fa
:04026c002603000065
:020000040000fa
:040270002603000061
:020000040000fa
:04027400260300005d
:020000040000fa
:040278002603000059
:020000040000fa
:04027c002603000055
:020000040000fa
:040280002603000051
:020000040000fa
:04028400260300004d
:020000040000fa
:040288002603000049
:020000040000fa
:04028c002603000045
:020000040000fa
:040290002603000041
:020000040000fa
:04029400260300003d
:020000040000fa
:040298002603000039
:020000040000fa
:04029c002603000035
:020000040000fa
:0402a0002603000031
:020000040000fa
:0402a400260300002d
:020000040000fa
:0402a8002603000029
:020000040000fa
:0402ac002603000025
:020000040000fa
:0402b0002603000021
:020000040000fa
:0402b400260300001d
:020000040000fa
:0402b8002603000019
:020000040000fa
:0402bc002603000015
:020000040000fa
:0402c0002603000011
:020000040000fa
:0402c400260300000d
:020000040000fa
:0402c8002603000009
:020000040000fa
:0402cc002603000005
:020000040000fa
:0402d0002603000001
:020000040000fa
:0402d40026030000fd
:020000040000fa
:0402d80026030000f9
:020000040000fa
:0402dc0026030000f5
:020000040000fa
:0402e00026030000f1
:020000040000fa
:0402e40026030000ed
:020000040000fa
:0402e80026030000e9
:020000040000fa
:0402ec0026030000e5
:020000040000fa
:0402f00026030000e1
:020000040000fa
:0402f40026030000dd
:020000040000fa
:0402f80026030000d9
:020000040000fa
:0402fc0026030000d5
:020000040000fa
:0403000026030000d0
:020000040000fa
:0403040026030000cc
:020000040000fa
:0403080026030000c8
:020000040000fa
:04030c0026030000c4
:020000040000fa
:0403100026030000c0
:020000040000fa
:0403140026030000bc
:020000040000fa
:0403180026030000b8
:020000040000fa
:04031c0026030000b4
:020000040000fa
:0403200026030000b0
:020000040000fa
:0403240026030000ac
:020000040000fa
:0403280026030000a8
:020000040000fa
:04032c0026030000a4
:020000040000fa
:0403300026030000a0
:020000040000fa
:04033400260300009c
:020000040000fa
:040338002603000098
:020000040000fa
:04033c002603000094
:020000040000fa
:040340002603000090
:020000040000fa
:04034400260300008c
:020000040000fa
:040348002603000088
:020000040000fa
:04034c002603000084
:020000040000fa
:040350002603000080
:020000040000fa
:04035400260300007c
:020000040000fa
:040358002603000078
:020000040000fa
:04035c002603000074
:020000040000fa
:040360002603000070
:020000040000fa
:04036400260300006c
:020000040000fa
:040368002603000068
:020000040000fa
:04036c002603000064
:020000040000fa
:040370002603000060
:020000040000fa
:04037400260300005c
:020000040000fa
:040378002603000058
:020000040000fa
:04037c002603000054
:020000040000fa
:040380002603000050
:020000040000fa
:04038400260300004c
:020000040000fa
:040388002603000048
:020000040000fa
:04038c002603000044
:020000040000fa
:040390002603000040
:020000040000fa
:04039400260300003c
:020000040000fa
:040398002603000038
:020000040000fa
:04039c002603000034
:020000040000fa
:0403a0002603000030
:020000040000fa
:0403a400260300002c
:020000040000fa
:0403a8002603000028
:020000040000fa
:0403ac002603000024
:020000040000fa
:0403b0002603000020
:020000040000fa
:0403b400260300001c
:020000040000fa
:0403b8002603000018
:020000040000fa
:0403bc002603000014
:020000040000fa
:0403c0002603000010
:020000040000fa
:0403c400260300000c
:020000040000fa
:0403c8002603000008
:020000040000fa
:0403cc002603000004
:020000040000fa
:0403d0002603000000
:020000040000fa
:0403d40026030000fc
:020000040000fa
:0403d80026030000f8
:020000040000fa
:0403dc0026030000f4
:020000040000fa
:0403e00026030000f0
:020000040000fa
:0403e40026030000ec
:020000040000fa
:0403e80026030000e8
:020000040000fa
:0403ec0026030000e4
:020000040000fa
:0403f00026030000e0
:020000040000fa
:0403f40026030000dc
:020000040000fa
:0403f80026030000d8
:020000040000fa
:0403fc0026030000d4
:020000040000fa
:100400006f8220000e7f22000e0188000000000095
:10041000000020000000e000020032000001200087
:1004200020028800140007008a0007000000e00096
:1004300003003a008078200001002000020037000d
:100440000000200001002000810f70000100320038
:1004500014000700000020000000e000020032004d
:100460000000020000000000720602000000000010
:100470000040da000000fe004440a90020002000f7
:100480000000e0000300320010002000900188000e
:100490004440a800000006008a1f78008b1f7800e7
:1004a00000000600a1028800800478000000eb0034
:1004b0001f003700e284440054a0b4009905ba003c
:1004c000e284440054a0b4009906ba00e2844400d7
:1004d00054a0b4000006eb00476fde00fd07b20039
:1004e000ae018800636ce10003003a00eaff0700f8
:1004f0000000eb000e003700606ce10008003a00dd
:10050000004deb000a05e800020039003420ec0041
:100510000af0a0008b05e900f9ff3e000400370057
:100520006168e100010032000086eb000b0007006b
:1005300019c7ba001905ba000e04e00003003a001a
:100540000a00e000dbff3a0000000600fe07b200f0
:10055000ae0288008a047800f5ff37000cd0a300b3
:10056000e20f4d001c00390089027800354dba00b9
:100570000a05e800020039003420ec000af0a0006f
:100580008b05e9000f003200254dba000a05e8008e
:10059000020039003420ec000af0a0008b05e900cd
:1005a000080032000c00e0000600320015cdba0051
:1005b0000a05e800020039003420ec000af0a0002f
:1005c0008b05e9008984e80054a0b4000b00e0002a
:1005d000e2ff3a00000006009902ba00055d7800cb
:1005e0008b05e900f7ff3200c82ade00055d7800c0
:1005f0008b05e900f3ff32000c00e000f1ff320050
:1006000019ddba00eeff37003600f8008020a9009f
:100610000000eb004c0207003600f8004e02070015
:100620008040a90010002000470207003600f800b3
:100630008060a90020002000430207003600f80077
:100640008080a900300020003f0207000040da004f
:080650000000fe00000005009f
:020000040000fa
:100658000000fa0050052000303b8800a00a200066
:10066800303b880027a6a80027e6a9001c00070041
:100678000004a2000004e0000c00320031318000c8
:100688000030200001007000303188000002200096
:1006980020318800103320002031880000212000fc
:1006a8002031880010842300203188000040200079
:1006b8004031880027e6a80027a6a9000080fa0094
:1006c800000006000200fa00004f78001e41780082
:1006d80001802000824878000080fa0000000600af
:1006e8000000fa0000c8bf000080fa000000060001
:1006f8000400fa0010079800313180000000210042
:10070800008060000000e000020032000040eb00c2
:100718003a003700313180000030200001007000bd
:100728003031880021318000010f78001e007800e8
:1007380000407800eb0007008080fb001e0090005e
:100748005100980021318000010f78001e007800c8
:100758004800de0000407800e20007008080fb00cf
:100768001e009000410098001e00780000407800ac
:10077800dc0007008080fb001e009000310098001c
:1007880021318000010f78001e0078004800de004b
:1007980000407800d30007008080fb001e00900016
:1007a800610098001e00780000407800cd00070026
:1007b8008080fb001e0090002100980021318000fd
:1007c800010f78001e0078004800de000040780025
:1007d800c40007008080fb001e00900011009800f4
:1007e8001e00780000407800be0007008080fb00f3
:1007f8001e0090000108780010c0b3000080fa00c5
:10080800000006000200fa00881f7800000f780038
:1008180051052000313b8800a10a2000313b8800a7
:1008280027a6a80027e6a900313180000030200063
:1008380001007000303188001e00780050009000e0
:10084800004078008f0007000080fb0020318800fe
:100858001e007800400090000040780089000700e2
:100868000080fb004804dd001e0078003000900086
:1008780000407800830007000080fb00080070003b
:10088800203188001e007800600090000040780049
:100898007c0007000080fb004804dd001e00780093
:1008a8002000900000407800760007000080fb00e0
:1008b80008007000203188001e00780010009000a9
:1008c800004078006f0007000080fb004804dd004e
:1008d8001e007800100078000040780069000700ca
:1008e8000080fb00080070002031880027e6a8007f
:1008f80027a6a9004f0478000080fa00000006002f
:100908000400fa001007980031318000000021002f
:10091800008060000000e000020032000040eb00b0
:100928002e003700313180000030200001007000b7
:100938003031880021318000010f78009e00780056
:100948001e0090005100980021318000010f7800ae
:100958001e0078004800de00800078001e0090002d
:10096800410098009e007800f00f20008080600011
:100978001e0090003100980021318000010f78009e
:100988001e0078004800de00800078001e009000fd
:10099800610098009e007800f00f200080806000c1
:1009a8001e0090002100980021318000010f78007e
:1009b8001e0078004800de00800078001e009000cd
:1009c800110098009e007800f00f200080806000e1
:1009d8001e0090000108780010c0b3000080fa00e3
:1009e800000006000200fa00000f78005105200000
:1009f800313b8800a10a2000313b880027a6a800c7
:100a080027e6a90031318000003020000100700085
:100a1800303188001e007800500090002031880096
:100a28001e00780040009000c800dd001e0078001d
:100a38003000900001007000203188001e0078000e
:100a480060009000c800dd001e00780020009000c3
:100a580001007000203188001e007800100090000e
:100a6800c800dd001e00780010007800010070004a
:100a78002031880027e6a80027a6a9000080fa00f0
:100a8800000006000400fa00204798002e4090005d
:100a98008080fb00d0cc2c000008b8004308de00a2
:100aa80080407800400020000008dd00004f7800fa
:100ab8002e4090000081fb00d0cc2c000010b80024
:100ac8004308de006a00b900000078000000510009
:100ad800004078001e4f70001e4078000080fa0029
:100ae800000006000400fa00204798002e409000fd
:100af8000080fb004400de00004078006a00b90076
:100b080000007800804078002e4090006f40600020
:100b180000cf40001e4078000080fa000000060068
:100b28000000fa000080fa00000006000200fa0047
:100b3800500480004e00de00614060000080fb0031
:100b480000f0a7000000ea000000ea004f00de0005
:100b5800004f7800510480000000240000806000ed
:100b68000000e00002003200edff07008bc0a90082
:100b78001e4078000080fa00000006000000fa001d
:100b88000021ef0030422f001008880000032800e1
:100b980020088800408220008040eb00014878004f
:100ba8000080fa00000006000000fa00200480001f
:100bb800680060000000e000090032005082200058
:100bc800104078008040e8005082200001487800fa
:100bd8004082200011c0b300014878008460a90059
:100be8000080fa00000006000200fa00000f7800fa
:100bf8009e00780011088800408220008040eb00a9
:100c0800014878000080fa00000006000000fa00a1
:100c1800100880000080fa00000006000200fa00b8
:100c2800000f78009e0078000108880040822000ac
:100c38008040eb00014878000080fa0000000600c0
:100c48000000fa00000880000080fa00000006009a
:100c58000000fa00408220008040eb000148780044
:100c680005e1a8000080fa00000006000000fa0074
:100c780005e1a9000080fa00000006000200fa0061
:100c880040822000104f78001e4078000004e000e9
:100c980003003200408220008040eb0001487800c9
:100ca8001e4078000080fa00000006000000fa00ec
:100cb80050822000104078000080fb000080fa007d
:100cc800000006000000fa00508220008040eb007f
:100cd800014878000080fa00000006001400fa00bd
:100ce800a2000700e0e2a900f0c2a900f0e2a90012
:100cf800e8e4a900ecc4a900ece4a900f4e2a80027
:100d0800e4e2a800f4c2a800f4e2a9000040eb0065
:100d1800004f78000e80e80075fe0700004f78004d
:100d28000003eb008002eb000002eb008001eb0007
:100d38000001eb008000eb000000eb000a00070058
:100d48000e80e8006afe0700004f780000000000ef
:100d58000e80e80066fe0700004f780000000000e3
:100d680000000000faff37002000fa00100f98007a
:100d7800210f9800320f9800430f9800540f9800e5
:100d8800650f9800760f9800000220005007980021
:100d9800300020004007980010032000300798001a
:100da80020002000600798002001200020079800fc
:100db80050012000100798000000eb00000f780099
:100dc8000e00780007ff07000080fa000000060008
:100dd8000000fa00cc22ef00d422ef00dc22ef0062
:100de800e422ef00ec22ef00f422ef00f00f2f00d6
:100df800401688000000210080168800f0ff2000bf
:100e0800c0168800f00f200000178800b00b2000e3
:100e180040178800c03c2000801788005620ef004b
:100e28005820ef005a20ef005c20ef005e20ef0012
:100e38006020ef006e20ef007020ef007220ef00be
:100e48007420ef007620ef007820ef00ce22ef002c
:100e5800d622ef00de22ef00e622ef00ee22ef00be
:100e6800f622ef00c00f2f00102788000080eb004b
:100e780030278800000f200040278800900b2000b2
:100e880050278800003c200060278800a804a8009c
:100e98000080fa00000006000000fa0000002300ad
:100ea800303a88004827ef004e27ef007027ef0000
:100eb8007227ef007427ef007627ef007827ef00fe
:100ec8007a27ef007c27ef0012002000800720001f
:100ed800a1092000337420008049780081497800f6
:100ee800824978000001eb006004200071052000b1
:100ef800237420008049780081497800824978006d
:080f08000080fa000000060061
:020000040000fa
:100f1000240800000200000080000000000800001b
:100f20000200000080000000040800002000000013
:100f300080000000020800000200000082000000a3
:080f4000ffff000000000000ab
:020000040000fa
:100f4800000f78009e00780011408800ffff3700ee
:100f58000000fa004080200080077800c08120004f
:100f6800000188000080fa00000006000000fa0076
:100f780097ff070009000700c7ff0700fffe0700eb
:100f8800b3fd07000080fa00000006000000fa0028
:100f9800c1ff07000080fa00000006000000fa0008
:080fa8000080fa0000000600c1
:020000040000fa
:020000040002f8
:04aff000ff870000d7
:020000040000fa
:020000040002f8
:04aff400fffe00005c
:020000040000fa
:020000040002f8
:04aff800bfe10000b5
:020000040000fa
:020000040002f8
:04affc003f3f0000d3
:00000001FF
