:020000040000fa
:080000000002040000000000f2
:020000040000fa
:04000800520300009f
:020000040000fa
:04000c0030030000bd
:020000040000fa
:0400100042030000a7
:020000040000fa
:0400140038030000ad
:020000040000fa
:040018004a03000097
:020000040000fa
:04001c00520300008b
:020000040000fa
:040020005203000087
:020000040000fa
:040024005203000083
:020000040000fa
:04002800520300007f
:020000040000fa
:04002c00520300007b
:020000040000fa
:040030005203000077
:020000040000fa
:040034005203000073
:020000040000fa
:04003800520300006f
:020000040000fa
:04003c00520300006b
:020000040000fa
:040040005203000067
:020000040000fa
:040044005203000063
:020000040000fa
:04004800520300005f
:020000040000fa
:04004c00520300005b
:020000040000fa
:040050005203000057
:020000040000fa
:040054005203000053
:020000040000fa
:04005800520300004f
:020000040000fa
:04005c00520300004b
:020000040000fa
:040060005203000047
:020000040000fa
:040064005203000043
:020000040000fa
:04006800520300003f
:020000040000fa
:04006c00520300003b
:020000040000fa
:040070005203000037
:020000040000fa
:040074005203000033
:020000040000fa
:04007800520300002f
:020000040000fa
:04007c00520300002b
:020000040000fa
:040080005203000027
:020000040000fa
:040084005203000023
:020000040000fa
:04008800520300001f
:020000040000fa
:04008c00520300001b
:020000040000fa
:040090005203000017
:020000040000fa
:040094005203000013
:020000040000fa
:04009800520300000f
:020000040000fa
:04009c00520300000b
:020000040000fa
:0400a0005203000007
:020000040000fa
:0400a4005203000003
:020000040000fa
:0400a80052030000ff
:020000040000fa
:0400ac0052030000fb
:020000040000fa
:0400b00052030000f7
:020000040000fa
:0400b40052030000f3
:020000040000fa
:0400b80052030000ef
:020000040000fa
:0400bc0052030000eb
:020000040000fa
:0400c00052030000e7
:020000040000fa
:0400c40052030000e3
:020000040000fa
:0400c80052030000df
:020000040000fa
:0400cc0052030000db
:020000040000fa
:0400d00052030000d7
:020000040000fa
:0400d40052030000d3
:020000040000fa
:0400d80052030000cf
:020000040000fa
:0400dc0052030000cb
:020000040000fa
:0400e00052030000c7
:020000040000fa
:0400e40052030000c3
:020000040000fa
:0400e80052030000bf
:020000040000fa
:0400ec0052030000bb
:020000040000fa
:0400f00052030000b7
:020000040000fa
:0400f40052030000b3
:020000040000fa
:0400f80052030000af
:020000040000fa
:0400fc0052030000ab
:020000040000fa
:0401000052030000a6
:020000040000fa
:0401040052030000a2
:020000040000fa
:04010800520300009e
:020000040000fa
:04010c00520300009a
:020000040000fa
:040110005203000096
:020000040000fa
:040114005203000092
:020000040000fa
:04011800520300008e
:020000040000fa
:04011c00520300008a
:020000040000fa
:040120005203000086
:020000040000fa
:040124005203000082
:020000040000fa
:04012800520300007e
:020000040000fa
:04012c00520300007a
:020000040000fa
:040130005203000076
:020000040000fa
:040134005203000072
:020000040000fa
:04013800520300006e
:020000040000fa
:04013c00520300006a
:020000040000fa
:040140005203000066
:020000040000fa
:040144005203000062
:020000040000fa
:04014800520300005e
:020000040000fa
:04014c00520300005a
:020000040000fa
:040150005203000056
:020000040000fa
:040154005203000052
:020000040000fa
:04015800520300004e
:020000040000fa
:04015c00520300004a
:020000040000fa
:040160005203000046
:020000040000fa
:040164005203000042
:020000040000fa
:04016800520300003e
:020000040000fa
:04016c00520300003a
:020000040000fa
:040170005203000036
:020000040000fa
:040174005203000032
:020000040000fa
:04017800520300002e
:020000040000fa
:04017c00520300002a
:020000040000fa
:040180000403000074
:020000040000fa
:040184005203000022
:020000040000fa
:04018800520300001e
:020000040000fa
:04018c00520300001a
:020000040000fa
:040190005203000016
:020000040000fa
:040194005203000012
:020000040000fa
:04019800520300000e
:020000040000fa
:04019c00520300000a
:020000040000fa
:0401a0005203000006
:020000040000fa
:0401a4005203000002
:020000040000fa
:0401a80052030000fe
:020000040000fa
:0401ac0052030000fa
:020000040000fa
:0401b00052030000f6
:020000040000fa
:0401b40052030000f2
:020000040000fa
:0401b80052030000ee
:020000040000fa
:0401bc0052030000ea
:020000040000fa
:0401c00052030000e6
:020000040000fa
:0401c40052030000e2
:020000040000fa
:0401c80052030000de
:020000040000fa
:0401cc0052030000da
:020000040000fa
:0401d00052030000d6
:020000040000fa
:0401d40052030000d2
:020000040000fa
:0401d80052030000ce
:020000040000fa
:0401dc0052030000ca
:020000040000fa
:0401e00052030000c6
:020000040000fa
:0401e40052030000c2
:020000040000fa
:0401e80052030000be
:020000040000fa
:0401ec0052030000ba
:020000040000fa
:0401f00052030000b6
:020000040000fa
:0401f40052030000b2
:020000040000fa
:0401f80052030000ae
:020000040000fa
:0401fc0052030000aa
:020000040000fa
:04020800520300009d
:020000040000fa
:04020c0030030000bb
:020000040000fa
:0402100042030000a5
:020000040000fa
:0402140038030000ab
:020000040000fa
:040218004a03000095
:020000040000fa
:04021c005203000089
:020000040000fa
:040220005203000085
:020000040000fa
:040224005203000081
:020000040000fa
:04022800520300007d
:020000040000fa
:04022c005203000079
:020000040000fa
:040230005203000075
:020000040000fa
:040234005203000071
:020000040000fa
:04023800520300006d
:020000040000fa
:04023c005203000069
:020000040000fa
:040240005203000065
:020000040000fa
:040244005203000061
:020000040000fa
:04024800520300005d
:020000040000fa
:04024c005203000059
:020000040000fa
:040250005203000055
:020000040000fa
:040254005203000051
:020000040000fa
:04025800520300004d
:020000040000fa
:04025c005203000049
:020000040000fa
:040260005203000045
:020000040000fa
:040264005203000041
:020000040000fa
:04026800520300003d
:020000040000fa
:04026c005203000039
:020000040000fa
:040270005203000035
:020000040000fa
:040274005203000031
:020000040000fa
:04027800520300002d
:020000040000fa
:04027c005203000029
:020000040000fa
:040280005203000025
:020000040000fa
:040284005203000021
:020000040000fa
:04028800520300001d
:020000040000fa
:04028c005203000019
:020000040000fa
:040290005203000015
:020000040000fa
:040294005203000011
:020000040000fa
:04029800520300000d
:020000040000fa
:04029c005203000009
:020000040000fa
:0402a0005203000005
:020000040000fa
:0402a4005203000001
:020000040000fa
:0402a80052030000fd
:020000040000fa
:0402ac0052030000f9
:020000040000fa
:0402b00052030000f5
:020000040000fa
:0402b40052030000f1
:020000040000fa
:0402b80052030000ed
:020000040000fa
:0402bc0052030000e9
:020000040000fa
:0402c00052030000e5
:020000040000fa
:0402c40052030000e1
:020000040000fa
:0402c80052030000dd
:020000040000fa
:0402cc0052030000d9
:020000040000fa
:0402d00052030000d5
:020000040000fa
:0402d40052030000d1
:020000040000fa
:0402d80052030000cd
:020000040000fa
:0402dc0052030000c9
:020000040000fa
:0402e00052030000c5
:020000040000fa
:0402e40052030000c1
:020000040000fa
:0402e80052030000bd
:020000040000fa
:0402ec0052030000b9
:020000040000fa
:0402f00052030000b5
:020000040000fa
:0402f40052030000b1
:020000040000fa
:0402f80052030000ad
:020000040000fa
:0402fc0052030000a9
:020000040000fa
:0403000052030000a4
:020000040000fa
:0403040052030000a0
:020000040000fa
:04030800520300009c
:020000040000fa
:04030c005203000098
:020000040000fa
:040310005203000094
:020000040000fa
:040314005203000090
:020000040000fa
:04031800520300008c
:020000040000fa
:04031c005203000088
:020000040000fa
:040320005203000084
:020000040000fa
:040324005203000080
:020000040000fa
:04032800520300007c
:020000040000fa
:04032c005203000078
:020000040000fa
:040330005203000074
:020000040000fa
:040334005203000070
:020000040000fa
:04033800520300006c
:020000040000fa
:04033c005203000068
:020000040000fa
:040340005203000064
:020000040000fa
:040344005203000060
:020000040000fa
:04034800520300005c
:020000040000fa
:04034c005203000058
:020000040000fa
:040350005203000054
:020000040000fa
:040354005203000050
:020000040000fa
:04035800520300004c
:020000040000fa
:04035c005203000048
:020000040000fa
:040360005203000044
:020000040000fa
:040364005203000040
:020000040000fa
:04036800520300003c
:020000040000fa
:04036c005203000038
:020000040000fa
:040370005203000034
:020000040000fa
:040374005203000030
:020000040000fa
:04037800520300002c
:020000040000fa
:04037c005203000028
:020000040000fa
:040380000403000072
:020000040000fa
:040384005203000020
:020000040000fa
:04038800520300001c
:020000040000fa
:04038c005203000018
:020000040000fa
:040390005203000014
:020000040000fa
:040394005203000010
:020000040000fa
:04039800520300000c
:020000040000fa
:04039c005203000008
:020000040000fa
:0403a0005203000004
:020000040000fa
:0403a4005203000000
:020000040000fa
:0403a80052030000fc
:020000040000fa
:0403ac0052030000f8
:020000040000fa
:0403b00052030000f4
:020000040000fa
:0403b40052030000f0
:020000040000fa
:0403b80052030000ec
:020000040000fa
:0403bc0052030000e8
:020000040000fa
:0403c00052030000e4
:020000040000fa
:0403c40052030000e0
:020000040000fa
:0403c80052030000dc
:020000040000fa
:0403cc0052030000d8
:020000040000fa
:0403d00052030000d4
:020000040000fa
:0403d40052030000d0
:020000040000fa
:0403d80052030000cc
:020000040000fa
:0403dc0052030000c8
:020000040000fa
:0403e00052030000c4
:020000040000fa
:0403e40052030000c0
:020000040000fa
:0403e80052030000bc
:020000040000fa
:0403ec0052030000b8
:020000040000fa
:0403f00052030000b4
:020000040000fa
:0403f40052030000b0
:020000040000fa
:0403f80052030000ac
:020000040000fa
:0403fc0052030000a8
:020000040000fa
:100400000fa320000e7f22000e01880000000000d4
:10041000000020000000e000020032000001200087
:100420002002880014000700a00007000000e00080
:1004300003003a0060c721000100200002003700dd
:100440000000200001002000810f70000100320038
:1004500014000700000020000000e000020032004d
:1004600000000200000000009e1a020000000000d0
:100470000040da000000fe004440a900000d20000a
:100480000000e000030032000020200090018800fe
:100490004440a800000006008a1f78008b1f7800e7
:1004a00000000600a1028800800478000000eb0034
:1004b0001f003700e284440054a0b4009905ba003c
:1004c000e284440054a0b4009906ba00e2844400d7
:1004d00054a0b4000006eb00476fde00fd07b20039
:1004e000ae018800636ce10003003a00eaff0700f8
:1004f0000000eb000e003700606ce10008003a00dd
:10050000004deb000a05e800020039003420ec0041
:100510000af0a0008b05e900f9ff3e000400370057
:100520006168e100010032000086eb000b0007006b
:1005300019c7ba001905ba000e04e00003003a001a
:100540000a00e000dbff3a0000000600fe07b200f0
:10055000ae0288008a047800f5ff37000cd0a300b3
:10056000e20f4d001c00390089027800354dba00b9
:100570000a05e800020039003420ec000af0a0006f
:100580008b05e9000f003200254dba000a05e8008e
:10059000020039003420ec000af0a0008b05e900cd
:1005a000080032000c00e0000600320015cdba0051
:1005b0000a05e800020039003420ec000af0a0002f
:1005c0008b05e9008984e80054a0b4000b00e0002a
:1005d000e2ff3a00000006009902ba00055d7800cb
:1005e0008b05e900f7ff3200c82ade00055d7800c0
:1005f0008b05e900f3ff32000c00e000f1ff320050
:1006000019ddba00eeff37003600f800809fbe000b
:10061000829fbe00849fbe00869fbe003200f8000d
:100620003400f80010002000a00188000020200005
:10063000900188000000fa009d0107000080fa0088
:100640003400f9003200f9004f03be004f02be0033
:100650004f01be004f00be003600f900004006000a
:100660003600f8008020a9000000eb00db0c07003a
:100670003600f800dd0c07008040a90010002000c3
:10068000d60c07003600f8008060a900200020008a
:10069000d20c07003600f8008080a900300020004e
:1006a000ce0c07000040da000000fe00000005004c
:1006b00014002000020037006011b8001b00370052
:1006c000889fbe008a9fbe00841f78006c000700d0
:1006d0004f00780011003300f0ff2f00838f6c0073
:1006e00006003b00040565000a00a700080037006b
:1006f00009f0a6001000200008003700820f540007
:10070000838f5c00030039001000200001003e00d0
:100710000000200009f0a7000000ea004f05be001d
:100720004f04be000000e00000000600889fbe00ed
:100730008a9fbe0000827000040271000482710072
:10074000260032000004be000200be006011b800a6
:100750006b092000950220000182cf000a003900b9
:100760000541b1000082cf00070039000541b1000a
:100770000982cf00040039000541b1000882cf0092
:10078000010039000541b10005425200120032005b
:100790000a003b0082817100610164008100d10088
:1007a0000080d3008984d3000884d3008b05e8003f
:1007b0000442e800f7ff3a0007003700080444004d
:1007c00089844c0000004800818048008b05e900c6
:1007d0000442e900f9ff3a00030007004f05be009c
:1007e0004f04be000000060081002000618055001b
:1007f0000b003d000b00200061fe2f000100e10016
:100800001d00340082817100610164008904d100ff
:100810000884d3000000e800faff3a0071002000cd
:1008200061006400030070000200600009003200f3
:1008300061044400e0844c000988a50005003200f2
:100840008b05e8006808e10002003a008904d10045
:100850000884d300f20f20000258e10005003d009b
:10086000c75ddd00f907b2008980750008007800d7
:10087000000006000bf827008b0078000000050040
:100880000004be00060007000003be000405be0011
:100890000200be0002000700844f75000000060041
:1008a000c70ade00f107b200f50fb20008003200ff
:1008b000e1cf4200020032000170a00024000500d8
:1008c000810f70000100320004080500440005009b
:1008d000810f700002003a00140005008502e90053
:1008e0000000400081c04800fcff3b000170a000f8
:1008f000240005008001780002003700b15978001b
:100900000201e9000200e000fcff3a0000000600de
:100910008001780002003700815978000201e90067
:0c0920000200e000fcff3a0000000600ae
:020000040000fa
:10092c00120100000002000002000000000800009c
:10093c00d80400000a0000000001000001020000c1
:10094c000001000009020000430000000201000049
:10095c0000c000003209000004000000000100008b
:10096c00020200000100000005240000001000003d
:10097c00010400002402000002050000240600000f
:10098c000001000005240000010000000107000028
:10099c0005810000030a00000002000009040000a9
:1009ac0001000000020a0000000000000007000027
:1009bc0005020000024000000000000007050000d6
:1009cc008202000040000000000000000403000050
:1009dc0009040000340300004d0000006900000011
:1009ec0063000000720000006f0000006300000054
:1009fc00680000006900000070000000200000008a
:100a0c005400000065000000630000006800000056
:100a1c006e0000006f0000006c0000006f00000012
:100a2c006700000079000000200000004900000071
:100a3c006e000000630000002e0000001a0300008e
:100a4c0050000000720000006f0000006400000005
:100a5c00750000006300000074000000200000001e
:100a6c004e000000610000006d00000065000000f9
:100a7c00a8840000ec840000f084000024850000b1
:100a8c0055530000422000005669000072740000ab
:100a9c00756100006c200000434f00004d330000d6
:100aac0000480000656c00006c6f000020570000cf
:100abc006f7200006c640000203a0000000000001f
:020000040000fa
:100acc000200fa009ec0a900e8e2a8000080eb003a
:100adc00702488000080eb0050248800aa24ef00ca
:100aec00420020008000eb00c04a200085ff070078
:100afc002000200030258800a824ef008644a9009f
:100b0c00f009200080248800f0092000602488006f
:100b1c0082c4a8008804a80000a020004800de00c1
:100b2c00c02488000040eb00004f7800070037001d
:100b3c001e80fb00c200dd0000a0200000814000f0
:100b4c006000b8000089be001e4fe8001e4078000f
:100b5c00eb4f5000f6ff36009424a8009624ef00cb
:100b6c0094a4a9009424a90080002000502488009b
:100b7c00609620008040eb0001487800c096200071
:100b8c008040eb0001487800d0962000904078001f
:100b9c00e0c0600001487800e096200090407800aa
:100bac00e0c06000014878005024800068006000bc
:100bbc000000e000ecff3a0010c0b30013e8b700ef
:100bcc0010c0b30014e8b7001568ef001668ef000a
:100bdc000d68ef000040eb00004f78001500370067
:100bec001e80fb0080004000e0952000008040004b
:100bfc008000eb00010878001e80fb0080004000a4
:100c0c0080952000008040008000eb0001087800f7
:100c1c001e80fb00119720000041eb0082707800d1
:100c2c001e80fb00419720000041eb008270780091
:100c3c001e4fe8001e407800e24f5000e8ff3600df
:100c4c0080a02000f04a8800d000200050258800a9
:100c5c00709720001050880000a0200081c0b300c5
:100c6c000148780010a0200041c0b3000148780072
:100c7c0010a0200010407800804078000174a00083
:100c8c0010a02000014878000268ef001828ef003f
:100c9c001a28ef001c68ef000028ef000080fa0013
:100cac00000006000200fa0000408000e10f500036
:100cbc000b003a00a124800000042000008060009a
:100ccc000000e00006003a000080eb005024880091
:100cdc008c04a8008c84a800200020000040880010
:100cec0000248000700060000000e000070032006b
:100cfc0010248000700060000000e000030032004f
:100d0c000001200000248800bc040700402480005f
:100d1c00620060000000e000020032008ec0a900fa
:100d2c00a100370050248000610060000000e0004a
:100d3c000a00320060248000610060000000e000c6
:100d4c00060032005eff07009ec0a8004000200095
:100d5c00004088001000200050248800502480009f
:100d6c00700060000000e00005003200602480008c
:100d7c00700060000000e0000100320092040700e7
:100d8c000124800000042000008060000000e000ce
:100d9c00030032000004200000248800ee06070047
:100dac0050248000640060000000e0001400320059
:100dbc0060248000640060000000e0000400320049
:100dcc00120020008000eb00300720009a0a070078
:100ddc00400020005024880011c8bf000004e0002f
:100dec000300320011c8bf000040e90011e8b70051
:100dfc0011c8bf000004e00001003a00a301070085
:100e0c005124800000082000008060000000e000f9
:100e1c000600320061248000000820000080600081
:100e2c000000e000010032004b0407005024800059
:100e3c00620060000000e0000c00320060248000c2
:100e4c00620060000000e000080032001200200088
:100e5c008000eb00f0ff2700770a07000080eb0012
:100e6c00702488002000200050248800004080005e
:100e7c00e30f500002003e008ec0a9004a0037006c
:100e8c0060248000680060000000e0004500320033
:100e9c000040eb00004f78003d00370050248000ec
:100eac00680060000000e0003d00320090248000eb
:100ebc00004078000ee8b7000ec8bf000080fb00b1
:100ecc004400de00004078000fe8b70080002000ee
:100edc00502488000ec8bf00684060000004e00089
:100eec0011003a000fc8bf000081fb008080fb009e
:100efc0040972000008040009040780061c0600066
:100f0c000004a200e1406000409720000000410076
:100f1c00e1c06000104178000204a1008140710022
:100f2c0001487800100037000fc8bf000081fb009b
:100f3c008080fb00109720000080400090407800db
:100f4c0061c060000004a200e14060001097200026
:100f5c0000004100e1c06000104178000204a100d3
:100f6c0081407100014878000fc8bf000004e00008
:100f7c0002003a002d040700040037000001eb00ca
:100f8c00e1802000200720002b0a07001e4fe800fc
:100f9c001e407800e34f5000c0ff360001003700c0
:100fac00000000008ec0a9000080fa0000000600be
:100fbc000400fa0020479800314798003e4090000a
:100fcc000080fb00680060000000e00003003200bd
:100fdc008040eb002e4090009b0107003e409000ab
:100fec000080fb00640060000000e00003003200a1
:100ffc0011c0b3002e40900093010700a14a2000bd
:10100c002e4090000080fb0000004000008f40004c
:10101c001e007800be409000014878000080fa0065
:10102c00000006000800fa0020479800314798009d
:10103c0022079800634798003e4090000004e000af
:10104c00070032002e4090000080fb008000400022
:10105c00e095200000804000100f7800060037005b
:10106c002e4090000080fb00800040008095200006
:10107c0000804000100f78001e0078000000e00097
:10108c0002003a000000eb0037003700ae00900081
:10109c001e007800110098001e007800ee409000b1
:1010ac00014878001e0078001040900002c4b30084
:1010bc00824060001e007800114098001e007800ed
:1010cc0010409000804078000134a0001e00780091
:1010dc00114098001e00780010409000804078006d
:1010ec000174a0001e007800114098003e40900052
:1010fc000004e0000e0032002e4090000080fb0047
:10110c00ae4090008180fb0001814000e195200001
:10111c0081004100910078000120a20000014000f4
:10112c00e095200000004100010878000d00370018
:10113c002e4090000080fb00ae4090008180fb00b0
:10114c0001814000819520008100410091007800d0
:10115c000120a20000014000809520000000410009
:10116c00010878001e0078000080fa0000000600dc
:10117c000400fa0020479800314798002e40900058
:10118c000004e00017003a003040800081c0b3003a
:10119c0001487800304080007197200011009800c1
:1011ac0030408000c1c0b300114098003040800036
:1011bc0031408000914090000174a00011409800d3
:1011cc00f04a800041c0b30011409800f04a800002
:1011dc00f14a8000914090000174a00011409800e9
:1011ec002e0037002e4090000080fb0000004000d5
:1011fc00800078003e4090000080fb0000804000a2
:10120c004300dd008000780000a02000008f40002b
:10121c001e00780010409000804078000124a0004f
:10122c001e007800114098001e00780010409000bd
:10123c00804078000174a0001e00780011409800d6
:10124c002e4090000080fb000000400080007800e1
:10125c003e4090000080fb00008040004300dd0019
:10126c00e400400000a02000008f40001e00780029
:10127c0010409000804078000124a0001e007800ef
:10128c00114098001e0078001040900080407800bb
:10129c000174a0001e007800114098000080fa0034
:1012ac00000006000200fa00004f7800a124800024
:1012bc0000022000008060000000e00051003200bd
:1012cc001e80fb0080004000e09520000080400064
:1012dc00100278001e80fb0080004000e09520008a
:1012ec0000804000100078001001be0000042000b7
:1012fc000100200082027800030178008001780050
:10130c000100780083826200000061008000eb0025
:10131c00c000dd00000020000001be006128b80004
:10132c000001710081817100028abe001e80fb00e9
:10133c0080004000e0952000008040001002780002
:10134c001e80fb0080004000e095200000804000e3
:10135c00100078001001be000004200001002000e5
:10136c000000690081806900008abe001e80fb00bd
:10137c009e80fb0001814000e1952000810041002e
:10138c00910078000120a20000014000e0952000af
:10139c0000004100010878001e80fb008000400026
:1013ac00e095200000804000900078001e80fb003b
:1013bc0000014000e0952000000041001000780082
:1013cc00104090000044b200904098001e80fb003a
:1013dc0080004000e09520000080400090007800e4
:1013ec001e80fb0000014000e09520000000410041
:1013fc00100078001041900000c4b3000040690058
:10140c00904098000080fa00000006000000fa00ee
:10141c009424ef008c24ef000028ef000080fa00e9
:10142c00000006000000fa00004080000000e00010
:10143c0014003a009424ef008c24ef0020002000cc
:10144c0030258800a824ef008644a900f00920006c
:10145c0080248800f00920006024880082c4a80041
:10146c009ec0a800010037009404a800a0248000ae
:10147c00610060000000e000fbff32001000200063
:10148c00004088000080fa00000006000000fa000e
:10149c0013c8bf000004a2000004e00034003200b6
:1014ac0010c0b30013e8b70014c8bf000004a200ba
:1014bc000004e0002e00320010c0b30014e8b700a6
:1014cc0009c8bf00e24f50000c003a00f04a8000ff
:1014dc008040eb0001487800f04a800081c4b300e2
:1014ec0011409800f04a8000f14a80009140900031
:1014fc000174a000114098001d00370009c8bf00fe
:10150c00e14f50001a003a001068ef0020408000b4
:10151c0081c0b30001487800204080007197200002
:10152c00110098002040800041c0b3001140980089
:10153c002040800021408000914090000174a00068
:10154c001140980010c0b30010e8b7003040800084
:10155c0081c0b300014878003040800071972000b2
:10156c00110098003040800001c8b3001140980071
:10157c000080fa00000006000000fa001568ef0079
:10158c001668ef0009c8bf00e24f50000f003a0088
:10159c003040800081c0b3000148780030408000aa
:1015ac00f1972000110098003040800081c4b300f6
:1015bc0011409800304080003140800091409000f4
:1015cc000174a000114098001d003700d097200036
:1015dc001080fb00e19720009180fb00c808dd0023
:1015ec000100700080007800404b8000808f50001c
:1015fc0007003100d09720001080fb00e1972000fd
:10160c009180fb00c808dd0001007000404b880091
:10161c0096000700f04a8000f19720001100980016
:10162c00f04a800081c4b30011409800f04a800059
:10163c00f14a8000914090000174a0001140980084
:10164c000080fa00000006000400fa002047980011
:10165c003147980000a02000000f78002e40900029
:10166c000080fb0000004000800078003e409000ad
:10167c000080fb00008040004300dd001e0f400096
:10168c001e0078009000780001f0a100010878009d
:10169c003e4090000004e00007003a002e4090000d
:1016ac000080fb00800040008095200000804000fe
:1016bc001e087800060037002e4090000080fb00ca
:1016cc0080004000e0952000008040001e0878005b
:1016dc001e0078009000780001e0a100010878005d
:1016ec009e007800648040009000780001e0a0002b
:1016fc00010878000080fa00000006000000fa00e3
:10170c0094a4a900314b80000008200000806000e8
:10171c000000e00027003a00c096200090407800be
:10172c0000c8b30000c060000004e0000a003200f2
:10173c0020c0b30009e8b70016c8bf000004a2001f
:10174c000004e000010032008bff07001468ef007a
:10175c001368ef00430037003040800081c0b300b5
:10176c0001487800304080007197200011009800eb
:10177c0030408000c1c0b300114098003040800060
:10178c0031408000914090000174a00011409800fd
:10179c00f04a800041c0b30011409800f04a80002c
:1017ac00f14a8000914090000174a0001140980013
:1017bc002c003700709720009040780000c8b300d0
:1017cc0000c060000004e0000f00320010c0b30045
:1017dc0009e8b70015c8bf000004a2000004e0002f
:1017ec000100320064ff07001468ef001368ef007b
:1017fc0012c8bf000004a2000004e000190032006f
:10180c0022ff07001700370020c0b30009e8b7001b
:10181c003040800081c0b300014878003040800027
:10182c0071972000110098003040800041c0b30037
:10183c001140980030408000314080009140900071
:10184c000174a000114098001468ef001368ef00b9
:10185c0012c8bf000004a2000004e0000100320026
:10186c000aff07000080fa00000006000200fa00e0
:10187c0080c0b300004f7800404b8000e70f500051
:10188c000d003e00404b8000004f780008c8bf00a0
:10189c000004e00003003a0010c0b30008e8b700f1
:1018ac000500370008c8bf00e14f500002003a00a5
:1018bc0020c0b30008e8b700414b80001e80fb003d
:1018cc0000805000404b8800f04a80001e48780091
:1018dc00f097200050408800304b80006100600081
:1018ec000000e00017003a0009003700514080006a
:1018fc00204b800010417800824878008100e8007d
:10190c00514088000000e800204b88001e4fe90081
:10191c001e4078000004e000f4ff3a000c00370091
:10192c0051408000204b80001041780082487800a4
:10193c008100e800514088000000e800204b88003e
:10194c001e4fe9001e4078000004e000f4ff3a004e
:10195c000080fa00000006000200fa00204080001f
:10196c00104f78009e80fb00d09620001080fb006a
:10197c00e29620001281fb004811dd00020070008d
:10198c00808f500007003600d09620001080fb009e
:10199c00e19620009180fb00c808dd00010070007a
:1019ac00004f7800d09620001080fb00e1962000bc
:1019bc009180fb00c808dd000100700080007800f9
:1019cc001e80fb0000805000f10f20000101600020
:1019dc00d196200091417800e0c1610002c17100f4
:1019ec0082487800c800de00e096200010417800a4
:1019fc006041610081407100014878000040eb00bb
:101a0c00104798001c003700a09620001080fb00a7
:101a1c00b19620009180fb00c808dd000100700029
:101a2c009e4090008180fb00f2972000e2c078007d
:101a3c00014878000000e800f10f2000010160006f
:101a4c00a196200091417800e0c1610002c17100b3
:101a5c0082487800c800de00b09620001041780063
:101a6c006041610081407100014878001e40900087
:101a7c000040e800104798001e4090009e4f500018
:101a8c00e1ff3900d09620001080fb00e196200089
:101a9c009180fb00c808dd00010070000000e00030
:101aac001e0032003040800081c0b3000148780035
:101abc0030408000f19720001100980020408000f9
:101acc009000780000002400008060000000e0001e
:101adc0009003a003040800081c4b30011409800e6
:101aec003040800031408000914090000174a00093
:101afc00114098002f0037003040800081c0b300a7
:101b0c00114098003040800031408000914090009e
:101b1c000174a0001140980026003700304080006e
:101b2c0081c0b300014878003040800071972000dc
:101b3c00110098003040800041c0b3001140980063
:101b4c003040800031408000914090000174a00032
:101b5c0011409800f09620001080fb0001972000a7
:101b6c009180fb00c808dd00010070000000e0005f
:101b7c0007003200f09620001080fb000197200037
:101b8c009180fb00c808dd0001007000000001001e
:101b9c00c0962000904078000174a10001487800a4
:101bac0012c8bf000004a2000004e00001003200d3
:101bbc0036fe07000080fa00000006000200fa0062
:101bcc00304b80000070a000304b88004200200099
:101bdc008000eb00c04a20004afb070002032000f3
:101bec008000eb0000a0200046fb07009424a80016
:101bfc000040eb00004f7800090037001e80fb000e
:101c0c00119720000041eb00827078001e80fb00d1
:101c1c00419720000041eb00827078001e4fe800d5
:101c2c001e407800e24f5000f4ff360022002000e6
:101c3c008000eb006095200032fb07009424a90083
:101c4c0080a02000f04a880000a0200020408800de
:101c5c002040800030408800909720001040780091
:101c6c0002e8b70002c8bf000004e00003003a001d
:101c7c000001200000408800060037001200200000
:101c8c002180200010002000eb060700000220003d
:101c9c00004088000080fa00000006000000fa00f6
:101cac00709720009040780000c8b30080cf50009f
:101cbc0047003a006096200001ccb3000148780040
:101ccc00a0972000104078000080fb00e20f50002d
:101cdc0009003200e30f500023003200e10f5000e6
:101cec0037003a0060492800204b88002001200072
:101cfc00404b880036003700909720001040780049
:101d0c000004e00014003a00909720001040780086
:101d1c000080fb000000400080007800e0532800a9
:101d2c000080400010007800204b8800204b800081
:101d3c000080e800904078008096200001487800f0
:101d4c00204b80006300400090407800909620006b
:101d5c00014878001e003700609620008040eb00a0
:101d6c00014878001a003700909720001040780046
:101d7c00e24f50000e003e0090972000104078007b
:101d8c000080fb0000004000800078000054280018
:101d9c000080400010007800204b8800204b800011
:101dac00104078000080fb00404b88000800370092
:101dbc00609620008040eb0001487800040037005a
:101dcc00609620008040eb00014878000000000085
:101ddc000080fa00000006000200fa00f0972000d4
:101dec008040eb0001487800009820008040eb0018
:101dfc000148780070972000904078007fc0600008
:101e0c000080fb00e10f500011003200e20f500087
:101e1c00130032000000e00040003a00304b80001c
:101e2c000070a000304b88000cc8bf000004e0001c
:101e3c0035003200f0972000104078008040780088
:101e4c000114a000f09720000148780033003700ff
:101e5c00304b80000070a000304b88002f00370002
:101e6c00304b80000070a000304b8800b0972000f1
:101e7c009040780000c8b30000c060000004e0008f
:101e8c0009003a00b0972000904078006fc06000c5
:101e9c000080fb0080004000809520000080400006
:101eac00100f780008003700b097200090407800a1
:101ebc006fc060000080fb0080004000e0952000b7
:101ecc0000804000100f78001e0078009000780011
:101edc0000002800008060000000e0000c003200d0
:101eec001e00780090007800004020000080600008
:101efc000000e00008003200f097200011c0b30091
:101f0c00014878000500370000000000030037008e
:101f1c00000000000100370000000000314b800081
:101f2c0000082000008060000000e0000800320083
:101f3c00f0972000204b8800304b80000000a00060
:101f4c00304b88008096200021c0b30001487800f7
:101f5c000080fa00000006000000fa005025800006
:101f6c00620060000000e00013003200204080009e
:101f7c009040900000c8b30080cf50000d003a0094
:101f8c00f04a80009040900040c8b30080cf5000d1
:101f9c0008003a0020408000c1c0b30011409800f6
:101fac002040800021408000914090000174a000ee
:101fbc0011409800aa24a900000820005024880091
:101fcc000080fa00000006000000fa008284a800dd
:101fdc00000120005024880010c0b3000de8b700a9
:101fec001c68ef000001eb008000eb0050072000a4
:101ffc00110607000080fa00000006000000fa003d
:10200c000d68ef000001eb008000eb0040072000a2
:10201c00090607008284a900000120000024880022
:10202c001c68ef000080fa00000006000000fa00b7
:10203c00d0c2b30011e8b7000ec8bf000080fb008f
:10204c000020a1000000e0001f003a000ec8bf00f5
:10205c000080fb004200de00004078000080fb00a6
:10206c00c200dd0000a0200000804000204088005d
:10207c002040800030408800304080000020a200ca
:10208c0030408800204080009000780000c0230081
:10209c008080600000402300808f500008003a00d0
:1020ac00204080001000900082002000800078000a
:1020bc00709720000cfa07000b000700080037008f
:1020cc003d000700060037000ec8bf000080fb0073
:1020dc000020a100e80f500001003a005300070057
:1020ec000080fa00000006000000fa000868ef000b
:1020fc001268ef001568ef001668ef001068ef002b
:10210c000968ef00f04a8000f14a8000914090008d
:10211c000174a10011409800f04a80000020a20038
:10212c00f04a8800f04a8000f14a8000914090000b
:10213c000174a10011409800f04a80000020a20018
:10214c00f04a88003040800031408000914090007f
:10215c000174a10011409800609620008040eb00b3
:10216c00014878000000eb00404b8800c09620002e
:10217c008040eb0001487800d09620009040780019
:10218c00e0c0600001487800e096200090407800a4
:10219c00e0c0600001487800820007000001eb00fd
:1021ac008000eb0030002000a305070053fd070062
:1021bc000080fa00000006000000fa0009c8bf0009
:1021cc00e24f500002003a00e3fd07001500370013
:1021dc000968ef0010c8bf000004a2000004e00072
:1021ec000f0032003040800081c0b30001487800fd
:1021fc003040800071972000110098003040800022
:10220c00c1c0b300114098003040800031408000c4
:10221c00914090000174a00011409800010037001b
:10222c001068ef000080fa00000006000200fa00bf
:10223c00f04a8000100078004e00de006140600023
:10224c00004f7800f04a80000020a200f04a88007d
:10225c0000408000e80f50000e003a0090972000dc
:10226c00104078008080fb00f007200000806000a8
:10227c00b0248800b02480000000e000030032008d
:10228c0000012000004088000200370040002000c0
:10229c000040880009c8bf00e14f500025003a00fb
:1022ac00f04a8000f1972000110098006ffd0700a4
:1022bc0008c8bf00e24f500009003a00f04a800005
:1022cc0041c0b30011409800f04a8000f14a8000f0
:1022dc00914090000174a000114098002f0037002d
:1022ec001e4078000004e00009003a00f04a80002b
:1022fc0081c4b30011409800f04a8000f14a80007c
:10230c00914090000174a000114098002300370008
:10231c00f04a800081c0b30011409800f04a800060
:10232c00f14a8000914090000174a0001140980087
:10233c001a003700c09620009040780000c8b30007
:10234c0000c060000004e00013003200f096200092
:10235c001080fb00019720009180fb00c808dd0075
:10236c00010070000000e00007003200f096200031
:10237c001080fb00019720009180fb00c808dd0055
:10238c000100700000000100c09620009040780011
:10239c000174a100014878000968ef000080fa0080
:1023ac00000006000000fa00709720001040780032
:1023bc000046b2000004e00050003a008097200074
:1023cc00104078000080fb00cf80de00b2002000bf
:1023dc0003002000820f5000838f580049003e00fc
:1023ec000060010021003700220037004700370051
:1023fc002000370045003700060037000b0037007f
:10240c00390037000d0037000a0037001b00370079
:10241c002a003700304b80000070a000304b880041
:10242c008000200000408800390037001bfe0700a8
:10243c0037003700e1fd0700350037002080200011
:10244c00204b8800304b80000000a000304b8800ef
:10245c008096200011c0b30001487800304b8000fa
:10246c000070a000304b8800290037005afe07008e
:10247c00270037002800070025003700b097200000
:10248c00104078008080fb006095200000804000a8
:10249c00204b8800304b80000000a000304b88009f
:1024ac008096200011c0b30001487800304b8000aa
:1024bc000070a000304b880015003700304b8000b6
:1024cc000070a000304b8800b097200010407800be
:1024dc000080fb009197200011417800619520004d
:1024ec00827078000a0037000001eb008000eb00de
:1024fc0020002000d0040700050037000000000079
:10250c00030037000000000001003700000000004d
:10251c000080fa00000006000600fa0090972000e8
:10252c0010407800e14f500010003a0070972000e6
:10253c00104078007f4060000004e0000b003a007f
:10254c00304b80000070a000304b8800809720003a
:10255c0010407800e34f500003003a0010c0b30065
:10256c000ce8b700010037000c68ef0090972000d2
:10257c00104078000004e000f5003a00709720004d
:10258c00104078007f406000e24f5000f0003a00ad
:10259c00b0972000104078006f4060000004e0000d
:1025ac00eb003200b0972000904078006fc06000c4
:1025bc000080fb00e20f5000e5003c000140800071
:1025cc0000022000808f5000e1003a00304b800068
:1025dc000070a000304b8800b0972000904078002d
:1025ec0000c8b30000c060000004e00010003a0016
:1025fc00b0972000104178006f4061000080fb0014
:10260c00800040008095200000804000100f780072
:10261c00b0972000904078006fc060000080fb00f5
:10262c004197200061407800404798000f00370028
:10263c00b0972000104178006f4061000080fb00d3
:10264c0080004000e095200000804000100f7800d2
:10265c00b0972000904078006fc060000080fb00b5
:10266c001197200061407800404798004e40900040
:10267c00614060000004e00004003a001e00780095
:10268c000020a100000f7800030037001e00780026
:10269c000020a000000f7800b09720009040780038
:1026ac0000c8b30000c060000004e0000a003a005b
:1026bc00b0972000104178006f4061000080fb0053
:1026cc009e00780000014000809520000000410031
:1026dc000108780009003700b0972000904078007e
:1026ec006fc060000080fb009e007800000140007d
:1026fc00e095200000004100010878008097200040
:10270c0010407800e34f50002c003a001e00780077
:10271c009000780000002800008060000000e000bd
:10272c0019003200b09720009040780000c8b30028
:10273c0000c060000004e0000a003a00b0972000de
:10274c00104178006f4061008080fb0040972000b2
:10275c0000804000904078000114a00001487800ef
:10276c0009003700b0972000904078006fc06000df
:10277c008080fb0010972000008040009040780083
:10278c000114a000014878001e0078001040900051
:10279c00804078000124a0001e00780011409800b1
:1027ac001e00780010409000804078000174a0005a
:1027bc001e00780011409800650037001e0078005c
:1027cc000020a200000f78001e0078009000780016
:1027dc0000002800008060000000e00011003200c2
:1027ec001e00780010409000804078000174a10019
:1027fc001e007800114098001e00780010409000d8
:10280c00804078000164a0001e0078001140980000
:10281c00220020009e0078005000200006040700d3
:10282c00060037001e0078001040900080407800b1
:10283c000164a0001e007800114098001e00780072
:10284c000020a200000f78004e4090006240600013
:10285c000004e00006003a001e00780090007800aa
:10286c0000002800008060000000e000240032001e
:10287c00b09720009040780000c8b30000c0600002
:10288c000004e0000a003a00b097200010417800e4
:10289c006f4061008080fb0040972000008040006a
:1028ac00904078000114a10001487800090037001d
:1028bc00b0972000904078006fc060008080fb00d3
:1028cc001097200000804000904078000114a10077
:1028dc00014878001e00780010409000b2c3b3008d
:1028ec00824060001e0078001140980022002000f9
:1028fc009e00780050002000cf0307000600370030
:10290c001e00780010409000b2c3b30082406000fb
:10291c001e00780011409800a14a2000b0972000ba
:10292c00104178006f4061000080fb000000400007
:10293c0000804000100798001e00900010407800a6
:10294c00804078000114a1001e009000014878001e
:10295c000080fa00000006000000fa00c040800071
:10296c00d140800061004000e0804800c0408800f9
:10297c00d14088000dc8bf000004a2000004e00094
:10298c00080032001cc8bf000040e8001ce8b7007b
:10299c001cc8bf000004e00002003a0000c0eb00bd
:1029ac001ce8b7000080fa00000006000400fa00e2
:1029bc00c2408000d3408000028fbe00c040800027
:1029cc00d14080001e01be00800f5100818f590044
:1029dc00f7ff3a001e00be000080fa00000006005f
:1029ec000000fa0070972000104078007f406000d3
:1029fc00e14f500078003a007097200010407800aa
:102a0c0002c6b3008240600000c2b30080cf500009
:102a1c0073003a00b0972000104078000004e000ea
:102a2c0004003200b097200010407800e14f5000b5
:102a3c006d003a0080972000104078000080fb0069
:102a4c0001022000810f5000200032000102200002
:102a5c00810f500005003c000000e0000a0032002d
:102a6c00e10f50001300320060003700110220000b
:102a7c00810f50004300320021022000810f5000d2
:102a8c004800320059003700e08c2000204b8800b1
:102a9c0080002000404b8800304b80000000a000dc
:102aac00304b8800304b80000070a000304b880009
:102abc004e003700e08c2000204b8800304b80000b
:102acc000070a000304b880048003700d0972000e1
:102adc001080fb00e19720009180fb00c808dd000e
:102aec0001007000f10f200001016000d196200060
:102afc0091417800e0c1610002c171008248780008
:102b0c00c800de00e09620001041780060416100b2
:102b1c008140710001487800c08b2000f10f20002b
:102b2c0001016000a196200091417800e0c1610094
:102b3c0002c1710082487800c800de00b096200007
:102b4c0010417800604161008140710001487800bb
:102b5c00f096200090407800e0c0600001487800ba
:102b6c000097200090407800e0c060000148780099
:102b7c00c0962000904078000174a00001487800b5
:102b8c001a003700c08b2000204b880070002000fa
:102b9c00404b88006096200011ccb30001487800af
:102bac0012003700909720001080fb00a1972000a6
:102bbc009180fb00c808dd00010070000040780027
:102bcc002ae8b700304b80000070a000304b880022
:102bdc000000000005003700000000000300370073
:102bec000000000001003700000000000080fa0027
:102bfc00000006000000fa0000b0240001002000d4
:102c0c00e0458800f1458800008c20008040eb00f6
:102c1c0001487800108c20008040eb0001487800bf
:102c2c00208c200081c0b300014878001e68ef00a2
:102c3c0051c1b30010c0b300ddf80700d1c1b3001f
:102c4c0020c0b300daf8070003c4b300c287200029
:102c5c008040eb0020c0b300f2f807003041880040
:102c6c002828ef001f68ef000080fa000000060023
:102c7c000600fa00000f7800110798002207980050
:102c8c001e007800e50f500012003a003041800021
:102c9c009e009000808f500006003a0003c4b300e1
:102cac00c28720008040eb0020c0b300ddf8070095
:102cbc0030418800404180009e009000808f500081
:102ccc0002003a001f68ef002468ef0010c0b30048
:102cdc00010037000040eb000080fa000000060005
:102cec000400fa00000f7800214798001e68ef00de
:102cfc00304180000000e0000600320030418000ce
:102d0c009000780000002800008060000000e000c7
:102d1c0021003a0030418000904078002e40900015
:102d2c0080cf50000300310030418000904078008b
:102d3c00214798001e68ef000c0037001ec8bf002a
:102d4c000080fb001e004000e181200091407800d3
:102d5c008180fb00c2872000e2c078000148780027
:102d6c001ec8bf000040e8001ee8b700e18120004b
:102d7c00914078002e40900080cf5000efff39003a
:102d8c0003c4b300c28720008040eb0020c0b30016
:102d9c00a4f80700304188001ec8bf000080fa006c
:102dac00000006000400fa00000f7800214798008c
:102dbc009ec0a9001fc8bf000004e00009003a0033
:102dcc009e00780001418800ae40900042822000b5
:102ddc000149780010c0b30025e8b70010c0b3005b
:102dec001fe8b7009ec0a8000080fa000000060093
:102dfc000600fa00200798009ec0a9001fc8bf005b
:102e0c000004e000020032009ec0a8001f00370042
:102e1c000040eb00004f7800ae00900011079800c6
:102e2c001e4fe8001e407800e14f40000c003200bd
:102e3c001e009000104078000080fb000000ea00ab
:102e4c004f00de00004078009e0090008100e800fa
:102e5c00110798000004e000f1ff3a000100370070
:102e6c00000000002e009000004188009e40780079
:102e7c00428220000149780010c0b30025e8b70059
:102e8c0010c0b3001fe8b7009ec0a8000080fa0075
:102e9c00000006000600fa00200798009ec0a9005a
:102eac001fc8bf000004e000020032009ec0a80052
:102ebc001e0037000040eb00004f7800ae00900081
:102ecc00110798001e4fe8001e407800e14f4000ab
:102edc000c0032001e009000104078000080fb00b7
:102eec000000ea004f00de00004078009e009000d9
:102efc008100e800110798000004e000f1ff3a009f
:102f0c0001003700000000002e00900000418800f6
:102f1c009e40780042822000014978002568ef002d
:102f2c0010c0b3001fe8b7009ec0a8000080fa00d4
:102f3c00000006000200fa009ec0a900404180007b
:102f4c000000e00008003200404180009000780052
:102f5c0000002800008060000000e0000200320049
:102f6c009ec0a800620037001fc8bf00e34f50008e
:102f7c0001003a001f68ef001fc8bf000004e0000a
:102f8c0002003a009ec0a800590037001fc8bf00bd
:102f9c00e24f500009003a008041eb000001eb00c9
:102fac0011c0b30020c0b3001ef8070040418800d8
:102fbc0030c0b3001fe8b7004c0037001fc8bf007b
:102fcc00e14f500049003a004182200091407800c6
:102fdc0000c4b30080cf50000300360000c4b3001f
:102fec00004f7800030037004182200091407800a8
:102ffc00014f780024c8bf001e40500024e8b700e1
:10300c00c0832000104188009e4078001147980032
:10301c0025c8bf000004e0001f003a000d00370077
:10302c0010418000014180009140780001487800f7
:10303c00104180000000e800104188000041800031
:10304c000000e800004188001e4090000040e900ac
:10305c00104798001e4090000004e000f0ff3a007a
:10306c001000370010418000014180009140780031
:10307c0001487800104180000000e80010418800f1
:10308c00004180000000e800004188001e409000d4
:10309c000040e900104798001e4090000004e0003a
:1030ac00f0ff3a0024c8bf000004e00009003a0019
:1030bc0000c4b3009e40780080cf500003003a005b
:1030cc0020c0b3001fe8b7000200370030c0b300c7
:1030dc001fe8b7009e417800c283200011c0b300e6
:1030ec0020c0b300cff70700404188009ec0a80065
:1030fc000080fa00000006000000fa00a60007009d
:10310c000cc8bf000004e000010032000dc8bf0075
:10311c000040fe005124800000022000008060006e
:10312c000000e00002003a0010c0b30041000700ac
:10313c00d200070010c0b3000080fa0000000600a7
:10314c000000fa000cc8bf000004e000360032009a
:10315c000dc8bf000004e0003300320040248000a2
:10316c00620060000000e000010032008824a90029
:10317c0075000700000420000024880000000000f7
:10318c000124800000042000008060000000e000aa
:10319c00fbff320000042000002488000000000027
:1031ac000124800000042000008060000000e0008a
:1031bc00fbff320000042000002488000000000007
:1031cc000124800000042000008060000000e0006a
:1031dc00fbff32009444a800000420000024880067
:1031ec00000000000124800000042000008060002a
:1031fc000000e000fbff32000004200000248800e7
:10320c000000000001248000000420000080600009
:10321c000000e000fbff32009444a90057000700b7
:10322c0010c0b300010037000040eb000080fa0032
:10323c00000006000400fa0020479800402480009b
:10324c00610060000000e0000b00320040248000b0
:10325c00620060000000e00007003a001cc8bf00dc
:10326c00e34f500004003600202480004300de00b1
:10327c0061406000320037002e4090000004e000f6
:10328c001d0032008824a9008804a8002e00070025
:10329c000040eb00004f78000900370000042000cc
:1032ac00002488000000000001248000000420009d
:1032bc00008060000000e000fbff32001e4fe800c1
:1032cc001e407800e44f5000f4ff36000040eb0045
:1032dc001047980020248000680060000000e00087
:1032ec000200320010c0b300104798002300070002
:1032fc001e409000120037004024800061006000e6
:10330c000000e00002003a0000c0eb000c003700a7
:10331c0040248000620060000000e00002003a00df
:10332c00e0cfb300060037001cc8bf00e34f5000cd
:10333c0002003e00d0cfb30001003700c0cfb30075
:10334c000080fa00000006000000fa003868ef0068
:10335c001000fc00f10480000004200000806000dc
:10336c000000e0000200320010c0b30038e8b700e3
:10337c009ec0a9000080fa00000006000000fa00c0
:10338c0038c8bf000004e000010032009ec0a80055
:10339c000080fa00000006000400fa001e00fc0089
:1033ac0011028000000e2000008060008041880027
:1033bc0011028000000e2000010070001002880035
:1033cc0040092000100798000000eb00000f780067
:1033dc000e0037001e009000900078001e00780050
:1033ec0000014000809a2000000041000108780094
:1033fc001e0090008000eb00010878001e00900079
:10340c000080e800100798001e0fe8001e007800ee
:10341c00e70f5000efff36006024800090418800d9
:10342c008c24ef0010248000a04188008224ef003f
:10343c00700680004800de00674060000080fb00e2
:10344c00b041880000012000002488000002200008
:10345c00502488008ec0a9008284a80071068000c8
:10346c00f08f2f000080600000a0a0007006880084
:10347c009ec0a8000080fa00000006000400fa00bc
:10348c0040092000100798000000eb00000f7800a6
:10349c000b0037001e00780080004000809a20004e
:1034ac0000804000900078001e0090000108780019
:1034bc001e0090000080e800100798001e0fe80026
:1034cc001e007800e70f5000f2ff3600904180009c
:1034dc0060248800a041800010248800b041800046
:1034ec0000407800674060000080fb0067006000cf
:1034fc004800dd0072068000f18f2f008100610012
:10350c00010070007006880011028000f0f12f009d
:10351c008080600080418000010070008041880044
:10352c0080418000100288000080fa000000060034
:10353c001e00fa00881f78006000b800008fbe00e3
:10354c0060542800204f98002c010700e0e2a900ed
:10355c00f0c2a900f0e2a900e8e4a900ecc4a900bb
:10356c00ece4a900f4e2a800f4c2a800e4e2a8008c
:10357c000400370012002000030020001e0f410041
:10358c005e9749001e00be0048f4070018c0b30047
:10359c00024022004397240042f407000000e000a0
:1035ac00010035000044eb000804e000f1ff3a0094
:1035bc00f4e2a900f4c2a8000000eb002007980078
:1035cc000000eb00300798000000eb00400798006b
:1035dc00d000200060079800a00020007007980021
:1035ec002e0090000000e0000e003a001fc8bf0043
:1035fc000004e0000b003a0070552800f001470071
:10360c000d000900b0597800e000b10070004700cf
:10361c00f7fd070010002000200798001000200084
:10362c00300798003e009000e10f500009003a006e
:10363c001fc8bf000004e00006003a006c00470001
:10364c00ebfd07000000eb00300798001000200095
:10365c00400798004e009000e10f500007003a0020
:10366c001fc8bf000004e00004003a006e004700d1
:10367c00dffd07000000eb00400798002dfe07005f
:10368c00d7ff37000200fa0000408000ff0f500007
:10369c003300360040248000620060000000e0002f
:1036ac0031003a001fc8bf000004e0002a003a00b5
:1036bc00f4e2a800e4e2a90001c4b300608d20008c
:1036cc0087fd0700104798000040eb00004f780082
:1036dc00170037001e80fb00618d200061407800d0
:1036ec000080fb00ea0f500002003200ed0f50008a
:1036fc0007003a001e80fb009e80fb00628d2000bc
:10370c0062c1780061912000827078000700370058
:10371c001e80fb009e80fb00628d200062c1780041
:10372c006191200082707800000000001e4fe800bc
:10373c001e4090009e40780080cf5000e5ff39007d
:10374c001e4090000004e000030032009e409000f8
:10375c006091200093fd0700f6fd07000300370081
:10376c000000000001003700000000000080fa009b
:10377c00000006000000fa00cc22ef00d422ef007b
:10378c00dc22ef00e422ef00ec22ef00f422ef0049
:10379c00f00f2f00401688000000210080168800d2
:1037ac00f0ff2000c0168800f00f200000178800e2
:1037bc00b00b200040178800c03c20008017880008
:1037cc005620ef005820ef005a20ef005c20ef004d
:1037dc005e20ef006020ef006e20ef007020ef0005
:1037ec007220ef007420ef007620ef007820ef00bd
:1037fc00ce22ef00d622ef00de22ef00e622ef0011
:10380c00ee22ef00f622ef00c00f2f0010278800e9
:10381c000080eb0030278800000f20004027880034
:10382c00900b200050278800003c20006027880067
:10383c000080fa00000006000600fa00000f780075
:10384c0011079800220798001e007800210720001d
:10385c00810f50001800320021072000810f50000a
:10386c000a003c00e20f500015003200e20f50003d
:10387c0003003c00e10f50000b0032001500370034
:10388c00e30f50000a0032001200370041072000fd
:10389c00810f50000c00320041072000810f5000b6
:1038ac000b0035000b003700d2fc07000900370075
:1038bc004bfc070007003700000000000500370034
:1038cc00000000000300370000000000010037007a
:1038dc000000000010c0b3000080fa0000000600d9
:020000040000fa
:1038ec00d60800008000000080000000560900008f
:1038fc003200000080000000000800001e000000e4
:10390c0080000000000a0000300000008000000071
:10391c003c0800009a000000800000001e08000017
:10392c001200000080000000880900002000000048
:10393c00800000003a080000020000008200000035
:10394c00ffff0000a809000010000000800000002c
:10395c00300800000a000000800000000000000099
:020000040000fa
:10396c000000fa0000002300303a88004827ef00de
:10397c004e27ef007027ef007227ef007427ef003f
:10398c007627ef007827ef007a27ef007c27ef00ef
:10399c001200200080072000a109200033742000b1
:1039ac008049780081497800824978000001eb0059
:1039bc0060042000710520002374200080497800e9
:1039cc0081497800824978000080fa0000000600e6
:1039dc00000f78009e007800d1418800ffff37006f
:1039ec000000fa008098200080077800009a2000e0
:1039fc00000188000080fa00000006000000fa00b8
:103a0c005cff070005000700d5ff07002cf407003a
:103a1c0084f607000080fa00000006000000fa009f
:103a2c0071068000f08f2f00008060000080a000e5
:103a3c00700688000080fa00000006000000fa0002
:0c3a4c00c7ff07000080fa000000060021
:020000040000fa
:020000040002f8
:04aff000ff870000d7
:020000040000fa
:020000040002f8
:04aff400fffe00005c
:020000040000fa
:020000040002f8
:04aff800bfe10000b5
:020000040000fa
:020000040002f8
:04affc003f3f0000d3
:00000001FF
