:020000040000fa
:080000000002040000000000f2
:020000040000fa
:0400080026050000c9
:020000040000fa
:04000c0004050000e7
:020000040000fa
:0400100016050000d1
:020000040000fa
:040014000c050000d7
:020000040000fa
:040018001e050000c1
:020000040000fa
:04001c0026050000b5
:020000040000fa
:0400200026050000b1
:020000040000fa
:0400240026050000ad
:020000040000fa
:0400280026050000a9
:020000040000fa
:04002c0026050000a5
:020000040000fa
:0400300026050000a1
:020000040000fa
:04003400260500009d
:020000040000fa
:040038002605000099
:020000040000fa
:04003c002605000095
:020000040000fa
:040040002605000091
:020000040000fa
:04004400260500008d
:020000040000fa
:040048002605000089
:020000040000fa
:04004c002605000085
:020000040000fa
:040050002605000081
:020000040000fa
:04005400260500007d
:020000040000fa
:040058002605000079
:020000040000fa
:04005c002605000075
:020000040000fa
:040060002605000071
:020000040000fa
:04006400260500006d
:020000040000fa
:040068002605000069
:020000040000fa
:04006c000403000089
:020000040000fa
:040070002605000061
:020000040000fa
:04007400260500005d
:020000040000fa
:040078002605000059
:020000040000fa
:04007c002605000055
:020000040000fa
:040080002605000051
:020000040000fa
:04008400260500004d
:020000040000fa
:040088002605000049
:020000040000fa
:04008c002605000045
:020000040000fa
:040090002605000041
:020000040000fa
:04009400260500003d
:020000040000fa
:040098002605000039
:020000040000fa
:04009c002605000035
:020000040000fa
:0400a0002605000031
:020000040000fa
:0400a400260500002d
:020000040000fa
:0400a8002605000029
:020000040000fa
:0400ac002605000025
:020000040000fa
:0400b0002605000021
:020000040000fa
:0400b400260500001d
:020000040000fa
:0400b8002605000019
:020000040000fa
:0400bc002605000015
:020000040000fa
:0400c0002605000011
:020000040000fa
:0400c400260500000d
:020000040000fa
:0400c8002605000009
:020000040000fa
:0400cc002605000005
:020000040000fa
:0400d0002605000001
:020000040000fa
:0400d40026050000fd
:020000040000fa
:0400d80026050000f9
:020000040000fa
:0400dc0026050000f5
:020000040000fa
:0400e00026050000f1
:020000040000fa
:0400e40026050000ed
:020000040000fa
:0400e80026050000e9
:020000040000fa
:0400ec0026050000e5
:020000040000fa
:0400f00026050000e1
:020000040000fa
:0400f40026050000dd
:020000040000fa
:0400f80026050000d9
:020000040000fa
:0400fc0026050000d5
:020000040000fa
:0401000026050000d0
:020000040000fa
:0401040026050000cc
:020000040000fa
:0401080026050000c8
:020000040000fa
:04010c0026050000c4
:020000040000fa
:0401100026050000c0
:020000040000fa
:0401140026050000bc
:020000040000fa
:0401180026050000b8
:020000040000fa
:04011c0026050000b4
:020000040000fa
:0401200026050000b0
:020000040000fa
:0401240026050000ac
:020000040000fa
:0401280026050000a8
:020000040000fa
:04012c0026050000a4
:020000040000fa
:0401300026050000a0
:020000040000fa
:04013400260500009c
:020000040000fa
:040138002605000098
:020000040000fa
:04013c002605000094
:020000040000fa
:040140002605000090
:020000040000fa
:04014400260500008c
:020000040000fa
:040148002605000088
:020000040000fa
:04014c002605000084
:020000040000fa
:040150002605000080
:020000040000fa
:04015400260500007c
:020000040000fa
:040158002605000078
:020000040000fa
:04015c002605000074
:020000040000fa
:040160002605000070
:020000040000fa
:04016400260500006c
:020000040000fa
:040168002605000068
:020000040000fa
:04016c002605000064
:020000040000fa
:040170002605000060
:020000040000fa
:04017400260500005c
:020000040000fa
:040178002605000058
:020000040000fa
:04017c002605000054
:020000040000fa
:04018000d80400009f
:020000040000fa
:04018400260500004c
:020000040000fa
:040188002605000048
:020000040000fa
:04018c002605000044
:020000040000fa
:040190002605000040
:020000040000fa
:04019400260500003c
:020000040000fa
:040198002605000038
:020000040000fa
:04019c002605000034
:020000040000fa
:0401a0002605000030
:020000040000fa
:0401a400260500002c
:020000040000fa
:0401a8002605000028
:020000040000fa
:0401ac002605000024
:020000040000fa
:0401b0002605000020
:020000040000fa
:0401b400260500001c
:020000040000fa
:0401b8002605000018
:020000040000fa
:0401bc002605000014
:020000040000fa
:0401c0002605000010
:020000040000fa
:0401c400260500000c
:020000040000fa
:0401c8002605000008
:020000040000fa
:0401cc002605000004
:020000040000fa
:0401d0002605000000
:020000040000fa
:0401d40026050000fc
:020000040000fa
:0401d80026050000f8
:020000040000fa
:0401dc0026050000f4
:020000040000fa
:0401e00026050000f0
:020000040000fa
:0401e40026050000ec
:020000040000fa
:0401e80026050000e8
:020000040000fa
:0401ec0026050000e4
:020000040000fa
:0401f00026050000e0
:020000040000fa
:0401f40026050000dc
:020000040000fa
:0401f80026050000d8
:020000040000fa
:0401fc0026050000d4
:020000040000fa
:0402080026050000c7
:020000040000fa
:04020c0004050000e5
:020000040000fa
:0402100016050000cf
:020000040000fa
:040214000c050000d5
:020000040000fa
:040218001e050000bf
:020000040000fa
:04021c0026050000b3
:020000040000fa
:0402200026050000af
:020000040000fa
:0402240026050000ab
:020000040000fa
:0402280026050000a7
:020000040000fa
:04022c0026050000a3
:020000040000fa
:04023000260500009f
:020000040000fa
:04023400260500009b
:020000040000fa
:040238002605000097
:020000040000fa
:04023c002605000093
:020000040000fa
:04024000260500008f
:020000040000fa
:04024400260500008b
:020000040000fa
:040248002605000087
:020000040000fa
:04024c002605000083
:020000040000fa
:04025000260500007f
:020000040000fa
:04025400260500007b
:020000040000fa
:040258002605000077
:020000040000fa
:04025c002605000073
:020000040000fa
:04026000260500006f
:020000040000fa
:04026400260500006b
:020000040000fa
:040268002605000067
:020000040000fa
:04026c000403000087
:020000040000fa
:04027000260500005f
:020000040000fa
:04027400260500005b
:020000040000fa
:040278002605000057
:020000040000fa
:04027c002605000053
:020000040000fa
:04028000260500004f
:020000040000fa
:04028400260500004b
:020000040000fa
:040288002605000047
:020000040000fa
:04028c002605000043
:020000040000fa
:04029000260500003f
:020000040000fa
:04029400260500003b
:020000040000fa
:040298002605000037
:020000040000fa
:04029c002605000033
:020000040000fa
:0402a000260500002f
:020000040000fa
:0402a400260500002b
:020000040000fa
:0402a8002605000027
:020000040000fa
:0402ac002605000023
:020000040000fa
:0402b000260500001f
:020000040000fa
:0402b400260500001b
:020000040000fa
:0402b8002605000017
:020000040000fa
:0402bc002605000013
:020000040000fa
:0402c000260500000f
:020000040000fa
:0402c400260500000b
:020000040000fa
:0402c8002605000007
:020000040000fa
:0402cc002605000003
:020000040000fa
:0402d00026050000ff
:020000040000fa
:0402d40026050000fb
:020000040000fa
:0402d80026050000f7
:020000040000fa
:0402dc0026050000f3
:020000040000fa
:0402e00026050000ef
:020000040000fa
:0402e40026050000eb
:020000040000fa
:0402e80026050000e7
:020000040000fa
:0402ec0026050000e3
:020000040000fa
:0402f00026050000df
:020000040000fa
:0402f40026050000db
:020000040000fa
:0402f80026050000d7
:020000040000fa
:0402fc0026050000d3
:020000040000fa
:0403000026050000ce
:020000040000fa
:0403040026050000ca
:020000040000fa
:0403080026050000c6
:020000040000fa
:04030c0026050000c2
:020000040000fa
:0403100026050000be
:020000040000fa
:0403140026050000ba
:020000040000fa
:0403180026050000b6
:020000040000fa
:04031c0026050000b2
:020000040000fa
:0403200026050000ae
:020000040000fa
:0403240026050000aa
:020000040000fa
:0403280026050000a6
:020000040000fa
:04032c0026050000a2
:020000040000fa
:04033000260500009e
:020000040000fa
:04033400260500009a
:020000040000fa
:040338002605000096
:020000040000fa
:04033c002605000092
:020000040000fa
:04034000260500008e
:020000040000fa
:04034400260500008a
:020000040000fa
:040348002605000086
:020000040000fa
:04034c002605000082
:020000040000fa
:04035000260500007e
:020000040000fa
:04035400260500007a
:020000040000fa
:040358002605000076
:020000040000fa
:04035c002605000072
:020000040000fa
:04036000260500006e
:020000040000fa
:04036400260500006a
:020000040000fa
:040368002605000066
:020000040000fa
:04036c002605000062
:020000040000fa
:04037000260500005e
:020000040000fa
:04037400260500005a
:020000040000fa
:040378002605000056
:020000040000fa
:04037c002605000052
:020000040000fa
:04038000d80400009d
:020000040000fa
:04038400260500004a
:020000040000fa
:040388002605000046
:020000040000fa
:04038c002605000042
:020000040000fa
:04039000260500003e
:020000040000fa
:04039400260500003a
:020000040000fa
:040398002605000036
:020000040000fa
:04039c002605000032
:020000040000fa
:0403a000260500002e
:020000040000fa
:0403a400260500002a
:020000040000fa
:0403a8002605000026
:020000040000fa
:0403ac002605000022
:020000040000fa
:0403b000260500001e
:020000040000fa
:0403b400260500001a
:020000040000fa
:0403b8002605000016
:020000040000fa
:0403bc002605000012
:020000040000fa
:0403c000260500000e
:020000040000fa
:0403c400260500000a
:020000040000fa
:0403c8002605000006
:020000040000fa
:0403cc002605000002
:020000040000fa
:0403d00026050000fe
:020000040000fa
:0403d40026050000fa
:020000040000fa
:0403d80026050000f6
:020000040000fa
:0403dc0026050000f2
:020000040000fa
:0403e00026050000ee
:020000040000fa
:0403e40026050000ea
:020000040000fa
:0403e80026050000e6
:020000040000fa
:0403ec0026050000e2
:020000040000fa
:0403f00026050000de
:020000040000fa
:0403f40026050000da
:020000040000fa
:0403f80026050000d6
:020000040000fa
:0403fc0026050000d2
:020000040000fa
:100400000fa320000e7f22000e01880000000000d4
:10041000000020000000e000020032000001200087
:1004200020028800140007008a0107000000e00095
:1004300003003a00202323000100200002003700bf
:100440000000200001002000810f70000100320038
:1004500014000700000020000000e000020032004d
:1004600000000200000000003c1d0200000000002f
:100470000040da000000fe004440a900604e200069
:100480000000e000030032000020200090018800fe
:100490004440a800000006008a1f78008b1f7800e7
:1004a00000000600a1028800800478000000eb0034
:1004b0001f003700e284440054a0b4009905ba003c
:1004c000e284440054a0b4009906ba00e2844400d7
:1004d00054a0b4000006eb00476fde00fd07b20039
:1004e000ae018800636ce10003003a00eaff0700f8
:1004f0000000eb000e003700606ce10008003a00dd
:10050000004deb000a05e800020039003420ec0041
:100510000af0a0008b05e900f9ff3e000400370057
:100520006168e100010032000086eb000b0007006b
:1005300019c7ba001905ba000e04e00003003a001a
:100540000a00e000dbff3a0000000600fe07b200f0
:10055000ae0288008a047800f5ff37000cd0a300b3
:10056000e20f4d001c00390089027800354dba00b9
:100570000a05e800020039003420ec000af0a0006f
:100580008b05e9000f003200254dba000a05e8008e
:10059000020039003420ec000af0a0008b05e900cd
:1005a000080032000c00e0000600320015cdba0051
:1005b0000a05e800020039003420ec000af0a0002f
:1005c0008b05e9008984e80054a0b4000b00e0002a
:1005d000e2ff3a00000006009902ba00055d7800cb
:1005e0008b05e900f7ff3200c82ade00055d7800c0
:1005f0008b05e900f3ff32000c00e000f1ff320050
:1006000019ddba00eeff3700809fbe000000fa003f
:100610009620a9008620a900204180000000e80063
:100620002041880030418000e10f50007f003a00f7
:1006300020418000e10f500003003a00604280003a
:1006400010108800d600370020418000e20f5000d3
:100650000b003a004110800000002800008060007c
:100660000000e00003003a001041800010108800f4
:10067000cb0037002006200020418800c80037004a
:1006800020418000e30f50000a003a004110800032
:1006900000002800008060000000e00002003a0036
:1006a0000622a800be003700200620002041880056
:1006b000bb00370020418000e40f500003003a00e7
:1006c0007042800010108800b50037002041800083
:1006d000e50f50000a003a00411080000000280099
:1006e000008060000000e00002003a000662a800fe
:1006f000ab0037002006200020418800a80037000a
:1007000020418000e60f50000c003a0040108000ad
:10071000620060000000e000050032000010800070
:10072000f040880006a2a9000682a8009c003700bd
:1007300020062000204188009900370020418000d9
:10074000e70f50000a003a00411080000000280026
:10075000008060000000e00002003a000662a8008d
:100760008f00370020062000204188008c003700d1
:1007700020418000e80f50000c003a00401080003b
:10078000620060000000e000050032000010800000
:100790000041880006a2a8000682a8008000370059
:1007a00020062000204188007d0037002041800085
:1007b000e90f500004003200214180003006200083
:1007c000808f500002003a000642a80074003700f3
:1007d00020418000ea0f50000400320021418000d7
:1007e00040062000808f50006c003a0040108000ce
:1007f000700060000000e000040032002141800031
:1008000040062000808f500002003a001e28ef00b2
:100810002028ef00504180001100200001087800de
:100820002628ef002428ef005d00370040418000bb
:10083000e10f50005a003a0020418000e10f5000c3
:1008400003003a0060428000101088005400370016
:1008500020418000e20f50000b003a004110800060
:1008600000002800008060000000e00003003a0063
:100870001041800010108800490037002006200039
:10088000204188004600370020418000e30f5000df
:100890000b003a004110800000002800008060003a
:1008a0000000e00003003a00f040800010108800d3
:1008b0003b00370020062000204188003800370028
:1008c00020418000e40f50000b003a0041108000ee
:1008d00000002800008060000000e00003003a00f3
:1008e00000418000101088002d00370020062000f5
:1008f000204188002a00370020418000e50f500089
:10090000040032002141800030062000808f50001a
:100910000a003a00411080000000280000806000ba
:100920000000e00003003200604180002100200050
:10093000010878000642a800190037002041800015
:10094000e60f5000040032002141800040062000e4
:10095000808f500012003a0040108000700060004c
:100960000000e00004003200214180004006200029
:10097000808f500003003a00604180003100200069
:100980000108780060418000110020000108780013
:100990002828ef002428ef000100370000000000a5
:1009a0009620a8000080fa004f00be00004006001c
:1009b0003600f800809fbe00829fbe00849fbe006c
:1009c000869fbe003200f8003400f80010002000be
:1009d000a001880000202000900188000000fa009b
:1009e000d60407000080fa003400f9003200f90054
:1009f0004f03be004f02be004f01be004f00be00bd
:100a00003600f900004006003600f8008020a900fa
:100a10000000eb00241707003600f8002617070037
:100a20008040a900100020001f1707003600f800c2
:100a30008060a900200020001b1707003600f80086
:100a40008080a90030002000171707000040da005e
:100a50000000fe000000050003f0a200889fbe0019
:100a60008a9fbe008c1f7800fe000700050133003e
:100a70006450e1004f0032006420e1005200320077
:100a800003826c0007003b000905d0000306d0007c
:100a9000820f54000c065d00020039000200320093
:100aa00089017800030678008582550004003d0026
:100ab0000003fd008103fd008502ea008b854200f2
:100ac000840f720002003b0060001000e0801800fc
:100ad0006011b8000005eb007a28e1000a00390037
:100ae00006007800c75ddd00f707b200878075005b
:100af0002d003700828171000a01780061056000d5
:100b00008180d1000080d3008502e900f9ff3b001d
:100b1000060440008784480002003b006004140083
:100b2000e0841c000988a300070032008a8171005c
:100b300082817100610164008904d1000884d300be
:100b40008b05e800170037000978a30013003a006e
:100b50000b00e000130034008b05e900080444009a
:100b600089844c000a4474000978a3000d003a00ff
:100b70000b00e000070034008b05e9000804440086
:100b800089844c0001003a000b0020000978a30082
:100b9000f7ff32000001eb00020037008281710094
:100ba0000a017800740007000cf0a70001f0a00013
:100bb000bd0037006420e10002003a00838f6c0022
:100bc000bd0033000801be000200be00b6003700c1
:100bd000889fbe008a9fbe008c1f7800a10007007e
:100be000a800330003866c006450e1002e00320040
:100bf0006420e100330032006150e1002f00320038
:100c00006120e1003100320085855500eb07b0001e
:100c100009002000080420000500370008044400f3
:100c200089844c000a0031000603430087834b008f
:100c30000001530081815b00f8ff33000203be0016
:100c40000800a0000804440089844c00f6ff390025
:100c5000c639dd008301730001003200130020005b
:100c60008904d1000884d3000998a300050032004c
:100c70000800a7000300a0008904d1000884d30065
:100c80008b05e8008904d1000884d3000001eb0043
:100c90000281d2003800070001f0a1000cf0a7008b
:100ca00001f0a000800037006420e10082003200e3
:100cb0000801be000200be00f7ff37006120e1001e
:100cc0007d0032006000b800f3ff37000000200014
:100cd00001f82700f0ff370014002000ad003700b6
:100ce0000001be004a0007000470a70003f0a10045
:100cf0006509b100160032000d0035006828e100da
:100d000006003500f0ff2f00f1ff27000300e00090
:100d100013003b0001002800000005000000400017
:100d2000818048008502e900fcff3a000800370096
:100d3000f88f420002003c008000eb00000005003c
:100d40008100d1000080d3008502e800fcff3a005a
:100d50000300e00002003b0060001000e08018008b
:100d6000000006004f89de0082017800a4003700f1
:100d70006011b800b200370081002000618055008a
:100d80000b003d000b00200061fe2f000100e10080
:100d90001d00340082817100610164008904d1006a
:100da0000884d3000000e800faff3a007100200038
:100db000610064000300700002006000090032005e
:100dc00061044400e0844c000988a500050032005d
:100dd0008b05e8006808e10002003a008904d100b0
:100de0000884d300f20f20000258e10005003d0006
:100df000c75ddd00f907b200898075000800780042
:100e0000000006000bf827008b00780000000500aa
:100e1000c70ade00f107b200f50fb2000800320089
:100e2000e1cf4200020032000170a0002400050062
:100e3000810f700001003200040805004400050025
:100e4000810f700002003a00140005008502e900dd
:100e50000000400081c04800fcff3b000170a00082
:100e6000240005000004be00e9ff07000003be00e7
:100e70000405be000200be00e5ff0700844f7500b8
:100e8000000006000200be006450e10005003600cc
:100e90006420e100020036000968a30001003a0066
:100ea0000800be000160a0004f0678004f05be009c
:100eb0004f04be0000000600f0ff2f00f1ff2700e6
:100ec000f9ff3700889fbe008a9fbe008c1f780004
:100ed000e4ff0700ebff330003866c006450e10081
:100ee000240032006420e100270032006150e1005c
:100ef000220032006120e100210032008b85420097
:100f0000eb07b1000134b800003ab8000804420011
:100f100089844a00013ab8000030b8008880400057
:100f200009014a00040033000000400081804800ad
:100f3000020149008b05e900c909dd008301700049
:100f40000100320013002000c814de004814dd0048
:100f50004709de001200b200c808de0008847000f5
:100f600085ff070001f0a1000cf0a70001f0a00030
:100f7000cdff37006120e100cfff32000801be0045
:100f80000200be00f7ff37006150e100fcff3a00ad
:100f9000c9ff3700889fbe008a9fbe00841f78006b
:100fa000b0ff07004f00780011003300f0ff2f0062
:100fb000838f6c0006003b00040565000a00a70053
:100fc0000800370009f0a6001000200008003700d4
:100fd000820f5400838f5c00030039001000200052
:100fe00001003e000000200009f0a7000000ea0018
:100ff0004f05be004f04be000000e00000000600e8
:10100000881f7800030478000300e00007003d001b
:1010100060001000e080180060011900e0811900f4
:1010200002003b0001f02d00030037000400070020
:1010300008f0a70001f0a0004f04780000000600af
:10104000889fbe008a9fbe0000827000040271006b
:1010500004827100260032000004be000200be00bf
:101060006011b8006b092000950220000182cf00ba
:101070000a0039000541b1000082cf0007003900a5
:101080000541b1000982cf00040039000541b100db
:101090000882cf00010039000541b100054252002d
:1010a000120032000a003b0082817100610164007d
:1010b0008100d1000080d3008984d3000884d3004c
:1010c0008b05e8000442e800f7ff3a00070037000c
:1010d0000804440089844c000000480081804800d6
:1010e0008b05e9000442e900f9ff3a0022ff0700fe
:1010f0004f05be004f04be000000060080017800ce
:1011000002003700b15978000201e9000200e00056
:10111000fcff3a0000000600800178000200370062
:10112000815978000201e9000200e000fcff3a006a
:101130000000060000017800820178003204e0001f
:10114000fdff3a0003017800b141780003597800af
:101150000304e000fcff3a000000060000017800f4
:10116000b1417800035978000304e000fcff3a0025
:101170000000060080007800010178003104e000e2
:0c118000fdff3a000000510000000600d6
:020000040000fa
:10118c00312000003a200000566900006e2000005b
:10119c003d20000000200000562000000d0a000039
:1011ac0000320000203a000020540000656d000061
:1011bc007020000044690000652000003d20000004
:1011cc000020000064650000672000004320000040
:1011dc000d0a000000330000203a000020560000e9
:1011ec0062610000742000003d200000003400000b
:1011fc00203a0000204900006261000074200000c9
:10120c003d20000000200000412000000d0a0000dd
:10121c0000350000203a000020530000544100002b
:10122c0054450000202d00003e200000006300000b
:10123c00682000007375000073700000203a0000f5
:10124c00206f000066660000203b000020000000bc
:10125c0063680000207300007573000070200000ac
:10126c003a2000006f6e0000203b000020000000c0
:10127c007072000065630000682000003a200000d6
:10128c006f660000662000003b200000007000002c
:10129c007265000063680000203a0000206f0000b7
:1012ac006e2000003b20000000630000635f000024
:1012bc0063760000203a0000206f00006666000094
:1012cc00203b000020000000636300005f6300000f
:1012dc00762000003a2000006f6e0000203b0000da
:1012ec002000000062610000745f00006d69000066
:1012fc0073730000203a0000206f00006666000047
:10130c00203b00002000000062610000745f0000c0
:10131c006d69000073730000203a0000206f00001c
:10132c006e2000003b200000006200006174000091
:10133c005f730000686f000072740000203a0000b8
:10134c00206f000066660000200d00000a000000ff
:10135c0062610000745f0000736800006f7200002f
:10136c00742000003a2000006f6e0000200d000079
:10137c000a000000362000003a200000544d000006
:10138c005f4300004841000052470000455f0000e9
:10139c00535400004154000055530000202d000010
:1013ac003e2000000043000043200000776900004d
:1013bc0074680000204900004348000041520000be
:1013cc00474500005f44000041430000203a000004
:1013dc00206f000066660000203b0000200000002b
:1013ec00434300002077000069740000682000006f
:1013fc00494300004841000052470000455f00008f
:10140c0044410000432000003a2000006f6e0000b1
:10141c00203b000020000000435600002077000015
:10142c006974000068200000564300004841000029
:10143c0052470000455f000044410000432000007b
:10144c003a2000006f660000662000000d0a0000c4
:10145c00004300005620000077690000746800000b
:10146c002056000043480000415200004745000050
:10147c005f44000041430000203a0000206f000050
:10148c006e2000000d0a000000370000203a00001a
:10149c00205400004d5f00005359000053540000cd
:1014ac00454d00005f5300005441000054550000ae
:1014bc00532000002d3e0000200000006368000057
:1014cc006172000067650000725f0000656e0000cd
:1014dc00616200006c650000642000003a2000008e
:1014ec006f660000662000003b20000000630000d7
:1014fc006861000072670000657200005f650000a3
:10150c006e610000626c000065640000203a00000f
:10151c00206f00006e2000003b200000006f0000d8
:10152c006b5f0000746f00005f6300006861000077
:10153c0072670000652000003a2000006f66000012
:10154c00662000003b200000006f00006b5f000075
:10155c00746f00005f630000686100007267000038
:10156c00652000003a2000006f6e0000203b000058
:10157c002000000074680000657200006d610000be
:10158c006c5f00007368000075740000646f0000ed
:10159c00776e0000203a0000206f000066660000a5
:1015ac00203b000020000000746800006572000001
:1015bc006d6100006c5f00007368000075740000c2
:1015cc00646f0000776e0000203a0000206f00006e
:1015dc006e2000003b20000000560000696e0000e9
:1015ec00203e0000205600006261000074200000c4
:1015fc003a2000006f660000662000000d0a000013
:10160c0000560000696e0000203e000020560000cd
:10161c0062610000742000003a2000006f6e000030
:10162c00200d00000a000000382000003a200000c5
:10163c006461000074610000203d00002000000087
:10164c0020410000206f0000722000005620000096
:10165c000d0a000000310000312000003a2000008b
:10166c005375000073700000656e0000642000006c
:10167c006261000074740000657200007920000043
:10168c000d0a00002000000031320000203a00005a
:10169c002052000065730000746100007274000039
:1016ac002063000068610000726700006520000084
:1016bc006261000074740000657200007920000003
:1016cc000d0a0000200000000a2d00002d2d000046
:1016dc002d2d00002d2d00002d2d00002d2d000096
:1016ec002d2d00002d2d00002d2d00002d2d000086
:1016fc002d2d00002d2d00002d2d00000d0a0000b9
:10170c004d6500006e750000203a0000200d0000b1
:10171c000a2d00002d2d00002d2d00000d0a0000bb
:10172c0031200000203a000020560000696e0000b5
:10173c00200d00000a320000202000003a2000009a
:10174c004469000065200000542000000d0a0000d0
:10175c0033200000203a0000205600006261000097
:10176c00742000000d0a000034200000203a000014
:10177c002049000062610000742000000d0a000086
:10178c0035200000203a0000205300007461000056
:10179c0074650000200d00000a36000020200000b7
:1017ac003a200000544d00005f4300004841000007
:1017bc0052470000455f00005354000041540000a4
:1017cc0055530000200d00000a37000020200000b7
:1017dc003a200000544d00005f53000059530000a4
:1017ec00544500004d5f000053540000415400006c
:1017fc0055530000200a00000d3800002020000086
:10180c003a200000544d00005f4900002f560000a4
:10181c005f4300004841000052470000455f000054
:10182c0044410000432000000d0a0000313100004b
:10183c00203a000020530000757300007065000012
:10184c006e6400002062000061740000746500008a
:10185c0072790000200d00000a31000032200000d7
:10186c003a200000526500007374000061720000a1
:10187c00742000006368000061720000676500005e
:10188c00200d00000a2d00002d2d00002d2d000034
:10189c002d2d00002d2d00002d2d00002d2d0000d4
:1018ac002d2d00002d2d00002d2d00002d2d0000c4
:1018bc002d2d00002d2d00000d0a00000000000051
:1018cc0012010000000200000200000000080000ed
:1018dc00d80400000a000000000100000102000012
:1018ec00000100000902000043000000020100009a
:1018fc0000c00000320900000400000000010000dc
:10190c00020200000100000005240000001000008d
:10191c00010400002402000002050000240600005f
:10192c000001000005240000010000000107000078
:10193c0005810000030a00000002000009040000f9
:10194c0001000000020a0000000000000007000077
:10195c000502000002400000000000000705000026
:10196c0082020000400000000000000004030000a0
:10197c0009040000340300004d0000006900000061
:10198c0063000000720000006f00000063000000a4
:10199c0068000000690000007000000020000000da
:1019ac0054000000650000006300000068000000a7
:1019bc006e0000006f0000006c0000006f00000063
:1019cc0067000000790000002000000049000000c2
:1019dc006e000000630000002e00000016030000e3
:1019ec005700000050000000540000005f00000091
:1019fc0052000000580000005f000000530000007f
:101a0c00410000004d000000788c0000bc8c0000f0
:101a1c00c08c0000f48c00000a0a00004d6100002c
:101a2c00696e0000204d0000656e000075200000fe
:101a3c003a0d00000a2d00002d2d00002d2d000068
:101a4c002d2d00002d2d00002d0d00000a31000061
:101a5c00203a0000205600006261000074740000ff
:101a6c00747400007474000074740000200d000085
:101a7c000a320000203a0000204900006261000098
:101a8c00742000000d0a0000332000003a200000f2
:101a9c005662000061740000203b000020490000e9
:101aac0062610000742000003b2000005420000004
:101abc000d0a00002d2d00002d2d00002d2d0000f5
:101acc002d2d00002d2d00000d0a0000000d000032
:101adc000a56000062610000742000003d200000e6
:101aec00332e00003934000020560000203b00004b
:101afc002049000062610000742000003d200000bd
:101b0c00302e00003931000032200000412000004e
:101b1c003b200000542000003d2000003336000024
:101b2c00206400006567000020430000200d0000c9
:101b3c000a000000312000003a2000005669000025
:0c1b4c006e2000003d20000000000000a2
:020000040000fa
:101b58000200fa009ec0a900e8e2a8000080eb009d
:101b6800702488000080eb0050248800aa24ef002d
:101b7800420020008000eb00c04a200064fd0700fe
:101b88002000200030258800a824ef008644a90002
:101b9800f009200080248800f009200060248800d3
:101ba80082c4a8008804a80000a020004800de0025
:101bb800c02488000040eb00004f78000700370081
:101bc8001e80fb00c200dd0000a020000081400054
:101bd8006000b8000089be001e4fe8001e40780073
:101be800eb4f5000f6ff36009424a8009624ef002f
:101bf80094a4a9009424a9008000200050248800ff
:101c0800e09720008040eb000148780040982000d1
:101c18008040eb0001487800509820009040780000
:101c2800e0c060000148780060982000904078008b
:101c3800e0c060000148780050248000680060001f
:101c48000000e000ecff3a0010c0b30013e8b70052
:101c580010c0b30014e8b7001568ef001668ef006d
:101c68000d68ef000040eb00004f780015003700ca
:101c78001e80fb008000400060972000008040002c
:101c88008000eb00010878001e80fb008000400007
:101c980000972000008040008000eb0001087800d9
:101ca8001e80fb00919820000041eb0082707800b4
:101cb8001e80fb00c19820000041eb008270780074
:101cc8001e4fe8001e407800e24f5000e8ff360043
:101cd80080a02000b04b8800d0002000502588004c
:101ce800f09820001050880000a0200081c0b300a8
:101cf8000148780010a0200041c0b30001487800d6
:101d080010a0200010407800804078000174a000e6
:101d180010a02000014878000268ef001828ef00a2
:101d28001a28ef001c68ef000028ef000080fa0076
:101d3800000006000200fa0000408000e10f500099
:101d48000b003a00a12480000004200000806000fd
:101d58000000e00006003a000080eb0050248800f4
:101d68008c04a8008c84a800200020000040880073
:101d780000248000700060000000e00007003200ce
:101d880010248000700060000000e00003003200b2
:101d98000001200000248800bc04070040248000c3
:101da800620060000000e000020032008ec0a9005e
:101db800a100370050248000610060000000e000ae
:101dc8000a00320060248000610060000000e0002a
:101dd800060032005eff07009ec0a80040002000f9
:101de8000040880010002000502488005024800003
:101df800700060000000e0000500320060248000f0
:101e0800700060000000e00001003200920407004a
:101e18000124800000042000008060000000e00031
:101e2800030032000004200000248800ee060700aa
:101e380050248000640060000000e00014003200bc
:101e480060248000640060000000e00004003200ac
:101e5800120020008000eb0030072000ad110700c1
:101e6800400020005024880011c8bf000004e00092
:101e78000300320011c8bf000040e90011e8b700b4
:101e880011c8bf000004e00001003a00a3010700e8
:101e98005124800000082000008060000000e0005d
:101ea80006003200612480000008200000806000e5
:101eb8000000e000010032004b04070050248000bd
:101ec800620060000000e0000c0032006024800026
:101ed800620060000000e0000800320012002000ec
:101ee8008000eb00f0ff27008a1107000080eb005c
:101ef80070248800200020005024880000408000c2
:101f0800e30f500002003e008ec0a9004a003700cf
:101f180060248000680060000000e0004500320096
:101f28000040eb00004f78003d003700502480004f
:101f3800680060000000e0003d003200902480004e
:101f4800004078000ee8b7000ec8bf000080fb0014
:101f58004400de00004078000fe8b7008000200051
:101f6800502488000ec8bf00684060000004e000ec
:101f780011003a000fc8bf000081fb008080fb0001
:101f8800c0982000008040009040780061c0600048
:101f98000004a200e1406000c09820000000410059
:101fa800e1c06000104178000204a1008140710086
:101fb80001487800100037000fc8bf000081fb00ff
:101fc8008080fb00909820000080400090407800be
:101fd80061c060000004a200e14060009098200009
:101fe80000004100e1c06000104178000204a10037
:101ff80081407100014878000fc8bf000004e0006c
:1020080002003a002d040700040037000001eb002d
:10201800e1802000200720003e1107001e4fe80045
:102028001e407800e34f5000c0ff36000100370023
:10203800000000008ec0a9000080fa000000060021
:102048000400fa0020479800314798003e4090006d
:102058000080fb00680060000000e0000300320020
:102068008040eb002e4090009b0107003e4090000e
:102078000080fb00640060000000e0000300320004
:1020880011c0b3002e40900093010700a14a200020
:102098002e4090000080fb0000004000008f4000b0
:1020a8001e007800be409000014878000080fa00c9
:1020b800000006000800fa00204798003147980001
:1020c80022079800634798003e4090000004e00013
:1020d800070032002e4090000080fb008000400086
:1020e8006097200000804000100f7800060037003d
:1020f8002e4090000080fb008000400000972000e8
:1021080000804000100f78001e0078000000e000fa
:1021180002003a000000eb0037003700ae009000e4
:102128001e007800110098001e007800ee40900014
:10213800014878001e0078001040900002c4b300e7
:10214800824060001e007800114098001e00780050
:1021580010409000804078000134a0001e007800f4
:10216800114098001e0078001040900080407800d0
:102178000174a0001e007800114098003e409000b5
:102188000004e0000e0032002e4090000080fb00aa
:10219800ae4090008180fb000181400061972000e3
:1021a80081004100910078000120a2000001400058
:1021b8006097200000004100010878000d003700fa
:1021c8002e4090000080fb00ae4090008180fb0014
:1021d80001814000019720008100410091007800b2
:1021e8000120a200000140000097200000004100eb
:1021f800010878001e0078000080fa000000060040
:102208000400fa0020479800314798002e409000bb
:102218000004e00017003a003040800081c0b3009d
:102228000148780030408000f198200011009800a3
:1022380030408000c1c0b300114098003040800099
:1022480031408000914090000174a0001140980036
:10225800b04b800041c0b30011409800b04b8000e3
:10226800b14b8000914090000174a000114098008b
:102278002e0037002e4090000080fb000000400038
:10228800800078003e4090000080fb000080400005
:102298004300dd008000780000a02000008f40008f
:1022a8001e00780010409000804078000124a000b3
:1022b8001e007800114098001e0078001040900021
:1022c800804078000174a0001e007800114098003a
:1022d8002e4090000080fb00000040008000780045
:1022e8003e4090000080fb00008040004300dd007d
:1022f800e400400000a02000008f40001e0078008d
:1023080010409000804078000124a0001e00780052
:10231800114098001e00780010409000804078001e
:102328000174a0001e007800114098000080fa0097
:10233800000006000200fa00004f7800a124800087
:1023480000022000008060000000e0005100320020
:102358001e80fb0080004000609720000080400045
:10236800100278001e80fb0080004000609720006b
:1023780000804000100078001001be00000420001a
:1023880001002000820278000301780080017800b3
:102398000100780083826200000061008000eb0089
:1023a800c000dd00000020000001be006128b80068
:1023b8000001710081817100028abe001e80fb004d
:1023c80080004000609720000080400010027800e4
:1023d8001e80fb00800040006097200000804000c5
:1023e800100078001001be00000420000100200049
:1023f8000000690081806900008abe001e80fb0021
:102408009e80fb000181400061972000810041000f
:10241800910078000120a200000140006097200090
:1024280000004100010878001e80fb008000400089
:102438006097200000804000900078001e80fb001c
:102448000001400060972000000041001000780063
:10245800104090000044b200904098001e80fb009d
:1024680080004000609720000080400090007800c5
:102478001e80fb0000014000609720000000410022
:10248800100078001041900000c4b30000406900bb
:10249800904098000080fa00000006000000fa0052
:1024a8009424ef008c24ef000028ef000080fa004d
:1024b800000006000000fa00004080000000e00074
:1024c80014003a009424ef008c24ef002000200030
:1024d80030258800a824ef008644a900f0092000d0
:1024e80080248800f00920006024880082c4a800a5
:1024f8009ec0a800010037009404a800a024800012
:10250800610060000000e000fbff320010002000c6
:10251800004088000080fa00000006000000fa0071
:1025280013c8bf000004a2000004e0003400320019
:1025380010c0b30013e8b70014c8bf000004a2001d
:102548000004e0002e00320010c0b30014e8b70009
:1025580009c8bf00e24f50000c003a00b04b8000a1
:102568008040eb0001487800b04b800081c4b30084
:1025780011409800b04b8000b14b80009140900012
:102588000174a000114098001d00370009c8bf0061
:10259800e14f50001a003a001068ef002040800018
:1025a80081c0b3000148780020408000f1982000e5
:1025b800110098002040800041c0b30011409800ed
:1025c8002040800021408000914090000174a000cc
:1025d8001140980010c0b30010e8b70030408000e8
:1025e80081c0b3000148780030408000f198200095
:1025f800110098003040800001c8b30011409800d5
:102608000080fa00000006000000fa001568ef00dc
:102618001668ef0009c8bf00e24f50000f003a00eb
:102628003040800081c0b30001487800304080000d
:1026380071992000110098003040800081c4b300d7
:102648001140980030408000314080009140900057
:102658000174a000114098001d0037005099200017
:102668001080fb00619920009180fb00c808dd0004
:102678000100700080007800004c8000808f5000be
:1026880007003100509920001080fb00619920005c
:102698009180fb00c808dd0001007000004c880034
:1026a80096000700b04b8000719920001100980037
:1026b800b04b800081c4b30011409800b04b80003b
:1026c800b14b8000914090000174a0001140980027
:1026d8000080fa00000006000400fa002047980075
:1026e8003147980000a02000000f78002e4090008d
:1026f8000080fb0000004000800078003e40900011
:102708000080fb00008040004300dd001e0f4000f9
:102718001e0078009000780001f0a1000108780000
:102728003e4090000004e00007003a002e40900070
:102738000080fb00800040000097200000804000df
:102748001e087800060037002e4090000080fb002d
:102758008000400060972000008040001e0878003c
:102768001e0078009000780001e0a10001087800c0
:102778009e007800648040009000780001e0a0008e
:10278800010878000080fa00000006000000fa0046
:1027980094a4a900f14b800000082000008060008c
:1027a8000000e00027003a004098200090407800a0
:1027b80000c8b30000c060000004e0000a00320056
:1027c80020c0b30009e8b70016c8bf000004a20083
:1027d8000004e000010032008bff07001468ef00de
:1027e8001368ef00430037003040800081c0b30019
:1027f8000148780030408000f198200011009800ce
:1028080030408000c1c0b3001140980030408000c3
:1028180031408000914090000174a0001140980060
:10282800b04b800041c0b30011409800b04b80000d
:10283800b14b8000914090000174a00011409800b5
:102848002c003700f09820009040780000c8b300b2
:1028580000c060000004e0000f00320010c0b300a8
:1028680009e8b70015c8bf000004a2000004e00092
:102878000100320064ff07001468ef001368ef00de
:1028880012c8bf000004a2000004e00019003200d2
:1028980022ff07001700370020c0b30009e8b7007f
:1028a8003040800081c0b30001487800304080008b
:1028b800f1982000110098003040800041c0b3001a
:1028c80011409800304080003140800091409000d5
:1028d8000174a000114098001468ef001368ef001d
:1028e80012c8bf000004a2000004e000010032008a
:1028f8000aff07000080fa00000006000200fa0044
:1029080080c0b300004f7800004c8000e70f5000f3
:102918000d003e00004c8000004f780008c8bf0042
:102928000004e00003003a0010c0b30008e8b70054
:102938000500370008c8bf00e14f500002003a0008
:1029480020c0b30008e8b700014c80001e80fb00df
:1029580000805000004c8800b04b80001e48780072
:102968007099200050408800f04b800061006000a2
:102978000000e00017003a000900370051408000cd
:10298800e04b800010417800824878008100e80020
:10299800514088000000e800e04b88001e4fe90025
:1029a8001e4078000004e000f4ff3a000c003700f5
:1029b80051408000e04b8000104178008248780048
:1029c8008100e800514088000000e800e04b8800e2
:1029d8001e4fe9001e4078000004e000f4ff3a00b2
:1029e8000080fa00000006000200fa002040800083
:1029f800104f78009e80fb00509820001080fb004c
:102a0800629820001281fb004811dd00020070006e
:102a1800808f500007003600509820001080fb007f
:102a2800619820009180fb00c808dd00010070005b
:102a3800004f7800509820001080fb00619820001b
:102a48009180fb00c808dd0001007000800078005c
:102a58001e80fb0000805000f10f20000101600083
:102a68005198200091417800e0c1610002c17100d5
:102a780082487800c800de00609820001041780085
:102a88006041610081407100014878000040eb001e
:102a9800104798001c003700209820001080fb0089
:102aa800319820009180fb00c808dd00010070000b
:102ab8009e4090008180fb0072992000e2c078005f
:102ac800014878000000e800f10f200001016000d3
:102ad8002198200091417800e0c1610002c1710095
:102ae80082487800c800de00309820001041780045
:102af8006041610081407100014878001e409000eb
:102b08000040e800104798001e4090009e4f50007b
:102b1800e1ff3900509820001080fb0061982000e8
:102b28009180fb00c808dd00010070000000e00093
:102b38001e0032003040800081c0b3000148780098
:102b480030408000719920001100980020408000da
:102b58009000780000002400008060000000e00081
:102b680009003a003040800081c4b3001140980049
:102b78003040800031408000914090000174a000f6
:102b8800114098002f0037003040800081c0b3000a
:102b98001140980030408000314080009140900002
:102ba8000174a000114098002600370030408000d2
:102bb80081c0b3000148780030408000f1982000bf
:102bc800110098003040800041c0b30011409800c7
:102bd8003040800031408000914090000174a00096
:102be80011409800709820001080fb008198200008
:102bf8009180fb00c808dd00010070000000e000c3
:102c080007003200709820001080fb008198200097
:102c18009180fb00c808dd00010070000000010081
:102c280040982000904078000174a1000148780085
:102c380012c8bf000004a2000004e0000100320036
:102c480036fe07000080fa00000006000200fa00c5
:102c5800f04b80000070a000f04b8800420020007c
:102c68008000eb00c04a200029f907000203200079
:102c78008000eb0000a0200025f907009424a8009c
:102c88000040eb00004f7800090037001e80fb0071
:102c9800919820000041eb00827078001e80fb00b4
:102ca800c19820000041eb00827078001e4fe800b8
:102cb8001e407800e24f5000f4ff3600220020004a
:102cc8008000eb00e096200011f907009424a90089
:102cd80080a02000b04b880000a020002040880081
:102ce8002040800030408800109920001040780073
:102cf80002e8b70002c8bf000004e00003003a0081
:102d08000001200000408800060037001200200063
:102d18002180200010002000fe0d07000002200086
:102d2800004088000080fa00000006000000fa0059
:102d3800f09820009040780000c8b30080cf500081
:102d480047003a00e097200001ccb3000148780022
:102d580020992000104078000080fb00e20f50000e
:102d680009003200e30f500023003200e10f500049
:102d780037003a0060c62800e04b88002001200098
:102d8800004c880036003700109920001040780069
:102d98000004e00014003a00109920001040780068
:102da8000080fb000000400080007800a0d02800d0
:102db8000080400010007800e04b8800e04b800065
:102dc8000080e800904078000098200001487800d2
:102dd800e04b80006300400090407800109820008d
:102de800014878001e003700e09720008040eb0083
:102df800014878001a003700109920001040780028
:102e0800e24f50000e003e0010992000104078005c
:102e18000080fb000000400080007800c0d028003f
:102e28000080400010007800e04b8800e04b8000f4
:102e3800104078000080fb00004c88000800370034
:102e4800e09720008040eb0001487800040037003c
:102e5800e09720008040eb00014878000000000067
:102e68000080fa00000006000200fa0070992000b5
:102e78008040eb0001487800809920008040eb00fa
:102e880001487800f0982000904078007fc06000ea
:102e98000080fb00e10f500011003200e20f5000eb
:102ea800130032000000e00040003a00f04b8000c0
:102eb8000070a000f04b88000cc8bf000004e000c0
:102ec800350032007099200010407800804078006a
:102ed8000114a000709920000148780033003700e1
:102ee800f04b80000070a000f04b88002f003700e6
:102ef800f04b80000070a000f04b88003099200053
:102f08009040780000c8b30000c060000004e000f2
:102f180009003a0030992000904078006fc06000a6
:102f28000080fb00800040000097200000804000e7
:102f3800100f780008003700309920009040780082
:102f48006fc060000080fb00800040006097200098
:102f580000804000100f78001e0078009000780074
:102f680000002800008060000000e0000c00320033
:102f78001e0078009000780000402000008060006b
:102f88000000e000080032007099200011c0b30072
:102f980001487800050037000000000003003700f2
:102fa800000000000100370000000000f14b800025
:102fb80000082000008060000000e00008003200e7
:102fc80070992000e04b8800f04b80000000a000c2
:102fd800f04b88000098200021c0b3000148780019
:102fe8000080fa00000006000000fa00502580006a
:102ff800620060000000e000130032002040800002
:103008009040900000c8b30080cf50000d003a00f7
:10301800b04b80009040900040c8b30080cf500073
:1030280008003a0020408000c1c0b3001140980059
:103038002040800021408000914090000174a00051
:1030480011409800aa24a9000008200050248800f4
:103058000080fa00000006000000fa008284a80040
:10306800000120005024880010c0b3000de8b7000c
:103078001c68ef000001eb008000eb005007200007
:10308800240d07000080fa00000006000000fa0086
:103098000d68ef000001eb008000eb004007200006
:1030a8001c0d07008284a90000012000002488006c
:1030b8001c68ef000080fa00000006000000fa001b
:1030c800d0c2b30011e8b7000ec8bf000080fb00f3
:1030d8000020a1000000e0001f003a000ec8bf0059
:1030e8000080fb004200de00004078000080fb000a
:1030f800c200dd0000a020000080400020408800c1
:103108002040800030408800304080000020a2002d
:1031180030408800204080009000780000c02300e4
:103128008080600000402300808f500008003a0033
:10313800204080001000900082002000800078006d
:10314800f0982000ebf707000b0007000800370095
:103158003d000700060037000ec8bf000080fb00d6
:103168000020a100e80f500001003a0053000700ba
:103178000080fa00000006000000fa000868ef006e
:103188001268ef001568ef001668ef001068ef008e
:103198000968ef00b04b8000b14b8000914090006f
:1031a8000174a10011409800b04b80000020a200db
:1031b800b04b8800b04b8000b14b8000914090002c
:1031c8000174a10011409800b04b80000020a200bb
:1031d800b04b880030408000314080009140900022
:1031e8000174a10011409800e09720008040eb0096
:1031f800014878000000eb00004c8800409820004f
:103208008040eb00014878005098200090407800fa
:10321800e0c0600001487800609820009040780085
:10322800e0c0600001487800820007000001eb0060
:103238008000eb0030002000b60c070053fd0700ab
:103248000080fa00000006000000fa0009c8bf006c
:10325800e24f500002003a00e3fd07001500370076
:103268000968ef0010c8bf000004a2000004e000d5
:103278000f0032003040800081c0b3000148780060
:1032880030408000f1982000110098003040800004
:10329800c1c0b30011409800304080003140800028
:1032a800914090000174a00011409800010037007f
:1032b8001068ef000080fa00000006000200fa0023
:1032c800b04b8000100078004e00de0061406000c6
:1032d800004f7800b04b80000020a200b04b88005f
:1032e80000408000e80f50000e003a0010992000be
:1032f800104078008080fb00f0072000008060000c
:10330800b0248800b02480000000e00003003200f0
:103318000001200000408800020037004000200023
:103328000040880009c8bf00e14f500025003a005e
:10333800b04b800071992000110098006ffd0700c4
:1033480008c8bf00e24f500009003a00b04b8000a7
:1033580041c0b30011409800b04b8000b14b8000d1
:10336800914090000174a000114098002f00370090
:103378001e4078000004e00009003a00b04b8000cd
:1033880081c4b30011409800b04b8000b14b80005d
:10339800914090000174a00011409800230037006c
:1033a800b04b800081c0b30011409800b04b800042
:1033b800b14b8000914090000174a000114098002a
:1033c8001a003700409820009040780000c8b300e9
:1033d80000c060000004e000130032007098200074
:1033e8001080fb00819820009180fb00c808dd0058
:1033f800010070000000e000070032007098200013
:103408001080fb00819820009180fb00c808dd0037
:1034180001007000000001004098200090407800f2
:103428000174a100014878000968ef000080fa00e3
:10343800000006000000fa00f09820001040780014
:103448000046b2000004e00050003a000099200055
:10345800104078000080fb00cf80de00b200200022
:1034680003002000820f5000838f580049003e005f
:1034780000600100210037002200370047003700b4
:103488002000370045003700060037000b003700e2
:10349800390037000d0037000a0037001b003700dd
:1034a8002a003700f04b80000070a000f04b880025
:1034b8008000200000408800390037001bfe07000c
:1034c80037003700e1fd0700350037002080200075
:1034d800e04b8800f04b80000000a000f04b880013
:1034e8000098200011c0b30001487800f04b80001c
:1034f8000070a000f04b8800290037005afe070032
:1035080027003700280007002500370030992000e1
:10351800104078008080fb00e0962000008040008a
:10352800e04b8800f04b80000000a000f04b8800c2
:103538000098200011c0b30001487800f04b8000cb
:103548000070a000f04b880015003700f04b800099
:103558000070a000f04b88003099200010407800df
:103568000080fb001199200011417800e1962000ad
:10357800827078000a0037000001eb008000eb0041
:1035880020002000e30b07000500370000000000c2
:1035980003003700000000000100370000000000b1
:1035a8000080fa00000006000600fa0010992000ca
:1035b80010407800e14f500010003a00f0982000c9
:1035c800104078007f4060000004e0000b003a00e3
:1035d800f04b80000070a000f04b8800009920009c
:1035e80010407800e34f500003003a0010c0b300c9
:1035f8000ce8b700010037000c68ef0010992000b4
:10360800104078000004e000f5003a00f09820002f
:10361800104078007f406000e24f5000f0003a0010
:1036280030992000104078006f4060000004e000ee
:10363800eb00320030992000904078006fc06000a5
:103648000080fb00e20f5000e5003c0001408000d4
:1036580000022000808f5000e1003a00f04b80000b
:103668000070a000f04b880030992000904078004e
:1036780000c8b30000c060000004e00010003a0079
:1036880030992000104178006f4061000080fb00f5
:10369800800040000097200000804000100f780054
:1036a80030992000904078006fc060000080fb00d7
:1036b800c198200061407800404798000f0037000b
:1036c80030992000104178006f4061000080fb00b5
:1036d800800040006097200000804000100f7800b4
:1036e80030992000904078006fc060000080fb0097
:1036f8009198200061407800404798004e40900023
:10370800614060000004e00004003a001e007800f8
:103718000020a100000f7800030037001e00780089
:103728000020a000000f7800309920009040780019
:1037380000c8b30000c060000004e0000a003a00be
:1037480030992000104178006f4061000080fb0034
:103758009e00780000014000009720000000410012
:10376800010878000900370030992000904078005f
:103778006fc060000080fb009e00780000014000e0
:10378800609720000000410001087800009920009f
:1037980010407800e34f50002c003a001e007800db
:1037a8009000780000002800008060000000e00021
:1037b80019003200309920009040780000c8b3000a
:1037c80000c060000004e0000a003a0030992000c0
:1037d800104178006f4061008080fb00c098200095
:1037e80000804000904078000114a0000148780053
:1037f8000900370030992000904078006fc06000c1
:103808008080fb0090982000008040009040780065
:103818000114a000014878001e00780010409000b4
:10382800804078000124a0001e0078001140980014
:103838001e00780010409000804078000174a000bd
:103848001e00780011409800650037001e007800bf
:103858000020a200000f78001e0078009000780079
:1038680000002800008060000000e0001100320025
:103878001e00780010409000804078000174a1007c
:103888001e007800114098001e007800104090003b
:10389800804078000164a0001e0078001140980064
:1038a800220020009e00780050002000190b07001d
:1038b800060037001e007800104090008040780015
:1038c8000164a0001e007800114098001e007800d6
:1038d8000020a200000f78004e4090006240600077
:1038e8000004e00006003a001e007800900078000e
:1038f80000002800008060000000e0002400320082
:10390800309920009040780000c8b30000c06000e3
:103918000004e0000a003a003099200010417800c5
:103928006f4061008080fb00c0982000008040004c
:10393800904078000114a100014878000900370080
:1039480030992000904078006fc060008080fb00b4
:103958009098200000804000904078000114a10059
:10396800014878001e00780010409000b2c3b300f0
:10397800824060001e00780011409800220020005c
:103988009e00780050002000e20a07000600370079
:103998001e00780010409000b2c3b300824060005f
:1039a8001e00780011409800a14a2000309920009c
:1039b800104178006f4061000080fb00000040006b
:1039c80000804000100798001e009000104078000a
:1039d800804078000114a1001e0090000148780082
:1039e8000080fa00000006000000fa00c0408000d5
:1039f800d140800061004000e0804800c04088005d
:103a0800d14088000dc8bf000004a2000004e000f7
:103a1800080032001cc8bf000040e8001ce8b700de
:103a28001cc8bf000004e00002003a0000c0eb0020
:103a38001ce8b7000080fa00000006000400fa0045
:103a4800c2408000d3408000028fbe00c04080008a
:103a5800d14080001e01be00800f5100818f5900a7
:103a6800f7ff3a001e00be000080fa0000000600c2
:103a78007602fa00e0ff2f00400798000000eb00f4
:103a8800500798000000eb00600798006000b8003d
:103a980070079800010f9800f20047001d00090008
:103aa8008018eb006000b80070279800012f98007c
:103ab8008e0078002105b0007a0009008018eb001c
:103ac8006000b80040279900512799000000eb00da
:103ad800000f78000000eb00602799000000eb0061
:103ae800100798006000b800200798003107980078
:103af800f60a0700f4e2a800f4c2a800e4e2a8006d
:103b08000000000000408000ff0f5000fdff36005d
:103b180040248000620060000000e000f9ff3a00e5
:103b2800f4e2a90001003700000000006800470027
:103b38006d090700680707006e00470001042000b0
:103b4800c1090700e00420000e004000a10f20007a
:103b5800bd0907006000b8002007980031079800e9
:103b68004e0090000000e0000b003a00a0b62800cc
:103b78006116200081004700fa000900b05878005b
:103b8800b00fb100ea004700601620000e004000a8
:103b9800450907001e0337004e009000e10f500052
:103ba80033003a006e2091000000e00006003a0061
:103bb800c01420000e00400080007800b0032000f0
:103bc80032030700120337006e209100e10f500006
:103bd8000f033a00f4e2a800f4c2a900e4e2a80046
:103be800e01420000e004000b10320003b03070052
:103bf8007e2091008e2891006e014700e70407009f
:103c0800e00420000e004000b2002000618c280073
:103c180038f50700ee004700e00420000e004000e1
:103c280042f50700e00420000e0040004ff50700b1
:103c3800e10420008e8040000080400062002000e7
:103c4800118d28002bf50700ea004700e00420004a
:103c58000e004000140907005e009000e10f5000bc
:103c6800eb023a000000eb0060279900e8023700f9
:103c78004e009000e20f500037003a006e2091008d
:103c88000000e00006003a00c01420000e004000ca
:103c980080007800f0032000fc020700dc023700f7
:103ca8006e209100e10f5000d9023a002026200032
:103cb8000e004000f1032000080307002026200022
:103cc8000e004000e11420008100470009000900af
:103cd800b01878004001b1007e2091008e28910034
:103ce8006e014700ad040700e00420000e0040000c
:103cf80002012000718d2800fef40700ee00470045
:103d0800e00420000e00400008f50700e004200051
:103d18000e00400015f50700e10420008e804000e9
:103d280000804000a2002000718e2800f1f40700f6
:103d3800ea004700e00420000e004000da0807000f
:103d48005e009000e10f5000b1023a000000eb0065
:103d580060279900ae0237004e009000e30f500034
:103d680037003a006e2091000000e00006003a009b
:103d7800c01420000e00400080007800a00320003e
:103d8800c2020700a20237006e209100e10f500026
:103d98009f023a00202620000e004000a1032000c8
:103da800ce020700202620000e004000e11420006b
:103db8008100470009000900b01878004001b100ef
:103dc8007e2091008e2891006e0147007304070041
:103dd800e00420000e004000c2002000118f2800df
:103de800c4f40700ee004700e00420000e00400085
:103df800cef40700e00420000e004000dbf40700ca
:103e0800e10420008e804000008040006200200015
:103e1800118d2800b7f40700ea004700e0042000ed
:103e28000e004000a00807005e009000e10f50005f
:103e380077023a000000eb0060279900740237000f
:103e48004e009000e40f500037003a006e209100b9
:103e58000000e00006003a00c01420000e004000f8
:103e680080007800d003200088020700680237002d
:103e78006e209100e10f500065023a0020262000d4
:103e88000e004000d10320009402070020262000e5
:103e98000e004000e11420008100470009000900dd
:103ea800b01878004001b1007e2091008e28910062
:103eb8006e01470039040700e00420000e004000ae
:103ec800c2002000d18f28008af40700ee004700c6
:103ed800e00420000e00400094f40700e0042000f5
:103ee8000e004000a1f40700e10420008e8040008d
:103ef8000080400062002000919028007df40700b7
:103f0800ea004700e00420000e00400066080700b1
:103f18005e009000e10f50003d023a000000eb0007
:103f2800602799003a0237004e009000e50f5000d4
:103f3800aa003a006e2091000000e00006003a0056
:103f4800c01420000e0040008000780040032000cc
:103f58004e0207002e0237006e209100e10f50003c
:103f68002b023a00202620000e00400041032000ca
:103f78005a020700202620000e004000e11420000d
:103f88008100470009000900b01878004001b1001d
:103f98006000b80030379900413799008e007800ea
:103fa800a116b0007a0009008018eb006016200006
:103fb8000e004000e2002000f19028004df40700b8
:103fc8007e2091008e2891006011b80040f3070010
:103fd8000000e0000a003a00601620000e004000d1
:103fe80062f40700611620008e80400000804000c7
:103ff80012012000d19128003ef407000900370083
:10400800601620000e00400058f4070061162000da
:104018008e8040000080400002012000e1922800cc
:1040280034f407001e289100ae2891006011b800f2
:1040380027f307000000e0000a003a00601620009d
:104048000e00400049f40700611620008e804000f1
:1040580000804000f2002000e193280025f40700ca
:1040680009003700601620000e0040003ff40700ea
:10407800611620008e80400000804000e200200091
:10408800d19428001bf407003e289100ce28910007
:104098006011b8000ef307000000e0000a003a00c3
:1040a800601620000e00400030f407006116200062
:1040b8008e80400000804000f2002000b19528006a
:1040c8000cf4070009003700601620000e004000bd
:1040d80026f40700611620008e8040000080400012
:1040e800e2002000a196280002f407005e28910053
:1040f800ee2891006011b800f5f207000000e0001a
:104108000a003a00601620000e00400017f407006d
:10411800611620008e8040000080400022012000af
:1041280081972800f3f30700090037006016200084
:104138000e0040000df40700611620008e8040003c
:104148000080400012012000a1982800e9f3070030
:104158007e2891008e3091006011b800dcf20700d3
:104168000000e0000a003a00601620000e0040003f
:10417800fef30700611620008e804000008040009a
:1041880032012000b1992800daf30700090037004e
:10419800601620000e004000f4f3070061162000ae
:1041a8008e8040000080400022012000e19a280013
:1041b800d0f30700ea004700601620000e00400018
:1041c800b90707005e009000e10f500090013a0027
:1041d8000000eb00602799008d0137004e00900029
:1041e800e60f50005f003a006e2091000000e000ea
:1041f80006003a00c01420000e004000800078003d
:1042080050032000a1010700810137006e209100b2
:10421800e10f50007e013a00202620000e004000e9
:1042280051032000ad010700202620000e004000a9
:10423800e11420008100470009000900b018780047
:104248004001b1006000b80030379900413799004b
:104258008e007800a116b0007a0009008018eb00e3
:10426800601620000e00400092012000019c2800ea
:10427800a0f307003e289100ce2891006011b800f5
:1042880093f207000000e0000a003a0060162000e0
:104298000e004000b5f30700611620008e80400034
:1042a80000804000d2012000919d280091f3070072
:1042b80009003700601620000e004000abf307002d
:1042c800611620008e80400000804000c20120005e
:1042d800619f280087f307005e289100ee2891006f
:1042e8006011b8007af207000000e0000a003a0006
:1042f800601620000e0040009cf3070061162000a5
:104308008e80400000804000d201200021a12800ba
:1043180078f3070009003700601620000e004000ff
:1043280092f30700611620008e8040000080400054
:10433800c2012000f1a228006ef30700ea0047003e
:10434800601620000e004000570707005e0090002e
:10435800e10f50002e013a000000eb0060279900a1
:104368002b0137004e009000e70f500091003a00f3
:104378006e2091000000e00006003a00c014200002
:104388000e00400080007800900320003f010700e5
:104398001f0137006e209100e10f50001c013a0008
:1043a800202620000e004000910320004b0107004a
:1043b800202620000e004000e11420008100470064
:1043c80009000900b01878004001b1006000b80089
:1043d80030379900413799008e007800a116b00057
:1043e8007a0009008018eb00601620000e004000db
:1043f80092012000b1a428003ef307007e2091001e
:104408008e2891006011b80031f207000000e0002a
:104418000a003a00601620000e00400053f307001f
:10442800611620008e80400000804000920120002c
:1044380041a628002ff30700090037006016200066
:104448000e00400049f30700611620008e804000ee
:104458000080400082012000d1a7280025f3070032
:104468001e289100ae2891006011b80018f20700cc
:104478000000e0000a003a00601620000e0040002c
:104488003af30700611620008e804000008040004b
:104498006201200051a9280016f30700090037001f
:1044a800601620000e00400030f30700611620005f
:1044b8008e8040000080400052012000b1aa2800f0
:1044c8000cf307003e289100ce2891006011b80037
:1044d800fff107000000e0000a003a006016200023
:1044e8000e00400021f30700611620008e80400076
:1044f80000804000a201200001ac2800fdf2070066
:1045080009003700601620000e00400017f307006e
:10451800611620008e80400000804000920120003b
:10452800a1ad2800f3f207005e289100ee28910063
:104538006011b800e6f107000000e0000a003a0048
:10454800601620000e00400008f3070061162000e6
:104558008e804000008040004201200031af2800da
:10456800e4f2070009003700601620000e00400042
:10457800fef20700611620008e8040000080400097
:104588003201200071b02800daf20700ea00470083
:10459800601620000e004000c30607005e00900071
:1045a800e10f50009a003a000000eb0060279900e4
:1045b800970037004e009000e80f500065003a0061
:1045c8006e2091000000e0001c003a001e009000e0
:1045d8000000e0000b003a00c01420000e0040006c
:1045e8008000780040042000a80007004004200054
:1045f800000f78001e0090000000e80010079800e7
:10460800830037001e009000e20f500080003a003f
:10461800c01420000e0040008000780050042000e4
:104628009a00070050042000000f78001e00900038
:104638000000e80010079800750037006e20910010
:10464800e10f500072003a00202620000e004000c2
:104658009e007800a1000700202620000e004000e0
:10466800e11420008100470009000900b018780013
:104678004001b1007e2091008e2891006e01470014
:1046880046020700e00420000e004000c20020009f
:10469800a1b1280097f20700ee004700e0042000cf
:1046a8000e004000a1f20700e00420000e004000c8
:1046b800aef20700e10420008e8040000080400038
:1046c800b200200061b228008af207001e009000a4
:1046d800e10f500011003a006e0090000000e00069
:1046e80005003a00ec004700e00420000e004000fe
:1046f8006d060700460037006e009000e10f50007d
:1047080043003a000000eb00602799001e0090006b
:104718000000e800100798003d0037001e009000d8
:10472800e30f50003a003a00ea004700e004200096
:104738000e0040005c0607000000eb001007980020
:104748000000eb00600798000000eb00602799006c
:104758002f0037004e009000eb0f500015003a0074
:10476800e4e2a800f4c2a800f4e2a900e0042000f2
:104778000e0040009201200011b328005df20700ee
:10478800ea004700e00420000e004000460607004b
:104798001000200010379900201620000e0040005d
:1047a800000178000110200040012000ad01070041
:1047b800170037004e009000ec0f500014003a002c
:1047c800e4e2a800f4c2a800f4e2a900e004200092
:1047d8000e00400002022000a1b4280045f20700a4
:1047e800ea004700e00420000e0040002e06070003
:1047f8001000200020379900401620000e004000cd
:10480800000178008000eb004001200095010700be
:104818005e009000e10f5000c3fc3a00e0ff2f005b
:10482800400798000000eb0050079800bffc3700d5
:104838000000fa00d00920002010880007e2a80034
:1048480007a2a9000782a9000762a9000742a900d8
:104858000722a9000702a80006e2a80006c2a900cc
:1048680006a2a9000682a9000662a9000642a900bc
:104878000622a9000602a9000822ef008620a90046
:104888009620a8000080fa00000006000400fa0044
:10489800000f7800110798004110800000002400e4
:1048a800008060000000e0000a003a0010002000cc
:1048b800304188009e007800114188009e009000d9
:1048c800514188001e009000210020000108780056
:1048d8000602a8000080fa00000006001a00fa008c
:1048e800889fbe008a1f780000057800410f980055
:1048f8000000eb00100798000000eb00000f7800a4
:104908006000b80020079800310798006000b800e0
:1049180040079800510798006000b80060079800a9
:10492800710798006000b800000f9800110f9800f8
:104938006000b800200f9800310f980000418000f7
:104948004800dd0010079800f04080009e009000ad
:1049580001007000100798009e009000010f780079
:10496800ce089000a0032000808f500009003a0074
:104978001e0090008000eb00fbf0070092a72900c2
:10498800939423004df10700200798003107980001
:1049980029013700ce089000b0032000808f500016
:1049a80004003200ce089000c0032000808f500021
:1049b80009003a001e0090008000eb00eaf00700b2
:1049c800421b200083ad23003cf10700200798001c
:1049d8003107980018013700ce089000d003200056
:1049e800808f500012003a001e0090000000e00086
:1049f80002003d009e009000010f78001e00780024
:104a0800cf80de00d5f00700d2c82900435c230020
:104a18002af10700f226210033c823006af00700b4
:104a280020079800310798000000000002013700b5
:104a3800ce089000e0032000808f50000c003a0060
:104a48001e0090008000eb00c7f00700d2c82900c4
:104a5800435c230019f10700f226210033d023001c
:104a680059f007002007980031079800f200370036
:104a7800ce089000f0032000808f50000b003a0011
:104a88009e00900060112d00008040008000eb0027
:104a9800b5f0070062662600632324004af0070089
:104aa8002007980031079800e3003700ce089000ef
:104ab80000042000808f500012003a001e00900071
:104ac8008000eb00a8f0070002002400c361240066
:104ad800faf007000004be00515525001e009000a2
:104ae800008050008000eb009ff007000001be002e
:104af8000800be0034f0070020079800310798002e
:104b0800cd003700ce08900030042000808f500080
:104b18000d003a006000b80020079800310798009f
:104b28001e0090000000e00003003200000020009a
:104b380001f82300010037006000b8004007980022
:104b480051079800bc003700ce08900040032000b1
:104b5800808f500026003a009e0090000010200030
:104b6800008060004800de008000eb007ef0070057
:104b780020079800310798009e0090000008200048
:104b8800008060004700de008000eb0076f0070040
:104b980040079800510798009e00900000042000ec
:104ba800008060004600de008000eb006ef0070029
:104bb80060079800710798001e009000620060006e
:104bc8000000d1008000eb0067f00700000f98009c
:104bd800110f98001e009000610060008000eb003b
:104be80061f00700200f9800310f980092003700fd
:104bf800ce08900040042000808f50000d003a003d
:104c08001e0090000000e8008000eb0056f007004e
:104c1800f226210033a82300a8f00700f22621007d
:104c280033c82300e8ef07002007980031079800f1
:104c380081003700ce08900050042000808f50007b
:104c480006003a001e0090008000eb0046f00700c6
:104c58002007980031079800770037004e08900029
:104c6800fa0f50000e003a001e0090007f0060000e
:104c78000000e8008000eb003bf00700f22621006e
:104c880033a823008df00700f226210033c8230043
:104c9800cdef07002007980031079800660037001d
:104ca8004e089000fb0f50000d003a001e009000c7
:104cb8007f0060008000eb002bf00700020020005e
:104cc800032a2400c0ef0700020020004307240045
:104cd80060ef07002007980031079800560037005a
:104ce800ce08900050032000808f50001c003a002e
:104cf8001e009000680060004300de008000eb00aa
:104d080019f0070020079800310798001e0090004e
:104d1800640060004200de008000eb0012f0070033
:104d280040079800510798001e009000620060003c
:104d38000000d1008000eb000bf00700600798002e
:104d4800710798001e009000610060008000eb0071
:104d580005f00700000f9800110f98003600370083
:104d6800ce08900090032000808f50001f003a006a
:104d78009e00900000002200008060004d00de00d0
:104d88008000eb00f8ef0700200798003107980033
:104d98009e00900000042000008060004600de00b5
:104da8008000eb00f0ef07004007980051079800db
:104db8001e009000700060004400de008000eb00e0
:104dc800e9ef070060079800710798001e0090003f
:104dd800640060004200de008000eb00e2ef0700a4
:104de800000f9800110f980013003700ce089000ac
:104df80000032000808f500006003a001e0090003b
:104e08008000eb00d8ef07002007980031079800d2
:104e180009003700ce08900010032000808f500052
:104e280005003a001e0090008000eb00ceef07005e
:104e380020079800310798002028ef001e28ef006f
:104e4800e400470009000900311d78004a01b1005b
:104e58000a0078004f0578004f04be000080fa0071
:104e6800000006000600fa00000f780011079800fd
:104e780022079800ae009000614188004110800030
:104e880000002400008060000000e0000c003a00f0
:104e980010002000404188009e00780011418800e1
:104ea8009e009000f00f200000806000f040880015
:104eb8001e0090004800de00004188000602a8009d
:104ec8000080fa00000006008800fa0000879800b9
:104ed8001187980022879800338798006000b800ef
:104ee800008fbe00e40047001d0009008018eb0099
:104ef8006000b80000279800112798008e007800fd
:104f08004104b0000d0009008018eb0070418000da
:104f18000000e00004003a00e1822000b003200015
:104f28005afe07001b00370070418000e10f500057
:104f380018003a00000620000e004000b1032000cf
:104f480066fe07000e3090009e309000020420009c
:104f58000e0141001100070000da28004107200077
:104f6800810047000a000900b0587800b000b1007d
:104f7800400720000e004000be8090004a04070051
:104f88003e80900010007800e10f500001003a00c8
:104f98002e28ef000080fa00000006002a00fa0020
:104fa8002017980031179800421798000000eb006e
:104fb800400798000000eb00000f78000000eb00ad
:104fc800100798000000eb00500798000000eb0065
:104fd800200798000000eb0030079800ec0047001d
:104fe800040009008018eb008058eb0000c3b300f0
:104ff800404f980010c3b300504f980020c3b3002f
:10500800604f980030c3b300704f980040c3b3009e
:105018000057980050c3b3001057980060c3b300fe
:105028002057980070c3b3003057980080c3b3006e
:105038004057980090c3b30050579800f7004700b6
:10504800060009008058eb00fe0047000100090037
:105058008018eb008058eb00ea0047006800470022
:1050680081017800000178002e109000be10900099
:10507800a40007004e00900000f0a7000000ea001e
:10508800000f78005e00900000f0a7000000ea0022
:10509800100798001e0078000000e000540032005d
:1050a8000040eb00505f98009e007800d0cc2c00a8
:1050b8000008b8004308de00200798002e00900082
:1050c8006a00b90000007800300798003e009000a0
:1050d8001e0010000000470040489000405f980004
:1050e800ae009000d0cc2c000008b8004308de00c9
:1050f8006a00b9000000780030079800ae00900000
:105108003e0090000080500000004700404890009a
:10511800305f9800ae009000d0cc2c000008b8009a
:105128004308de0020079800ae009000d0cc2c0089
:105138000008b8004308de006a00b90000007800e3
:1051480030079800ae0090003e00900000805000ac
:105158000000470040489000205f9800ae00900093
:10516800d0cc2c000008b8004308de0020079800c7
:10517800ae009000d0cc2c000008b8004308de0038
:105188006a00b9000000780030079800ae0090006f
:105198003e0090000080500000004700404890000a
:1051a800105f9800ae009000d0cc2c000008b8002a
:1051b8004308de0020079800ec0047002e0090000e
:1051c8000080400010407800005f98004e0090007a
