:020000040000fa
:080000000002040000000000f2
:020000040000fa
:04000800a20500004d
:020000040000fa
:04000c00800500006b
:020000040000fa
:040010009205000055
:020000040000fa
:04001400880500005b
:020000040000fa
:040018009a05000045
:020000040000fa
:04001c00a205000039
:020000040000fa
:04002000a205000035
:020000040000fa
:04002400a205000031
:020000040000fa
:04002800a20500002d
:020000040000fa
:04002c00a205000029
:020000040000fa
:04003000a205000025
:020000040000fa
:04003400a205000021
:020000040000fa
:04003800a20500001d
:020000040000fa
:04003c00a205000019
:020000040000fa
:04004000a205000015
:020000040000fa
:04004400a205000011
:020000040000fa
:04004800a20500000d
:020000040000fa
:04004c00a205000009
:020000040000fa
:04005000a205000005
:020000040000fa
:04005400a205000001
:020000040000fa
:04005800a2050000fd
:020000040000fa
:04005c00a2050000f9
:020000040000fa
:04006000a2050000f5
:020000040000fa
:04006400a2050000f1
:020000040000fa
:04006800a2050000ed
:020000040000fa
:04006c000403000089
:020000040000fa
:04007000a2050000e5
:020000040000fa
:04007400a2050000e1
:020000040000fa
:04007800a2050000dd
:020000040000fa
:04007c00a2050000d9
:020000040000fa
:04008000a2050000d5
:020000040000fa
:04008400a2050000d1
:020000040000fa
:04008800a2050000cd
:020000040000fa
:04008c00a2050000c9
:020000040000fa
:04009000a2050000c5
:020000040000fa
:04009400a2050000c1
:020000040000fa
:04009800a2050000bd
:020000040000fa
:04009c00a2050000b9
:020000040000fa
:0400a000a2050000b5
:020000040000fa
:0400a400a2050000b1
:020000040000fa
:0400a800a2050000ad
:020000040000fa
:0400ac00a2050000a9
:020000040000fa
:0400b000a2050000a5
:020000040000fa
:0400b400a2050000a1
:020000040000fa
:0400b800a20500009d
:020000040000fa
:0400bc00a205000099
:020000040000fa
:0400c000a205000095
:020000040000fa
:0400c400a205000091
:020000040000fa
:0400c800a20500008d
:020000040000fa
:0400cc00a205000089
:020000040000fa
:0400d000a205000085
:020000040000fa
:0400d400a205000081
:020000040000fa
:0400d800a20500007d
:020000040000fa
:0400dc00a205000079
:020000040000fa
:0400e000a205000075
:020000040000fa
:0400e400a205000071
:020000040000fa
:0400e800a20500006d
:020000040000fa
:0400ec00a205000069
:020000040000fa
:0400f000a205000065
:020000040000fa
:0400f400a205000061
:020000040000fa
:0400f800a20500005d
:020000040000fa
:0400fc00a205000059
:020000040000fa
:04010000a205000054
:020000040000fa
:04010400a205000050
:020000040000fa
:04010800a20500004c
:020000040000fa
:04010c00a205000048
:020000040000fa
:04011000a205000044
:020000040000fa
:04011400a205000040
:020000040000fa
:04011800a20500003c
:020000040000fa
:04011c00a205000038
:020000040000fa
:04012000a205000034
:020000040000fa
:04012400a205000030
:020000040000fa
:04012800a20500002c
:020000040000fa
:04012c00a205000028
:020000040000fa
:04013000a205000024
:020000040000fa
:04013400a205000020
:020000040000fa
:04013800a20500001c
:020000040000fa
:04013c00a205000018
:020000040000fa
:04014000a205000014
:020000040000fa
:04014400a205000010
:020000040000fa
:04014800a20500000c
:020000040000fa
:04014c00a205000008
:020000040000fa
:04015000a205000004
:020000040000fa
:04015400a205000000
:020000040000fa
:04015800a2050000fc
:020000040000fa
:04015c00a2050000f8
:020000040000fa
:04016000a2050000f4
:020000040000fa
:04016400a2050000f0
:020000040000fa
:04016800a2050000ec
:020000040000fa
:04016c00a2050000e8
:020000040000fa
:04017000a2050000e4
:020000040000fa
:04017400a2050000e0
:020000040000fa
:04017800a2050000dc
:020000040000fa
:04017c00a2050000d8
:020000040000fa
:040180005405000022
:020000040000fa
:04018400a2050000d0
:020000040000fa
:04018800a2050000cc
:020000040000fa
:04018c00a2050000c8
:020000040000fa
:04019000a2050000c4
:020000040000fa
:04019400a2050000c0
:020000040000fa
:04019800a2050000bc
:020000040000fa
:04019c00a2050000b8
:020000040000fa
:0401a000a2050000b4
:020000040000fa
:0401a400a2050000b0
:020000040000fa
:0401a800a2050000ac
:020000040000fa
:0401ac00a2050000a8
:020000040000fa
:0401b000a2050000a4
:020000040000fa
:0401b400a2050000a0
:020000040000fa
:0401b800a20500009c
:020000040000fa
:0401bc00a205000098
:020000040000fa
:0401c000a205000094
:020000040000fa
:0401c400a205000090
:020000040000fa
:0401c800a20500008c
:020000040000fa
:0401cc00a205000088
:020000040000fa
:0401d000a205000084
:020000040000fa
:0401d400a205000080
:020000040000fa
:0401d800a20500007c
:020000040000fa
:0401dc00a205000078
:020000040000fa
:0401e000a205000074
:020000040000fa
:0401e400a205000070
:020000040000fa
:0401e800a20500006c
:020000040000fa
:0401ec00a205000068
:020000040000fa
:0401f000a205000064
:020000040000fa
:0401f400a205000060
:020000040000fa
:0401f800a20500005c
:020000040000fa
:0401fc00a205000058
:020000040000fa
:04020800a20500004b
:020000040000fa
:04020c008005000069
:020000040000fa
:040210009205000053
:020000040000fa
:040214008805000059
:020000040000fa
:040218009a05000043
:020000040000fa
:04021c00a205000037
:020000040000fa
:04022000a205000033
:020000040000fa
:04022400a20500002f
:020000040000fa
:04022800a20500002b
:020000040000fa
:04022c00a205000027
:020000040000fa
:04023000a205000023
:020000040000fa
:04023400a20500001f
:020000040000fa
:04023800a20500001b
:020000040000fa
:04023c00a205000017
:020000040000fa
:04024000a205000013
:020000040000fa
:04024400a20500000f
:020000040000fa
:04024800a20500000b
:020000040000fa
:04024c00a205000007
:020000040000fa
:04025000a205000003
:020000040000fa
:04025400a2050000ff
:020000040000fa
:04025800a2050000fb
:020000040000fa
:04025c00a2050000f7
:020000040000fa
:04026000a2050000f3
:020000040000fa
:04026400a2050000ef
:020000040000fa
:04026800a2050000eb
:020000040000fa
:04026c000403000087
:020000040000fa
:04027000a2050000e3
:020000040000fa
:04027400a2050000df
:020000040000fa
:04027800a2050000db
:020000040000fa
:04027c00a2050000d7
:020000040000fa
:04028000a2050000d3
:020000040000fa
:04028400a2050000cf
:020000040000fa
:04028800a2050000cb
:020000040000fa
:04028c00a2050000c7
:020000040000fa
:04029000a2050000c3
:020000040000fa
:04029400a2050000bf
:020000040000fa
:04029800a2050000bb
:020000040000fa
:04029c00a2050000b7
:020000040000fa
:0402a000a2050000b3
:020000040000fa
:0402a400a2050000af
:020000040000fa
:0402a800a2050000ab
:020000040000fa
:0402ac00a2050000a7
:020000040000fa
:0402b000a2050000a3
:020000040000fa
:0402b400a20500009f
:020000040000fa
:0402b800a20500009b
:020000040000fa
:0402bc00a205000097
:020000040000fa
:0402c000a205000093
:020000040000fa
:0402c400a20500008f
:020000040000fa
:0402c800a20500008b
:020000040000fa
:0402cc00a205000087
:020000040000fa
:0402d000a205000083
:020000040000fa
:0402d400a20500007f
:020000040000fa
:0402d800a20500007b
:020000040000fa
:0402dc00a205000077
:020000040000fa
:0402e000a205000073
:020000040000fa
:0402e400a20500006f
:020000040000fa
:0402e800a20500006b
:020000040000fa
:0402ec00a205000067
:020000040000fa
:0402f000a205000063
:020000040000fa
:0402f400a20500005f
:020000040000fa
:0402f800a20500005b
:020000040000fa
:0402fc00a205000057
:020000040000fa
:04030000a205000052
:020000040000fa
:04030400a20500004e
:020000040000fa
:04030800a20500004a
:020000040000fa
:04030c00a205000046
:020000040000fa
:04031000a205000042
:020000040000fa
:04031400a20500003e
:020000040000fa
:04031800a20500003a
:020000040000fa
:04031c00a205000036
:020000040000fa
:04032000a205000032
:020000040000fa
:04032400a20500002e
:020000040000fa
:04032800a20500002a
:020000040000fa
:04032c00a205000026
:020000040000fa
:04033000a205000022
:020000040000fa
:04033400a20500001e
:020000040000fa
:04033800a20500001a
:020000040000fa
:04033c00a205000016
:020000040000fa
:04034000a205000012
:020000040000fa
:04034400a20500000e
:020000040000fa
:04034800a20500000a
:020000040000fa
:04034c00a205000006
:020000040000fa
:04035000a205000002
:020000040000fa
:04035400a2050000fe
:020000040000fa
:04035800a2050000fa
:020000040000fa
:04035c00a2050000f6
:020000040000fa
:04036000a2050000f2
:020000040000fa
:04036400a2050000ee
:020000040000fa
:04036800a2050000ea
:020000040000fa
:04036c00a2050000e6
:020000040000fa
:04037000a2050000e2
:020000040000fa
:04037400a2050000de
:020000040000fa
:04037800a2050000da
:020000040000fa
:04037c00a2050000d6
:020000040000fa
:040380005405000020
:020000040000fa
:04038400a2050000ce
:020000040000fa
:04038800a2050000ca
:020000040000fa
:04038c00a2050000c6
:020000040000fa
:04039000a2050000c2
:020000040000fa
:04039400a2050000be
:020000040000fa
:04039800a2050000ba
:020000040000fa
:04039c00a2050000b6
:020000040000fa
:0403a000a2050000b2
:020000040000fa
:0403a400a2050000ae
:020000040000fa
:0403a800a2050000aa
:020000040000fa
:0403ac00a2050000a6
:020000040000fa
:0403b000a2050000a2
:020000040000fa
:0403b400a20500009e
:020000040000fa
:0403b800a20500009a
:020000040000fa
:0403bc00a205000096
:020000040000fa
:0403c000a205000092
:020000040000fa
:0403c400a20500008e
:020000040000fa
:0403c800a20500008a
:020000040000fa
:0403cc00a205000086
:020000040000fa
:0403d000a205000082
:020000040000fa
:0403d400a20500007e
:020000040000fa
:0403d800a20500007a
:020000040000fa
:0403dc00a205000076
:020000040000fa
:0403e000a205000072
:020000040000fa
:0403e400a20500006e
:020000040000fa
:0403e800a20500006a
:020000040000fa
:0403ec00a205000066
:020000040000fa
:0403f000a205000062
:020000040000fa
:0403f400a20500005e
:020000040000fa
:0403f800a20500005a
:020000040000fa
:0403fc00a205000056
:020000040000fa
:100400000fa320000e7f22000e01880000000000d4
:10041000000020000000e000020032000001200087
:100420002002880014000700c80107000000e00057
:1004300003003a000065220001002000020037009e
:100440000000200001002000810f70000100320038
:1004500014000700000020000000e000020032004d
:100460000000020000000000002402000000000064
:100470000040da000000fe004440a90020162000e1
:100480000000e000030032000020200090018800fe
:100490004440a800000006008a1f78008b1f7800e7
:1004a00000000600a1028800800478000000eb0034
:1004b0001f003700e284440054a0b4009905ba003c
:1004c000e284440054a0b4009906ba00e2844400d7
:1004d00054a0b4000006eb00476fde00fd07b20039
:1004e000ae018800636ce10003003a00eaff0700f8
:1004f0000000eb000e003700606ce10008003a00dd
:10050000004deb000a05e800020039003420ec0041
:100510000af0a0008b05e900f9ff3e000400370057
:100520006168e100010032000086eb000b0007006b
:1005300019c7ba001905ba000e04e00003003a001a
:100540000a00e000dbff3a0000000600fe07b200f0
:10055000ae0288008a047800f5ff37000cd0a300b3
:10056000e20f4d001c00390089027800354dba00b9
:100570000a05e800020039003420ec000af0a0006f
:100580008b05e9000f003200254dba000a05e8008e
:10059000020039003420ec000af0a0008b05e900cd
:1005a000080032000c00e0000600320015cdba0051
:1005b0000a05e800020039003420ec000af0a0002f
:1005c0008b05e9008984e80054a0b4000b00e0002a
:1005d000e2ff3a00000006009902ba00055d7800cb
:1005e0008b05e900f7ff3200c82ade00055d7800c0
:1005f0008b05e900f3ff32000c00e000f1ff320050
:1006000019ddba00eeff37003600f800809fbe000b
:10061000829fbe00849fbe00869fbe000000fa003d
:100620008620a900411080000008200000806000a2
:100630000000e0000800320008e2a9002628ef00d0
:1006400060418000200090008000eb0001087800ed
:100650002c28ef000d013700304180008000eb00b6
:10066000b200200003002000820f5000838f58004a
:10067000fc003e00006001000b003700390037002d
:10068000750037009c003700f3003700c8003700c2
:10069000d9003700f0003700db003700f1003700e9
:1006a0003400370050003700e08120002000900027
:1006b000620060000000e000f3003a00e0812000ea
:1006c0001000900060418800e08120001000900040
:1006d0001040780028e8b700e0812000100090006a
:1006e0001000900050418800e08120001000900030
:1006f000e6004000e081200011009800e081200029
:1007000090009000609c2000808f500003003a0011
:10071000e0812000019c200011009800e081200071
:10072000a00090000100a10021009800e0812000bd
:1007300090009000e081200010007800808f500031
:1007400004003a00e0812000a00090000110a00009
:10075000210098000602a8002000200030418800f7
:10076000ca0037000622a80020002000304188007f
:10077000c6003700411080000000280000806000a3
:100780000000e00008003200e0812000604090009e
:100790008040e800e0812000614098004000200097
:1007a0005c0f0700b9003700704180008000d10065
:1007b000f00f200000806000101088007041800061
:1007c00061006000004078000004e0000300320097
:1007d000b000200030418800ac003700300020001d
:1007e00030418800a9003700411080000000280037
:1007f000008060000000e00008003200e08120007e
:10080000604090008040e800e08120006140980056
:10081000400020003f0f07009c0037000622a80080
:10082000704180004800de00e6006000000f2000fc
:100830000100700070418800704180000000a0003d
:100840007041880010c0b30030e8b70020002000dd
:10085000304188008d00370030c8bf00e14f5000a4
:100860000a0032005041800010007800704188007a
:10087000504180002000900090418800504180004d
:100880002040900034e8b700010037003068ef00e6
:1008900071418000f00f2000808f50000900360069
:1008a000704180004800de00e6006000000f20007c
:1008b0000100700010108800a00020003041880066
:1008c0007200370070418000101088007041800075
:1008d00061006000004078000004e0000300320086
:1008e00050002000304188006800370030002000b0
:1008f000304188006500370041108000000028006a
:10090000008060000000e00009003200e08120006b
:10091000604090008040e800e08120006140980045
:1009200009e2a90050002000fa0e07005700370026
:1009300034c8bf008080fb008100e900cf08de00e2
:10094000814078000040e90034e8b7000104e0008d
:100950001000320050418000660040005041880085
:1009600028c8bf000040e90028e8b70028c8bf0039
:100970000004e00003003a0020002000e50e07001c
:10098000420037000622a8002000200030418800e5
:100990003e00370090418000904078008180fb004d
:1009a000111088000000e8009041880037003700ef
:1009b0004110800000002800008060000000e0007e
:1009c00009003200e0812000604090008040e80093
:1009d000e08120006140980040002000cd0e07001b
:1009e00009e2a900290037000662a8008000200063
:1009f0003041880025003700800020003041880009
:100a00000662a8002100370090418000011080009c
:100a100081407800014878000000e800904188009b
:100a200034c8bf000040e90034e8b70034c8bf0054
:100a30000004e0000400320006a2a90060002000cb
:100a4000304188000200370006a2a800a00e07006f
:100a50000682a8000d00370020002000ad0e070020
:100a60000a003700e0812000604090008040e800ec
:100a7000e08120006140980060002000a50e070082
:100a80000000000001003700000000000080fa00b4
:100a90004f03be004f02be004f01be004f00be001c
:100aa0003600f900004006003600f800809fbe00c6
:100ab000829fbe00849fbe00869fbe003200f80069
:100ac0003400f80010002000a00188000020200061
:100ad000900188000000fa00960207000080fa00ea
:100ae0003400f9003200f9004f03be004f02be008f
:100af0004f01be004f00be003600f9000040060066
:100b00003600f8008020a9000000eb009c100700d0
:100b10003600f8009e1007008040a9001000200059
:100b2000971007003600f8008060a9002000200020
:100b3000931007003600f8008080a90030002000e4
:100b40008f1007000040da000000fe0000000500e2
:100b500003f0a200889fbe008a9fbe008c1f780011
:100b6000b1000700b80033006450e1004f003200cc
:100b70006420e1005200320003826c0007003b0059
:100b80000905d0000306d000820f54000c065d005a
:100b90000200390002003200890178000306780063
:100ba0008582550004003d000003fd008103fd0027
:100bb0008502ea008b854200840f720002003b0030
:100bc00060001000e08018006011b8000005eb0024
:100bd0007a28e1000a00390006007800c75ddd00d0
:100be000f707b200878075002d0037008281710001
:100bf0000a017800610560008180d1000080d30087
:100c00008502e900f9ff3b000604400087844800a4
:100c100002003b0060041400e0841c000988a3006b
:100c2000070032008a8171008281710061016400d5
:100c30008904d1000884d3008b05e8001700370031
:100c40000978a30013003a000b00e0001300340001
:100c50008b05e9000804440089844c000a447400b0
:100c60000978a3000d003a000b00e00007003400f3
:100c70008b05e9000804440089844c0001003a0017
:100c80000b0020000978a300f7ff32000001eb0001
:100c900002003700828171000a01780027000700f6
:100ca0000cf0a70001f0a000700037006420e10004
:100cb00002003a00838f6c00700033000801be0010
:100cc0000200be00690037000001be0041000700bd
:100cd0000470a70003f0a10003f8a30013003a007a
:100ce0006509b10010003200090035006928e100f3
:100cf000020035000100280000000500000040004f
:100d0000818048008502e900fcff3a0000000600ef
:100d1000f88f4200050035008100d1000080d3002b
:100d20008502e800fcff3a00000006008000eb00ae
:100d3000000005006011b800870037008100200026
:100d4000618055000b003d000b00200061fe2f006c
:100d50000100e1001d003400828171006101640026
:100d60008904d1000884d3000000e800faff3a00ab
:100d70007100200061006400030070000200600048
:100d80000900320061044400e0844c000988a50099
:100d9000050032008b05e8006808e10002003a0017
:100da0008904d1000884d300f20f20000258e1002a
:100db00005003d00c75ddd00f907b20089807500c0
:100dc00008007800000006000bf827008b00780070
:100dd00000000500c70ade00f107b200f50fb200ff
:100de00008003200e1cf4200020032000170a00092
:100df00024000500810f7000010032000408050086
:100e000044000500810f700002003a001400050044
:100e10008502e9000000400081c04800fcff3b0063
:100e20000170a000240005000004be00e9ff0700d7
:100e30000003be000405be000200be00e5ff07007f
:100e4000844f7500000006000200be006450e100ff
:100e5000050036006420e100020036000968a300a6
:100e600001003a000800be000160a0004f067800b3
:100e70004f05be004f04be0000000600f0ff2f002b
:100e8000f1ff2700f9ff3700889fbe008a9fbe0050
:100e90008c1f7800e4ff0700ebff330003866c0033
:100ea0006450e100240032006420e1002700320099
:100eb0006150e100220032006120e1002100320097
:100ec0008b854200eb07b1000134b800003ab8004e
:100ed0000804420089844a00013ab8000030b80092
:100ee0008880400009014a000400330000004000ef
:100ef00081804800020149008b05e900c909dd0035
:100f0000830170000100320013002000c814de00cd
:100f10004814dd004709de001200b200c808de00f8
:100f20000884700085ff070001f0a1000cf0a70005
:100f300001f0a000cdff37006120e100cfff3200bb
:100f40000801be000200be00f7ff37006150e1005b
:100f5000fcff3a00c9ff3700889fbe008a9fbe0091
:100f600000827000040271000482710026003200c9
:100f70000004be000200be006011b8006b09200032
:100f8000950220000182cf000a0039000541b1001e
:100f90000082cf00070039000541b1000982cf006f
:100fa000040039000541b1000882cf00010039007a
:100fb0000541b10005425200120032000a003b0018
:100fc00082817100610164008100d1000080d30042
:100fd0008984d3000884d3008b05e8000442e8002c
:100fe000f7ff3a00070037000804440089844c00ea
:100ff00000004800818048008b05e9000442e900b8
:10100000f9ff3a004dff07004f05be004f04be0038
:10101000000006008001780002003700b159780016
:101020000201e9000200e000fcff3a0000000600b7
:101030008001780002003700815978000201e90040
:101040000200e000fcff3a0000000600000178000a
:10105000820178003204e000fdff3a0003017800cd
:10106000b1417800035978000304e000fcff3a0026
:101070000000060000017800b141780003597800b3
:0c1080000304e000fcff3a000000060042
:020000040000fa
:10108c001201000000020000020000000008000035
:10109c00d80400000a00000000010000010200005a
:1010ac0000010000090200004300000002010000e2
:1010bc0000c0000032090000040000000001000024
:1010cc0002020000010000000524000000100000d6
:1010dc0001040000240200000205000024060000a8
:1010ec0000010000052400000100000001070000c1
:1010fc0005810000030a0000000200000904000042
:10110c0001000000020a00000000000000070000bf
:10111c00050200000240000000000000070500006e
:10112c0082020000400000000000000004030000e8
:10113c0009040000340300004d00000069000000a9
:10114c0063000000720000006f00000063000000ec
:10115c006800000069000000700000002000000022
:10116c0054000000650000006300000068000000ef
:10117c006e0000006f0000006c0000006f000000ab
:10118c00670000007900000020000000490000000a
:10119c006e000000630000002e000000160300002b
:1011ac005700000050000000540000005f000000d9
:1011bc0052000000580000005f00000053000000c7
:1011cc00410000004d000000588800009c88000081
:1011dc00a0880000d48800000a0a00004d610000bd
:1011ec00696e0000204d0000656e00007520000047
:1011fc003a0d00000a2d00002d2d00002d2d0000b1
:10120c002d2d00002d2d00002d0d00000a310000a9
:10121c00203a000020560000626100007474000047
:10122c00747400007474000074740000200d0000cd
:10123c000a320000203a00002049000062610000e0
:10124c00742000000d0a0000332000003a2000003a
:10125c005662000061740000203b00002049000031
:10126c0062610000742000003b200000542000004c
:10127c000d0a00002d2d00002d2d00002d2d00003d
:10128c002d2d00002d2d00000d0a0000000d00007a
:10129c000a56000062610000742000003d2000002e
:1012ac00332e00003934000020560000203b000093
:1012bc002049000062610000742000003d20000005
:1012cc00302e000039310000322000004120000097
:1012dc003b200000542000003d200000333600006d
:1012ec00206400006567000020430000200d000012
:1012fc000a000000000000000d0a00004d6500000f
:10130c006e750000203a0000200d00000a0000005d
:10131c00203a00002056000062610000742000009a
:10132c003d2000000020000056760000767600007c
:10133c00766f00006c740000732000000d0a000032
:04134c00000000009d
:020000040000fa
:101350000200fa009ec0a900e8e2a8000080eb00ad
:10136000702488000080eb0050248800aa24ef003d
:10137000420020008000eb00c04a20002cff070044
:101380002000200030258800a824ef008644a90012
:10139000f009200080248800f009200060248800e3
:1013a00082c4a8008804a80000a020004800de0035
:1013b000c02488000040eb00004f78000700370091
:1013c0001e80fb00c200dd0000a020000081400064
:1013d0006000b8000089be001e4fe8001e40780083
:1013e000eb4f5000f6ff36009424a8009624ef003f
:1013f00094a4a9009424a90080002000502488000f
:10140000e09720008040eb000148780040982000e1
:101410008040eb0001487800509820009040780010
:10142000e0c060000148780060982000904078009b
:10143000e0c060000148780050248000680060002f
:101440000000e000ecff3a0010c0b30013e8b70062
:1014500010c0b30014e8b7001568ef001668ef007d
:101460000d68ef000040eb00004f780015003700da
:101470001e80fb008000400060972000008040003c
:101480008000eb00010878001e80fb008000400017
:1014900000972000008040008000eb0001087800e9
:1014a0001e80fb00919820000041eb0082707800c4
:1014b0001e80fb00c19820000041eb008270780084
:1014c0001e4fe8001e407800e24f5000e8ff360053
:1014d00080a02000b04b8800d0002000502588005c
:1014e000f09820001050880000a0200081c0b300b8
:1014f0000148780010a0200041c0b30001487800e6
:1015000010a0200010407800804078000174a000f6
:1015100010a02000014878000268ef001828ef00b2
:101520001a28ef001c68ef000028ef000080fa0086
:10153000000006000200fa0000408000e10f5000a9
:101540000b003a00a124800000042000008060000d
:101550000000e00006003a000080eb005024880004
:101560008c04a8008c84a800200020000040880083
:1015700000248000700060000000e00007003200de
:1015800010248000700060000000e00003003200c2
:101590000001200000248800bc04070040248000d3
:1015a000620060000000e000020032008ec0a9006e
:1015b000a100370050248000610060000000e000be
:1015c0000a00320060248000610060000000e0003a
:1015d000060032005eff07009ec0a8004000200009
:1015e0000040880010002000502488005024800013
:1015f000700060000000e000050032006024800000
:10160000700060000000e00001003200920407005a
:101610000124800000042000008060000000e00041
:10162000030032000004200000248800ee060700ba
:1016300050248000640060000000e00014003200cc
:1016400060248000640060000000e00004003200bc
:10165000120020008000eb00300720003f0d070043
:10166000400020005024880011c8bf000004e000a2
:101670000300320011c8bf000040e90011e8b700c4
:1016800011c8bf000004e00001003a00a3010700f8
:101690005124800000082000008060000000e0006d
:1016a00006003200612480000008200000806000f5
:1016b0000000e000010032004b04070050248000cd
:1016c000620060000000e0000c0032006024800036
:1016d000620060000000e0000800320012002000fc
:1016e0008000eb00f0ff27001c0d07000080eb00de
:1016f00070248800200020005024880000408000d2
:10170000e30f500002003e008ec0a9004a003700df
:1017100060248000680060000000e00045003200a6
:101720000040eb00004f78003d003700502480005f
:10173000680060000000e0003d003200902480005e
:10174000004078000ee8b7000ec8bf000080fb0024
:101750004400de00004078000fe8b7008000200061
:10176000502488000ec8bf00684060000004e000fc
:1017700011003a000fc8bf000081fb008080fb0011
:10178000c0982000008040009040780061c0600058
:101790000004a200e1406000c09820000000410069
:1017a000e1c06000104178000204a1008140710096
:1017b00001487800100037000fc8bf000081fb000f
:1017c0008080fb00909820000080400090407800ce
:1017d00061c060000004a200e14060009098200019
:1017e00000004100e1c06000104178000204a10047
:1017f00081407100014878000fc8bf000004e0007c
:1018000002003a002d040700040037000001eb003d
:10181000e180200020072000d00c07001e4fe800c8
:101820001e407800e34f5000c0ff36000100370033
:10183000000000008ec0a9000080fa000000060031
:101840000400fa0020479800314798003e4090007d
:101850000080fb00680060000000e0000300320030
:101860008040eb002e4090009b0107003e4090001e
:101870000080fb00640060000000e0000300320014
:1018800011c0b3002e40900093010700a14a200030
:101890002e4090000080fb0000004000008f4000c0
:1018a0001e007800be409000014878000080fa00d9
:1018b000000006000800fa00204798003147980011
:1018c00022079800634798003e4090000004e00023
:1018d000070032002e4090000080fb008000400096
:1018e0006097200000804000100f7800060037004d
:1018f0002e4090000080fb008000400000972000f8
:1019000000804000100f78001e0078000000e0000a
:1019100002003a000000eb0037003700ae009000f4
:101920001e007800110098001e007800ee40900024
:10193000014878001e0078001040900002c4b300f7
:10194000824060001e007800114098001e00780060
:1019500010409000804078000134a0001e00780004
:10196000114098001e0078001040900080407800e0
:101970000174a0001e007800114098003e409000c5
:101980000004e0000e0032002e4090000080fb00ba
:10199000ae4090008180fb000181400061972000f3
:1019a00081004100910078000120a2000001400068
:1019b0006097200000004100010878000d0037000a
:1019c0002e4090000080fb00ae4090008180fb0024
:1019d00001814000019720008100410091007800c2
:1019e0000120a200000140000097200000004100fb
:1019f000010878001e0078000080fa000000060050
:101a00000400fa0020479800314798002e409000cb
:101a10000004e00017003a003040800081c0b300ad
:101a20000148780030408000f198200011009800b3
:101a300030408000c1c0b3001140980030408000a9
:101a400031408000914090000174a0001140980046
:101a5000b04b800041c0b30011409800b04b8000f3
:101a6000b14b8000914090000174a000114098009b
:101a70002e0037002e4090000080fb000000400048
:101a8000800078003e4090000080fb000080400015
:101a90004300dd008000780000a02000008f40009f
:101aa0001e00780010409000804078000124a000c3
:101ab0001e007800114098001e0078001040900031
:101ac000804078000174a0001e007800114098004a
:101ad0002e4090000080fb00000040008000780055
:101ae0003e4090000080fb00008040004300dd008d
:101af000e400400000a02000008f40001e0078009d
:101b000010409000804078000124a0001e00780062
:101b1000114098001e00780010409000804078002e
:101b20000174a0001e007800114098000080fa00a7
:101b3000000006000200fa00004f7800a124800097
:101b400000022000008060000000e0005100320030
:101b50001e80fb0080004000609720000080400055
:101b6000100278001e80fb0080004000609720007b
:101b700000804000100078001001be00000420002a
:101b800001002000820278000301780080017800c3
:101b90000100780083826200000061008000eb0099
:101ba000c000dd00000020000001be006128b80078
:101bb0000001710081817100028abe001e80fb005d
:101bc00080004000609720000080400010027800f4
:101bd0001e80fb00800040006097200000804000d5
:101be000100078001001be00000420000100200059
:101bf0000000690081806900008abe001e80fb0031
:101c00009e80fb000181400061972000810041001f
:101c1000910078000120a2000001400060972000a0
:101c200000004100010878001e80fb008000400099
:101c30006097200000804000900078001e80fb002c
:101c40000001400060972000000041001000780073
:101c5000104090000044b200904098001e80fb00ad
:101c600080004000609720000080400090007800d5
:101c70001e80fb0000014000609720000000410032
:101c8000100078001041900000c4b30000406900cb
:101c9000904098000080fa00000006000000fa0062
:101ca0009424ef008c24ef000028ef000080fa005d
:101cb000000006000000fa00004080000000e00084
:101cc00014003a009424ef008c24ef002000200040
:101cd00030258800a824ef008644a900f0092000e0
:101ce00080248800f00920006024880082c4a800b5
:101cf0009ec0a800010037009404a800a024800022
:101d0000610060000000e000fbff320010002000d6
:101d1000004088000080fa00000006000000fa0081
:101d200013c8bf000004a2000004e0003400320029
:101d300010c0b30013e8b70014c8bf000004a2002d
:101d40000004e0002e00320010c0b30014e8b70019
:101d500009c8bf00e24f50000c003a00b04b8000b1
:101d60008040eb0001487800b04b800081c4b30094
:101d700011409800b04b8000b14b80009140900022
:101d80000174a000114098001d00370009c8bf0071
:101d9000e14f50001a003a001068ef002040800028
:101da00081c0b3000148780020408000f1982000f5
:101db000110098002040800041c0b30011409800fd
:101dc0002040800021408000914090000174a000dc
:101dd0001140980010c0b30010e8b70030408000f8
:101de00081c0b3000148780030408000f1982000a5
:101df000110098003040800001c8b30011409800e5
:101e00000080fa00000006000000fa001568ef00ec
:101e10001668ef0009c8bf00e24f50000f003a00fb
:101e20003040800081c0b30001487800304080001d
:101e300071992000110098003040800081c4b300e7
:101e40001140980030408000314080009140900067
:101e50000174a000114098001d0037005099200027
:101e60001080fb00619920009180fb00c808dd0014
:101e70000100700080007800004c8000808f5000ce
:101e800007003100509920001080fb00619920006c
:101e90009180fb00c808dd0001007000004c880044
:101ea00096000700b04b8000719920001100980047
:101eb000b04b800081c4b30011409800b04b80004b
:101ec000b14b8000914090000174a0001140980037
:101ed0000080fa00000006000400fa002047980085
:101ee0003147980000a02000000f78002e4090009d
:101ef0000080fb0000004000800078003e40900021
:101f00000080fb00008040004300dd001e0f400009
:101f10001e0078009000780001f0a1000108780010
:101f20003e4090000004e00007003a002e40900080
:101f30000080fb00800040000097200000804000ef
:101f40001e087800060037002e4090000080fb003d
:101f50008000400060972000008040001e0878004c
:101f60001e0078009000780001e0a10001087800d0
:101f70009e007800648040009000780001e0a0009e
:101f8000010878000080fa00000006000000fa0056
:101f900094a4a900f14b800000082000008060009c
:101fa0000000e00027003a004098200090407800b0
:101fb00000c8b30000c060000004e0000a00320066
:101fc00020c0b30009e8b70016c8bf000004a20093
:101fd0000004e000010032008bff07001468ef00ee
:101fe0001368ef00430037003040800081c0b30029
:101ff0000148780030408000f198200011009800de
:1020000030408000c1c0b3001140980030408000d3
:1020100031408000914090000174a0001140980070
:10202000b04b800041c0b30011409800b04b80001d
:10203000b14b8000914090000174a00011409800c5
:102040002c003700f09820009040780000c8b300c2
:1020500000c060000004e0000f00320010c0b300b8
:1020600009e8b70015c8bf000004a2000004e000a2
:102070000100320064ff07001468ef001368ef00ee
:1020800012c8bf000004a2000004e00019003200e2
:1020900022ff07001700370020c0b30009e8b7008f
:1020a0003040800081c0b30001487800304080009b
:1020b000f1982000110098003040800041c0b3002a
:1020c00011409800304080003140800091409000e5
:1020d0000174a000114098001468ef001368ef002d
:1020e00012c8bf000004a2000004e000010032009a
:1020f0000aff07000080fa00000006000200fa0054
:1021000080c0b300004f7800004c8000e70f500003
:102110000d003e00004c8000004f780008c8bf0052
:102120000004e00003003a0010c0b30008e8b70064
:102130000500370008c8bf00e14f500002003a0018
:1021400020c0b30008e8b700014c80001e80fb00ef
:1021500000805000004c8800b04b80001e48780082
:102160007099200050408800f04b800061006000b2
:102170000000e00017003a000900370051408000dd
:10218000e04b800010417800824878008100e80030
:10219000514088000000e800e04b88001e4fe90035
:1021a0001e4078000004e000f4ff3a000c00370005
:1021b00051408000e04b8000104178008248780058
:1021c0008100e800514088000000e800e04b8800f2
:1021d0001e4fe9001e4078000004e000f4ff3a00c2
:1021e0000080fa00000006000200fa002040800093
:1021f000104f78009e80fb00509820001080fb005c
:10220000629820001281fb004811dd00020070007e
:10221000808f500007003600509820001080fb008f
:10222000619820009180fb00c808dd00010070006b
:10223000004f7800509820001080fb00619820002b
:102240009180fb00c808dd0001007000800078006c
:102250001e80fb0000805000f10f20000101600093
:102260005198200091417800e0c1610002c17100e5
:1022700082487800c800de00609820001041780095
:102280006041610081407100014878000040eb002e
:10229000104798001c003700209820001080fb0099
:1022a000319820009180fb00c808dd00010070001b
:1022b0009e4090008180fb0072992000e2c078006f
:1022c000014878000000e800f10f200001016000e3
:1022d0002198200091417800e0c1610002c17100a5
:1022e00082487800c800de00309820001041780055
:1022f0006041610081407100014878001e409000fb
:102300000040e800104798001e4090009e4f50008b
:10231000e1ff3900509820001080fb0061982000f8
:102320009180fb00c808dd00010070000000e000a3
:102330001e0032003040800081c0b30001487800a8
:1023400030408000719920001100980020408000ea
:102350009000780000002400008060000000e00091
:1023600009003a003040800081c4b3001140980059
:102370003040800031408000914090000174a00006
:10238000114098002f0037003040800081c0b3001a
:102390001140980030408000314080009140900012
:1023a0000174a000114098002600370030408000e2
:1023b00081c0b3000148780030408000f1982000cf
:1023c000110098003040800041c0b30011409800d7
:1023d0003040800031408000914090000174a000a6
:1023e00011409800709820001080fb008198200018
:1023f0009180fb00c808dd00010070000000e000d3
:1024000007003200709820001080fb0081982000a7
:102410009180fb00c808dd00010070000000010091
:1024200040982000904078000174a1000148780095
:1024300012c8bf000004a2000004e0000100320046
:1024400036fe07000080fa00000006000200fa00d5
:10245000f04b80000070a000f04b8800420020008c
:102460008000eb00c04a2000f1fa070002032000c0
:102470008000eb0000a02000edfa07009424a800e3
:102480000040eb00004f7800090037001e80fb0081
:10249000919820000041eb00827078001e80fb00c4
:1024a000c19820000041eb00827078001e4fe800c8
:1024b0001e407800e24f5000f4ff3600220020005a
:1024c0008000eb00e0962000d9fa07009424a900d0
:1024d00080a02000b04b880000a020002040880091
:1024e0002040800030408800109920001040780083
:1024f00002e8b70002c8bf000004e00003003a0091
:102500000001200000408800060037001200200073
:102510002180200010002000900907000002200008
:10252000004088000080fa00000006000000fa0069
:10253000f09820009040780000c8b30080cf500091
:1025400047003a00e097200001ccb3000148780032
:1025500020992000104078000080fb00e20f50001e
:1025600009003200e30f500023003200e10f500059
:1025700037003a0060842800e04b880020012000ea
:10258000004c880036003700109920001040780079
:102590000004e00014003a00109920001040780078
:1025a0000080fb000000400080007800a08e280022
:1025b0000080400010007800e04b8800e04b800075
:1025c0000080e800904078000098200001487800e2
:1025d000e04b80006300400090407800109820009d
:1025e000014878001e003700e09720008040eb0093
:1025f000014878001a003700109920001040780038
:10260000e24f50000e003e0010992000104078006c
:102610000080fb000000400080007800c08e280091
:102620000080400010007800e04b8800e04b800004
:10263000104078000080fb00004c88000800370044
:10264000e09720008040eb0001487800040037004c
:10265000e09720008040eb00014878000000000077
:102660000080fa00000006000200fa0070992000c5
:102670008040eb0001487800809920008040eb000a
:1026800001487800f0982000904078007fc06000fa
:102690000080fb00e10f500011003200e20f5000fb
:1026a000130032000000e00040003a00f04b8000d0
:1026b0000070a000f04b88000cc8bf000004e000d0
:1026c000350032007099200010407800804078007a
:1026d0000114a000709920000148780033003700f1
:1026e000f04b80000070a000f04b88002f003700f6
:1026f000f04b80000070a000f04b88003099200063
:102700009040780000c8b30000c060000004e00002
:1027100009003a0030992000904078006fc06000b6
:102720000080fb00800040000097200000804000f7
:10273000100f780008003700309920009040780092
:102740006fc060000080fb008000400060972000a8
:1027500000804000100f78001e0078009000780084
:1027600000002800008060000000e0000c00320043
:102770001e0078009000780000402000008060007b
:102780000000e000080032007099200011c0b30082
:102790000148780005003700000000000300370002
:1027a000000000000100370000000000f14b800035
:1027b00000082000008060000000e00008003200f7
:1027c00070992000e04b8800f04b80000000a000d2
:1027d000f04b88000098200021c0b3000148780029
:1027e0000080fa00000006000000fa00502580007a
:1027f000620060000000e000130032002040800012
:102800009040900000c8b30080cf50000d003a0007
:10281000b04b80009040900040c8b30080cf500083
:1028200008003a0020408000c1c0b3001140980069
:102830002040800021408000914090000174a00061
:1028400011409800aa24a900000820005024880004
:102850000080fa00000006000000fa008284a80050
:10286000000120005024880010c0b3000de8b7001c
:102870001c68ef000001eb008000eb005007200017
:10288000b60807000080fa00000006000000fa0009
:102890000d68ef000001eb008000eb004007200016
:1028a000ae0807008284a9000001200000248800ef
:1028b0001c68ef000080fa00000006000000fa002b
:1028c000d0c2b30011e8b7000ec8bf000080fb0003
:1028d0000020a1000000e0001f003a000ec8bf0069
:1028e0000080fb004200de00004078000080fb001a
:1028f000c200dd0000a020000080400020408800d1
:102900002040800030408800304080000020a2003d
:1029100030408800204080009000780000c02300f4
:102920008080600000402300808f500008003a0043
:10293000204080001000900082002000800078007d
:10294000f0982000b3f907000b00070008003700db
:102950003d000700060037000ec8bf000080fb00e6
:102960000020a100e80f500001003a0053000700ca
:102970000080fa00000006000000fa000868ef007e
:102980001268ef001568ef001668ef001068ef009e
:102990000968ef00b04b8000b14b8000914090007f
:1029a0000174a10011409800b04b80000020a200eb
:1029b000b04b8800b04b8000b14b8000914090003c
:1029c0000174a10011409800b04b80000020a200cb
:1029d000b04b880030408000314080009140900032
:1029e0000174a10011409800e09720008040eb00a6
:1029f000014878000000eb00004c8800409820005f
:102a00008040eb000148780050982000904078000a
:102a1000e0c0600001487800609820009040780095
:102a2000e0c0600001487800820007000001eb0070
:102a30008000eb00300020004808070053fd07002d
:102a40000080fa00000006000000fa0009c8bf007c
:102a5000e24f500002003a00e3fd07001500370086
:102a60000968ef0010c8bf000004a2000004e000e5
:102a70000f0032003040800081c0b3000148780070
:102a800030408000f1982000110098003040800014
:102a9000c1c0b30011409800304080003140800038
:102aa000914090000174a00011409800010037008f
:102ab0001068ef000080fa00000006000200fa0033
:102ac000b04b8000100078004e00de0061406000d6
:102ad000004f7800b04b80000020a200b04b88006f
:102ae00000408000e80f50000e003a0010992000ce
:102af000104078008080fb00f0072000008060001c
:102b0000b0248800b02480000000e0000300320000
:102b10000001200000408800020037004000200033
:102b20000040880009c8bf00e14f500025003a006e
:102b3000b04b800071992000110098006ffd0700d4
:102b400008c8bf00e24f500009003a00b04b8000b7
:102b500041c0b30011409800b04b8000b14b8000e1
:102b6000914090000174a000114098002f003700a0
:102b70001e4078000004e00009003a00b04b8000dd
:102b800081c4b30011409800b04b8000b14b80006d
:102b9000914090000174a00011409800230037007c
:102ba000b04b800081c0b30011409800b04b800052
:102bb000b14b8000914090000174a000114098003a
:102bc0001a003700409820009040780000c8b300f9
:102bd00000c060000004e000130032007098200084
:102be0001080fb00819820009180fb00c808dd0068
:102bf000010070000000e000070032007098200023
:102c00001080fb00819820009180fb00c808dd0047
:102c10000100700000000100409820009040780002
:102c20000174a100014878000968ef000080fa00f3
:102c3000000006000000fa00f09820001040780024
:102c40000046b2000004e00050003a000099200065
:102c5000104078000080fb00cf80de00b200200032
:102c600003002000820f5000838f580049003e006f
:102c700000600100210037002200370047003700c4
:102c80002000370045003700060037000b003700f2
:102c9000390037000d0037000a0037001b003700ed
:102ca0002a003700f04b80000070a000f04b880035
:102cb0008000200000408800390037001bfe07001c
:102cc00037003700e1fd0700350037002080200085
:102cd000e04b8800f04b80000000a000f04b880023
:102ce0000098200011c0b30001487800f04b80002c
:102cf0000070a000f04b8800290037005afe070042
:102d000027003700280007002500370030992000f1
:102d1000104078008080fb00e0962000008040009a
:102d2000e04b8800f04b80000000a000f04b8800d2
:102d30000098200011c0b30001487800f04b8000db
:102d40000070a000f04b880015003700f04b8000a9
:102d50000070a000f04b88003099200010407800ef
:102d60000080fb001199200011417800e1962000bd
:102d7000827078000a0037000001eb008000eb0051
:102d80002000200075070700050037000000000044
:102d900003003700000000000100370000000000c1
:102da0000080fa00000006000600fa0010992000da
:102db00010407800e14f500010003a00f0982000d9
:102dc000104078007f4060000004e0000b003a00f3
:102dd000f04b80000070a000f04b880000992000ac
:102de00010407800e34f500003003a0010c0b300d9
:102df0000ce8b700010037000c68ef0010992000c4
:102e0000104078000004e000f5003a00f09820003f
:102e1000104078007f406000e24f5000f0003a0020
:102e200030992000104078006f4060000004e000fe
:102e3000eb00320030992000904078006fc06000b5
:102e40000080fb00e20f5000e5003c0001408000e4
:102e500000022000808f5000e1003a00f04b80001b
:102e60000070a000f04b880030992000904078005e
:102e700000c8b30000c060000004e00010003a0089
:102e800030992000104178006f4061000080fb0005
:102e9000800040000097200000804000100f780064
:102ea00030992000904078006fc060000080fb00e7
:102eb000c198200061407800404798000f0037001b
:102ec00030992000104178006f4061000080fb00c5
:102ed000800040006097200000804000100f7800c4
:102ee00030992000904078006fc060000080fb00a7
:102ef0009198200061407800404798004e40900033
:102f0000614060000004e00004003a001e00780008
:102f10000020a100000f7800030037001e00780099
:102f20000020a000000f7800309920009040780029
:102f300000c8b30000c060000004e0000a003a00ce
:102f400030992000104178006f4061000080fb0044
:102f50009e00780000014000009720000000410022
:102f6000010878000900370030992000904078006f
:102f70006fc060000080fb009e00780000014000f0
:102f800060972000000041000108780000992000af
:102f900010407800e34f50002c003a001e007800eb
:102fa0009000780000002800008060000000e00031
:102fb00019003200309920009040780000c8b3001a
:102fc00000c060000004e0000a003a0030992000d0
:102fd000104178006f4061008080fb00c0982000a5
:102fe00000804000904078000114a0000148780063
:102ff0000900370030992000904078006fc06000d1
:103000008080fb0090982000008040009040780075
:103010000114a000014878001e00780010409000c4
:10302000804078000124a0001e0078001140980024
:103030001e00780010409000804078000174a000cd
:103040001e00780011409800650037001e007800cf
:103050000020a200000f78001e0078009000780089
:1030600000002800008060000000e0001100320035
:103070001e00780010409000804078000174a1008c
:103080001e007800114098001e007800104090004b
:10309000804078000164a0001e0078001140980074
:1030a000220020009e00780050002000ab060700a0
:1030b000060037001e007800104090008040780025
:1030c0000164a0001e007800114098001e007800e6
:1030d0000020a200000f78004e4090006240600087
:1030e0000004e00006003a001e007800900078001e
:1030f00000002800008060000000e0002400320092
:10310000309920009040780000c8b30000c06000f3
:103110000004e0000a003a003099200010417800d5
:103120006f4061008080fb00c0982000008040005c
:10313000904078000114a100014878000900370090
:1031400030992000904078006fc060008080fb00c4
:103150009098200000804000904078000114a10069
:10316000014878001e00780010409000b2c3b30000
:10317000824060001e00780011409800220020006c
:103180009e007800500020007406070006003700fb
:103190001e00780010409000b2c3b300824060006f
:1031a0001e00780011409800a14a200030992000ac
:1031b000104178006f4061000080fb00000040007b
:1031c00000804000100798001e009000104078001a
:1031d000804078000114a1001e0090000148780092
:1031e0000080fa00000006000000fa00c0408000e5
:1031f000d140800061004000e0804800c04088006d
:10320000d14088000dc8bf000004a2000004e00007
:10321000080032001cc8bf000040e8001ce8b700ee
:103220001cc8bf000004e00002003a0000c0eb0030
:103230001ce8b7000080fa00000006000400fa0055
:10324000c2408000d3408000028fbe00c04080009a
:10325000d14080001e01be00800f5100818f5900b7
:10326000f7ff3a001e00be000080fa0000000600d2
:103270000000fa00f0982000104078007f406000c5
:10328000e14f500078003a00f0982000104078009c
:1032900002c6b3008240600000c2b30080cf50007d
:1032a00073003a0030992000104078000004e000dc
:1032b000040032003099200010407800e14f5000a7
:1032c0006d003a0000992000104078000080fb005b
:1032d00001022000810f5000200032000102200076
:1032e000810f500005003c000000e0000a003200a1
:1032f000e10f50001300320060003700110220007f
:10330000810f50004300320021022000810f500045
:103310004800320059003700608e2000e04b8800e2
:1033200080002000004c8800f04b80000000a000ce
:10333000f04b8800f04b80000070a000f04b88003c
:103340004e003700608e2000e04b8800f04b80007c
:103350000070a000f04b8800480037005099200012
:103360001080fb00619920009180fb00c808dd00ff
:1033700001007000f10f2000010160005198200051
:1033800091417800e0c1610002c17100824878007b
:10339000c800de00609820001041780060416100a4
:1033a0008140710001487800408d2000f10f20001d
:1033b000010160002198200091417800e0c1610086
:1033c00002c1710082487800c800de0030982000f9
:1033d000104178006041610081407100014878002f
:1033e0007098200090407800e0c0600001487800ac
:1033f0008098200090407800e0c06000014878008c
:1034000040982000904078000174a00001487800a6
:103410001a003700408d2000e04b8800700020002b
:10342000004c8800e097200011ccb30001487800e0
:1034300012003700109920001080fb002199200015
:103440009180fb00c808dd0001007000004078009a
:1034500042e8b700f04b80000070a000f04b8800fd
:1034600000000000050037000000000003003700e6
:103470000000000001003700000000000080fa009a
:10348000000006000000fa0000b024000100200047
:10349000a0468800b1468800808d20008040eb0067
:1034a00001487800908d20008040eb0001487800b2
:1034b000a08d200081c0b300014878003668ef007d
:1034c00051c1b30010c0b300ddf80700d1c1b30093
:1034d00020c0b300daf8070003c4b300428920001b
:1034e0008040eb0020c0b300f2f80700f0418800f4
:1034f0004028ef003768ef000080fa000000060067
:103500000600fa00000f78001107980022079800c3
:103510001e007800e50f500012003a00f0418000d4
:103520009e009000808f500006003a0003c4b30054
:10353000428920008040eb0020c0b300ddf8070086
:10354000f0418800004280009e009000808f500073
:1035500002003a003768ef003c68ef0010c0b3008b
:10356000010037000040eb000080fa000000060078
:103570000400fa00000f7800214798003668ef0039
:10358000f04180000000e00006003200f0418000c1
:103590009000780000002800008060000000e0003b
:1035a00021003a00f0418000904078002e409000c9
:1035b00080cf500003003100f0418000904078003f
:1035c000214798003668ef000c00370036c8bf006e
:1035d0000080fb001e0040006183200091407800c5
:1035e0008180fb0042892000e2c078000148780019
:1035f00036c8bf000040e80036e8b700618320000d
:10360000914078002e40900080cf5000efff3900ad
:1036100003c4b300428920008040eb0020c0b30007
:10362000a4f80700f041880036c8bf000080fa0007
:10363000000006000400fa00000f780021479800ff
:103640009ec0a90037c8bf000004e00009003a008e
:103650009e007800c1418800ae409000c2832000e7
:103660000149780010c0b3003de8b70010c0b300b6
:1036700037e8b7009ec0a8000080fa0000000600ee
:103680000600fa00200798009ec0a90037c8bf00b6
:103690000004e000020032009ec0a8001f003700b6
:1036a0000040eb00004f7800ae009000110798003a
:1036b0001e4fe8001e407800e14f40000c00320031
:1036c0001e009000104078000080fb000000ea001f
:1036d0004f00de00004078009e0090008100e8006e
:1036e000110798000004e000f1ff3a0001003700e4
:1036f000000000002e009000c04188009e4078002d
:10370000c28320000149780010c0b3003de8b70033
:1037100010c0b30037e8b7009ec0a8000080fa00d0
:10372000000006000600fa00200798009ec0a900cd
:1037300037c8bf000004e000020032009ec0a800ad
:103740001e0037000040eb00004f7800ae009000f4
:10375000110798001e4fe8001e407800e14f40001e
:103760000c0032001e009000104078000080fb002a
:103770000000ea004f00de00004078009e0090004c
:103780008100e800110798000004e000f1ff3a0012
:1037900001003700000000002e009000c0418800aa
:1037a0009e407800c2832000014978003d68ef0008
:1037b00010c0b30037e8b7009ec0a8000080fa0030
:1037c000000006000200fa009ec0a900004280002e
:1037d0000000e00008003200004280009000780005
:1037e00000002800008060000000e00002003200bd
:1037f0009ec0a8006200370037c8bf00e34f5000ea
:1038000001003a003768ef0037c8bf000004e0004d
:1038100002003a009ec0a8005900370037c8bf0018
:10382000e24f500009003a008041eb000001eb003c
:1038300011c0b30020c0b3001ef80700004288008a
:1038400030c0b30037e8b7004c00370037c8bf00be
:10385000e14f500049003a00c183200091407800b8
:1038600000c4b30080cf50000300360000c4b30092
:10387000004f780003003700c1832000914078009a
:10388000014f78003cc8bf001e4050003ce8b70024
:1038900040852000d04188009e4078001147980064
:1038a0003dc8bf000004e0001f003a000d003700d3
:1038b000d0418000c14180009140780001487800eb
:1038c000d04180000000e800d0418800c041800065
:1038d0000000e800c04188001e4090000040e90060
:1038e000104798001e4090000004e000f0ff3a00ee
:1038f00010003700d0418000c14180009140780025
:1039000001487800d04180000000e800d0418800e4
:10391000c04180000000e800c04188001e409000c7
:103920000040e900104798001e4090000004e000ad
:10393000f0ff3a003cc8bf000004e00009003a0074
:1039400000c4b3009e40780080cf500003003a00ce
:1039500020c0b30037e8b7000200370030c0b30022
:1039600037e8b7009e4178004285200011c0b300bf
:1039700020c0b300cff70700004288009ec0a80017
:103980000080fa00000006005e00fa00602f980038
:10399000208f28005a000900305f7800be05b10072
:1039a000b005b1008e0078006e289000b1f50700d8
:1039b0000080fa00000006003600fa00201f980080
:1039c000d094280032000900305f78003e03b10037
:1039d0003003b1008e0078002e189000a5f5070086
:1039e0000080fa00000006002800fa003017980056
:1039f000e4004700040009008018eb008058eb0049
:103a000000c3b3004047980010c3b300504798006c
:103a100020c3b3006047980030c3b30070479800dc
:103a200040c3b300004f980050c3b300104f98003c
:103a300060c3b300204f980070c3b300304f9800ac
:103a400080c3b300404f980090c3b300504f98001c
:103a5000f00047000a0009008018eb001000200069
:103a6000100f980020002000200f98003000200048
:103a7000300f980040002000400f980050002000b8
:103a8000500f980060002000600f98007000200028
:103a9000700f980080002000001798009000200010
:103aa000101798000000eb00000f78000000eb00fa
:103ab000100798000000eb00000f78000f0037009f
:103ac000640047001e004000104078008000fb00aa
:103ad0003e109000104078000080fb00808f500066
:103ae00005003a001e00780000004000000047007a
:103af00080089000110798001e0fe800f0032000d6
:103b00009e007800808f5000edff36001e00900070
:103b10000080fa00000006002600fa000017980056
:103b200011179800221798000000eb00300798004a
:103b30000000eb00400798000000eb00000f780049
:103b40000000eb00100798000000eb002007980031
:103b5000ea004700040009008018eb008058eb00e1
:103b600000c3b300204f980010c3b300304f98003b
:103b700020c3b300404f980030c3b300504f9800ab
:103b800040c3b300604f980050c3b300704f98001b
:103b900060c3b3000057980070c3b300105798007b
:103ba00080c3b3002057980090c3b30030579800eb
:103bb000f5004700050009008058eb00fb004700b6
:103bc000040009008058eb00e80047006600470049
:103bd00081017800000178000e1090009e10900086
:103be000d90007003e0090000000e00049003200cc
:103bf0000040eb00205f9800be009000d0cc2c006d
:103c00000008b8004308de00000f78001e007800ae
:103c10006a00b9000000780010079800be0090000c
:103c20001e009000008050000000470020489000d7
:103c3000105f98009e007800d0cc2c000008b800df
:103c40004308de006a00b900000078001007980001
:103c50001e0090001e001000000047002048900049
:103c6000005f98009e007800d0cc2c000008b800bf
:103c70004308de00000f78009e007800d0cc2c00b6
:103c80000008b8004308de006a00b90000007800b0
:103c9000100798001e0090001e0010000000470052
:103ca00020489000705798009e007800d0cc2c00df
:103cb0000008b8004308de00000f78009e0078007e
:103cc000d0cc2c000008b8004308de006a00b90020
:103cd00000007800100798001e0090001e001000e1
:103ce0000000470020489000605798009e00780030
:103cf000d0cc2c000008b8004308de00000f78008c
:103d00006a0047001e00400010407800505798009d
:103d10000200370000c3b300505798004e009000d7
:103d20000000e0002c0032000040eb00705f9800c3
:103d30000000eb00000f78000000eb001007980077
:103d4000ce009000d0cc2c000008b8004308de0064
:103d5000000f78001e0078006a00b90000007800ab
:103d600010079800ce0090001e00900000805000c8
:103d70000000470020489000605f98009e00780097
:103d8000d0cc2c000008b8004308de006a00b9005f
:103d900000007800100798001e0090001e00100020
:103da0000000470020489000505f98009e00780077
:103db000d0cc2c000008b8004308de00000f7800cb
:103dc0006a0047001e00400010407800405f9800e5
:103dd000c0c2b300305f98007500470080007800d3
:103de0002e109000a3f407007b00470080007800ad
:103df0002e10900095f407000080fa0000000600e5
:103e00004600fa0010279800212798000000eb00d8
:103e1000000f78006000b800100798002107980094
:103e2000e60047001d0009008018eb000e80e80046
:103e30009e2090008ff4070037c8bf000004e00008
:103e400006003a000e80e80001c4b300f9fd070047
:103e50002e20900011002000010878000080fa0058
:103e6000000006008600fa00208798000000eb00a2
:103e7000100798000000eb00000f780037c8bf0063
:103e80000004e0002e003a006400470001c4b300c3
:103e9000b7fd07000080fb00100798000000eb0052
:103ea000000f780013003700640047001e00400038
:103eb00010407800ed4f500006003a002e80900030
:103ec0008080eb0001087800f4e2a800f4c2a800aa
:103ed000e4e2a900640047001e0040009040780022
:103ee000400420000e0040001e0040000148780001
:103ef0001e0fe8001e0090009e007800808f50008a
:103f0000e9ff39001e0090000000e0000c003200c4
:103f10001e00900080407800400420000e00400009
:103f2000c4fd07004e409000ed4f500004003200e9
:103f300064004700acfe0700ae8090008008780067
:103f40000080fa00000006000800fa00889fbe000a
:103f5000008fbe0022079800330798001e00be00a5
:103f600059f30700800078002e00900001087800c7
:103f700002002000a34724001e00be00c2f3070079
:103f80000004be002e00900090007800803e2000cb
:103f90000088b900000078008000eb0065f307009e
:103fa0000001be000800be00e9f2070046f307006a
:103fb000800078003e009000010878004f04be00a9
:103fc0000080fa00000006000400fa0010079800c4
:103fd0000000eb00000f78000000eb00000f7800fd
:103fe000060037001e0090001e00400001982800c7
:103ff00081407800014878001e0fe8001e0078001c
:10400000e10f5000f7ff36000080fa0000000600c4
:104010000000fa00a60007000cc8bf000004e00082
:10402000010032000dc8bf000040fe005124800096
:1040300000022000008060000000e00002003a0062
:1040400010c0b30041000700d200070010c0b30049
:104050000080fa00000006000000fa000cc8bf0053
:104060000004e000360032000dc8bf000004e0008c
:104070003300320040248000620060000000e00055
:10408000010032008824a900750007000004200008
:1040900000248800000000000124800000042000ab
:1040a000008060000000e000fbff32000004200000
:1040b000002488000000000001248000000420008b
:1040c000008060000000e000fbff320000042000e0
:1040d000002488000000000001248000000420006b
:1040e000008060000000e000fbff32009444a80064
:1040f000000420000024880000000000012480004b
:1041000000042000008060000000e000fbff32009f
:10411000000420000024880000000000012480002a
:1041200000042000008060000000e000fbff32007f
:104130009444a9005700070010c0b30001003700e5
:104140000040eb000080fa00000006000400fa00c6
:104150002047980040248000610060000000e000db
:104160000b00320040248000620060000000e0008c
:1041700007003a001cc8bf00e34f5000040036009f
:10418000202480004300de006140600032003700e0
:104190002e4090000004e0001d0032008824a90099
:1041a0008804a8002e0007000040eb00004f7800b4
:1041b00009003700000420000024880000000000ef
:1041c0000124800000042000008060000000e00066
:1041d000fbff32001e4fe8001e407800e44f500005
:1041e000f4ff36000040eb001047980020248000c8
:1041f000680060000000e0000200320010c0b30060
:1042000010479800230007001e409000120037005e
:1042100040248000610060000000e00002003a00dd
:1042200000c0eb000c0037004024800062006000fa
:104230000000e00002003a00e0cfb30006003700c3
:104240001cc8bf00e34f500002003e00d0cfb300b7
:1042500001003700c0cfb3000080fa000000060064
:104260000000fa005068ef001000fc00f10480002c
:1042700000042000008060000000e0000200320026
:1042800010c0b30050e8b7009ec0a9000080fa003b
:10429000000006000000fa0050c8bf000004e00063
:1042a000010032009ec0a8000080fa000000060055
:1042b0000400fa001e00fc0011028000000e200025
:1042c000008060004042880011028000000e200043
:1042d00001007000100288004009200010079800bb
:1042e0000000eb00000f78000e0037001e00900069
:1042f000900078001e00780000014000209d200002
:1043000000004100010878001e0090008000eb00d2
:10431000010878001e0090000080e8001007980057
:104320001e0fe8001e007800e70f5000efff360078
:1043300060248000504288008c24ef00102480000c
:10434000604288008224ef00700680004800de0092
:10435000674060000080fb00704288000001200080
:104360000024880000022000502488008ec0a9008c
:104370008284a80071068000f08f2f00008060000a
:1043800000a0a000700688009ec0a8000080fa006f
:10439000000006000400fa00400920001007980001
:1043a0000000eb00000f78000b0037001e007800c3
:1043b00080004000209d2000008040009000780098
:1043c0001e009000010878001e0090000080e800a8
:1043d000100798001e0fe8001e007800e70f50003d
:1043e000f2ff360050428000602488006042800066
:1043f0001024880070428000004078006740600010
:104400000080fb00670060004800dd00720680004d
:10441000f18f2f008100610001007000700688009c
:1044200011028000f0f12f00808060004042800087
:104430000100700040428800404280001002880065
:104440000080fa00000006000000fa00e081200071
:10445000019c200011009800e0812000019c2000b8
:1044600001087800e0812000a00090000110a00069
:1044700021009800e0812000a00090000100a10030
:1044800021009800e08120008040eb00614098000e
:10449000d00920002010880000002800301088007b
:1044a0000822ef008620a9009620a8000080fa00cc
:1044b000000006000200fa00e0812000e0409000c9
:1044c000014f78001e4078000080fa0000000600ce
:1044d0000000fa0050418000660040005041880012
:1044e00028c8bf000040e90028e8b70028c8bf007e
:1044f0000004e00003003a00400020003041880042
:104500000200370010002000304188000080fa00cf
:10451000000006000200fa00000f78000642a80022
:1045200060418000200090000000e00003003200a5
:1045300060418000200090001e0878002628ef00cf
:104540000080fa00000006000800fa00000f780062
:10455000214798002207980033079800e081200047
:1045600020009000610060000000e0000a003a00b6
:10457000ae0190002e4190009e007800c09c20006b
:10458000770007003e019000c19c200010c0b300de
:104590001f000700030037003e0090008000eb0082
:1045a000010878000080fa00000006000800fa0008
:1045b000000f7800214798002207980033079800e1
:1045c000e081200020009000610060000000e00019
:1045d0000a003a00ae0190002e4190009e00780043
:1045e000609c2000460007003e019000619c200076
:1045f00010c0b30006000700030037003e00900023
:104600008000eb00010878000080fa00000006003e
:104610000600fa00004f7800110798002207980062
:10462000e081200020009000610060000000e000b8
:104630002e003a002e0090001100200001087800a2
:10464000e0812000100078009e009000110098008a
:10465000e0812000100078001e487800e0812000f2
:1046600010007800ae00900021009800e08120004a
:1046700010007800e6004000e0812000010878008a
:10468000e081200090007800609c2000808f500026
:1046900003003a00e0812000019c2000010878001e
:1046a000e0812000a00090000110a10021009800ee
:1046b000e081200090009000e08120001000780050
:1046c000808f500004003a00e0812000a00090009c
:1046d0000100a00021009800304180000000e000af
:1046e00005003a008620a800030037002e00900045
:1046f0008000eb00010878000080fa00000006004e
:104700000800fa00000f780011079800424798004f
:10471000330798003e0090000000400080007800c1
:104720001e007800010878001e0078001000780054
:10473000800078000100a0001e00780001087800c9
:104740001e007800ce409000214098001e007800a6
:104750009e009000210098000080fa0000000600f2
:104760000800fa00000f78001107980042479800ef
:10477000330798003e009000000040008000780061
:104780001e007800010878001e007800ce409000de
:10479000214098001e0078009e00900021009800a3
:1047a0000080fa00000006000000fa00e08120000e
:1047b000200090006200600000f0a7000000ea0006
:1047c0000000ea004f00de00004078000080fa00a0
:1047d000000006000000fa00e081200020009000a8
:1047e0006100600000f0a7000000ea000000ea009d
:1047f0004f00de00004078000080fa000000060054
:10480000c400fa00e0ff2f00000f78000000eb006a
:10481000100798006000b800200798003107980042
:10482000e80047001d0009008018eb006000b80098
:1048300020279800312798008e0078008104b0006e
:104840001d0009008018eb006000b8002087980068
:10485000318798008e0078008108b0001d000900a3
:104860008018eb0051010700f4e2a800f4c2a80090
:10487000e4e2a8000000000000408000ff0f5000ac
:10488000fdff360040248000620060000000e00070
:10489000f9ff3a00f4e2a900f4c2a80001003700d1
:1048a000000000001e007800e10f400004003a0004
:1048b0000e80e800800078002098280050fd070056
:1048c0000e00780067fd0700befb0700640047008c
:1048d000bdfd0700400420000e004000bafd0700a7
:1048e000400820000e004000b7fd07001e007800c1
:1048f000e10f50001f003a00e4e2a800f4c2a80053
:10490000f4e2a9006400470000017800d04d2200c5
:104910002109240080fc0700400420000e00400014
:10492000b2002000e1982800baf1070040082000fa
:104930000e004000e200200091992800b5f1070028
:10494000e4004700400420000e004000bff10700d3
:10495000410820008e804000400420000e004000ee
:10496000baf107008e80e800400420000e004000ed
:1049700023fd07001e009000e10f5000c8ff3a0021
:10498000e0ff2f00000f78000000eb0010079800f8
:10499000c4ff37000200fa0000408000ff0f500003
:1049a0003100360040248000620060000000e0001a
:1049b0002f003a0037c8bf000004e00028003a008a
:1049c00001c4b300e08e2000e9fa07001047980008
:1049d0000040eb00004f7800170037001e80fb00fe
:1049e000e18e2000614078000080fb00ea0f50005b
:1049f00002003200ed0f500007003a001e80fb005d
:104a00009e80fb00e28e200062c17800e1922000cf
:104a100082707800070037001e80fb009e80fb003c
:104a2000e28e200062c17800e1922000827078005e
:104a3000000000001e4fe8001e4090009e407800dd
:104a400080cf5000e5ff39001e4090000004e000d8
:104a5000030032009e409000e0922000f5fa07002b
:104a600058fb07000300370000000000010037007a
:104a7000000000000080fa00000006000000fa00bc
:104a8000cc22ef00d422ef00dc22ef00e422ef0082
:104a9000ec22ef00f422ef00f00f2f004016880008
:104aa0000000210080168800f0ff2000c01688005a
:104ab000f00f200000178800b00b2000401788007e
:104ac000c03c200080178800e0e2a900f0c2a900e5
:104ad000f0e2a9005620ef005820ef005a20ef0026
:104ae0005c20ef005e20ef006020ef006e20ef0002
:104af0007020ef007220ef007420ef007620ef00ae
:104b00007820ef00ce22ef00d622ef00de22ef0069
:104b1000e622ef00ee22ef00f622ef00c00f2f009a
:104b200010278800f09f2f0030278800000f2000fa
:104b300040278800900b200050278800003c200070
:104b400060278800e8e4a900ecc4a900ece4a9000f
:104b5000a804a8000080fa00000006000600fa0081
:104b6000000f780011079800220798001e007800b7
:104b700021072000810f500018003200210720007b
:104b8000810f50000a003c00e20f50001500320077
:104b9000e20f500003003c00e10f50000b00320018
:104ba00015003700e30f50000a00320012003700f2
:104bb00041072000810f50000c0032004107200007
:104bc000810f50000b0035000b0037002dfa070055
:104bd00009003700a6f907000700370000000000b1
:104be000050037000000000003003700000000004f
:104bf000010037000000000010c0b3000080fa0080
:104c0000000006000000fa0000002300303a88008f
:104c10004827ef004e27ef007027ef007227ef00c4
:104c20007427ef007627ef007827ef007a27ef0050
:104c30007c27ef001200200080072000a10920003f
:104c400033742000804978008149780082497800d7
:104c50001200200060042000710520002374200051
:104c6000804978008149780082497800000000007e
:104c7000103a8000610060000000e000fcff3a0094
:104c800000000000113a8000000220000080600057
:104c90000000e000fbff32000080fa000000060088
:020000040000fa
:104ca000c009000012000000800000001e08000083
:104cb0001800000080000000ee08000080000000e6
:104cc000800000006e09000032000000800000003b
:104cd000000800001e00000080000000000a000024
:104ce0003000000080000000540800009a0000001e
:104cf0008000000036080000120000008000000064
:104d0000d2090000100000008000000048080000e8
:104d10000a00000080000000a00900002000000040
:104d20008000000052080000020000008200000025
:084d3000ffff0000000000007d
:020000040000fa
:104d38000000fa0071068000f08f2f0000806000ec
:104d48000080a0007006880061058000f0f82f0040
:104d5800008060000040a0006005880061058000b8
:104d680080ff2f00008060000000a0006005880020
:104d78000080fa0000000600000f78009e0078000e
:104d880091428800ffff37000000fa00009a2000d7
:104d980080077800809b2000000188000080fa00ce
:104da800000006000000fa0032ff0700e0ff0700dd
:104db80092ff070064f10700bcf30700a0fd07009d
:104dc8000080fa00000006000000fa008bff0700d0
:084dd8000080fa000000060053
:020000040000fa
:020000040002f8
:04aff000ff870000d7
:020000040000fa
:020000040002f8
:04aff400fffe00005c
:020000040000fa
:020000040002f8
:04aff8007fe00000f6
:020000040000fa
:020000040002f8
:04affc003f3f0000d3
:00000001FF
