:020000040000fa
:080000000002040000000000f2
:020000040000fa
:0400080026050000c9
:020000040000fa
:04000c0004050000e7
:020000040000fa
:0400100016050000d1
:020000040000fa
:040014000c050000d7
:020000040000fa
:040018001e050000c1
:020000040000fa
:04001c0026050000b5
:020000040000fa
:0400200026050000b1
:020000040000fa
:0400240026050000ad
:020000040000fa
:0400280026050000a9
:020000040000fa
:04002c0026050000a5
:020000040000fa
:0400300026050000a1
:020000040000fa
:04003400260500009d
:020000040000fa
:040038002605000099
:020000040000fa
:04003c002605000095
:020000040000fa
:040040002605000091
:020000040000fa
:04004400260500008d
:020000040000fa
:040048002605000089
:020000040000fa
:04004c002605000085
:020000040000fa
:040050002605000081
:020000040000fa
:04005400260500007d
:020000040000fa
:040058002605000079
:020000040000fa
:04005c002605000075
:020000040000fa
:040060002605000071
:020000040000fa
:04006400260500006d
:020000040000fa
:040068002605000069
:020000040000fa
:04006c000403000089
:020000040000fa
:040070002605000061
:020000040000fa
:04007400260500005d
:020000040000fa
:040078002605000059
:020000040000fa
:04007c002605000055
:020000040000fa
:040080002605000051
:020000040000fa
:04008400260500004d
:020000040000fa
:040088002605000049
:020000040000fa
:04008c002605000045
:020000040000fa
:040090002605000041
:020000040000fa
:04009400260500003d
:020000040000fa
:040098002605000039
:020000040000fa
:04009c002605000035
:020000040000fa
:0400a0002605000031
:020000040000fa
:0400a400260500002d
:020000040000fa
:0400a8002605000029
:020000040000fa
:0400ac002605000025
:020000040000fa
:0400b0002605000021
:020000040000fa
:0400b400260500001d
:020000040000fa
:0400b8002605000019
:020000040000fa
:0400bc002605000015
:020000040000fa
:0400c0002605000011
:020000040000fa
:0400c400260500000d
:020000040000fa
:0400c8002605000009
:020000040000fa
:0400cc002605000005
:020000040000fa
:0400d0002605000001
:020000040000fa
:0400d40026050000fd
:020000040000fa
:0400d80026050000f9
:020000040000fa
:0400dc0026050000f5
:020000040000fa
:0400e00026050000f1
:020000040000fa
:0400e40026050000ed
:020000040000fa
:0400e80026050000e9
:020000040000fa
:0400ec0026050000e5
:020000040000fa
:0400f00026050000e1
:020000040000fa
:0400f40026050000dd
:020000040000fa
:0400f80026050000d9
:020000040000fa
:0400fc0026050000d5
:020000040000fa
:0401000026050000d0
:020000040000fa
:0401040026050000cc
:020000040000fa
:0401080026050000c8
:020000040000fa
:04010c0026050000c4
:020000040000fa
:0401100026050000c0
:020000040000fa
:0401140026050000bc
:020000040000fa
:0401180026050000b8
:020000040000fa
:04011c0026050000b4
:020000040000fa
:0401200026050000b0
:020000040000fa
:0401240026050000ac
:020000040000fa
:0401280026050000a8
:020000040000fa
:04012c0026050000a4
:020000040000fa
:0401300026050000a0
:020000040000fa
:04013400260500009c
:020000040000fa
:040138002605000098
:020000040000fa
:04013c002605000094
:020000040000fa
:040140002605000090
:020000040000fa
:04014400260500008c
:020000040000fa
:040148002605000088
:020000040000fa
:04014c002605000084
:020000040000fa
:040150002605000080
:020000040000fa
:04015400260500007c
:020000040000fa
:040158002605000078
:020000040000fa
:04015c002605000074
:020000040000fa
:040160002605000070
:020000040000fa
:04016400260500006c
:020000040000fa
:040168002605000068
:020000040000fa
:04016c002605000064
:020000040000fa
:040170002605000060
:020000040000fa
:04017400260500005c
:020000040000fa
:040178002605000058
:020000040000fa
:04017c002605000054
:020000040000fa
:04018000d80400009f
:020000040000fa
:04018400260500004c
:020000040000fa
:040188002605000048
:020000040000fa
:04018c002605000044
:020000040000fa
:040190002605000040
:020000040000fa
:04019400260500003c
:020000040000fa
:040198002605000038
:020000040000fa
:04019c002605000034
:020000040000fa
:0401a0002605000030
:020000040000fa
:0401a400260500002c
:020000040000fa
:0401a8002605000028
:020000040000fa
:0401ac002605000024
:020000040000fa
:0401b0002605000020
:020000040000fa
:0401b400260500001c
:020000040000fa
:0401b8002605000018
:020000040000fa
:0401bc002605000014
:020000040000fa
:0401c0002605000010
:020000040000fa
:0401c400260500000c
:020000040000fa
:0401c8002605000008
:020000040000fa
:0401cc002605000004
:020000040000fa
:0401d0002605000000
:020000040000fa
:0401d40026050000fc
:020000040000fa
:0401d80026050000f8
:020000040000fa
:0401dc0026050000f4
:020000040000fa
:0401e00026050000f0
:020000040000fa
:0401e40026050000ec
:020000040000fa
:0401e80026050000e8
:020000040000fa
:0401ec0026050000e4
:020000040000fa
:0401f00026050000e0
:020000040000fa
:0401f40026050000dc
:020000040000fa
:0401f80026050000d8
:020000040000fa
:0401fc0026050000d4
:020000040000fa
:0402080026050000c7
:020000040000fa
:04020c0004050000e5
:020000040000fa
:0402100016050000cf
:020000040000fa
:040214000c050000d5
:020000040000fa
:040218001e050000bf
:020000040000fa
:04021c0026050000b3
:020000040000fa
:0402200026050000af
:020000040000fa
:0402240026050000ab
:020000040000fa
:0402280026050000a7
:020000040000fa
:04022c0026050000a3
:020000040000fa
:04023000260500009f
:020000040000fa
:04023400260500009b
:020000040000fa
:040238002605000097
:020000040000fa
:04023c002605000093
:020000040000fa
:04024000260500008f
:020000040000fa
:04024400260500008b
:020000040000fa
:040248002605000087
:020000040000fa
:04024c002605000083
:020000040000fa
:04025000260500007f
:020000040000fa
:04025400260500007b
:020000040000fa
:040258002605000077
:020000040000fa
:04025c002605000073
:020000040000fa
:04026000260500006f
:020000040000fa
:04026400260500006b
:020000040000fa
:040268002605000067
:020000040000fa
:04026c000403000087
:020000040000fa
:04027000260500005f
:020000040000fa
:04027400260500005b
:020000040000fa
:040278002605000057
:020000040000fa
:04027c002605000053
:020000040000fa
:04028000260500004f
:020000040000fa
:04028400260500004b
:020000040000fa
:040288002605000047
:020000040000fa
:04028c002605000043
:020000040000fa
:04029000260500003f
:020000040000fa
:04029400260500003b
:020000040000fa
:040298002605000037
:020000040000fa
:04029c002605000033
:020000040000fa
:0402a000260500002f
:020000040000fa
:0402a400260500002b
:020000040000fa
:0402a8002605000027
:020000040000fa
:0402ac002605000023
:020000040000fa
:0402b000260500001f
:020000040000fa
:0402b400260500001b
:020000040000fa
:0402b8002605000017
:020000040000fa
:0402bc002605000013
:020000040000fa
:0402c000260500000f
:020000040000fa
:0402c400260500000b
:020000040000fa
:0402c8002605000007
:020000040000fa
:0402cc002605000003
:020000040000fa
:0402d00026050000ff
:020000040000fa
:0402d40026050000fb
:020000040000fa
:0402d80026050000f7
:020000040000fa
:0402dc0026050000f3
:020000040000fa
:0402e00026050000ef
:020000040000fa
:0402e40026050000eb
:020000040000fa
:0402e80026050000e7
:020000040000fa
:0402ec0026050000e3
:020000040000fa
:0402f00026050000df
:020000040000fa
:0402f40026050000db
:020000040000fa
:0402f80026050000d7
:020000040000fa
:0402fc0026050000d3
:020000040000fa
:0403000026050000ce
:020000040000fa
:0403040026050000ca
:020000040000fa
:0403080026050000c6
:020000040000fa
:04030c0026050000c2
:020000040000fa
:0403100026050000be
:020000040000fa
:0403140026050000ba
:020000040000fa
:0403180026050000b6
:020000040000fa
:04031c0026050000b2
:020000040000fa
:0403200026050000ae
:020000040000fa
:0403240026050000aa
:020000040000fa
:0403280026050000a6
:020000040000fa
:04032c0026050000a2
:020000040000fa
:04033000260500009e
:020000040000fa
:04033400260500009a
:020000040000fa
:040338002605000096
:020000040000fa
:04033c002605000092
:020000040000fa
:04034000260500008e
:020000040000fa
:04034400260500008a
:020000040000fa
:040348002605000086
:020000040000fa
:04034c002605000082
:020000040000fa
:04035000260500007e
:020000040000fa
:04035400260500007a
:020000040000fa
:040358002605000076
:020000040000fa
:04035c002605000072
:020000040000fa
:04036000260500006e
:020000040000fa
:04036400260500006a
:020000040000fa
:040368002605000066
:020000040000fa
:04036c002605000062
:020000040000fa
:04037000260500005e
:020000040000fa
:04037400260500005a
:020000040000fa
:040378002605000056
:020000040000fa
:04037c002605000052
:020000040000fa
:04038000d80400009d
:020000040000fa
:04038400260500004a
:020000040000fa
:040388002605000046
:020000040000fa
:04038c002605000042
:020000040000fa
:04039000260500003e
:020000040000fa
:04039400260500003a
:020000040000fa
:040398002605000036
:020000040000fa
:04039c002605000032
:020000040000fa
:0403a000260500002e
:020000040000fa
:0403a400260500002a
:020000040000fa
:0403a8002605000026
:020000040000fa
:0403ac002605000022
:020000040000fa
:0403b000260500001e
:020000040000fa
:0403b400260500001a
:020000040000fa
:0403b8002605000016
:020000040000fa
:0403bc002605000012
:020000040000fa
:0403c000260500000e
:020000040000fa
:0403c400260500000a
:020000040000fa
:0403c8002605000006
:020000040000fa
:0403cc002605000002
:020000040000fa
:0403d00026050000fe
:020000040000fa
:0403d40026050000fa
:020000040000fa
:0403d80026050000f6
:020000040000fa
:0403dc0026050000f2
:020000040000fa
:0403e00026050000ee
:020000040000fa
:0403e40026050000ea
:020000040000fa
:0403e80026050000e6
:020000040000fa
:0403ec0026050000e2
:020000040000fa
:0403f00026050000de
:020000040000fa
:0403f40026050000da
:020000040000fa
:0403f80026050000d6
:020000040000fa
:0403fc0026050000d2
:020000040000fa
:100400000fa320000e7f22000e01880000000000d4
:10041000000020000000e000020032000001200087
:1004200020028800140007008a0107000000e00095
:1004300003003a00c04d23000100200002003700f5
:100440000000200001002000810f70000100320038
:1004500014000700000020000000e000020032004d
:1004600000000200000000008c1d020000000000df
:100470000040da000000fe004440a90020532000a4
:100480000000e000030032000020200090018800fe
:100490004440a800000006008a1f78008b1f7800e7
:1004a00000000600a1028800800478000000eb0034
:1004b0001f003700e284440054a0b4009905ba003c
:1004c000e284440054a0b4009906ba00e2844400d7
:1004d00054a0b4000006eb00476fde00fd07b20039
:1004e000ae018800636ce10003003a00eaff0700f8
:1004f0000000eb000e003700606ce10008003a00dd
:10050000004deb000a05e800020039003420ec0041
:100510000af0a0008b05e900f9ff3e000400370057
:100520006168e100010032000086eb000b0007006b
:1005300019c7ba001905ba000e04e00003003a001a
:100540000a00e000dbff3a0000000600fe07b200f0
:10055000ae0288008a047800f5ff37000cd0a300b3
:10056000e20f4d001c00390089027800354dba00b9
:100570000a05e800020039003420ec000af0a0006f
:100580008b05e9000f003200254dba000a05e8008e
:10059000020039003420ec000af0a0008b05e900cd
:1005a000080032000c00e0000600320015cdba0051
:1005b0000a05e800020039003420ec000af0a0002f
:1005c0008b05e9008984e80054a0b4000b00e0002a
:1005d000e2ff3a00000006009902ba00055d7800cb
:1005e0008b05e900f7ff3200c82ade00055d7800c0
:1005f0008b05e900f3ff32000c00e000f1ff320050
:1006000019ddba00eeff3700809fbe000000fa003f
:100610009620a9008620a900204180000000e80063
:100620002041880030418000e10f50007f003a00f7
:1006300020418000e10f500003003a00604280003a
:1006400010108800d600370020418000e20f5000d3
:100650000b003a004110800000002800008060007c
:100660000000e00003003a001041800010108800f4
:10067000cb0037002006200020418800c80037004a
:1006800020418000e30f50000a003a004110800032
:1006900000002800008060000000e00002003a0036
:1006a0000622a800be003700200620002041880056
:1006b000bb00370020418000e40f500003003a00e7
:1006c0007042800010108800b50037002041800083
:1006d000e50f50000a003a00411080000000280099
:1006e000008060000000e00002003a000662a800fe
:1006f000ab0037002006200020418800a80037000a
:1007000020418000e60f50000c003a0040108000ad
:10071000620060000000e000050032000010800070
:10072000f040880006a2a9000682a8009c003700bd
:1007300020062000204188009900370020418000d9
:10074000e70f50000a003a00411080000000280026
:10075000008060000000e00002003a000662a8008d
:100760008f00370020062000204188008c003700d1
:1007700020418000e80f50000c003a00401080003b
:10078000620060000000e000050032000010800000
:100790000041880006a2a8000682a8008000370059
:1007a00020062000204188007d0037002041800085
:1007b000e90f500004003200214180003006200083
:1007c000808f500002003a000642a80074003700f3
:1007d00020418000ea0f50000400320021418000d7
:1007e00040062000808f50006c003a0040108000ce
:1007f000700060000000e000040032002141800031
:1008000040062000808f500002003a001e28ef00b2
:100810002028ef00504180001100200001087800de
:100820002628ef002428ef005d00370040418000bb
:10083000e10f50005a003a0020418000e10f5000c3
:1008400003003a0060428000101088005400370016
:1008500020418000e20f50000b003a004110800060
:1008600000002800008060000000e00003003a0063
:100870001041800010108800490037002006200039
:10088000204188004600370020418000e30f5000df
:100890000b003a004110800000002800008060003a
:1008a0000000e00003003a00f040800010108800d3
:1008b0003b00370020062000204188003800370028
:1008c00020418000e40f50000b003a0041108000ee
:1008d00000002800008060000000e00003003a00f3
:1008e00000418000101088002d00370020062000f5
:1008f000204188002a00370020418000e50f500089
:10090000040032002141800030062000808f50001a
:100910000a003a00411080000000280000806000ba
:100920000000e00003003200604180002100200050
:10093000010878000642a800190037002041800015
:10094000e60f5000040032002141800040062000e4
:10095000808f500012003a0040108000700060004c
:100960000000e00004003200214180004006200029
:10097000808f500003003a00604180003100200069
:100980000108780060418000110020000108780013
:100990002828ef002428ef000100370000000000a5
:1009a0009620a8000080fa004f00be00004006001c
:1009b0003600f800809fbe00829fbe00849fbe006c
:1009c000869fbe003200f8003400f80010002000be
:1009d000a001880000202000900188000000fa009b
:1009e000fe0407000080fa003400f9003200f9002c
:1009f0004f03be004f02be004f01be004f00be00bd
:100a00003600f900004006003600f8008020a900fa
:100a10000000eb007e1807003600f8008018070081
:100a20008040a90010002000791807003600f80067
:100a30008060a90020002000751807003600f8002b
:100a40008080a90030002000711807000040da0003
:100a50000000fe000000050003f0a200889fbe0019
:100a60008a9fbe008c1f7800000107000701330039
:100a70006450e1004f0032006420e1005200320077
:100a800003826c0007003b000905d0000306d0007c
:100a9000820f54000c065d00020039000200320093
:100aa00089017800030678008582550004003d0026
:100ab0000003fd008103fd008502ea008b854200f2
:100ac000840f720002003b0060001000e0801800fc
:100ad0006011b8000005eb007a28e1000a00390037
:100ae00006007800c75ddd00f707b200878075005b
:100af0002d003700828171000a01780061056000d5
:100b00008180d1000080d3008502e900f9ff3b001d
:100b1000060440008784480002003b006004140083
:100b2000e0841c000988a300070032008a8171005c
:100b300082817100610164008904d1000884d300be
:100b40008b05e800170037000978a30013003a006e
:100b50000b00e000130034008b05e900080444009a
:100b600089844c000a4474000978a3000d003a00ff
:100b70000b00e000070034008b05e9000804440086
:100b800089844c0001003a000b0020000978a30082
:100b9000f7ff32000001eb00020037008281710094
:100ba0000a017800760007000cf0a70001f0a00011
:100bb000bf0037006420e10002003a00838f6c0020
:100bc000bf0033000801be000200be00b8003700bd
:100bd000889fbe008a9fbe008c1f7800a30007007c
:100be000aa00330003866c006450e1002e0032003e
:100bf0006420e100330032006150e1002f00320038
:100c00006120e1003100320085855500eb07b0001e
:100c100009002000080420000500370008044400f3
:100c200089844c000a0031000603430087834b008f
:100c30000001530081815b00f8ff33000203be0016
:100c40000800a0000804440089844c00f6ff390025
:100c5000c639dd008301730001003200130020005b
:100c60008904d1000884d3000998a300050032004c
:100c70000800a7000300a0008904d1000884d30065
:100c80008b05e8008904d1000884d3000001eb0043
:100c90000281d2003a00070001f0a1000cf0a70089
:100ca00001f0a000820037006420e10084003200df
:100cb0000801be000200be00f7ff37006120e1001e
:100cc0007f0032006000b800f3ff37000000200012
:100cd00001f82700f0ff370014002000af003700b4
:100ce000f4ff2f00ad0037000001be004a000700ee
:100cf0000470a70003f0a1006509b10016003200de
:100d00000d0035006828e10006003500f0ff2f00d7
:100d1000f1ff27000300e00013003b000100280062
:100d20000000050000004000818048008502e900c5
:100d3000fcff3a0008003700f88f420002003c0038
:100d40008000eb00000005008100d1000080d3008e
:100d50008502e800fcff3a000300e00002003b00cf
:100d600060001000e0801800000006004f89de00df
:100d700082017800a40037006011b800b20037008b
:100d800081002000618055000b003d000b00200019
:100d900061fe2f000100e1001d003400828171001e
:100da000610164008904d1000884d3000000e800d8
:100db000faff3a0071002000610064000300700037
:100dc000020060000900320061044400e0844c002d
:100dd0000988a500050032008b05e8006808e100dd
:100de00002003a008904d1000884d300f20f2000e9
:100df0000258e10005003d00c75ddd00f907b200c3
:100e00008980750008007800000006000bf82700b4
:100e10008b00780000000500c70ade00f107b20071
:100e2000f50fb20008003200e1cf420002003200ac
:100e30000170a00024000500810f70000100320045
:100e40000408050044000500810f700002003a000c
:100e5000140005008502e9000000400081c0480040
:100e6000fcff3b000170a000240005000004be0050
:100e7000e9ff07000003be000405be000200be003b
:100e8000e5ff0700844f7500000006000200be0069
:100e90006450e100050036006420e10002003600e5
:100ea0000968a30001003a000800be000160a0002c
:100eb0004f0678004f05be004f04be00000006003c
:100ec000f0ff2f00f1ff2700f9ff3700889fbe00d9
:100ed0008a9fbe008c1f7800e4ff0700ebff330001
:100ee00003866c006450e100240032006420e100bd
:100ef000270032006150e100220032006120e10051
:100f0000210032008b854200eb07b1000134b800ac
:100f1000003ab8000804420089844a00013ab80047
:100f20000030b8008880400009014a000400330006
:100f30000000400081804800020149008b05e90063
:100f4000c909dd0083017000010032001300200098
:100f5000c814de004814dd004709de001200b200ac
:100f6000c808de000884700085ff070001f0a100ba
:100f70000cf0a70001f0a000cdff37006120e100d8
:100f8000cfff32000801be000200be00f7ff3700ad
:100f90006150e100fcff3a00c9ff3700889fbe00a6
:100fa0008a9fbe00841f7800b0ff07004f007800c2
:100fb00011003300f0ff2f00838f6c0006003b0010
:100fc000040565000a00a7000800370009f0a60024
:100fd0001000200008003700820f5400838f5c004f
:100fe000030039001000200001003e000000200036
:100ff00009f0a7000000ea004f05be004f04be0044
:101000000000e00000000600881f7800030478005c
:101010000300e00007003d0060001000e0801800c1
:1010200060011900e081190002003b0001f02d0071
:10103000030037000400070008f0a70001f0a0003b
:101040004f04780000000600889fbe008a9fbe0003
:1010500000827000040271000482710026003200d8
:101060000004be000200be006011b8006b09200041
:10107000950220000182cf000a0039000541b1002d
:101080000082cf00070039000541b1000982cf007e
:10109000040039000541b1000882cf000100390089
:1010a0000541b10005425200120032000a003b0027
:1010b00082817100610164008100d1000080d30051
:1010c0008984d3000884d3008b05e8000442e8003b
:1010d000f7ff3a00070037000804440089844c00f9
:1010e00000004800818048008b05e9000442e900c7
:1010f000f9ff3a0022ff07004f05be004f04be0073
:10110000000006008001780002003700b159780025
:101110000201e9000200e000fcff3a0000000600c6
:101120008001780002003700815978000201e9004f
:101130000200e000fcff3a00000006000001780019
:10114000820178003204e000fdff3a0003017800dc
:10115000b1417800035978000304e000fcff3a0035
:101160000000060000017800b141780003597800c2
:101170000304e000fcff3a00000006008000780055
:10118000010178003104e000fdff3a000000510049
:041190000000060055
:020000040000fa
:101194005049000043320000344600004a31000048
:1011a4003238000047430000303000003620000091
:1011b400555300004220000076690000727400005c
:1011c400756100006c200000434f00004d340000a6
:1011d400200d00000a000000312000003a20000029
:1011e400566900006e2000003d2000000020000031
:1011f400562000000d0a0000003b0000000d000016
:101204000a000000322000003a200000546500006b
:101214006d7000002044000069650000203d00005e
:1012240020000000206400006567000020430000e7
:10123400200d00000a000000332000003a200000c6
:101244005662000061740000203d00002000000090
:10125400342000003a20000049620000617400005c
:10126400203d00002000000020410000200d00006f
:101274000a000000352000003a200000535400000a
:1012840041540000452000002d3e000020000000d5
:101294006368000020730000757300007020000074
:1012a4003a2000006f660000662000003b2000002a
:1012b4000063000068200000737500007370000074
:1012c400203a0000206f00006e2000003b20000048
:1012d400007000007265000063680000203a00009e
:1012e400206f000066660000203b00002000000024
:1012f4007072000065630000682000003a2000005e
:101304006f6e0000203b00002000000063630000bb
:101314005f630000762000003a2000006f66000042
:10132400662000003b20000000630000635f0000b3
:1013340063760000203a0000206f00006e20000059
:101344003b20000000620000617400005f6d00003b
:1013540069730000732000003a2000006f660000eb
:10136400662000003b200000006200006174000061
:101374005f6d000069730000732000003a200000d4
:101384006f6e0000203b000020000000626100003e
:10139400745f0000736800006f7200007420000026
:1013a4003a2000006f660000662000000d0a00006d
:1013b40000620000617400005f730000686f000049
:1013c40072740000203a0000206f00006e200000bc
:1013d4000d0a000000360000203a000020540000ee
:1013e4004d5f0000434800004152000047450000a3
:1013f4005f53000054410000545500005320000086
:101404002d3e000020000000434300002077000030
:10141400697400006820000049430000484100004e
:1014240052470000455f0000444100004320000093
:101434003a2000006f660000662000003b20000098
:101444000043000043200000776900007468000036
:101454002049000043480000415200004745000075
:101464005f44000041430000203a0000206f000068
:101474006e2000003b2000000043000056200000c6
:10148400776900007468000020560000434800009b
:1014940041520000474500005f4400004143000002
:1014a400203a0000206f000066660000200d000056
:1014b4000a00000043560000207700006974000011
:1014c40068200000564300004841000052470000d5
:1014d400455f000044410000432000003a20000022
:1014e4006f6e0000200d00000a000000372000008d
:1014f4003a200000544d00005f530000595300008f
:10150400544500004d5f0000535400004154000056
:1015140055530000202d00003e2000000063000011
:101524006861000072670000657200005f6500007a
:101534006e610000626c000065640000203a0000e7
:10154400206f000066660000203b000020000000c1
:10155400636800006172000067650000725f00004c
:10156400656e0000616200006c650000642000008c
:101574003a2000006f6e0000203b000020000000b5
:101584006f6b00005f7400006f5f00006368000011
:101594006172000067650000203a0000206f0000bf
:1015a40066660000203b0000200000006f6b000016
:1015b4005f7400006f5f00006368000061720000e8
:1015c40067650000203a0000206f00006e200000d4
:1015d4003b2000000074000068650000726d00008c
:1015e400616c00005f7300006875000074640000a3
:1015f4006f7700006e2000003a2000006f66000044
:10160400662000003b2000000074000068650000b4
:10161400726d0000616c00005f730000687500006b
:10162400746400006f7700006e2000003a20000010
:101634006f6e0000203b000020000000566900008f
:101644006e2000003e20000056620000617400001d
:10165400203a0000206f000066660000200d0000a4
:101664000a000000566900006e2000003e200000c1
:101674005662000061740000203a0000206f0000f0
:101684006e2000000d0a000000380000203a00001f
:101694002064000061740000612000003d2000000f
:1016a40000200000412000006f720000205600005e
:1016b400200d00000a00000031310000203a000033
:1016c4002053000075730000706500006e64000014
:1016d40020620000617400007465000072790000eb
:1016e400200d00000a20000000310000322000001c
:1016f4003a2000005265000073740000617200001b
:1017040074200000636800006172000067650000d7
:1017140020620000617400007465000072790000aa
:10172400200d00000a200000005100007420000079
:10173400696e000074650000726600006163000059
:10174400652000004f4e0000200d00000a0000003c
:1017540054650000726d0000696e0000616c000049
:10176400204300004f4d0000206900006e7400000b
:10177400657200006661000063650000204f000090
:101784004e2000000d0a0000000a00002d2d00006c
:101794002d2d00002d2d00002d2d00002d2d0000dd
:1017a4002d2d00002d2d00002d2d00002d2d0000cd
:1017b4002d2d00002d2d00002d2d00002d2d0000bd
:1017c4002d2d00002d2d00002d2d00002d2d0000ad
:1017d4002d0d00000a4d0000656e0000752000000c
:1017e4003a2000000d0a00002d2d00002d2d0000d0
:1017f4002d0d00000a310000202000003a200000d6
:10180400566900006e2000000d0a0000322000001e
:10181400203a0000204400006965000020540000c4
:10182400200d00000a330000202000003a200000b0
:101834005662000061740000200d00000a340000ac
:10184400202000003a20000049620000617400007a
:10185400200d00000a350000202000003a2000007e
:101864005374000061740000652000000d0a00003c
:1018740036200000203a0000205400004d5f000094
:101884004348000041520000474500005f530000f8
:101894005441000054550000532000000d0a00007c
:1018a40037200000203a0000205400004d5f000063
:1018b4005359000053540000454d00005f5300008d
:1018c4005441000054550000532000000d0a00004c
:1018d40038200000203a0000205400004d5f000032
:1018e400492f0000565f00004348000041520000a9
:1018f400474500005f44000041430000200d000004
:101904000a00000031310000203a0000205300009a
:1019140075730000706500006e64000020620000b2
:10192400617400007465000072790000200d0000ed
:101934000a310000322000003a2000005265000005
:10194400737400006172000074200000636800007a
:101954006172000067650000200d00000a3200007b
:10196400302000003a20000051740000206900007b
:101974006e7400006572000066610000636500001b
:10198400204f00004e2000000d0a000032310000fc
:10199400203a000020540000657200006d690000c8
:1019a4006e6100006c200000434f00004d200000d9
:1019b400696e0000746500007266000061630000d7
:1019c400652000004f4e0000200d00000a2d00008d
:1019d4002d2d00002d2d00002d2d00002d2d00009b
:1019e4002d2d00002d2d00002d2d00002d2d00008b
:1019f4002d2d00002d2d00002d2d00002d2d00007b
:101a04002d2d00002d2d00002d2d00002d2d00006a
:101a14002d2d00000d0a000000000000120100003e
:101a2400000200000200000000080000d8040000ca
:101a34000a00000000010000010200000001000093
:101a440009020000430000000201000000c0000081
:101a5400320900000400000000010000020200003e
:101a64000100000005240000001000000104000033
:101a7400240200000205000024060000000100000a
:101a8400052400000100000001070000058100009a
:101a9400030a000000020000090400000100000025
:101aa400020a000000000000000700000502000018
:101ab4000240000000000000070500008202000050
:101ac40040000000000000000403000009040000be
:101ad400340300004d0000006900000063000000b2
:101ae400720000006f000000630000006800000046
:101af4006900000070000000200000005400000095
:101b04006500000063000000680000006e00000033
:101b14006f0000006c0000006f0000006700000010
:101b24007900000020000000490000006e00000061
:101b3400630000002e0000001603000057000000a0
:101b440050000000540000005f000000520000003c
:101b5400580000005f000000530000004100000036
:101b64004d000000228d0000668d00006a8d00008b
:101b74009e8d00000d0a0000566200006174000092
:101b8400203d0000203300002e39000034200000e6
:101b9400562000003b2000004962000061740000f0
:101ba400203d0000203000002e39000031320000ba
:101bb40020410000203b000020540000203d000094
:101bc4002033000036200000646500006720000018
:101bd400432000000d0a0000000000003120000036
:101be4003a200000566900006e2000003d200000ed
:041bf40000000000ed
:020000040000fa
:101bf8000200fa009ec0a900e8e2a8000080eb00fd
:101c0800702488000080eb0050248800aa24ef008c
:101c1800420020008000eb00c04a20003efd070083
:101c28002000200030258800a824ef008644a90061
:101c3800f009200080248800f00920006024880032
:101c480082c4a8008804a80000a020004800de0084
:101c5800c02488000040eb00004f780007003700e0
:101c68001e80fb00c200dd0000a0200000814000b3
:101c78006000b8000089be001e4fe8001e407800d2
:101c8800eb4f5000f6ff36009424a8009624ef008e
:101c980094a4a9009424a90080002000502488005e
:101ca800209820008040eb000148780080982000b0
:101cb8008040eb0001487800909820009040780020
:101cc800e0c0600001487800a098200090407800ab
:101cd800e0c060000148780050248000680060007f
:101ce8000000e000ecff3a0010c0b30013e8b700b2
:101cf80010c0b30014e8b7001568ef001668ef00cd
:101d08000d68ef000040eb00004f78001500370029
:101d18001e80fb0080004000a0972000008040004b
:101d28008000eb00010878001e80fb008000400066
:101d380040972000008040008000eb0001087800f8
:101d48001e80fb00d19820000041eb0082707800d3
:101d58001e80fb00019920000041eb008270780092
:101d68001e4fe8001e407800e24f5000e8ff3600a2
:101d780080a02000d04b8800d0002000502588008b
:101d8800309920001050880000a0200081c0b300c6
:101d98000148780010a0200041c0b3000148780035
:101da80010a0200010407800804078000174a00046
:101db80010a02000014878000268ef001828ef0002
:101dc8001a28ef001c68ef000028ef000080fa00d6
:101dd800000006000200fa0000408000e10f5000f9
:101de8000b003a00a124800000042000008060005d
:101df8000000e00006003a000080eb005024880054
:101e08008c04a8008c84a8002000200000408800d2
:101e180000248000700060000000e000070032002d
:101e280010248000700060000000e0000300320011
:101e38000001200000248800bc0407004024800022
:101e4800620060000000e000020032008ec0a900bd
:101e5800a100370050248000610060000000e0000d
:101e68000a00320060248000610060000000e00089
:101e7800060032005eff07009ec0a8004000200058
:101e88000040880010002000502488005024800062
:101e9800700060000000e00005003200602480004f
:101ea800700060000000e0000100320092040700aa
:101eb8000124800000042000008060000000e00091
:101ec800030032000004200000248800ee0607000a
:101ed80050248000640060000000e000140032001c
:101ee80060248000640060000000e000040032000c
:101ef800120020008000eb0030072000df120700ee
:101f0800400020005024880011c8bf000004e000f1
:101f18000300320011c8bf000040e90011e8b70013
:101f280011c8bf000004e00001003a00a301070047
:101f38005124800000082000008060000000e000bc
:101f48000600320061248000000820000080600044
:101f58000000e000010032004b040700502480001c
:101f6800620060000000e0000c0032006024800085
:101f7800620060000000e00008003200120020004b
:101f88008000eb00f0ff2700bc1207000080eb0088
:101f98007024880020002000502488000040800021
:101fa800e30f500002003e008ec0a9004a0037002f
:101fb80060248000680060000000e00045003200f6
:101fc8000040eb00004f78003d00370050248000af
:101fd800680060000000e0003d00320090248000ae
:101fe800004078000ee8b7000ec8bf000080fb0074
:101ff8004400de00004078000fe8b70080002000b1
:10200800502488000ec8bf00684060000004e0004b
:1020180011003a000fc8bf000081fb008080fb0060
:1020280000992000008040009040780061c0600066
:102038000004a200e1406000009920000000410077
:10204800e1c06000104178000204a10081407100e5
:1020580001487800100037000fc8bf000081fb005e
:102068008080fb00d09820000080400090407800dd
:1020780061c060000004a200e1406000d098200028
:1020880000004100e1c06000104178000204a10096
:1020980081407100014878000fc8bf000004e000cb
:1020a80002003a002d040700040037000001eb008d
:1020b800e180200020072000701207001e4fe80072
:1020c8001e407800e34f5000c0ff36000100370083
:1020d800000000008ec0a9000080fa000000060081
:1020e8000400fa0020479800314798003e409000cd
:1020f8000080fb00680060000000e0000300320080
:102108008040eb002e4090009b0107003e4090006d
:102118000080fb00640060000000e0000300320063
:1021280011c0b3002e40900093010700a14a20007f
:102138002e4090000080fb0000004000008f40000f
:102148001e007800be409000014878000080fa0028
:10215800000006000800fa00204798003147980060
:1021680022079800634798003e4090000004e00072
:10217800070032002e4090000080fb0080004000e5
:10218800a097200000804000100f7800060037005c
:102198002e4090000080fb00800040004097200007
:1021a80000804000100f78001e0078000000e0005a
:1021b80002003a000000eb0037003700ae00900044
:1021c8001e007800110098001e007800ee40900074
:1021d800014878001e0078001040900002c4b30047
:1021e800824060001e007800114098001e007800b0
:1021f80010409000804078000134a0001e00780054
:10220800114098001e00780010409000804078002f
:102218000174a0001e007800114098003e40900014
:102228000004e0000e0032002e4090000080fb0009
:10223800ae4090008180fb0001814000a197200002
:1022480081004100910078000120a20000014000b7
:10225800a097200000004100010878000d00370019
:102268002e4090000080fb00ae4090008180fb0073
:1022780001814000419720008100410091007800d1
:102288000120a2000001400040972000000041000a
:10229800010878001e0078000080fa00000006009f
:1022a8000400fa0020479800314798002e4090001b
:1022b8000004e00017003a003040800081c0b300fd
:1022c80001487800304080003199200011009800c2
:1022d80030408000c1c0b3001140980030408000f9
:1022e80031408000914090000174a0001140980096
:1022f800d04b800041c0b30011409800d04b800003
:10230800d14b8000914090000174a00011409800ca
:102318002e0037002e4090000080fb000000400097
:10232800800078003e4090000080fb000080400064
:102338004300dd008000780000a02000008f4000ee
:102348001e00780010409000804078000124a00012
:102358001e007800114098001e0078001040900080
:10236800804078000174a0001e0078001140980099
:102378002e4090000080fb000000400080007800a4
:102388003e4090000080fb00008040004300dd00dc
:10239800e400400000a02000008f40001e007800ec
:1023a80010409000804078000124a0001e007800b2
:1023b800114098001e00780010409000804078007e
:1023c8000174a0001e007800114098000080fa00f7
:1023d800000006000200fa00004f7800a1248000e7
:1023e80000022000008060000000e0005100320080
:1023f8001e80fb0080004000a09720000080400065
:10240800100278001e80fb0080004000a09720008a
:1024180000804000100078001001be000004200079
:102428000100200082027800030178008001780012
:102438000100780083826200000061008000eb00e8
:10244800c000dd00000020000001be006128b800c7
:102458000001710081817100028abe001e80fb00ac
:1024680080004000a0972000008040001002780003
:102478001e80fb0080004000a097200000804000e4
:10248800100078001001be000004200001002000a8
:102498000000690081806900008abe001e80fb0080
:1024a8009e80fb0001814000a1972000810041002f
:1024b800910078000120a20000014000a0972000b0
:1024c80000004100010878001e80fb0080004000e9
:1024d800a097200000804000900078001e80fb003c
:1024e80000014000a0972000000041001000780083
:1024f800104090000044b200904098001e80fb00fd
:1025080080004000a09720000080400090007800e4
:102518001e80fb0000014000a09720000000410041
:10252800100078001041900000c4b300004069001a
:10253800904098000080fa00000006000000fa00b1
:102548009424ef008c24ef000028ef000080fa00ac
:10255800000006000000fa00004080000000e000d3
:1025680014003a009424ef008c24ef00200020008f
:1025780030258800a824ef008644a900f00920002f
:1025880080248800f00920006024880082c4a80004
:102598009ec0a800010037009404a800a024800071
:1025a800610060000000e000fbff32001000200026
:1025b800004088000080fa00000006000000fa00d1
:1025c80013c8bf000004a2000004e0003400320079
:1025d80010c0b30013e8b70014c8bf000004a2007d
:1025e8000004e0002e00320010c0b30014e8b70069
:1025f80009c8bf00e24f50000c003a00d04b8000e1
:102608008040eb0001487800d04b800081c4b300c3
:1026180011409800d04b8000d14b80009140900031
:102628000174a000114098001d00370009c8bf00c0
:10263800e14f50001a003a001068ef002040800077
:1026480081c0b30001487800204080003199200003
:10265800110098002040800041c0b300114098004c
:102668002040800021408000914090000174a0002b
:102678001140980010c0b30010e8b7003040800047
:1026880081c0b300014878003040800031992000b3
:10269800110098003040800001c8b3001140980034
:1026a8000080fa00000006000000fa001568ef003c
:1026b8001668ef0009c8bf00e24f50000f003a004b
:1026c8003040800081c0b30001487800304080006d
:1026d800b1992000110098003040800081c4b300f7
:1026e80011409800304080003140800091409000b7
:1026f8000174a000114098001d0037009099200037
:102708001080fb00a19920009180fb00c808dd0023
:102718000100700080007800204c8000808f5000fd
:1027280007003100909920001080fb00a19920003b
:102738009180fb00c808dd0001007000204c880073
:1027480096000700d04b8000b19920001100980036
:10275800d04b800081c4b30011409800d04b80005a
:10276800d14b8000914090000174a0001140980066
:102778000080fa00000006000400fa0020479800d4
:102788003147980000a02000000f78002e409000ec
:102798000080fb0000004000800078003e40900070
:1027a8000080fb00008040004300dd001e0f400059
:1027b8001e0078009000780001f0a1000108780060
:1027c8003e4090000004e00007003a002e409000d0
:1027d8000080fb00800040004097200000804000ff
:1027e8001e087800060037002e4090000080fb008d
:1027f80080004000a0972000008040001e0878005c
:102808001e0078009000780001e0a100010878001f
:102818009e007800648040009000780001e0a000ed
:10282800010878000080fa00000006000000fa00a5
:1028380094a4a900114c80000008200000806000ca
:102848000000e00027003a008098200090407800bf
:1028580000c8b30000c060000004e0000a003200b5
:1028680020c0b30009e8b70016c8bf000004a200e2
:102878000004e000010032008bff07001468ef003d
:102888001368ef00430037003040800081c0b30078
:1028980001487800304080003199200011009800ec
:1028a80030408000c1c0b300114098003040800023
:1028b80031408000914090000174a00011409800c0
:1028c800d04b800041c0b30011409800d04b80002d
:1028d800d14b8000914090000174a00011409800f5
:1028e8002c003700309920009040780000c8b300d1
:1028f80000c060000004e0000f00320010c0b30008
:1029080009e8b70015c8bf000004a2000004e000f1
:102918000100320064ff07001468ef001368ef003d
:1029280012c8bf000004a2000004e0001900320031
:1029380022ff07001700370020c0b30009e8b700de
:102948003040800081c0b3000148780030408000ea
:1029580031992000110098003040800041c0b30038
:102968001140980030408000314080009140900034
:102978000174a000114098001468ef001368ef007c
:1029880012c8bf000004a2000004e00001003200e9
:102998000aff07000080fa00000006000200fa00a3
:1029a80080c0b300004f7800204c8000e70f500033
:1029b8000d003e00204c8000004f780008c8bf0082
:1029c8000004e00003003a0010c0b30008e8b700b4
:1029d8000500370008c8bf00e14f500002003a0068
:1029e80020c0b30008e8b700214c80001e80fb001f
:1029f80000805000204c8800d04b80001e48780092
:102a0800b099200050408800104c800061006000a0
:102a18000000e00017003a0009003700514080002c
:102a2800004c800010417800824878008100e8005e
:102a3800514088000000e800004c88001e4fe90063
:102a48001e4078000004e000f4ff3a000c00370054
:102a580051408000004c8000104178008248780086
:102a68008100e800514088000000e800004c880020
:102a78001e4fe9001e4078000004e000f4ff3a0011
:102a88000080fa00000006000200fa0020408000e2
:102a9800104f78009e80fb00909820001080fb006b
:102aa800a29820001281fb004811dd00020070008e
:102ab800808f500007003600909820001080fb009f
:102ac800a19820009180fb00c808dd00010070007b
:102ad800004f7800909820001080fb00a1982000fb
:102ae8009180fb00c808dd000100700080007800bc
:102af8001e80fb0000805000f10f200001016000e3
:102b08009198200091417800e0c1610002c17100f4
:102b180082487800c800de00a098200010417800a4
:102b28006041610081407100014878000040eb007d
:102b3800104798001c003700609820001080fb00a8
:102b4800719820009180fb00c808dd00010070002a
:102b58009e4090008180fb00b2992000e2c078007e
:102b6800014878000000e800f10f20000101600032
:102b78006198200091417800e0c1610002c17100b4
:102b880082487800c800de00709820001041780064
:102b98006041610081407100014878001e4090004a
:102ba8000040e800104798001e4090009e4f5000db
:102bb800e1ff3900909820001080fb00a1982000c8
:102bc8009180fb00c808dd00010070000000e000f3
:102bd8001e0032003040800081c0b30001487800f8
:102be80030408000b19920001100980020408000fa
:102bf8009000780000002400008060000000e000e1
:102c080009003a003040800081c4b30011409800a8
:102c18003040800031408000914090000174a00055
:102c2800114098002f0037003040800081c0b30069
:102c38001140980030408000314080009140900061
:102c48000174a00011409800260037003040800031
:102c580081c0b300014878003040800031992000dd
:102c6800110098003040800041c0b3001140980026
:102c78003040800031408000914090000174a000f5
:102c880011409800b09820001080fb00c1982000e7
:102c98009180fb00c808dd00010070000000e00022
:102ca80007003200b09820001080fb00c198200077
:102cb8009180fb00c808dd000100700000000100e1
:102cc80080982000904078000174a10001487800a5
:102cd80012c8bf000004a2000004e0000100320096
:102ce80036fe07000080fa00000006000200fa0025
:102cf800104c80000070a000104c8800420020009a
:102d08008000eb00c04a200003f9070002032000fe
:102d18008000eb0000a02000fff807009424a80022
:102d28000040eb00004f7800090037001e80fb00d0
:102d3800d19820000041eb00827078001e80fb00d3
:102d4800019920000041eb00827078001e4fe800d6
:102d58001e407800e24f5000f4ff360022002000a9
:102d68008000eb0020972000ebf807009424a900ce
:102d780080a02000d04b880000a0200020408800c0
:102d88002040800030408800509920001040780092
:102d980002e8b70002c8bf000004e00003003a00e0
:102da80000012000004088000600370012002000c3
:102db8002180200010002000300f070000022000b2
:102dc800004088000080fa00000006000000fa00b9
:102dd800309920009040780000c8b30080cf5000a0
:102de80047003a002098200001ccb3000148780041
:102df80060992000104078000080fb00e20f50002e
:102e080009003200e30f500023003200e10f5000a8
:102e180037003a0000d12800004c8800200120002b
:102e2800204c880036003700509920001040780068
:102e38000004e00014003a00509920001040780087
:102e48000080fb00000040008000780040db280084
:102e58000080400010007800004c8800004c800082
:102e68000080e800904078004098200001487800f1
:102e7800004c80006300400090407800509820008b
:102e8800014878001e003700209820008040eb00a1
:102e9800014878001a003700509920001040780047
:102ea800e24f50000e003e0050992000104078007c
:102eb8000080fb00000040008000780060db2800f4
:102ec8000080400010007800004c8800004c800012
:102ed800104078000080fb00204c88000800370074
:102ee800209820008040eb0001487800040037005b
:102ef800209820008040eb00014878000000000086
:102f08000080fa00000006000200fa00b0992000d4
:102f18008040eb0001487800c09920008040eb0019
:102f28000148780030992000904078007fc0600008
:102f38000080fb00e10f500011003200e20f50004a
:102f4800130032000000e00040003a00104c8000fe
:102f58000070a000104c88000cc8bf000004e000fe
:102f680035003200b0992000104078008040780089
:102f78000114a000b0992000014878003300370000
:102f8800104c80000070a000104c88002f00370003
:102f9800104c80000070a000104c88007099200030
:102fa8009040780000c8b30000c060000004e00052
:102fb80009003a0070992000904078006fc06000c6
:102fc8000080fb0080004000409720000080400007
:102fd800100f7800080037007099200090407800a2
:102fe8006fc060000080fb0080004000a0972000b8
:102ff80000804000100f78001e00780090007800d4
:1030080000002800008060000000e0000c00320092
:103018001e007800900078000040200000806000ca
:103028000000e00008003200b099200011c0b30091
:103038000148780005003700000000000300370051
:10304800000000000100370000000000114c800063
:1030580000082000008060000000e0000800320046
:10306800b0992000004c8800104c80000000a0009f
:10307800104c88004098200021c0b3000148780017
:103088000080fa00000006000000fa0050258000c9
:10309800620060000000e000130032002040800061
:1030a8009040900000c8b30080cf50000d003a0057
:1030b800d04b80009040900040c8b30080cf5000b3
:1030c80008003a0020408000c1c0b30011409800b9
:1030d8002040800021408000914090000174a000b1
:1030e80011409800aa24a900000820005024880054
:1030f8000080fa00000006000000fa008284a800a0
:10310800000120005024880010c0b3000de8b7006b
:103118001c68ef000001eb008000eb005007200066
:10312800560e07000080fa00000006000000fa00b2
:103138000d68ef000001eb008000eb004007200065
:103148004e0e07008284a900000120000024880098
:103158001c68ef000080fa00000006000000fa007a
:10316800d0c2b30011e8b7000ec8bf000080fb0052
:103178000020a1000000e0001f003a000ec8bf00b8
:103188000080fb004200de00004078000080fb0069
:10319800c200dd0000a02000008040002040880020
:1031a8002040800030408800304080000020a2008d
:1031b80030408800204080009000780000c0230044
:1031c8008080600000402300808f500008003a0093
:1031d80020408000100090008200200080007800cd
:1031e80030992000c5f707000b00070008003700da
:1031f8003d000700060037000ec8bf000080fb0036
:103208000020a100e80f500001003a005300070019
:103218000080fa00000006000000fa000868ef00cd
:103228001268ef001568ef001668ef001068ef00ed
:103238000968ef00d04b8000d14b8000914090008e
:103248000174a10011409800d04b80000020a2001a
:10325800d04b8800d04b8000d14b8000914090002b
:103268000174a10011409800d04b80000020a200fa
:10327800d04b880030408000314080009140900061
:103288000174a10011409800209820008040eb00b4
:10329800014878000000eb00204c8800809820004e
:1032a8008040eb000148780090982000904078001a
:1032b800e0c0600001487800a098200090407800a5
:1032c800e0c0600001487800820007000001eb00c0
:1032d8008000eb0030002000e80d070053fd0700d8
:1032e8000080fa00000006000000fa0009c8bf00cc
:1032f800e24f500002003a00e3fd070015003700d6
:103308000968ef0010c8bf000004a2000004e00034
:103318000f0032003040800081c0b30001487800bf
:103328003040800031992000110098003040800022
:10333800c1c0b30011409800304080003140800087
:10334800914090000174a0001140980001003700de
:103358001068ef000080fa00000006000200fa0082
:10336800d04b8000100078004e00de006140600005
:10337800004f7800d04b80000020a200d04b88007e
:1033880000408000e80f50000e003a0050992000dd
:10339800104078008080fb00f0072000008060006b
:1033a800b0248800b02480000000e0000300320050
:1033b8000001200000408800020037004000200083
:1033c8000040880009c8bf00e14f500025003a00be
:1033d800d04b8000b1992000110098006ffd0700c4
:1033e80008c8bf00e24f500009003a00d04b8000e7
:1033f80041c0b30011409800d04b8000d14b8000f1
:10340800914090000174a000114098002f003700ef
:103418001e4078000004e00009003a00d04b80000c
:1034280081c4b30011409800d04b8000d14b80007c
:10343800914090000174a0001140980023003700cb
:10344800d04b800081c0b30011409800d04b800061
:10345800d14b8000914090000174a0001140980069
:103468001a003700809820009040780000c8b30008
:1034780000c060000004e00013003200b098200093
:103488001080fb00c19820009180fb00c808dd0077
:10349800010070000000e00007003200b098200032
:1034a8001080fb00c19820009180fb00c808dd0057
:1034b8000100700000000100809820009040780012
:1034c8000174a100014878000968ef000080fa0043
:1034d800000006000000fa00309920001040780033
:1034e8000046b2000004e00050003a004099200075
:1034f800104078000080fb00cf80de00b200200082
:1035080003002000820f5000838f580049003e00be
:103518000060010021003700220037004700370013
:103528002000370045003700060037000b00370041
:10353800390037000d0037000a0037001b0037003c
:103548002a003700104c80000070a000104c880042
:103558008000200000408800390037001bfe07006b
:1035680037003700e1fd07003500370020802000d4
:10357800004c8800104c80000000a000104c88000f
:103588004098200011c0b30001487800104c80001a
:103598000070a000104c8800290037005afe070070
:1035a8002700370028000700250037007099200001
:1035b800104078008080fb002097200000804000a9
:1035c800004c8800104c80000000a000104c8800bf
:1035d8004098200011c0b30001487800104c8000ca
:1035e8000070a000104c880015003700104c8000b7
:1035f8000070a000104c88007099200010407800de
:103608000080fb005199200011417800219720008b
:10361800827078000a0037000001eb008000eb00a0
:1036280020002000150d07000500370000000000ed
:103638000300370000000000010037000000000010
:103648000080fa00000006000600fa0050992000e9
:1036580010407800e14f500010003a0030992000e7
:10366800104078007f4060000004e0000b003a0042
:10367800104c80000070a000104c88004099200079
:1036880010407800e34f500003003a0010c0b30028
:103698000ce8b700010037000c68ef0050992000d3
:1036a800104078000004e000f5003a00309920004e
:1036b800104078007f406000e24f5000f0003a0070
:1036c80070992000104078006f4060000004e0000e
:1036d800eb00320070992000904078006fc06000c5
:1036e8000080fb00e20f5000e5003c000140800034
:1036f80000022000808f5000e1003a00104c80004a
:103708000070a000104c880070992000904078004c
:1037180000c8b30000c060000004e00010003a00d8
:1037280070992000104178006f4061000080fb0014
:10373800800040004097200000804000100f780073
:1037480070992000904078006fc060000080fb00f6
:103758000199200061407800404798000f00370029
:1037680070992000104178006f4061000080fb00d4
:1037780080004000a097200000804000100f7800d3
:1037880070992000904078006fc060000080fb00b6
:10379800d198200061407800404798004e40900042
:1037a800614060000004e00004003a001e00780058
:1037b8000020a100000f7800030037001e007800e9
:1037c8000020a000000f7800709920009040780039
:1037d80000c8b30000c060000004e0000a003a001e
:1037e80070992000104178006f4061000080fb0054
:1037f8009e00780000014000409720000000410032
:10380800010878000900370070992000904078007e
:103818006fc060000080fb009e007800000140003f
:10382800a09720000000410001087800409920007e
:1038380010407800e34f50002c003a001e0078003a
:103848009000780000002800008060000000e00080
:1038580019003200709920009040780000c8b30029
:1038680000c060000004e0000a003a0070992000df
:10387800104178006f4061008080fb0000992000b3
:1038880000804000904078000114a00001487800b2
:103898000900370070992000904078006fc06000e0
:1038a8008080fb00d0982000008040009040780085
:1038b8000114a000014878001e0078001040900014
:1038c800804078000124a0001e0078001140980074
:1038d8001e00780010409000804078000174a0001d
:1038e8001e00780011409800650037001e0078001f
:1038f8000020a200000f78001e00780090007800d9
:1039080000002800008060000000e0001100320084
:103918001e00780010409000804078000174a100db
:103928001e007800114098001e007800104090009a
:10393800804078000164a0001e00780011409800c3
:10394800220020009e007800500020004b0c070049
:10395800060037001e007800104090008040780074
:103968000164a0001e007800114098001e00780035
:103978000020a200000f78004e40900062406000d6
:103988000004e00006003a001e007800900078006d
:1039980000002800008060000000e00024003200e1
:1039a800709920009040780000c8b30000c0600003
:1039b8000004e0000a003a007099200010417800e5
:1039c8006f4061008080fb0000992000008040006b
:1039d800904078000114a1000148780009003700e0
:1039e80070992000904078006fc060008080fb00d4
:1039f800d098200000804000904078000114a10079
:103a0800014878001e00780010409000b2c3b3004f
:103a1800824060001e0078001140980022002000bb
:103a28009e00780050002000140c070006003700a4
:103a38001e00780010409000b2c3b30082406000be
:103a48001e00780011409800a14a200070992000bb
:103a5800104178006f4061000080fb0000004000ca
:103a680000804000100798001e0090001040780069
:103a7800804078000114a1001e00900001487800e1
:103a88000080fa00000006000000fa00c040800034
:103a9800d140800061004000e0804800c0408800bc
:103aa800d14088000dc8bf000004a2000004e00057
:103ab800080032001cc8bf000040e8001ce8b7003e
:103ac8001cc8bf000004e00002003a0000c0eb0080
:103ad8001ce8b7000080fa00000006000400fa00a5
:103ae800c2408000d3408000028fbe00c0408000ea
:103af800d14080001e01be00800f5100818f590007
:103b0800f7ff3a001e00be000080fa000000060021
:103b18008a03fa00881f78000000200001042400ae
:103b280050079800610798006000b8007007980077
:103b3800010f9800e0ff2f00100f98000000eb0025
:103b4800200f98000000eb00300f98006000b800cc
:103b5800400f9800510f9800fc0047001d00090015
:103b68008018eb006000b800402f9800512f980093
:103b78000000eb00602f98006000b800702f9800dc
:103b8800013798008e0078002106b0007a000900fd
:103b98008018eb006000b800402f9900512f990061
:103ba8006000b800602f9900712f99008e0078008e
:103bb8000116b0007c0009008018eb008058eb006b
:103bc8000000eb00000f78000000eb00602f9a0067
:103bd8000000eb00100798006000b800300798005c
:103be800410798000000eb0020079800110c07001f
:103bf800f4e2a800f4c2a800e4e2a8000000000073
:103c080000408000ff0f5000fdff36004024800078
:103c1800620060000000e000f9ff3a00f4e2a90049
:103c28007400470080007800a08c2800810a0700f3
:103c38000100370000000000720047008d0a0700ed
:103c4800940807007800470001042000d30a070001
:103c5800800520000e00400061002000cf0a070008
:103c6800e00520000e004000a10f2000cb0a07004d
:103c78006000b80030079800410798001000200045
:103c8800602f9a001e0890000000e0002c003a0007
:103c98002e0890000000e0000e003a003e08900058
:103ca8000000e0000b003a00c01520000e004000a4
:103cb800f20f20008000780010002000d2030700d7
:103cc800f6004700c01520000e004000590a070002
:103cd800c50337003e089000e10f5000bf033a00cb
:103ce800622720000e0141006000b8000089be0074
:103cf800e40041007c0009008018eb008058eb00cc
:103d0800602720000e004000f20f2000800078009d
:103d180020002000bc030700f400470060272000b3
:103d28000e004000430a07002e089000e10f5000e3
:103d3800ac033a000000eb00300f9800aa033700ec
:103d48001e089000e10f500062003a006e289200b1
:103d58000000e00006003a00c02520000e004000e8
:103d680080007800b00320003d0407009e03370060
:103d78006e289200e10f50009b033a00e0252000d6
:103d88000e004000b1032000490407006a00470004
:103d980080007800a0032000c20307005e009000a6
:103da800ee009000e22520000e0141000089be00cf
:103db8007e0090008e089000820520000e014100d0
:103dc800eb050700e02520000e0040001000be00b3
:103dd80078014700e60507002e0090000000e0008b
:103de80017003a00e00520000e004000b200200055
:103df800e18e2800c1f40700f8004700e005200024
:103e08000e004000cbf40700e00520000e00400043
:103e1800d8f40700e10520008e80400000804000b3
:103e280062002000918f2800b4f40700f4004700d6
:103e3800e00520000e004000fe0907001f003700c3
:103e4800f8004700e00520000e004000c3f407001a
:103e5800e00520000e004000c6f40700e105200040
:103e68008e8040000080400022002000f18f280052
:103e7800a2f40700810520008e804000e0052000a4
:103e88000e004000abf40700e00520000e004000e3
:103e9800b8f40700e10520008e8040000080400053
:103ea800320020001190280094f40700f400470025
:103eb800e00520000e004000de0907002e089000f3
:103ec800e10f500048033a000000eb00602f9a0011
:103ed800450337001e089000e20f500039003a00f1
:103ee8006e2892000000e00006003a00c02520007d
:103ef8000e00400080007800f0032000d80307007f
:103f0800390337006e289200e10f500036033a005b
:103f1800e82520000e044400603720000e00400011
:103f2800f1032000e2030700603720000e00400084
:103f380009000900301c78004801b1004001b100b7
:103f4800e02520000e0040001000be007801470068
:103f580087050700e00520000e0040000201200050
:103f68004190280065f40700f8004700e0052000ac
:103f78000e0040006ff40700e00520000e0040002e
:103f88007cf40700e10520008e804000008040009e
:103f9800a20020004191280058f40700f4004700cf
:103fa800e00520000e004000a20907002e0890003e
:103fb800e10f50000c033a000000eb00602f9a005c
:103fc800090337001e089000e30f50004c003a0028
:103fd8006e2892000000e00006003a00c02520008c
:103fe8000e00400080007800a00320009c0307001a
:103ff800fd0237006e289200e10f5000fa023a00e5
:10400800e82520000e044400603720000e00400020
:10401800a1032000a6030700603720000e0040001f
:1040280009000900301c78004801b1004001b100c6
:10403800e22520000e014100b0f12200d105240044
:104048000089be00e02520000e0040001000be00e0
:1040580078014700460507002e0090000000e000a8
:1040680017003a00e00520000e004000c2002000c2
:10407800e191280021f40700f8004700e00520003e
:104088000e0040002bf40700e00520000e00400061
:1040980038f40700e10520008e80400000804000d1
:1040a80062002000918f280014f40700f4004700f4
:1040b800e00520000e0040005e0907000a003700f6
:1040c800780047002bf40700f80047000080400004
:1040d800320020001190280008f40700f40047007f
:1040e80078004700530907002e089000e10f5000a0
:1040f800bd023a000000eb00602f9a00ba023700b8
:104108001e089000e40f50004c003a006e28920000
:104118000000e00006003a00c02520000e00400024
:1041280080007800d00320004d030700ae0237005e
:104138006e289200e10f5000ab023a00e8252000fb
:104148000e044400603720000e004000d103200018
:1041580057030700603720000e00400009000900df
:10416800301c78004801b1004001b100e225200070
:104178000e014100a0702d0031f423000089be001b
:10418800e02520000e0040001000be007801470026
:10419800f70407002e0090000000e00017003a0026
:1041a800e00520000e004000c2002000a192280077
:1041b800d2f30700f8004700e00520000e00400099
:1041c800dcf30700e00520000e004000e9f30700db
:1041d800e10520008e804000008040006200200041
:1041e80061932800c5f30700f4004700e0052000ac
:1041f8000e0040000f0907000a003700780047004a
:10420800dcf30700f800470000804000320020007f
:1042180011902800b9f30700f40047007800470020
:10422800040907002e089000e10f50006e023a00c2
:104238000000eb00602f9a006b0237001e08900008
:10424800e50f5000b4003a006e2892000000e0002c
:1042580006003a00c02520000e00400080007800cb
:1042680040032000fe0207005f0237006e2892001c
:10427800e10f50005c023a00e82520000e044400db
:10428800603720000e0040004103200008030700ab
:10429800603720000e00400009000900301c78003b
:1042a8004801b1004001b100622720000e01410021
:1042b8006000b8000089be00e40041007a000900ef
:1042c8008018eb00602720000e004000e20020006c
:1042d800c193280089f30700e02520000e00400064
:1042e8001000be006011b80079f207000000e0007d
:1042f8000a003a00602720000e0040009df30700e6
:10430800612720008e8040000080400012012000bc
:10431800a194280079f307000900370060272000de
:104328000e00400093f30700612720008e804000b4
:104338000080400002012000b19528006ff30700bb
:10434800e02520000e004000b00090002000900002
:104358006011b8005ef207000000e0000a003a00b1
:10436800602720000e00400082f30700612720002c
:104378008e80400000804000f2002000b1962800a6
:104388005ef3070009003700602720000e00400098
:1043980078f30700612720008e80400000804000ed
:1043a800e2002000a197280054f30700e025200030
:1043b8000e004000d0009000400090006011b8004e
:1043c80043f207000000e0000a003a0060272000de
:1043d8000e00400067f30700612720008e80400030
:1043e80000804000f20020008198280043f3070075
:1043f80009003700602720000e0040005df3070029
:10440800612720008e80400000804000e2002000ec
:104418007199280039f30700e02520000e004000bc
:10442800f0009000600090006011b80028f20700ca
:104438000000e0000a003a00602720000e0040005b
:104448004cf30700612720008e8040000080400068
:1044580022012000519a280028f30700090037009c
:10446800602720000e00400042f30700612720006b
:104478008e8040000080400012012000719b2800bf
:104488001ef30700e02520000e0040009008900071
:10449800000890006011b8000df207000000e0006d
:1044a8000a003a00602720000e00400031f30700a0
:1044b800612720008e8040000080400032012000eb
:1044c800819c28000df307000900370060272000b1
:1044d8000e00400027f30700612720008e8040006f
:1044e8000080400022012000b19d280003f307004e
:1044f800f4004700602720000e0040004d08070028
:104508002e089000e10f5000b7013a000000eb00c0
:10451800602f9a00b40137001e089000e60f500083
:1045280064003a006e2892000000e00006003a009d
:10453800c02520000e0040008000780050032000b5
:1045480047020700a80137006e289200e10f5000cb
:10455800a5013a00e82520000e0444006037200039
:104568000e00400051032000510207006037200070
:104578000e00400009000900301c78004801b10015
:104588004001b100622720000e0141006000b80020
:104598000089be00e40041007a0009008018eb00a1
:1045a800602720000e00400092012000d19e2800c4
:1045b800d2f20700e02520000e004000d000900055
:1045c800400090006011b800c1f107000000e00051
:1045d8000a003a00602720000e004000e5f20700bc
:1045e800612720008e80400000804000d20120001a
:1045f80061a02800c1f207000900370060272000e9
:104608000e004000dbf20700612720008e8040008a
:1046180000804000c201200031a22800b7f2070044
:10462800e02520000e004000f0009000600090009f
:104638006011b800a6f107000000e0000a003a0087
:10464800602720000e004000caf207006127200002
:104658008e80400000804000d2012000f1a3280095
:10466800a6f2070009003700602720000e0040006e
:10467800c0f20700612720008e80400000804000c3
:10468800c2012000c1a528009cf20700f4004700e1
:10469800602720000e004000e60707002e08900063
:1046a800e10f500050013a000000eb00602f9a0023
:1046b8004d0137001e089000e70f500099003a009e
:1046c8006e2892000000e00006003a00c025200095
:1046d8000e0040008000780090032000e0010700f1
:1046e800410137006e289200e10f50003e013a0068
:1046f800e82520000e044400603720000e0040002a
:1047080091032000ea010700603720000e004000f6
:1047180009000900301c78004801b1004001b100cf
:10472800622720000e0141006000b8000089be0029
:10473800e40041007a0009008018eb00602720009f
:104748000e0040009201200081a728006bf20700ac
:10475800e02520000e0040001000be006011b800e7
:104768005bf107000000e0000a003a006027200023
:104778000e0040007ff20700612720008e80400075
:10478800008040009201200011a928005bf2070078
:1047980009003700602720000e00400075f207006e
:1047a800612720008e8040000080400082012000a8
:1047b800a1aa280051f20700e02520000e004000c1
:1047c800b0009000200090006011b80040f1070090
:1047d8000000e0000a003a00602720000e004000b8
:1047e80064f20700612720008e80400000804000ae
:1047f8006201200021ac280040f2070009003700c0
:10480800602720000e0040005af2070061272000b0
:104818008e804000008040005201200081ad2800b9
:1048280036f20700e02520000e004000d00090007e
:10483800400090006011b80025f107000000e0007a
:104848000a003a00602720000e00400049f20700e5
:10485800612720008e80400000804000a2012000d7
:10486800d1ae280025f20700090037006027200094
:104878000e0040003ff20700612720008e804000b4
:10488800008040009201200071b028001bf2070050
:10489800e02520000e004000f0009000600090002d
:1048a8006011b8000af107000000e0000a003a00b1
:1048b800602720000e0040002ef20700612720002c
:1048c8008e804000008040004201200001b2280094
:1048d8000af2070009003700602720000e00400098
:1048e80024f20700612720008e80400000804000ed
:1048f8003201200041b3280000f20700f40047000d
:10490800602720000e0040004a0707002e0890008c
:10491800e10f5000b4003a000000eb00602f9a004d
:10492800b10037001e089000e80f500067003a00f9
:104938006e2892000000e0001c003a001e00900063
:104948000000e0000b003a00c02520000e004000e7
:104958008000780040042000410107004004200046
:10496800000f78001e0090000000e8001007980073
:104978009d0037001e009000e20f50009a003a0098
:10498800c02520000e004000800078005004200060
:104998003301070050042000000f78001e0090002b
:1049a8000000e800100798008f0037006e2892007a
:1049b800e10f50008c003a00e82520000e04440066
:1049c800603720000e0040009e0078003801070084
:1049d800603720000e00400009000900301c7800f4
:1049e8004801b1004001b100e02520000e00400060
:1049f8001000be0078014700dd020700e005200036
:104a08000e004000c200200071b42800bbf107006e
:104a1800f8004700e00520000e004000c5f107003f
:104a2800e00520000e004000d2f10700e10520005b
:104a38008e80400000804000b200200031b5280080
:104a4800aef107001e009000e10f500011003a007f
:104a58003e0890000000e00005003a00f60047001c
:104a6800e00520000e004000f20607005e00370057
:104a78003e089000e10f50005b003a000000eb0098
:104a8800602f9a001e0090000000e80010079800b0
:104a9800550037001e009000e30f500052003a0006
:104aa800f4004700e00520000e004000e106070082
:104ab8000000eb00100798000000eb00300f980092
:104ac8000000eb00602f9a00470037001e08900096
:104ad800eb0f500015003a00e4e2a800f4c2a80069
:104ae800f4e2a900e00520000e0040009201200039
:104af800e1b5280081f10700f4004700e005200037
:104b08000e004000cb06070010002000103f9a005e
:104b1800202720000e00400000017800011020002e
:104b280040012000440207002f0037001e089000b3
:104b3800ec0f500015003a00e4e2a800f4c2a80007
:104b4800f4e2a900e00520000e0040000202200067
:104b580071b7280069f10700f4004700e00520005c
:104b68000e004000b306070010002000203f9a0006
:104b7800402720000e004000000178008000eb0074
:104b8800400120002c020700170037001e08900083
:104b9800f40f500007003a0010002000200798008a
:104ba800740047008000780070b92800a10607004b
:104bb8000d0037001e089000f50f50000a003a005b
:104bc8000000eb0020079800740047008000780080
:104bd800a0ba28009706070003003700000000006d
:104be80001003700000000002e089000e10f50007f
:104bf80010fc3a00e0ff2f00100f98000000eb00b7
:104c0800200f98000cfc37004e01fa00402799004d
:104c18005127990062279900ee2091005e209100ab
:104c2800de06070070bc2800bc000900305f780071
:104c3800de0bb100d00bb10040c82800d10b20001a
:104c4800810047008a000900b0587800b008b10018
:104c58004e209100e10f500004003a008e007800c9
:104c68005e2091003df107000c0037004e209100b6
:104c7800e20f500006003a00d00b20000e00400062
:104c8800800078005e20910034f1070003003700af
:104c98008e0078005e20910030f107000080fa0055
:104ca800000006000400fa00881f7800000f780052
:104cb80011079800a00320009e007800808f500004
:104cc80029003a001e0090001000be0018c0b30072
:104cd8000200200003092400ffef07000000e000a5
:104ce80001003d000044eb000804e000050032002c
:104cf800d0cc2c00c1dc2b00804288009142880077
:104d08000f0037001e0090001000be0018c0b3004e
:104d18000200200003022400edef07000000e0007d
:104d2800010034000044eb000804e00004003200f5
:104d3800d0cc2c00c1dc230080428800914288003e
:104d48001e0090001002be00804280009142800048
:104d58000001be000400be003eef07001e019000e7
:104d68000089be000b003700d00320009e007800a9
:104d7800808f5000070032001e0190006000b800cc
:104d88000089be001e0190006000b8002001980054
:104d9800310198001e009000b000900020009000a3
:104da8000200200003f823002aef07001e019000ec
:104db80020019800310198001e009000b00090007a
:104dc8002000900018c0b3000200200013562400f1
:104dd800c1ef07000000e00001003c000044eb00c8
:104de8000804e000040032001e0190006000b800d2
:104df80020019800310198004f0478000080fa00e3
:104e0800000006000000fa00d009200020108800e9
:104e180007e2a80007a2a9000782a9000762a90063
:104e28000742a9000722a9000702a80006e2a80075
:104e380006c2a90006a2a9000682a9000662a90066
:104e48000642a9000622a9000602a9000822ef00ce
:104e58008620a9009620a8000080fa00000006001d
:104e68000400fa00000f7800110798004110800034
:104e780000002400008060000000e0000a003a0002
:104e880010002000304188009e0078001141880001
:104e98009e009000514188001e00900021002000d3
:104ea800010878000602a8000080fa000000060049
:104eb8001a00fa00889fbe008a1f78000005780053
:104ec800410f98000000eb00100798000000eb006d
:104ed800000f78006000b80020079800310798009c
:104ee8006000b80040079800510798006000b800bb
:104ef80060079800710798006000b800000f9800dc
:104f0800110f98006000b800200f9800310f98002a
:104f1800004180004800dd0010079800f040800044
:104f28009e00900001007000100798009e009000fd
:104f3800010f7800ce089000a0032000808f500059
:104f480009003a001e0090008000eb0088ef07007f
:104f580092a7290093942300daef0700200798000e
:104f68003107980029013700ce089000b0032000cf
:104f7800808f500004003200ce089000c00320004b
:104f8800808f500009003a001e0090008000eb005e
:104f980077ef0700421b200083ad2300c9ef07000d
:104fa800200798003107980018013700ce089000b4
:104fb800d0032000808f500012003a001e0090009d
:104fc8000000e00002003d009e009000010f780004
:104fd8001e007800cf80de0062ef0700d2c82900eb
:104fe800435c2300b7ef0700f226210033c82300f3
:104ff800f5ee070020079800310798000000000030
:1050080002013700ce089000e0032000808f500096
:105018000c003a001e0090008000eb0054ef0700df
:10502800d2c82900435c2300a6ef0700f22621001e
:1050380033d02300e4ee07002007980031079800da
:10504800f2003700ce089000f0032000808f500057
:105058000b003a009e00900060112d000080400077
:105068008000eb0042ef07006266260063232400fd
:10507800d5ee07002007980031079800e3003700b5
:10508800ce08900000042000808f500012003a00e3
:105098001e0090008000eb0035ef0700020024009e
:1050a800c361240087ef07000004be0051552500a6
:1050b8001e009000008050008000eb002cef0700dd
:1050c8000001be000800be00bfee070020079800e0
:1050d80031079800cd003700ce089000300420003a
:1050e800808f50000d003a006000b800200798003b
:1050f800310798001e0090000000e0000300320015
:105108000000200001f82300010037006000b8000b
:105118004007980051079800bc003700ce0890005f
:1051280040032000808f500026003a009e00900027
:1051380000102000008060004800de008000eb00c6
:105148000bef070020079800310798009e00900099
:1051580000082000008060004700de008000eb00af
:1051680003ef070040079800510798009e00900041
:1051780000042000008060004600de008000eb0094
:10518800fbee070060079800710798001e0090006a
:10519800620060000000d1008000eb00f4ee070020
:1051a800000f9800110f98001e0090006100600029
:1051b8008000eb00eeee0700200f9800310f9800fa
:1051c80092003700ce08900040042000808f5000e5
