:020000040000fa
:080000000002040000000000f2
:020000040000fa
:0400080022050000cd
:020000040000fa
:04000c0030030000bd
:020000040000fa
:0400100042030000a7
:020000040000fa
:0400140038030000ad
:020000040000fa
:040018004a03000097
:020000040000fa
:04001c0022050000b9
:020000040000fa
:0400200022050000b5
:020000040000fa
:0400240022050000b1
:020000040000fa
:0400280022050000ad
:020000040000fa
:04002c0022050000a9
:020000040000fa
:0400300022050000a5
:020000040000fa
:0400340022050000a1
:020000040000fa
:04003800220500009d
:020000040000fa
:04003c002205000099
:020000040000fa
:040040002205000095
:020000040000fa
:040044002205000091
:020000040000fa
:04004800220500008d
:020000040000fa
:04004c002205000089
:020000040000fa
:040050002205000085
:020000040000fa
:040054002205000081
:020000040000fa
:04005800220500007d
:020000040000fa
:04005c002205000079
:020000040000fa
:040060002205000075
:020000040000fa
:040064002205000071
:020000040000fa
:04006800220500006d
:020000040000fa
:04006c00520300003b
:020000040000fa
:040070002205000065
:020000040000fa
:040074002205000061
:020000040000fa
:04007800220500005d
:020000040000fa
:04007c002205000059
:020000040000fa
:040080002205000055
:020000040000fa
:040084002205000051
:020000040000fa
:04008800220500004d
:020000040000fa
:04008c002205000049
:020000040000fa
:040090002205000045
:020000040000fa
:040094002205000041
:020000040000fa
:04009800220500003d
:020000040000fa
:04009c002205000039
:020000040000fa
:0400a0002205000035
:020000040000fa
:0400a4002205000031
:020000040000fa
:0400a800220500002d
:020000040000fa
:0400ac002205000029
:020000040000fa
:0400b0002205000025
:020000040000fa
:0400b4002205000021
:020000040000fa
:0400b800220500001d
:020000040000fa
:0400bc002205000019
:020000040000fa
:0400c0002205000015
:020000040000fa
:0400c4002205000011
:020000040000fa
:0400c800220500000d
:020000040000fa
:0400cc002205000009
:020000040000fa
:0400d0002205000005
:020000040000fa
:0400d4002205000001
:020000040000fa
:0400d80022050000fd
:020000040000fa
:0400dc0022050000f9
:020000040000fa
:0400e00022050000f5
:020000040000fa
:0400e40022050000f1
:020000040000fa
:0400e80022050000ed
:020000040000fa
:0400ec0022050000e9
:020000040000fa
:0400f00022050000e5
:020000040000fa
:0400f40022050000e1
:020000040000fa
:0400f80022050000dd
:020000040000fa
:0400fc0022050000d9
:020000040000fa
:0401000022050000d4
:020000040000fa
:0401040022050000d0
:020000040000fa
:0401080022050000cc
:020000040000fa
:04010c0022050000c8
:020000040000fa
:0401100022050000c4
:020000040000fa
:0401140022050000c0
:020000040000fa
:0401180022050000bc
:020000040000fa
:04011c0022050000b8
:020000040000fa
:0401200022050000b4
:020000040000fa
:0401240022050000b0
:020000040000fa
:0401280022050000ac
:020000040000fa
:04012c0022050000a8
:020000040000fa
:0401300022050000a4
:020000040000fa
:0401340022050000a0
:020000040000fa
:04013800220500009c
:020000040000fa
:04013c002205000098
:020000040000fa
:040140002205000094
:020000040000fa
:040144002205000090
:020000040000fa
:04014800220500008c
:020000040000fa
:04014c002205000088
:020000040000fa
:040150002205000084
:020000040000fa
:040154002205000080
:020000040000fa
:04015800220500007c
:020000040000fa
:04015c002205000078
:020000040000fa
:040160002205000074
:020000040000fa
:040164002205000070
:020000040000fa
:04016800220500006c
:020000040000fa
:04016c002205000068
:020000040000fa
:040170002205000064
:020000040000fa
:040174002205000060
:020000040000fa
:04017800220500005c
:020000040000fa
:04017c002205000058
:020000040000fa
:040180000403000074
:020000040000fa
:040184002205000050
:020000040000fa
:04018800220500004c
:020000040000fa
:04018c002205000048
:020000040000fa
:040190002205000044
:020000040000fa
:040194002205000040
:020000040000fa
:04019800220500003c
:020000040000fa
:04019c002205000038
:020000040000fa
:0401a0002205000034
:020000040000fa
:0401a4002205000030
:020000040000fa
:0401a800220500002c
:020000040000fa
:0401ac002205000028
:020000040000fa
:0401b0002205000024
:020000040000fa
:0401b4002205000020
:020000040000fa
:0401b800220500001c
:020000040000fa
:0401bc002205000018
:020000040000fa
:0401c0002205000014
:020000040000fa
:0401c4002205000010
:020000040000fa
:0401c800220500000c
:020000040000fa
:0401cc002205000008
:020000040000fa
:0401d0002205000004
:020000040000fa
:0401d4002205000000
:020000040000fa
:0401d80022050000fc
:020000040000fa
:0401dc0022050000f8
:020000040000fa
:0401e00022050000f4
:020000040000fa
:0401e40022050000f0
:020000040000fa
:0401e80022050000ec
:020000040000fa
:0401ec0022050000e8
:020000040000fa
:0401f00022050000e4
:020000040000fa
:0401f40022050000e0
:020000040000fa
:0401f80022050000dc
:020000040000fa
:0401fc0022050000d8
:020000040000fa
:0402080022050000cb
:020000040000fa
:04020c0030030000bb
:020000040000fa
:0402100042030000a5
:020000040000fa
:0402140038030000ab
:020000040000fa
:040218004a03000095
:020000040000fa
:04021c0022050000b7
:020000040000fa
:0402200022050000b3
:020000040000fa
:0402240022050000af
:020000040000fa
:0402280022050000ab
:020000040000fa
:04022c0022050000a7
:020000040000fa
:0402300022050000a3
:020000040000fa
:04023400220500009f
:020000040000fa
:04023800220500009b
:020000040000fa
:04023c002205000097
:020000040000fa
:040240002205000093
:020000040000fa
:04024400220500008f
:020000040000fa
:04024800220500008b
:020000040000fa
:04024c002205000087
:020000040000fa
:040250002205000083
:020000040000fa
:04025400220500007f
:020000040000fa
:04025800220500007b
:020000040000fa
:04025c002205000077
:020000040000fa
:040260002205000073
:020000040000fa
:04026400220500006f
:020000040000fa
:04026800220500006b
:020000040000fa
:04026c005203000039
:020000040000fa
:040270002205000063
:020000040000fa
:04027400220500005f
:020000040000fa
:04027800220500005b
:020000040000fa
:04027c002205000057
:020000040000fa
:040280002205000053
:020000040000fa
:04028400220500004f
:020000040000fa
:04028800220500004b
:020000040000fa
:04028c002205000047
:020000040000fa
:040290002205000043
:020000040000fa
:04029400220500003f
:020000040000fa
:04029800220500003b
:020000040000fa
:04029c002205000037
:020000040000fa
:0402a0002205000033
:020000040000fa
:0402a400220500002f
:020000040000fa
:0402a800220500002b
:020000040000fa
:0402ac002205000027
:020000040000fa
:0402b0002205000023
:020000040000fa
:0402b400220500001f
:020000040000fa
:0402b800220500001b
:020000040000fa
:0402bc002205000017
:020000040000fa
:0402c0002205000013
:020000040000fa
:0402c400220500000f
:020000040000fa
:0402c800220500000b
:020000040000fa
:0402cc002205000007
:020000040000fa
:0402d0002205000003
:020000040000fa
:0402d40022050000ff
:020000040000fa
:0402d80022050000fb
:020000040000fa
:0402dc0022050000f7
:020000040000fa
:0402e00022050000f3
:020000040000fa
:0402e40022050000ef
:020000040000fa
:0402e80022050000eb
:020000040000fa
:0402ec0022050000e7
:020000040000fa
:0402f00022050000e3
:020000040000fa
:0402f40022050000df
:020000040000fa
:0402f80022050000db
:020000040000fa
:0402fc0022050000d7
:020000040000fa
:0403000022050000d2
:020000040000fa
:0403040022050000ce
:020000040000fa
:0403080022050000ca
:020000040000fa
:04030c0022050000c6
:020000040000fa
:0403100022050000c2
:020000040000fa
:0403140022050000be
:020000040000fa
:0403180022050000ba
:020000040000fa
:04031c0022050000b6
:020000040000fa
:0403200022050000b2
:020000040000fa
:0403240022050000ae
:020000040000fa
:0403280022050000aa
:020000040000fa
:04032c0022050000a6
:020000040000fa
:0403300022050000a2
:020000040000fa
:04033400220500009e
:020000040000fa
:04033800220500009a
:020000040000fa
:04033c002205000096
:020000040000fa
:040340002205000092
:020000040000fa
:04034400220500008e
:020000040000fa
:04034800220500008a
:020000040000fa
:04034c002205000086
:020000040000fa
:040350002205000082
:020000040000fa
:04035400220500007e
:020000040000fa
:04035800220500007a
:020000040000fa
:04035c002205000076
:020000040000fa
:040360002205000072
:020000040000fa
:04036400220500006e
:020000040000fa
:04036800220500006a
:020000040000fa
:04036c002205000066
:020000040000fa
:040370002205000062
:020000040000fa
:04037400220500005e
:020000040000fa
:04037800220500005a
:020000040000fa
:04037c002205000056
:020000040000fa
:040380000403000072
:020000040000fa
:04038400220500004e
:020000040000fa
:04038800220500004a
:020000040000fa
:04038c002205000046
:020000040000fa
:040390002205000042
:020000040000fa
:04039400220500003e
:020000040000fa
:04039800220500003a
:020000040000fa
:04039c002205000036
:020000040000fa
:0403a0002205000032
:020000040000fa
:0403a400220500002e
:020000040000fa
:0403a800220500002a
:020000040000fa
:0403ac002205000026
:020000040000fa
:0403b0002205000022
:020000040000fa
:0403b400220500001e
:020000040000fa
:0403b800220500001a
:020000040000fa
:0403bc002205000016
:020000040000fa
:0403c0002205000012
:020000040000fa
:0403c400220500000e
:020000040000fa
:0403c800220500000a
:020000040000fa
:0403cc002205000006
:020000040000fa
:0403d0002205000002
:020000040000fa
:0403d40022050000fe
:020000040000fa
:0403d80022050000fa
:020000040000fa
:0403dc0022050000f6
:020000040000fa
:0403e00022050000f2
:020000040000fa
:0403e40022050000ee
:020000040000fa
:0403e80022050000ea
:020000040000fa
:0403ec0022050000e6
:020000040000fa
:0403f00022050000e2
:020000040000fa
:0403f40022050000de
:020000040000fa
:0403f80022050000da
:020000040000fa
:0403fc0022050000d6
:020000040000fa
:100400000fa320000e7f22000e01880000000000d4
:10041000000020000000e000020032000001200087
:100420002002880014000700880107000000e00097
:1004300003003a00609e2200010020000200370005
:100440000000200001002000810f70000100320038
:1004500014000700000020000000e000020032004d
:1004600000000200000000006c1a02000000000002
:100470000040da000000fe004440a900c024200033
:100480000000e000030032000020200090018800fe
:100490004440a800000006008a1f78008b1f7800e7
:1004a00000000600a1028800800478000000eb0034
:1004b0001f003700e284440054a0b4009905ba003c
:1004c000e284440054a0b4009906ba00e2844400d7
:1004d00054a0b4000006eb00476fde00fd07b20039
:1004e000ae018800636ce10003003a00eaff0700f8
:1004f0000000eb000e003700606ce10008003a00dd
:10050000004deb000a05e800020039003420ec0041
:100510000af0a0008b05e900f9ff3e000400370057
:100520006168e100010032000086eb000b0007006b
:1005300019c7ba001905ba000e04e00003003a001a
:100540000a00e000dbff3a0000000600fe07b200f0
:10055000ae0288008a047800f5ff37000cd0a300b3
:10056000e20f4d001c00390089027800354dba00b9
:100570000a05e800020039003420ec000af0a0006f
:100580008b05e9000f003200254dba000a05e8008e
:10059000020039003420ec000af0a0008b05e900cd
:1005a000080032000c00e0000600320015cdba0051
:1005b0000a05e800020039003420ec000af0a0002f
:1005c0008b05e9008984e80054a0b4000b00e0002a
:1005d000e2ff3a00000006009902ba00055d7800cb
:1005e0008b05e900f7ff3200c82ade00055d7800c0
:1005f0008b05e900f3ff32000c00e000f1ff320050
:1006000019ddba00eeff37003600f800809fbe000b
:10061000829fbe00849fbe00869fbe003200f8000d
:100620003400f80010002000a00188000020200005
:10063000900188000000fa00580407000080fa00ca
:100640003400f9003200f9004f03be004f02be0033
:100650004f01be004f00be003600f900004006000a
:100660003600f8008020a9000000eb00e813070026
:100670003600f800ea1307008040a90010002000af
:10068000e31307003600f8008060a9002000200076
:10069000df1307003600f8008080a900300020003a
:1006a000db130700809fbe000000fa009620a9001f
:1006b0008620a900b04180000000e800b041880019
:1006c000c0418000e10f50007e003a00b041800040
:1006d000e10f500003003a005042800010108800e3
:1006e000d4003700b0418000e20f50000b003a0008
:1006f0004110800000002800008060000000e00041
:1007000003003a00a041800010108800c9003700a3
:1007100020062000b0418800c6003700b0418000ac
:10072000e30f50000a003a0041108000000028004a
:10073000008060000000e00002003a000622a800ed
:10074000bc00370020062000b0418800b900370007
:10075000b0418000e40f500003003a006042800086
:1007600010108800b3003700b0418000e50f500042
:100770000a003a004110800000002800008060005c
:100780000000e00002003a000662a800a90037005d
:1007900020062000b0418800a6003700b04180004c
:1007a000e60f50000c003a0040108000620060002c
:1007b0000000e00005003200001080008041880049
:1007c00006a2a9000682a8009a0037002006200091
:1007d000b041880097003700b0418000e70f50001b
:1007e0000a003a00411080000000280000806000ec
:1007f0000000e00002003a000662a8008d00370009
:1008000020062000b04188008a003700b0418000f7
:10081000e80f50000c003a004010800062006000b9
:100820000000e000050032000010800090418800c8
:1008300006a2a8000682a8007e003700200620003d
:10084000b04188007b003700b0418000e90f5000c4
:1008500004003200b141800030062000808f50003b
:1008600002003a000642a80072003700b041800042
:10087000ea0f500004003200b14180004006200021
:10088000808f50006a003a004010800070006000c5
:100890000000e00004003200b1418000400620006a
:1008a000808f500002003a003028ef003228ef001d
:1008b000e041800011002000010878003628ef0098
:1008c0005c003700d0418000e10f500059003a0031
:1008d000b0418000e10f500003003a005042800018
:1008e0001010880053003700b0418000e20f500024
:1008f0000b003a00411080000000280000806000da
:100900000000e00003003a00a041800010108800c1
:100910004800370020062000b0418800450037001d
:10092000b0418000e30f50000b003a0041108000fe
:1009300000002800008060000000e00003003a0092
:1009400080418000101088003a0037002006200007
:10095000b041880037003700b0418000e40f5000fc
:100960000b003a0041108000000028000080600069
:100970000000e00003003a00904180001010880061
:100980002c00370020062000b041880029003700e5
:10099000b0418000e50f500004003200b1418000fa
:1009a00030062000808f50000a003a00411080007d
:1009b00000002800008060000000e000030032001a
:1009c000f041800021002000010878000642a800c4
:1009d00018003700b0418000e60f500004003200dc
:1009e000b141800040062000808f500011003a0085
:1009f00040108000700060000000e0000400320041
:100a0000b141800040062000808f500003003a0072
:100a1000f04180003100200001087800f0418000a2
:100a200011002000010878003628ef00010037008f
:100a3000000000009620a8000080fa004f00be00d1
:100a4000004006000040da000000fe000000050043
:100a500003f0a200889fbe008a9fbe008c1f780012
:100a6000f5000700fc0033006450e1004f00320045
:100a70006420e1005200320003826c0007003b005a
:100a80000905d0000306d000820f54000c065d005b
:100a90000200390002003200890178000306780064
:100aa0008582550004003d000003fd008103fd0028
:100ab0008502ea008b854200840f720002003b0031
:100ac00060001000e08018006011b8000005eb0025
:100ad0007a28e1000a00390006007800c75ddd00d1
:100ae000f707b200878075002d0037008281710002
:100af0000a017800610560008180d1000080d30088
:100b00008502e900f9ff3b000604400087844800a5
:100b100002003b0060041400e0841c000988a3006c
:100b2000070032008a8171008281710061016400d6
:100b30008904d1000884d3008b05e8001700370032
:100b40000978a30013003a000b00e0001300340002
:100b50008b05e9000804440089844c000a447400b1
:100b60000978a3000d003a000b00e00007003400f4
:100b70008b05e9000804440089844c0001003a0018
:100b80000b0020000978a300f7ff32000001eb0002
:100b900002003700828171000a0178006b000700b3
:100ba0000cf0a70001f0a000b40037006420e100c1
:100bb00002003a00838f6c00b40033000801be00cd
:100bc0000200be00ad003700889fbe008a9fbe00b5
:100bd0008c1f7800980007009f00330003866c008c
:100be0006450e1002e0032006420e1003300320046
:100bf0006150e1002f0032006120e100310032003d
:100c000085855500eb07b00009002000080420008e
:100c1000050037000804440089844c000a003100b4
:100c20000603430087834b000001530081815b0072
:100c3000f8ff33000203be000800a00008044400cf
:100c400089844c00f6ff3900c639dd00830173004a
:100c500001003200130020008904d1000884d30071
:100c60000998a300050032000800a7000300a000b7
:100c70008904d1000884d3008b05e8008904d100e1
:100c80000884d3000001eb000281d2002f0007008e
:100c900001f0a1000cf0a70001f0a00077003700e0
:100ca0006420e100790032000801be000200be00ad
:100cb000f7ff37006120e100740032006000b800e7
:100cc000f3ff37000000200001f82700f0ff370095
:100cd00014002000a40037000001be0041000700fe
:100ce0000470a70003f0a10003f8a30013003a006a
:100cf0006509b10010003200090035006928e100e3
:100d0000020035000100280000000500000040003e
:100d1000818048008502e900fcff3a0000000600df
:100d2000f88f4200050035008100d1000080d3001b
:100d30008502e800fcff3a00000006008000eb009e
:100d4000000005006011b800a200370081002000fb
:100d5000618055000b003d000b00200061fe2f005c
:100d60000100e1001d003400828171006101640016
:100d70008904d1000884d3000000e800faff3a009b
:100d80007100200061006400030070000200600038
:100d90000900320061044400e0844c000988a50089
:100da000050032008b05e8006808e10002003a0007
:100db0008904d1000884d300f20f20000258e1001a
:100dc00005003d00c75ddd00f907b20089807500b0
:100dd00008007800000006000bf827008b00780060
:100de00000000500c70ade00f107b200f50fb200ef
:100df00008003200e1cf4200020032000170a00082
:100e000024000500810f7000010032000408050075
:100e100044000500810f700002003a001400050034
:100e20008502e9000000400081c04800fcff3b0053
:100e30000170a000240005000004be00e9ff0700c7
:100e40000003be000405be000200be00e5ff07006f
:100e5000844f7500000006000200be006450e100ef
:100e6000050036006420e100020036000968a30096
:100e700001003a000800be000160a0004f067800a3
:100e80004f05be004f04be0000000600f0ff2f001b
:100e9000f1ff2700f9ff3700889fbe008a9fbe0040
:100ea0008c1f7800e4ff0700ebff330003866c0023
:100eb0006450e100240032006420e1002700320089
:100ec0006150e100220032006120e1002100320087
:100ed0008b854200eb07b1000134b800003ab8003e
:100ee0000804420089844a00013ab8000030b80082
:100ef0008880400009014a000400330000004000df
:100f000081804800020149008b05e900c909dd0024
:100f1000830170000100320013002000c814de00bd
:100f20004814dd004709de001200b200c808de00e8
:100f30000884700085ff070001f0a1000cf0a700f5
:100f400001f0a000cdff37006120e100cfff3200ab
:100f50000801be000200be00f7ff37006150e1004b
:100f6000fcff3a00c9ff3700889fbe008a9fbe0081
:100f7000841f7800b0ff07004f0078001100330095
:100f8000f0ff2f00838f6c0006003b000405650016
:100f90000a00a7000800370009f0a6001000200092
:100fa00008003700820f5400838f5c000300390073
:100fb0001000200001003e000000200009f0a70002
:100fc0000000ea004f05be004f04be000000e00034
:100fd00000000600889fbe008a9fbe00008270004d
:100fe0000402710004827100260032000004be0079
:100ff0000200be006011b8006b09200095022000bd
:101000000182cf000a0039000541b1000082cf0003
:10101000070039000541b1000982cf000400390002
:101020000541b1000882cf00010039000541b1003f
:1010300005425200120032000a003b00828171001a
:10104000610164008100d1000080d3008984d30055
:101050000884d3008b05e8000442e800f7ff3a005b
:10106000070037000804440089844c000000480051
:10107000818048008b05e9000442e900f9ff3a004d
:1010800032ff07004f05be004f04be0000000600ff
:101090008001780002003700b15978000201e900b0
:1010a0000200e000fcff3a0000000600800178002a
:1010b00002003700815978000201e9000200e000d7
:1010c000fcff3a0000000600000178008201780071
:1010d0003204e000fdff3a0003017800b1417800de
:1010e000035978000304e000fcff3a00000006000a
:1010f00000017800b1417800035978000304e00052
:10110000fcff3a0000000600800078000101780032
:101110003104e000fdff3a0000005100000006002d
:020000040000fa
:101120000d0a00004d6500006e750000203a0000b9
:10113000200d00000a000000203a000020560000a8
:10114000696e0000203d00002000000020560000d5
:1011500076760000767600006f6c000074730000f5
:10116000200d00000a000000203a0000205400007a
:10117000656d0000702000004469000065200000db
:101180003d20000000200000646500006720000092
:10119000432000000d0a0000002000003a2000005b
:1011a0005662000061740000203d00002000000035
:1011b00020560000200d00000a000000203a000028
:1011c0002049000062610000742000003d20000002
:1011d00000200000412000000d0a00000020000057
:1011e0003a20000053540000415400004520000004
:1011f0002d3e000020000000636800002073000006
:1012000075730000702000003a2000006f66000037
:10121000662000003b200000006300006820000002
:101220007375000073700000203a0000206f00000a
:101230006e2000003b20000000700000726500007e
:1012400063680000203a0000206f0000666600001e
:10125000203b000020000000707200006563000069
:10126000682000003a2000006f6e0000203b000064
:1012700020000000636300005f6300007620000030
:101280003a2000006f660000662000003b2000004e
:1012900000630000635f000063760000203a0000f6
:1012a000206f00006e2000003b2000000062000064
:1012b000617400005f6d000069730000732000001e
:1012c0003a2000006f660000662000003b2000000e
:1012d00000620000617400005f6d0000697300002f
:1012e000732000003a2000006f6e0000203b0000d9
:1012f0002000000062610000745f0000736800005d
:101300006f720000742000003a2000006f66000039
:10131000662000000d0a00000062000061740000f9
:101320005f730000686f000072740000203a0000d4
:10133000206f00006e2000000d0a00000000000079
:10134000120100000002000002000000000800007e
:10135000d80400000a0000000001000001020000a3
:10136000000100000902000043000000020100002b
:1013700000c000003209000004000000000100006d
:10138000020200000100000005240000001000001f
:1013900001040000240200000205000024060000f1
:1013a000000100000524000001000000010700000a
:1013b00005810000030a000000020000090400008b
:1013c00001000000020a0000000000000007000009
:1013d00005020000024000000000000007050000b8
:1013e0008202000040000000000000000403000032
:1013f00009040000340300004d00000069000000f3
:1014000063000000720000006f0000006300000035
:10141000680000006900000070000000200000006b
:101420005400000065000000630000006800000038
:101430006e0000006f0000006c0000006f000000f4
:101440006700000079000000200000004900000053
:101450006e000000630000002e0000001603000074
:101460005700000050000000540000005f00000022
:1014700052000000580000005f0000005300000010
:10148000410000004d000000b2890000f689000014
:10149000fa8900002e8a00000a0a00004d6100004f
:1014a000696e0000204d0000656e00007520000090
:1014b0003a0d00000a2d00002d2d00002d2d0000fa
:1014c0002d2d00002d2d00002d0d00000a310000f3
:1014d000203a000020560000626100007474000091
:1014e000747400007474000074740000200d000017
:1014f0000a320000203a000020490000626100002a
:10150000742000000d0a0000332000003a20000083
:101510005662000061740000203b0000204900007a
:1015200062610000742000003b2000005420000095
:101530000d0a00002d2d00002d2d00002d2d000086
:101540002d2d00002d2d00000d0a0000000d0000c3
:101550000a56000062610000742000003d20000077
:10156000332e00003934000020560000203b0000dc
:101570002049000062610000742000003d2000004e
:10158000302e0000393100003220000041200000e0
:101590003b200000542000003d20000033360000b6
:1015a000206400006567000020430000200d00005b
:0815b0000a0000000000000029
:020000040000fa
:1015b8000200fa009ec0a900e8e2a8000080eb0043
:1015c800702488000080eb0050248800aa24ef00d3
:1015d800420020008000eb00c04a2000b1fe070056
:1015e8002000200030258800a824ef008644a900a8
:1015f800f009200080248800f00920006024880079
:1016080082c4a8008804a80000a020004800de00ca
:10161800c02488000040eb00004f78000700370026
:101628001e80fb00c200dd0000a0200000814000f9
:101638006000b8000089be001e4fe8001e40780018
:10164800eb4f5000f6ff36009424a8009624ef00d4
:1016580094a4a9009424a9008000200050248800a4
:10166800c09720008040eb000148780020982000b7
:101678008040eb00014878003098200090407800c6
:10168800e0c0600001487800409820009040780051
:10169800e0c06000014878005024800068006000c5
:1016a8000000e000ecff3a0010c0b30013e8b700f8
:1016b80010c0b30014e8b7001568ef001668ef0013
:1016c8000d68ef000040eb00004f78001500370070
:1016d8001e80fb00800040004097200000804000f2
:1016e8008000eb00010878001e80fb0080004000ad
:1016f800e0962000008040008000eb0001087800a0
:101708001e80fb00719820000041eb008270780079
:101718001e80fb00a19820000041eb008270780039
:101728001e4fe8001e407800e24f5000e8ff3600e8
:1017380080a02000a04b8800d00020005025880001
:10174800d09820001050880000a0200081c0b3006d
:101758000148780010a0200041c0b300014878007b
:1017680010a0200010407800804078000174a0008c
:1017780010a02000014878000268ef001828ef0048
:101788001a28ef001c68ef000028ef000080fa001c
:10179800000006000200fa0000408000e10f50003f
:1017a8000b003a00a12480000004200000806000a3
:1017b8000000e00006003a000080eb00502488009a
:1017c8008c04a8008c84a800200020000040880019
:1017d80000248000700060000000e0000700320074
:1017e80010248000700060000000e0000300320058
:1017f8000001200000248800bc0407004024800069
:10180800620060000000e000020032008ec0a90003
:10181800a100370050248000610060000000e00053
:101828000a00320060248000610060000000e000cf
:10183800060032005eff07009ec0a800400020009e
:1018480000408800100020005024880050248000a8
:10185800700060000000e000050032006024800095
:10186800700060000000e0000100320092040700f0
:101878000124800000042000008060000000e000d7
:10188800030032000004200000248800ee06070050
:1018980050248000640060000000e0001400320062
:1018a80060248000640060000000e0000400320052
:1018b800120020008000eb0030072000ef0e070028
:1018c800400020005024880011c8bf000004e00038
:1018d8000300320011c8bf000040e90011e8b7005a
:1018e80011c8bf000004e00001003a00a30107008e
:1018f8005124800000082000008060000000e00003
:10190800060032006124800000082000008060008a
:101918000000e000010032004b0407005024800062
:10192800620060000000e0000c00320060248000cb
:10193800620060000000e000080032001200200091
:101948008000eb00f0ff2700cc0e07000080eb00c2
:101958007024880020002000502488000040800067
:10196800e30f500002003e008ec0a9004a00370075
:1019780060248000680060000000e000450032003c
:101988000040eb00004f78003d00370050248000f5
:10199800680060000000e0003d00320090248000f4
:1019a800004078000ee8b7000ec8bf000080fb00ba
:1019b8004400de00004078000fe8b70080002000f7
:1019c800502488000ec8bf00684060000004e00092
:1019d80011003a000fc8bf000081fb008080fb00a7
:1019e800a0982000008040009040780061c060000e
:1019f8000004a200e1406000a0982000000041001f
:101a0800e1c06000104178000204a100814071002b
:101a180001487800100037000fc8bf000081fb00a4
:101a28008080fb0070982000008040009040780083
:101a380061c060000004a200e140600070982000ce
:101a480000004100e1c06000104178000204a100dc
:101a580081407100014878000fc8bf000004e00011
:101a680002003a002d040700040037000001eb00d3
:101a7800e180200020072000800e07001e4fe800ac
:101a88001e407800e34f5000c0ff360001003700c9
:101a9800000000008ec0a9000080fa0000000600c7
:101aa8000400fa0020479800314798003e40900013
:101ab8000080fb00680060000000e00003003200c6
:101ac8008040eb002e4090009b0107003e409000b4
:101ad8000080fb00640060000000e00003003200aa
:101ae80011c0b3002e40900093010700a14a2000c6
:101af8002e4090000080fb0000004000008f400056
:101b08001e007800be409000014878000080fa006e
:101b1800000006000800fa002047980031479800a6
:101b280022079800634798003e4090000004e000b8
:101b3800070032002e4090000080fb00800040002b
:101b48004097200000804000100f78000600370002
:101b58002e4090000080fb0080004000e0962000ae
:101b680000804000100f78001e0078000000e000a0
:101b780002003a000000eb0037003700ae0090008a
:101b88001e007800110098001e007800ee409000ba
:101b9800014878001e0078001040900002c4b3008d
:101ba800824060001e007800114098001e007800f6
:101bb80010409000804078000134a0001e0078009a
:101bc800114098001e007800104090008040780076
:101bd8000174a0001e007800114098003e4090005b
:101be8000004e0000e0032002e4090000080fb0050
:101bf800ae4090008180fb000181400041972000a9
:101c080081004100910078000120a20000014000fd
:101c18004097200000004100010878000d003700bf
:101c28002e4090000080fb00ae4090008180fb00b9
:101c380001814000e1962000810041009100780078
:101c48000120a20000014000e096200000004100b1
:101c5800010878001e0078000080fa0000000600e5
:101c68000400fa0020479800314798002e40900061
:101c78000004e00017003a003040800081c0b30043
:101c88000148780030408000d19820001100980069
:101c980030408000c1c0b30011409800304080003f
:101ca80031408000914090000174a00011409800dc
:101cb800a04b800041c0b30011409800a04b8000a9
:101cc800a14b8000914090000174a0001140980041
:101cd8002e0037002e4090000080fb0000004000de
:101ce800800078003e4090000080fb0000804000ab
:101cf8004300dd008000780000a02000008f400035
:101d08001e00780010409000804078000124a00058
:101d18001e007800114098001e00780010409000c6
:101d2800804078000174a0001e00780011409800df
:101d38002e4090000080fb000000400080007800ea
:101d48003e4090000080fb00008040004300dd0022
:101d5800e400400000a02000008f40001e00780032
:101d680010409000804078000124a0001e007800f8
:101d7800114098001e0078001040900080407800c4
:101d88000174a0001e007800114098000080fa003d
:101d9800000006000200fa00004f7800a12480002d
:101da80000022000008060000000e00051003200c6
:101db8001e80fb008000400040972000008040000b
:101dc800100278001e80fb00800040004097200031
:101dd80000804000100078001001be0000042000c0
:101de8000100200082027800030178008001780059
:101df8000100780083826200000061008000eb002f
:101e0800c000dd00000020000001be006128b8000d
:101e18000001710081817100028abe001e80fb00f2
:101e280080004000409720000080400010027800a9
:101e38001e80fb008000400040972000008040008a
:101e4800100078001001be000004200001002000ee
:101e58000000690081806900008abe001e80fb00c6
:101e68009e80fb00018140004197200081004100d5
:101e7800910078000120a200000140004097200056
:101e880000004100010878001e80fb00800040002f
:101e98004097200000804000900078001e80fb00e2
:101ea8000001400040972000000041001000780029
:101eb800104090000044b200904098001e80fb0043
:101ec800800040004097200000804000900078008b
:101ed8001e80fb00000140004097200000004100e8
:101ee800100078001041900000c4b3000040690061
:101ef800904098000080fa00000006000000fa00f8
:101f08009424ef008c24ef000028ef000080fa00f2
:101f1800000006000000fa00004080000000e00019
:101f280014003a009424ef008c24ef0020002000d5
:101f380030258800a824ef008644a900f009200075
:101f480080248800f00920006024880082c4a8004a
:101f58009ec0a800010037009404a800a0248000b7
:101f6800610060000000e000fbff3200100020006c
:101f7800004088000080fa00000006000000fa0017
:101f880013c8bf000004a2000004e00034003200bf
:101f980010c0b30013e8b70014c8bf000004a200c3
:101fa8000004e0002e00320010c0b30014e8b700af
:101fb80009c8bf00e24f50000c003a00a04b800057
:101fc8008040eb0001487800a04b800081c4b3003a
:101fd80011409800a04b8000a14b800091409000d8
:101fe8000174a000114098001d00370009c8bf0007
:101ff800e14f50001a003a001068ef0020408000be
:1020080081c0b3000148780020408000d1982000aa
:10201800110098002040800041c0b3001140980092
:102028002040800021408000914090000174a00071
:102038001140980010c0b30010e8b700304080008d
:1020480081c0b3000148780030408000d19820005a
:10205800110098003040800001c8b300114098007a
:102068000080fa00000006000000fa001568ef0082
:102078001668ef0009c8bf00e24f50000f003a0091
:102088003040800081c0b3000148780030408000b3
:1020980051992000110098003040800081c4b3009d
:1020a80011409800304080003140800091409000fd
:1020b8000174a000114098001d00370030992000dd
:1020c8001080fb00419920009180fb00c808dd00ca
:1020d8000100700080007800f04b8000808f500075
:1020e80007003100309920001080fb004199200042
:1020f8009180fb00c808dd0001007000f04b8800eb
:1021080096000700a04b800051992000110098000c
:10211800a04b800081c4b30011409800a04b800000
:10212800a14b8000914090000174a00011409800dc
:102138000080fa00000006000400fa00204798001a
:102148003147980000a02000000f78002e40900032
:102158000080fb0000004000800078003e409000b6
:102168000080fb00008040004300dd001e0f40009f
:102178001e0078009000780001f0a10001087800a6
:102188003e4090000004e00007003a002e40900016
:102198000080fb0080004000e096200000804000a6
:1021a8001e087800060037002e4090000080fb00d3
:1021b8008000400040972000008040001e08780002
:1021c8001e0078009000780001e0a1000108780066
:1021d8009e007800648040009000780001e0a00034
:1021e800010878000080fa00000006000000fa00ec
:1021f80094a4a900e14b8000000820000080600042
:102208000000e00027003a00209820009040780065
:1022180000c8b30000c060000004e0000a003200fb
:1022280020c0b30009e8b70016c8bf000004a20028
:102238000004e000010032008bff07001468ef0083
:102248001368ef00430037003040800081c0b300be
:102258000148780030408000d19820001100980093
:1022680030408000c1c0b300114098003040800069
:1022780031408000914090000174a0001140980006
:10228800a04b800041c0b30011409800a04b8000d3
:10229800a14b8000914090000174a000114098006b
:1022a8002c003700d09820009040780000c8b30078
:1022b80000c060000004e0000f00320010c0b3004e
:1022c80009e8b70015c8bf000004a2000004e00038
:1022d8000100320064ff07001468ef001368ef0084
:1022e80012c8bf000004a2000004e0001900320078
:1022f80022ff07001700370020c0b30009e8b70025
:102308003040800081c0b300014878003040800030
:10231800d1982000110098003040800041c0b300df
:10232800114098003040800031408000914090007a
:102338000174a000114098001468ef001368ef00c2
:1023480012c8bf000004a2000004e000010032002f
:102358000aff07000080fa00000006000200fa00e9
:1023680080c0b300004f7800f04b8000e70f5000aa
:102378000d003e00f04b8000004f780008c8bf00f9
:102388000004e00003003a0010c0b30008e8b700fa
:102398000500370008c8bf00e14f500002003a00ae
:1023a80020c0b30008e8b700f14b80001e80fb0096
:1023b80000805000f04b8800a04b80001e48780039
:1023c8005099200050408800e04b80006100600078
:1023d8000000e00017003a00090037005140800073
:1023e800d04b800010417800824878008100e800d6
:1023f800514088000000e800d04b88001e4fe900db
:102408001e4078000004e000f4ff3a000c0037009a
:1024180051408000d04b80001041780082487800fd
:102428008100e800514088000000e800d04b880097
:102438001e4fe9001e4078000004e000f4ff3a0057
:102448000080fa00000006000200fa002040800028
:10245800104f78009e80fb00309820001080fb0011
:10246800429820001281fb004811dd000200700034
:10247800808f500007003600309820001080fb0045
:10248800419820009180fb00c808dd000100700021
:10249800004f7800309820001080fb004198200001
:1024a8009180fb00c808dd00010070008000780002
:1024b8001e80fb0000805000f10f20000101600029
:1024c8003198200091417800e0c1610002c171009b
:1024d80082487800c800de0040982000104178004b
:1024e8006041610081407100014878000040eb00c4
:1024f800104798001c003700009820001080fb004f
:10250800119820009180fb00c808dd0001007000d0
:102518009e4090008180fb0052992000e2c0780024
:10252800014878000000e800f10f20000101600078
:102538000198200091417800e0c1610002c171005a
:1025480082487800c800de0010982000104178000a
:102558006041610081407100014878001e40900090
:102568000040e800104798001e4090009e4f500021
:10257800e1ff3900309820001080fb0041982000ce
:102588009180fb00c808dd00010070000000e00039
:102598001e0032003040800081c0b300014878003e
:1025a80030408000519920001100980020408000a0
:1025b8009000780000002400008060000000e00027
:1025c80009003a003040800081c4b30011409800ef
:1025d8003040800031408000914090000174a0009c
:1025e800114098002f0037003040800081c0b300b0
:1025f80011409800304080003140800091409000a8
:102608000174a00011409800260037003040800077
:1026180081c0b3000148780030408000d198200084
:10262800110098003040800041c0b300114098006c
:102638003040800031408000914090000174a0003b
:1026480011409800509820001080fb0061982000ed
:102658009180fb00c808dd00010070000000e00068
:1026680007003200509820001080fb00619820007d
:102678009180fb00c808dd00010070000000010027
:1026880020982000904078000174a100014878004b
:1026980012c8bf000004a2000004e00001003200dc
:1026a80036fe07000080fa00000006000200fa006b
:1026b800e04b80000070a000e04b88004200200042
:1026c8008000eb00c04a200076fa070002032000d1
:1026d8008000eb0000a0200072fa07009424a800f4
:1026e8000040eb00004f7800090037001e80fb0017
:1026f800719820000041eb00827078001e80fb007a
:10270800a19820000041eb00827078001e4fe8007d
:102718001e407800e24f5000f4ff360022002000ef
:102728008000eb00c09620005efa07009424a90000
:1027380080a02000a04b880000a020002040880036
:102748002040800030408800f09820001040780039
:1027580002e8b70002c8bf000004e00003003a0026
:102768000001200000408800060037001200200009
:102778002180200010002000400b070000022000ec
:10278800004088000080fa00000006000000fa00ff
:10279800d09820009040780000c8b30080cf500047
:1027a80047003a00c097200001ccb30001487800e8
:1027b80000992000104078000080fb00e20f5000d4
:1027c80009003200e30f500023003200e10f5000ef
:1027d80037003a00009a2800d04b880020012000da
:1027e800f04b880036003700f09820001040780041
:1027f8000004e00014003a00f0982000104078002f
:102808000080fb00000040008000780040a4280001
:102818000080400010007800d04b8800d04b80002a
:102828000080e80090407800e09720000148780098
:10283800d04b80006300400090407800f097200063
:10284800014878001e003700c09720008040eb0048
:10285800014878001a003700f098200010407800ee
:10286800e24f50000e003e00f09820001040780023
:102878000080fb00000040008000780060a4280071
:102888000080400010007800d04b8800d04b8000ba
:10289800104078000080fb00f04b880008003700eb
:1028a800c09720008040eb00014878000400370002
:1028b800c09720008040eb0001487800000000002d
:1028c8000080fa00000006000200fa00509920007b
:1028d8008040eb0001487800609920008040eb00c0
:1028e80001487800d0982000904078007fc06000b0
:1028f8000080fb00e10f500011003200e20f500091
:10290800130032000000e00040003a00e04b800075
:102918000070a000e04b88000cc8bf000004e00075
:10292800350032005099200010407800804078002f
:102938000114a000509920000148780033003700a6
:10294800e04b80000070a000e04b88002f003700ab
:10295800e04b80000070a000e04b88001099200038
:102968009040780000c8b30000c060000004e00098
:1029780009003a0010992000904078006fc060006c
:102988000080fb0080004000e096200000804000ae
:10299800100f780008003700109920009040780048
:1029a8006fc060000080fb0080004000409720005e
:1029b80000804000100f78001e007800900078001a
:1029c80000002800008060000000e0000c003200d9
:1029d8001e00780090007800004020000080600011
:1029e8000000e000080032005099200011c0b30038
:1029f8000148780005003700000000000300370098
:102a0800000000000100370000000000e14b8000da
:102a180000082000008060000000e000080032008c
:102a280050992000d04b8800e04b80000000a000a7
:102a3800e04b8800e097200021c0b30001487800ef
:102a48000080fa00000006000000fa00502580000f
:102a5800620060000000e0001300320020408000a7
:102a68009040900000c8b30080cf50000d003a009d
:102a7800a04b80009040900040c8b30080cf500029
:102a880008003a0020408000c1c0b30011409800ff
:102a98002040800021408000914090000174a000f7
:102aa80011409800aa24a90000082000502488009a
:102ab8000080fa00000006000000fa008284a800e6
:102ac800000120005024880010c0b3000de8b700b2
:102ad8001c68ef000001eb008000eb0050072000ad
:102ae800660a07000080fa00000006000000fa00ed
:102af8000d68ef000001eb008000eb0040072000ac
:102b08005e0a07008284a9000001200000248800d2
:102b18001c68ef000080fa00000006000000fa00c0
:102b2800d0c2b30011e8b7000ec8bf000080fb0098
:102b38000020a1000000e0001f003a000ec8bf00fe
:102b48000080fb004200de00004078000080fb00af
:102b5800c200dd0000a02000008040002040880066
:102b68002040800030408800304080000020a200d3
:102b780030408800204080009000780000c023008a
:102b88008080600000402300808f500008003a00d9
:102b98002040800010009000820020008000780013
:102ba800d098200038f907000b000700080037000c
:102bb8003d000700060037000ec8bf000080fb007c
:102bc8000020a100e80f500001003a005300070060
:102bd8000080fa00000006000000fa000868ef0014
:102be8001268ef001568ef001668ef001068ef0034
:102bf8000968ef00a04b8000a14b80009140900035
:102c08000174a10011409800a04b80000020a20090
:102c1800a04b8800a04b8000a14b80009140900001
:102c28000174a10011409800a04b80000020a20070
:102c3800a04b8800304080003140800091409000d7
:102c48000174a10011409800c09720008040eb005b
:102c5800014878000000eb00f04b88002098200025
:102c68008040eb00014878003098200090407800c0
:102c7800e0c060000148780040982000904078004b
:102c8800e0c0600001487800820007000001eb0006
:102c98008000eb0030002000f809070053fd070012
:102ca8000080fa00000006000000fa0009c8bf0012
:102cb800e24f500002003a00e3fd0700150037001c
:102cc8000968ef0010c8bf000004a2000004e0007b
:102cd8000f0032003040800081c0b3000148780006
:102ce80030408000d19820001100980030408000ca
:102cf800c1c0b300114098003040800031408000ce
:102d0800914090000174a000114098000100370024
:102d18001068ef000080fa00000006000200fa00c8
:102d2800a04b8000100078004e00de00614060007b
:102d3800004f7800a04b80000020a200a04b880024
:102d480000408000e80f50000e003a00f098200084
:102d5800104078008080fb00f007200000806000b1
:102d6800b0248800b02480000000e0000300320096
:102d780000012000004088000200370040002000c9
:102d88000040880009c8bf00e14f500025003a0004
:102d9800a04b800051992000110098006ffd07009a
:102da80008c8bf00e24f500009003a00a04b80005d
:102db80041c0b30011409800a04b8000a14b800097
:102dc800914090000174a000114098002f00370036
:102dd8001e4078000004e00009003a00a04b800083
:102de80081c4b30011409800a04b8000a14b800023
:102df800914090000174a000114098002300370012
:102e0800a04b800081c0b30011409800a04b800007
:102e1800a14b8000914090000174a00011409800df
:102e28001a003700209820009040780000c8b300ae
:102e380000c060000004e000130032005098200039
:102e48001080fb00619820009180fb00c808dd001d
:102e5800010070000000e0000700320050982000d8
:102e68001080fb00619820009180fb00c808dd00fd
:102e780001007000000001002098200090407800b8
:102e88000174a100014878000968ef000080fa0089
:102e9800000006000000fa00d098200010407800da
:102ea8000046b2000004e00050003a00e09820001c
:102eb800104078000080fb00cf80de00b2002000c8
:102ec80003002000820f5000838f580049003e0005
:102ed800006001002100370022003700470037005a
:102ee8002000370045003700060037000b00370088
:102ef800390037000d0037000a0037001b00370083
:102f08002a003700e04b80000070a000e04b8800ea
:102f18008000200000408800390037001bfe0700b1
:102f280037003700e1fd070035003700208020001a
:102f3800d04b8800e04b80000000a000e04b8800e8
:102f4800e097200011c0b30001487800e04b8000f2
:102f58000070a000e04b8800290037005afe0700e7
:102f680027003700280007002500370010992000a7
:102f7800104078008080fb00c09620000080400050
:102f8800d04b8800e04b80000000a000e04b880098
:102f9800e097200011c0b30001487800e04b8000a2
:102fa8000070a000e04b880015003700e04b80005f
:102fb8000070a000e04b88001099200010407800b5
:102fc8000080fb00f198200011417800c196200094
:102fd800827078000a0037000001eb008000eb00e7
:102fe8002000200025090700050037000000000028
:102ff8000300370000000000010037000000000057
:103008000080fa00000006000600fa00f098200090
:1030180010407800e14f500010003a00d09820008e
:10302800104078007f4060000004e0000b003a0088
:10303800e04b80000070a000e04b8800e098200082
:1030480010407800e34f500003003a0010c0b3006e
:103058000ce8b700010037000c68ef00f09820007a
:10306800104078000004e000f5003a00d0982000f5
:10307800104078007f406000e24f5000f0003a00b6
:1030880010992000104078006f4060000004e000b4
:10309800eb00320010992000904078006fc060006b
:1030a8000080fb00e20f5000e5003c00014080007a
:1030b80000022000808f5000e1003a00e04b8000c1
:1030c8000070a000e04b8800109920009040780024
:1030d80000c8b30000c060000004e00010003a001f
:1030e80010992000104178006f4061000080fb00bb
:1030f80080004000e096200000804000100f78001b
:1031080010992000904078006fc060000080fb009c
:10311800a198200061407800404798000f003700d0
:1031280010992000104178006f4061000080fb007a
:10313800800040004097200000804000100f780079
:1031480010992000904078006fc060000080fb005c
:103158007198200061407800404798004e409000e8
:10316800614060000004e00004003a001e0078009e
:103178000020a100000f7800030037001e0078002f
:103188000020a000000f78001099200090407800df
:1031980000c8b30000c060000004e0000a003a0064
:1031a80010992000104178006f4061000080fb00fa
:1031b8009e00780000014000e096200000004100d9
:1031c8000108780009003700109920009040780025
:1031d8006fc060000080fb009e0078000001400086
:1031e800409720000000410001087800e098200086
:1031f80010407800e34f50002c003a001e00780081
:103208009000780000002800008060000000e000c6
:1032180019003200109920009040780000c8b300cf
:1032280000c060000004e0000a003a001099200085
:10323800104178006f4061008080fb00a09820005a
:1032480000804000904078000114a00001487800f8
:103258000900370010992000904078006fc0600086
:103268008080fb007098200000804000904078002b
:103278000114a000014878001e007800104090005a
:10328800804078000124a0001e00780011409800ba
:103298001e00780010409000804078000174a00063
:1032a8001e00780011409800650037001e00780065
:1032b8000020a200000f78001e007800900078001f
:1032c80000002800008060000000e00011003200cb
:1032d8001e00780010409000804078000174a10022
:1032e8001e007800114098001e00780010409000e1
:1032f800804078000164a0001e007800114098000a
:10330800220020009e007800500020005b08070083
:10331800060037001e0078001040900080407800ba
:103328000164a0001e007800114098001e0078007b
:103338000020a200000f78004e409000624060001c
:103348000004e00006003a001e00780090007800b3
:1033580000002800008060000000e0002400320027
:10336800109920009040780000c8b30000c06000a9
:103378000004e0000a003a0010992000104178008b
:103388006f4061008080fb00a09820000080400012
:10339800904078000114a100014878000900370026
:1033a80010992000904078006fc060008080fb007a
:1033b8007098200000804000904078000114a1001f
:1033c800014878001e00780010409000b2c3b30096
:1033d800824060001e007800114098002200200002
:1033e8009e007800500020002408070006003700df
:1033f8001e00780010409000b2c3b3008240600005
:103408001e00780011409800a14a20001099200061
:10341800104178006f4061000080fb000000400010
:1034280000804000100798001e00900010407800af
:10343800804078000114a1001e0090000148780027
:103448000080fa00000006000000fa00c04080007a
:10345800d140800061004000e0804800c040880002
:10346800d14088000dc8bf000004a2000004e0009d
:10347800080032001cc8bf000040e8001ce8b70084
:103488001cc8bf000004e00002003a0000c0eb00c6
:103498001ce8b7000080fa00000006000400fa00eb
:1034a800c2408000d3408000028fbe00c040800030
:1034b800d14080001e01be00800f5100818f59004d
:1034c800f7ff3a001e00be000080fa000000060068
:1034d8006e01fa00e0ff2f00300798000000eb00b3
:1034e800400798006000b8005007980061079800ee
:1034f800ee0047001d0009008018eb006000b800ce
:1035080050279800612798000e017800e204b00067
:103518007a0009000019eb000000eb00000f7800aa
:103528000000eb00202799006000b8001007980001
:10353800210798003f080700f4e2a800f4c2a80099
:10354800e4e2a8000000000000408000ff0f5000e7
:10355800fdff360040248000620060000000e000ab
:10356800f9ff3a00f4e2a900f4c2a800010037000c
:1035780000000000660047009f040700f7020700ec
:103588006a004700fb040700a00420000e0040006a
:10359800f80407006000b800100798002107980099
:1035a8003e009000e10f400005003a006800470027
:1035b8008000780000892800760407008a01370017
:1035c8003e009000e10f500035003a00e4e2a80008
:1035d800f4c2a800f4e2a9002e2091000000e00047
:1035e80006003a00401420000e00400080007800d9
:1035f800b0032000160607007b0137002e2091003b
:10360800e10f500078013a00601420000e004000dd
:10361800b1032000220607003e219100ce2191002f
:1036280012079800230798000000eb002027990054
:103638006a004700000178001e009000ae0090006c
:103648009a030700a00420000e004000a2002000fa
:10365800c18928008cf60700ea004700a004200072
:103668000e00400096f60700a00420000e0040005f
:10367800a3f60700a10420008e80400000804000cf
:10368800e2002000618a28007ff60700e800470072
:10369800a00420000e0040003e040700520137003d
:1036a8003e009000e20f500038003a002e209100b2
:1036b8000000e00006003a00401420000e00400020
:1036c80080007800f0032000e1050700460137007c
:1036d8002e209100e10f500043013a00a015200070
:1036e8000e004000f1032000ed05070063142000e0
:1036f80083014700a1152000810047000900090047
:10370800b11978003e219100ce219100120798004e
:10371800230798000000eb00202799006a00470063
:10372800000178001e009000ae0090005f030700c3
:10373800a00420000e004000f2002000418b280069
:1037480051f60700ea004700a00420000e004000e0
:103758005bf60700a00420000e00400068f6070092
:10376800a10420008e80400000804000a2002000bc
:10377800318c280044f60700e8004700a004200028
:103788000e00400003040700170137003e009000b8
:10379800e30f500038003a002e2091000000e000ae
:1037a80006003a00401420000e0040008000780017
:1037b800a0032000a60507000b0137002e2091006a
:1037c800e10f500008013a00a01520000e0040004b
:1037d800a1032000b20507006314200083014700fd
:1037e800a11520008100470009000900b1197800df
:1037f8003e219100ce2191001207980023079800de
:103808000000eb00202799006a00470000017800bb
:103818001e009000ae00900024030700a0042000c2
:103828000e004000b2002000d18c280016f60700d8
:10383800ea004700a00420000e00400020f6070020
:10384800a00420000e0040002df60700a10420006f
:103858008e8040000080400062002000818d28009a
:1038680009f60700e8004700a00420000e00400009
:10387800c8030700dc0037003e009000e40f50004a
:1038880038003a002e2091000000e00006003a00bf
:10389800401420000e00400080007800d003200073
:1038a8006b050700d00037002e209100e10f500073
:1038b800cd003a00a01520000e004000d1032000e2
:1038c800770507006314200083014700a115200035
:1038d8008100470009000900b11978003e219100d4
:1038e800ce21910012079800230798000000eb00f2
:1038f800202799006a004700000178001e00900008
:10390800ae009000e9020700a00420000e0040006d
:10391800b2002000e18d2800dbf50700ea0047002f
:10392800a00420000e004000e5f50700a0042000d8
:103938000e004000f2f50700a10420008e80400030
:103948000080400062002000918e2800cef507001c
:10395800e8004700a00420000e0040008d03070087
:10396800a10037003e009000e50f50009e003a008d
:103978002e2091000000e00006003a0040142000cc
:103988000e0040008000780040032000300507004a
:10399800950037002e209100e10f500092003a0068
:1039a8000000eb0020279900a01520000e00400021
:1039b800410320003a0507006314200083014700f3
:1039c800a11520008100470009000900b1197800fd
:1039d800a00420000e004000d2002000f18e280034
:1039e800a9f507003e209100ce2091006011b80093
:1039f800b5f407000000e0000a003a00a004200027
:103a08000e004000bef50700a10420008e80400093
:103a18000080400012012000c18f28009af507009d
:103a280009003700a00420000e004000b4f507008c
:103a3800a10420008e804000008040000201200088
:103a4800d190280090f507005e209100ee209100ab
:103a58006011b8009cf407000000e0000a003a007a
:103a6800a00420000e004000a5f50700a1042000d6
:103a78008e80400000804000f2002000d191280094
:103a880081f5070009003700a00420000e0040005f
:103a98009bf50700a10420008e80400000804000b4
:103aa800e2002000c192280077f507007e209100ef
:103ab8008e2891006011b80083f407000000e00030
:103ac8000a003a00a00420000e0040008cf5070010
:103ad800a10420008e80400000804000f2002000f9
:103ae800a193280068f5070009003700a00420000a
:103af8000e00400082f50700a10420008e804000df
:103b080000804000e2002000919428005ef5070044
:103b18001e289100ae2891006011b8006af40700d1
:103b28000000e0000a003a00a00420000e00400057
:103b380073f50700a10420008e804000008040003b
:103b480022012000719528004ff507000900370071
:103b5800a00420000e00400069f50700a104200021
:103b68008e804000008040001201200091962800bd
:103b780045f507003e289100ce2891006011b80055
:103b880051f407000000e0000a003a00a0042000f9
:103b98000e0040005af50700a10420008e80400066
:103ba8000080400032012000a197280036f5070068
:103bb80009003700a00420000e00400050f507005f
:103bc800a10420008e8040000080400022012000d7
:103bd800d19828002cf50700e8004700a004200031
:103be8000e004000eb0207004e009000e10f50006d
:103bf8005ffe3a00e0ff2f00300798000000eb005e
:103c0800400798005bfe37000000fa00d0982000bb
:103c1800104078007f406000e14f500078003a0083
:103c2800d09820001040780002c6b300824060009f
:103c380000c2b30080cf500073003a0010992000f2
:103c4800104078000004e0000400320010992000c1
:103c580010407800e14f50006d003a00e0982000d5
:103c6800104078000080fb0001022000810f500006
:103c78002000320001022000810f500005003c00a6
:103c88000000e0000a003200e10f5000130032008b
:103c98006000370011022000810f500043003200fd
:103ca80021022000810f50004800320059003700df
:103cb800408e2000d04b880080002000f04b880008
:103cc800e04b80000000a000e04b8800e04b800043
:103cd8000070a000e04b88004e003700408e2000a6
:103ce800d04b8800e04b80000070a000e04b8800bb
:103cf80048003700309920001080fb0041992000cf
:103d08009180fb00c808dd0001007000f10f200061
:103d1800010160003198200091417800e0c1610004
:103d280002c1710082487800c800de004098200077
:103d380010417800604161008140710001487800bd
:103d4800208d2000f10f2000010160000198200063
:103d580091417800e0c1610002c171008248780099
:103d6800c800de0010982000104178006041610012
:103d780081407100014878005098200090407800f8
:103d8800e0c060000148780060982000904078000a
:103d9800e0c060000148780020982000904078003a
:103da8000174a000014878001a003700208d200017
:103db800d04b880070002000f04b8800c09720008e
:103dc80011ccb3000148780012003700f0982000a9
:103dd8001080fb00019920009180fb00c808dd00dd
:103de80001007000004078002ae8b700e04b80002e
:103df8000070a000e04b88000000000005003700bc
:103e08000000000003003700000000000100370038
:103e1800000000000080fa00000006000000fa0020
:103e280000b024000100200090468800a1468800c8
:103e3800608d20008040eb0001487800708d2000e4
:103e48008040eb0001487800808d200081c0b300dd
:103e5800014878001e68ef0051c1b30010c0b300dc
:103e68000ff70700d1c1b30020c0b3000cf707005b
:103e780003c4b300228920008040eb0020c0b300b7
:103e880024f70700304188002828ef001f68ef005a
:103e98000080fa00000006000600fa00000f780013
:103ea80011079800220798001e007800e50f5000bf
:103eb80012003a00304180009e009000808f500030
:103ec80006003a0003c4b300228920008040eb00ba
:103ed80020c0b3000ff70700304188004041800040
:103ee8009e009000808f500002003a001f68ef008b
:103ef8002468ef0010c0b300010037000040eb0059
:103f08000080fa00000006000400fa00000f7800a4
:103f1800214798001e68ef00304180000000e00053
:103f28000600320030418000900078000000280030
:103f3800008060000000e00021003a00304180006d
:103f4800904078002e40900080cf50000300310050
:103f58003041800090407800214798001e68ef00ab
:103f68000c0037001ec8bf000080fb001e00400088
:103f7800e1812000914078008180fb0022892000a7
:103f8800e2c07800014878001ec8bf000040e80081
:103f98001ee8b700e1812000914078002e40900093
:103fa80080cf5000efff390003c4b30022892000fe
:103fb8008040eb0020c0b300d6f6070030418800ef
:103fc8001ec8bf000080fa00000006000400fa00c6
:103fd800000f7800214798009ec0a9001fc8bf00a5
:103fe8000004e00009003a009e00780001418800c2
:103ff800ae409000428220000149780010c0b30012
:1040080025e8b70010c0b3001fe8b7009ec0a8009d
:104018000080fa00000006000600fa002007980059
:104028009ec0a9001fc8bf000004e00002003200c3
:104038009ec0a8001f0037000040eb00004f78002a
:10404800ae009000110798001e4fe8001e4078004f
:10405800e14f40000c0032001e0090001040780034
:104068000080fb000000ea004f00de0000407800fe
:104078009e0090008100e800110798000004e0000d
:10408800f1ff3a0001003700000000002e00900008
:10409800004188009e407800428220000149780053
:1040a80010c0b30025e8b70010c0b3001fe8b70080
:1040b8009ec0a8000080fa00000006000600fa0072
:1040c800200798009ec0a9001fc8bf000004e00098
:1040d800020032009ec0a8001e0037000040eb001e
:1040e800004f7800ae009000110798001e4fe800be
:1040f8001e407800e14f40000c0032001e00900086
:10410800104078000080fb000000ea004f00de004d
:10411800004078009e0090008100e8001107980098
:104128000004e000f1ff3a00010037000000000041
:104138002e009000004188009e40780042822000b6
:10414800014978002568ef0010c0b3001fe8b700e8
:104158009ec0a8000080fa00000006000200fa00d5
:104168009ec0a900404180000000e0000800320025
:104178004041800090007800000028000080600026
:104188000000e000020032009ec0a8006200370074
:104198001fc8bf00e34f500001003a001f68ef003e
:1041a8001fc8bf000004e00002003a009ec0a8003b
:1041b800590037001fc8bf00e24f500009003a00fd
:1041c8008041eb000001eb0011c0b30020c0b30038
:1041d80050f607004041880030c0b3001fe8b70020
:1041e8004c0037001fc8bf00e14f500049003a009b
:1041f800418220009140780000c4b30080cf500075
:104208000300360000c4b300004f780003003700f5
:104218004182200091407800014f780024c8bf00f7
:104228001e40500024e8b700208520001041880077
:104238009e4078001147980025c8bf000004e000a0
:104248001f003a000d003700104180000141800036
:104258009140780001487800104180000000e80093
:1042680010418800004180000000e80000418800fb
:104278001e4090000040e900104798001e40900042
:104288000004e000f0ff3a00100037001041800001
:104298000141800091407800014878001041800079
:1042a8000000e80010418800004180000000e8009c
:1042b800004188001e4090000040e9001047980027
:1042c8001e4090000004e000f0ff3a0024c8bf0040
:1042d8000004e00009003a0000c4b3009e407800e2
:1042e80080cf500003003a0020c0b3001fe8b70099
:1042f8000200370030c0b3001fe8b7009e417800c5
:104308002285200011c0b30020c0b30001f60700c9
:10431800404188009ec0a8000080fa000000060006
:104328005e00fa00602f9800c0a428005a00090017
:10433800305f7800be05b100b005b1008e0078008e
:104348006e28900068f307000080fa00000006005d
:104358003600fa00201f980070aa280032000900d1
:10436800305f78003e03b1003003b1008e00780062
:104378002e1890005cf307000080fa000000060089
:104388002800fa0030179800e400470004000900ec
:104398008018eb008058eb0000c3b300404798003a
:1043a80010c3b3005047980020c3b300604798007b
:1043b80030c3b3007047980040c3b300004f980063
:1043c80050c3b300104f980060c3b300204f98004b
:1043d80070c3b300304f980080c3b300404f9800bb
:1043e80090c3b300504f9800f00047000a0009003e
:1043f8008018eb0010002000100f9800200020000b
:10440800200f980030002000300f98004000200056
:10441800400f980050002000500f980060002000c6
:10442800600f980070002000700f98008000200036
:104438000017980090002000101798000000eb006b
:10444800000f78000000eb00100798000000eb0058
:10445800000f78000f003700640047001e0040007e
:10446800104078008000fb003e109000104078005b
:104478000080fb00808f500005003a001e00780085
:1044880000004000000047008008900011079800d5
:104498001e0fe8001e007800ea0f5000eeff3600fd
:1044a8001e0090000080fa00000006002600fa00b6
:1044b8000017980011179800221798000000eb00c9
:1044c800300798000000eb00400798000000eb0060
:1044d800000f78000000eb00100798000000eb00c8
:1044e80020079800ea004700040009008018eb0044
:1044f8008058eb0000c3b300204f980010c3b300ee
:10450800304f980020c3b300404f980030c3b30029
:10451800504f980040c3b300604f980050c3b30099
:10452800704f980060c3b3000057980070c3b30081
:104538001057980080c3b3002057980090c3b30069
:1045480030579800f5004700050009008058eb0037
:10455800fb004700040009008058eb00e800470012
:104568006600470081017800000178000e10900075
:104578009e109000df0007003e0090000000e00061
:10458800490032000040eb00205f9800be00900018
:10459800d0cc2c000008b8004308de00000f7800db
:1045a8001e0078006a00b900000078001007980023
:1045b800be0090001e0090000080500000004700e0
:1045c80020489000105f98009e007800d0cc2c0006
:1045d8000008b8004308de006a00b900000078004f
:1045e800100798001e0090001e00100000004700f1
:1045f80020489000005f98009e007800d0cc2c00e6
:104608000008b8004308de00000f78009e0078001c
:10461800d0cc2c000008b8004308de006a00b900be
:1046280000007800100798001e0090001e0010007f
:104638000000470020489000705798009e007800be
:10464800d0cc2c000008b8004308de00000f78002a
:104658009e007800d0cc2c000008b8004308de008b
:104668006a00b90000007800100798001e0090004a
:104678001e00100000004700204890006057980076
:104688009e007800d0cc2c000008b8004308de005b
:10469800000f78006a0047001e00400010407800b4
:1046a800505798000200370000c3b30050579800d5
:1046b8004e0090000000e0002c0032000040eb00ab
:1046c800705f98000000eb00000f78000000eb001e
:1046d80010079800ce009000d0cc2c000008b8003d
:1046e8004308de00000f78001e0078006a00b90059
:1046f8000000780010079800ce0090001e0090007f
:10470800008050000000470020489000605f98003b
:104718009e007800d0cc2c000008b8004308de00ca
:104728006a00b90000007800100798001e00900089
:104738001e0010000000470020489000505f9800bd
:104748009e007800d0cc2c000008b8004308de009a
:10475800000f78006a0047001e00400010407800f3
:10476800405f9800c0c2b300305f980075004700f2
:10477800800078002e1090005bf207007b00470055
:10478800800078002e1090004df207000080fa009b
:10479800000006000001fa0060bf980071bf980091
:1047a8000000eb00000f78006000b80010079800c8
:1047b80021079800e60047007a0009008018eb00fe
:1047c8000e80e800eeb8900047f207001fc8bf004f
:1047d8000004e00006003a000e80e800a1cfb30014
:1047e800fafd07007eb8900011002000010878004b
:1047f8000080fa0000000600fa01fa0040bf9900a4
:104808000000eb00100798000000eb00000f780094
:104818001fc8bf000004e00034003a0064004700ed
:10482800a1cfb300b8fd07000080fb001007980077
:104838000000eb00000f7800190037006400470003
:104848001e00400010407800ed4f50000c003a0068
:104858004eb891008080eb0001087800f4e2a800cf
:10486800f4c2a800e4e2a900e00f20000e00400016
:104878001e004000a1c0b3000148780007003700bf
:10488800640047001e00400090407800e00f2000c0
:104898000e0040001e004000014878001e0fe8008e
:1048a8001e0090009e007800808f5000e3ff3900c2
:1048b8001e0090000000e0000c0032001e00900076
:1048c80080407800e00f20000e004000bffd070088
:1048d8004e409000ed4f5000040032006400470045
:1048e800a7fe0700ceb89100800878000080fa0083
:1048f800000006000800fa00889fbe00008fbe0076
:1049080022079800330798001e00be00f0f0070049
:10491800800078002e009000010878000200200036
:10492800a34724001e00be0059f107000004be0082
:104938002e00900090007800803e20000088b9008a
:10494800000078008000eb00fcf007000001be00ca
:104958000800be003cf00700ddf00700800078008a
:104968003e009000010878004f04be000080fa0065
:10497800000006000400fa00100798000000eb0091
:10498800000f78000000eb00000f780006003700e9
:104998001e0090001e004000a1ad28008140780054
:1049a800014878001e0fe8001e007800e10f500053
:1049b800f7ff36000080fa00000006000000fa0049
:1049c800a60007000cc8bf000004e0000100320088
:1049d8000dc8bf000040fe005124800000022000e6
:1049e800008060000000e00002003a0010c0b30040
:1049f80041000700d200070010c0b3000080fa0091
:104a0800000006000000fa000cc8bf000004e00027
:104a1800360032000dc8bf000004e0003300320049
:104a280040248000620060000000e00001003200c5
:104a38008824a900750007000004200000248800cd
:104a480000000000012480000004200000806000b5
:104a58000000e000fbff3200000420000024880072
:104a68000000000001248000000420000080600095
:104a78000000e000fbff3200000420000024880052
:104a88000000000001248000000420000080600075
:104a98000000e000fbff32009444a800000420005e
:104aa8000024880000000000012480000004200089
:104ab800008060000000e000fbff320000042000de
:104ac8000024880000000000012480000004200069
:104ad800008060000000e000fbff32009444a90061
:104ae8005700070010c0b300010037000040eb007a
:104af8000080fa00000006000400fa002047980031
:104b080040248000610060000000e0000b003200db
:104b180040248000620060000000e00007003a00c6
:104b28001cc8bf00e34f500004003600202480005a
:104b38004300de0061406000320037002e409000e4
:104b48000004e0001d0032008824a9008804a800a1
:104b58002e0007000040eb00004f780009003700e6
:104b680000042000002488000000000001248000c8
:104b780000042000008060000000e000fbff32001d
:104b88001e4fe8001e407800e44f5000f4ff360046
:104b98000040eb0010479800202480006800600067
:104ba8000000e0000200320010c0b3001047980077
:104bb800230007001e4090001200370040248000a8
:104bc800610060000000e00002003a0000c0eb0055
:104bd8000c00370040248000620060000000e00004
:104be80002003a00e0cfb300060037001cc8bf003f
:104bf800e34f500002003e00d0cfb3000100370061
:104c0800c0cfb3000080fa00000006000000fa00e0
:104c18004868ef001000fc00f10480000004200048
:104c2800008060000000e0000200320010c0b30005
:104c380048e8b7009ec0a9000080fa0000000600fe
:104c48000000fa0048c8bf000004e000010032007c
:104c58009ec0a8000080fa00000006000400fa00c8
:104c68001e00fc0011028000000e20000080600081
:104c78000042880011028000000e20000100700030
:104c88001002880040092000100798000000eb007f
:104c9800000f78000e0037001e009000900078008a
:104ca8001e00780000014000e09b20000000410049
:104cb800010878001e0090008000eb0001087800d1
:104cc8001e0090000080e800100798001e0fe80002
:104cd8001e007800e70f5000efff360060248000c8
:104ce800104288008c24ef001024800020428800a5
:104cf8008224ef00700680004800de0067406000f4
:104d08000080fb0030428800000120000024880059
:104d180000022000502488008ec0a9008284a800c8
:104d280071068000f08f2f000080600000a0a000b6
:104d3800700688009ec0a8000080fa0000000600e7
:104d48000400fa0040092000100798000000eb005a
:104d5800000f78000b0037001e007800800040002c
:104d6800e09b200000804000900078001e0090002a
:104d7800010878001e0090000080e80010079800e5
:104d88001e0fe8001e007800e70f5000f2ff360003
:104d9800104280006024880020428000102488008f
:104da8003042800000407800674060000080fb00cf
:104db800670060004800dd0072068000f18f2f0058
:104dc80081006100010070007006880011028000f7
:104dd800f0f12f0080806000004280000100700028
:104de8000042880000428000100288000080fa001b
:104df800000006000000fa00d009200020108800fa
:104e080007e2a80007a2a9000782a9000762a90073
:104e18000742a9000722a9000702a80006e2a80085
:104e280006c2a90006a2a9000682a9000662a90076
:104e38000642a9000622a9000602a9000822ef00de
:104e48008620a9009620a8000080fa00000006002d
:104e58000400fa00000f7800110798004110800044
:104e680000002400008060000000e0000a003a0012
:104e780010002000c04188009e007800a1418800f1
:104e88009e009000e14188001e0090002100200053
:104e9800010878000602a8000080fa000000060059
:104ea8001800fa00889fbe008a1f78000005780065
:104eb800310f98000000eb00000f78006000b80088
:104ec80010079800210798006000b8003007980084
:104ed800410798006000b8005007980061079800e3
:104ee8006000b80070079800010f98006000b800d3
:104ef800100f9800210f9800904180004800dd00b5
:104f0800000f7800804180001e0f7000be089000de
:104f1800a0032000808f500009003a001e0078008e
:104f28008000eb0085ef070092a7290093942300e7
:104f3800d7ef070010079800210798008b0037006b
:104f4800be089000b0032000808f5000040032009b
:104f5800be089000c0032000808f500009003a006e
:104f68001e0078008000eb0074ef0700421b200051
:104f780083ad2300c6ef07001007980021079800ab
:104f88007a003700be089000d0032000808f5000c0
:104f98000c003a001e0078008000eb0067ef070065
:104fa800d2c82900435c2300b9ef0700f22621008c
:104fb80033c8230002ef0700100798002107980064
:104fc8006a003700be089000e0032000808f500080
:104fd8000c003a001e0078008000eb0057ef070035
:104fe800d2c82900435c2300a9ef0700f22621005c
:104ff80033d02300f2ee070010079800210798002d
:105008005a003700be089000f0032000808f50003f
:105018000a003a0060112d001e0040008000eb00dd
:1050280046ef07006266260063232400e4ee0700cb
:1050380010079800210798004c003700be08900020
:1050480000042000808f500011003a001e007800f4
:105058008000eb0039ef070002002400c361240040
:105068008bef07000004be00505525001e005000bd
:105078008000eb0031ef07000001be000800be0011
:10508800cfee070010079800210798003700370077
:10509800be08900030042000808f50000d003a00b8
:1050a8006000b80010079800210798001e007800db
:1050b8000000e000030032000000200001f8230097
:1050c800010037006000b8003007980041079800d9
:1050d80026003700be08900040032000808f500053
:1050e80022003a00001020001e0060004800de0088
:1050f8008000eb0011ef07001007980021079800c7
:10510800000820001e0060004700de008000eb0061
:105118000aef0700300798004107980000042000b4
:105128001e0060004600de008000eb0003ef070071
:1051380050079800610798009e0078006280600020
:105148000000d1008000eb00fcee0700700798001b
:10515800010f98009e007800618060008000eb00dd
:10516800f6ee0700100f9800210f98003228ef0084
:105178003028ef00e200470009000900311d7800df
:105188004a01b1000a0078004f0578004f04be00bc
:105198000080fa00000006000600fa00000f780000
:1051a8001107980022079800ae009000f14188008e
:1051b8004110800000002400008060000000e00032
:1051c8000c003a0010002000d04188009e007800b2
