:020000040000fa
:080000000002040000000000f2
:020000040000fa
:040008002a050000c5
:020000040000fa
:04000c0008050000e3
:020000040000fa
:040010001a050000cd
:020000040000fa
:0400140010050000d3
:020000040000fa
:0400180022050000bd
:020000040000fa
:04001c002a050000b1
:020000040000fa
:040020002a050000ad
:020000040000fa
:040024002a050000a9
:020000040000fa
:040028002a050000a5
:020000040000fa
:04002c002a050000a1
:020000040000fa
:040030002a0500009d
:020000040000fa
:040034002a05000099
:020000040000fa
:040038002a05000095
:020000040000fa
:04003c002a05000091
:020000040000fa
:040040002a0500008d
:020000040000fa
:040044002a05000089
:020000040000fa
:040048002a05000085
:020000040000fa
:04004c002a05000081
:020000040000fa
:040050002a0500007d
:020000040000fa
:040054002a05000079
:020000040000fa
:040058002a05000075
:020000040000fa
:04005c002a05000071
:020000040000fa
:040060002a0500006d
:020000040000fa
:040064002a05000069
:020000040000fa
:040068002a05000065
:020000040000fa
:04006c000803000085
:020000040000fa
:040070002a0500005d
:020000040000fa
:040074002a05000059
:020000040000fa
:040078002a05000055
:020000040000fa
:04007c002a05000051
:020000040000fa
:040080002a0500004d
:020000040000fa
:040084002a05000049
:020000040000fa
:040088002a05000045
:020000040000fa
:04008c002a05000041
:020000040000fa
:040090002a0500003d
:020000040000fa
:040094002a05000039
:020000040000fa
:040098002a05000035
:020000040000fa
:04009c002a05000031
:020000040000fa
:0400a0002a0500002d
:020000040000fa
:0400a4002a05000029
:020000040000fa
:0400a8002a05000025
:020000040000fa
:0400ac002a05000021
:020000040000fa
:0400b0002a0500001d
:020000040000fa
:0400b4002a05000019
:020000040000fa
:0400b8002a05000015
:020000040000fa
:0400bc002a05000011
:020000040000fa
:0400c0002a0500000d
:020000040000fa
:0400c4002a05000009
:020000040000fa
:0400c8002a05000005
:020000040000fa
:0400cc002a05000001
:020000040000fa
:0400d0002a050000fd
:020000040000fa
:0400d4002a050000f9
:020000040000fa
:0400d8002a050000f5
:020000040000fa
:0400dc002a050000f1
:020000040000fa
:0400e0002a050000ed
:020000040000fa
:0400e4002a050000e9
:020000040000fa
:0400e8002a050000e5
:020000040000fa
:0400ec002a050000e1
:020000040000fa
:0400f0002a050000dd
:020000040000fa
:0400f4002a050000d9
:020000040000fa
:0400f8002a050000d5
:020000040000fa
:0400fc002a050000d1
:020000040000fa
:040100002a050000cc
:020000040000fa
:040104002a050000c8
:020000040000fa
:040108002a050000c4
:020000040000fa
:04010c002a050000c0
:020000040000fa
:040110002a050000bc
:020000040000fa
:040114002a050000b8
:020000040000fa
:040118002a050000b4
:020000040000fa
:04011c002a050000b0
:020000040000fa
:040120002a050000ac
:020000040000fa
:040124002a050000a8
:020000040000fa
:040128002a050000a4
:020000040000fa
:04012c002a050000a0
:020000040000fa
:040130002a0500009c
:020000040000fa
:040134002a05000098
:020000040000fa
:040138002a05000094
:020000040000fa
:04013c002a05000090
:020000040000fa
:040140002a0500008c
:020000040000fa
:040144002a05000088
:020000040000fa
:040148002a05000084
:020000040000fa
:04014c002a05000080
:020000040000fa
:040150002a0500007c
:020000040000fa
:040154002a05000078
:020000040000fa
:040158002a05000074
:020000040000fa
:04015c002a05000070
:020000040000fa
:040160002a0500006c
:020000040000fa
:040164002a05000068
:020000040000fa
:040168002a05000064
:020000040000fa
:04016c002a05000060
:020000040000fa
:040170002a0500005c
:020000040000fa
:040174002a05000058
:020000040000fa
:040178002a05000054
:020000040000fa
:04017c002a05000050
:020000040000fa
:04018000dc0400009b
:020000040000fa
:040184002a05000048
:020000040000fa
:040188002a05000044
:020000040000fa
:04018c002a05000040
:020000040000fa
:040190002a0500003c
:020000040000fa
:040194002a05000038
:020000040000fa
:040198002a05000034
:020000040000fa
:04019c002a05000030
:020000040000fa
:0401a0002a0500002c
:020000040000fa
:0401a4002a05000028
:020000040000fa
:0401a8002a05000024
:020000040000fa
:0401ac002a05000020
:020000040000fa
:0401b0002a0500001c
:020000040000fa
:0401b4002a05000018
:020000040000fa
:0401b8002a05000014
:020000040000fa
:0401bc002a05000010
:020000040000fa
:0401c0002a0500000c
:020000040000fa
:0401c4002a05000008
:020000040000fa
:0401c8002a05000004
:020000040000fa
:0401cc002a05000000
:020000040000fa
:0401d0002a050000fc
:020000040000fa
:0401d4002a050000f8
:020000040000fa
:0401d8002a050000f4
:020000040000fa
:0401dc002a050000f0
:020000040000fa
:0401e0002a050000ec
:020000040000fa
:0401e4002a050000e8
:020000040000fa
:0401e8002a050000e4
:020000040000fa
:0401ec002a050000e0
:020000040000fa
:0401f0002a050000dc
:020000040000fa
:0401f4002a050000d8
:020000040000fa
:0401f8002a050000d4
:020000040000fa
:0401fc002a050000d0
:020000040000fa
:040208002a050000c3
:020000040000fa
:04020c0008050000e1
:020000040000fa
:040210001a050000cb
:020000040000fa
:0402140010050000d1
:020000040000fa
:0402180022050000bb
:020000040000fa
:04021c002a050000af
:020000040000fa
:040220002a050000ab
:020000040000fa
:040224002a050000a7
:020000040000fa
:040228002a050000a3
:020000040000fa
:04022c002a0500009f
:020000040000fa
:040230002a0500009b
:020000040000fa
:040234002a05000097
:020000040000fa
:040238002a05000093
:020000040000fa
:04023c002a0500008f
:020000040000fa
:040240002a0500008b
:020000040000fa
:040244002a05000087
:020000040000fa
:040248002a05000083
:020000040000fa
:04024c002a0500007f
:020000040000fa
:040250002a0500007b
:020000040000fa
:040254002a05000077
:020000040000fa
:040258002a05000073
:020000040000fa
:04025c002a0500006f
:020000040000fa
:040260002a0500006b
:020000040000fa
:040264002a05000067
:020000040000fa
:040268002a05000063
:020000040000fa
:04026c000803000083
:020000040000fa
:040270002a0500005b
:020000040000fa
:040274002a05000057
:020000040000fa
:040278002a05000053
:020000040000fa
:04027c002a0500004f
:020000040000fa
:040280002a0500004b
:020000040000fa
:040284002a05000047
:020000040000fa
:040288002a05000043
:020000040000fa
:04028c002a0500003f
:020000040000fa
:040290002a0500003b
:020000040000fa
:040294002a05000037
:020000040000fa
:040298002a05000033
:020000040000fa
:04029c002a0500002f
:020000040000fa
:0402a0002a0500002b
:020000040000fa
:0402a4002a05000027
:020000040000fa
:0402a8002a05000023
:020000040000fa
:0402ac002a0500001f
:020000040000fa
:0402b0002a0500001b
:020000040000fa
:0402b4002a05000017
:020000040000fa
:0402b8002a05000013
:020000040000fa
:0402bc002a0500000f
:020000040000fa
:0402c0002a0500000b
:020000040000fa
:0402c4002a05000007
:020000040000fa
:0402c8002a05000003
:020000040000fa
:0402cc002a050000ff
:020000040000fa
:0402d0002a050000fb
:020000040000fa
:0402d4002a050000f7
:020000040000fa
:0402d8002a050000f3
:020000040000fa
:0402dc002a050000ef
:020000040000fa
:0402e0002a050000eb
:020000040000fa
:0402e4002a050000e7
:020000040000fa
:0402e8002a050000e3
:020000040000fa
:0402ec002a050000df
:020000040000fa
:0402f0002a050000db
:020000040000fa
:0402f4002a050000d7
:020000040000fa
:0402f8002a050000d3
:020000040000fa
:0402fc002a050000cf
:020000040000fa
:040300002a050000ca
:020000040000fa
:040304002a050000c6
:020000040000fa
:040308002a050000c2
:020000040000fa
:04030c002a050000be
:020000040000fa
:040310002a050000ba
:020000040000fa
:040314002a050000b6
:020000040000fa
:040318002a050000b2
:020000040000fa
:04031c002a050000ae
:020000040000fa
:040320002a050000aa
:020000040000fa
:040324002a050000a6
:020000040000fa
:040328002a050000a2
:020000040000fa
:04032c002a0500009e
:020000040000fa
:040330002a0500009a
:020000040000fa
:040334002a05000096
:020000040000fa
:040338002a05000092
:020000040000fa
:04033c002a0500008e
:020000040000fa
:040340002a0500008a
:020000040000fa
:040344002a05000086
:020000040000fa
:040348002a05000082
:020000040000fa
:04034c002a0500007e
:020000040000fa
:040350002a0500007a
:020000040000fa
:040354002a05000076
:020000040000fa
:040358002a05000072
:020000040000fa
:04035c002a0500006e
:020000040000fa
:040360002a0500006a
:020000040000fa
:040364002a05000066
:020000040000fa
:040368002a05000062
:020000040000fa
:04036c002a0500005e
:020000040000fa
:040370002a0500005a
:020000040000fa
:040374002a05000056
:020000040000fa
:040378002a05000052
:020000040000fa
:04037c002a0500004e
:020000040000fa
:04038000dc04000099
:020000040000fa
:040384002a05000046
:020000040000fa
:040388002a05000042
:020000040000fa
:04038c002a0500003e
:020000040000fa
:040390002a0500003a
:020000040000fa
:040394002a05000036
:020000040000fa
:040398002a05000032
:020000040000fa
:04039c002a0500002e
:020000040000fa
:0403a0002a0500002a
:020000040000fa
:0403a4002a05000026
:020000040000fa
:0403a8002a05000022
:020000040000fa
:0403ac002a0500001e
:020000040000fa
:0403b0002a0500001a
:020000040000fa
:0403b4002a05000016
:020000040000fa
:0403b8002a05000012
:020000040000fa
:0403bc002a0500000e
:020000040000fa
:0403c0002a0500000a
:020000040000fa
:0403c4002a05000006
:020000040000fa
:0403c8002a05000002
:020000040000fa
:0403cc002a050000fe
:020000040000fa
:0403d0002a050000fa
:020000040000fa
:0403d4002a050000f6
:020000040000fa
:0403d8002a050000f2
:020000040000fa
:0403dc002a050000ee
:020000040000fa
:0403e0002a050000ea
:020000040000fa
:0403e4002a050000e6
:020000040000fa
:0403e8002a050000e2
:020000040000fa
:0403ec002a050000de
:020000040000fa
:0403f0002a050000da
:020000040000fa
:0403f4002a050000d6
:020000040000fa
:0403f8002a050000d2
:020000040000fa
:0403fc002a050000ce
:020000040000fa
:100400000fa320000e7f22000e01880000000000d4
:10041000000020000000e000020032000001200087
:1004200020028800140007008c0107000000e00093
:1004300003003a00001124000100200002003700f0
:100440000000200001002000810f70000100320038
:1004500014000700000020000000e000020032004d
:100460000000020000000000620e02000000000018
:100470000040da000000fe004440a9004057200080
:100480000000e000030032000020200090018800fe
:100490004440a800000006008a1f78008b1f7800e7
:1004a00000000600a1028800800478000000eb0034
:1004b0001f003700e284440054a0b4009905ba003c
:1004c000e284440054a0b4009906ba00e2844400d7
:1004d00054a0b4000006eb00476fde00fd07b20039
:1004e000ae018800636ce10003003a00eaff0700f8
:1004f0000000eb000e003700606ce10008003a00dd
:10050000004deb000a05e800020039003420ec0041
:100510000af0a0008b05e900f9ff3e000400370057
:100520006168e100010032000086eb000b0007006b
:1005300019c7ba001905ba000e04e00003003a001a
:100540000a00e000dbff3a0000000600fe07b200f0
:10055000ae0288008a047800f5ff37000cd0a300b3
:10056000e20f4d001c00390089027800354dba00b9
:100570000a05e800020039003420ec000af0a0006f
:100580008b05e9000f003200254dba000a05e8008e
:10059000020039003420ec000af0a0008b05e900cd
:1005a000080032000c00e0000600320015cdba0051
:1005b0000a05e800020039003420ec000af0a0002f
:1005c0008b05e9008984e80054a0b4000b00e0002a
:1005d000e2ff3a00000006009902ba00055d7800cb
:1005e0008b05e900f7ff3200c82ade00055d7800c0
:1005f0008b05e900f3ff32000c00e000f1ff320050
:1006000019ddba00eeff3700a21e04000000000052
:10061000809fbe000000fa009620a9008620a90055
:10062000204180000000e800204188003041800027
:10063000e10f50007f003a0020418000e10f5000a0
:1006400003003a00d042800010108800d600370026
:1006500020418000e20f50000b003a004110800062
:1006600000002800008060000000e00003003a0065
:100670001041800010108800cb00370020062000b9
:1006800020418800c800370020418000e30f50005f
:100690000a003a004110800000002800008060003d
:1006a0000000e00002003a000622a800be00370069
:1006b0002006200020418800bb0037002041800038
:1006c000e40f500003003a00e04280001010880060
:1006d000b500370020418000e50f50000a003a00c5
:1006e0004110800000002800008060000000e00051
:1006f00002003a000662a800ab0037002006200086
:1007000020418800a800370020418000e60f5000fb
:100710000c003a0040108000620060000000e00021
:100720000500320000108000f040880006a2a900f9
:100730000682a8009c003700200620002041880087
:100740009900370020418000e70f50000a003a006e
:100750004110800000002800008060000000e000e0
:1007600002003a000662a8008f0037002006200031
:10077000204188008c00370020418000e80f5000a5
:100780000c003a0040108000620060000000e000b1
:1007900005003200001080000041880006a2a80079
:1007a0000682a80080003700200620002041880033
:1007b0007d00370020418000e90f50000400320026
:1007c0002141800030062000808f500002003a0056
:1007d0000642a8007400370020418000ea0f500054
:1007e000040032002141800040062000808f50002c
:1007f0006c003a0040108000700060000000e000d3
:10080000040032002141800040062000808f50000b
:1008100002003a001e28ef002028ef00504180001f
:1008200011002000010878002628ef002428ef009e
:100830005d00370040418000e10f50005a003a004f
:1008400020418000e10f500003003a00d0428000b8
:10085000101088005400370020418000e20f500043
:100860000b003a004110800000002800008060006a
:100870000000e00003003a001041800010108800e2
:10088000490037002006200020418800460037003c
:1008900020418000e30f50000b003a00411080001f
:1008a00000002800008060000000e00003003a0023
:1008b000f0408000101088003b0037002006200028
:1008c000204188003800370020418000e40f5000ac
:1008d0000b003a00411080000000280000806000fa
:1008e0000000e00003003a00004180001010880082
:1008f0002d00370020062000204188002a00370004
:1009000020418000e50f50000400320021418000aa
:1009100030062000808f50000a003a00411080000d
:1009200000002800008060000000e00003003200aa
:100930006041800021002000010878000642a800e4
:100940001900370020418000e60f500004003200fb
:100950002141800040062000808f500012003a00a4
:1009600040108000700060000000e00004003200d1
:100970002141800040062000808f500003003a0093
:100980006041800031002000010878006041800053
:1009900011002000010878002828ef002428ef002b
:1009a00001003700000000009620a8000080fa0037
:1009b0004f00be00004006003600f800809fbe00d9
:1009c000829fbe00849fbe00869fbe003200f8005a
:1009d0003400f80010002000a00188000020200052
:1009e000900188000000fa00830d07000080fa00e3
:1009f0003400f9003200f9004f03be004f02be0080
:100a00004f01be004f00be003600f9000040060056
:100a10003600f8008020a9000000eb00d41e07007b
:100a20003600f800d61e07008040a9001000200004
:100a3000cf1e07003600f8008060a90020002000cb
:100a4000cb1e07003600f8008080a900300020008f
:100a5000c71e07000040da000000fe00000005008d
:100a600003f0a200889fbe008a9fbe008c1f780002
:100a700000010700070133006450e1004f0032001d
:100a80006420e1005200320003826c0007003b004a
:100a90000905d0000306d000820f54000c065d004b
:100aa0000200390002003200890178000306780054
:100ab0008582550004003d000003fd008103fd0018
:100ac0008502ea008b854200840f720002003b0021
:100ad00060001000e08018006011b8000005eb0015
:100ae0007a28e1000a00390006007800c75ddd00c1
:100af000f707b200878075002d00370082817100f2
:100b00000a017800610560008180d1000080d30077
:100b10008502e900f9ff3b00060440008784480095
:100b200002003b0060041400e0841c000988a3005c
:100b3000070032008a8171008281710061016400c6
:100b40008904d1000884d3008b05e8001700370022
:100b50000978a30013003a000b00e00013003400f2
:100b60008b05e9000804440089844c000a447400a1
:100b70000978a3000d003a000b00e00007003400e4
:100b80008b05e9000804440089844c0001003a0008
:100b90000b0020000978a300f7ff32000001eb00f2
:100ba00002003700828171000a0178007600070098
:100bb0000cf0a70001f0a000bf0037006420e100a6
:100bc00002003a00838f6c00bf0033000801be00b2
:100bd0000200be00b8003700889fbe008a9fbe009a
:100be0008c1f7800a3000700aa00330003866c0066
:100bf0006450e1002e0032006420e1003300320036
:100c00006150e1002f0032006120e100310032002c
:100c100085855500eb07b00009002000080420007e
:100c2000050037000804440089844c000a003100a4
:100c30000603430087834b000001530081815b0062
:100c4000f8ff33000203be000800a00008044400bf
:100c500089844c00f6ff3900c639dd00830173003a
:100c600001003200130020008904d1000884d30061
:100c70000998a300050032000800a7000300a000a7
:100c80008904d1000884d3008b05e8008904d100d1
:100c90000884d3000001eb000281d2003a00070073
:100ca00001f0a1000cf0a70001f0a00082003700c5
:100cb0006420e100840032000801be000200be0092
:100cc000f7ff37006120e1007f0032006000b800cc
:100cd000f3ff37000000200001f82700f0ff370085
:100ce00014002000bf003700f4ff2f00bd003700c4
:100cf0000001be004a0007000470a70003f0a10035
:100d00006509b100160032000d0035006828e100c9
:100d100006003500f0ff2f00f1ff27000300e00080
:100d200013003b0001002800000005000000400007
:100d3000818048008502e900fcff3a000800370086
:100d4000f88f420002003c008000eb00000005002c
:100d50008100d1000080d3008502e800fcff3a004a
:100d60000300e00002003b0060001000e08018007b
:100d7000000006004f89de0082017800b4003700d1
:100d80006011b800c200370081002000618055006a
:100d90000b003d000b00200061fe2f000100e10070
:100da0001d00340082817100610164008904d1005a
:100db0000884d3000000e800faff3a007100200028
:100dc000610064000300700002006000090032004e
:100dd00061044400e0844c000988a500050032004d
:100de0008b05e8006808e10002003a008904d100a0
:100df0000884d300f20f20000258e10005003d00f6
:100e0000c75ddd00f907b200898075000800780031
:100e1000000006000bf827008b007800000005009a
:100e2000c70ade00f107b200f50fb2000800320079
:100e3000e1cf4200020032000170a0002400050052
:100e4000810f700001003200040805004400050015
:100e5000810f700002003a00140005008502e900cd
:100e60000000400081c04800fcff3b000170a00072
:100e7000240005000004be00e9ff07000003be00d7
:100e80000405be000200be00e5ff0700844f7500a8
:100e9000000006000200be006450e10005003600bc
:100ea0006420e100020036000968a30001003a0056
:100eb0000800be000160a0004f0678004f05be008c
:100ec0004f04be0000000600f0ff2f00f1ff2700d6
:100ed000f9ff3700889fbe008a9fbe008c1f7800f4
:100ee000e4ff0700ebff330003866c006450e10071
:100ef000240032006420e100270032006150e1004c
:100f0000220032006120e100210032008b85420086
:100f1000eb07b1000134b800003ab8000804420001
:100f200089844a00013ab8000030b8008880400047
:100f300009014a000400330000004000818048009d
:100f4000020149008b05e900c909dd008301700039
:100f50000100320013002000c814de004814dd0038
:100f60004709de001200b200c808de0008847000e5
:100f700085ff070001f0a1000cf0a70001f0a00020
:100f8000cdff37006120e100cfff32000801be0035
:100f90000200be00f7ff37006150e100fcff3a009d
:100fa000c9ff37006022b800060220000000d00010
:100fb0008180d2000482d2008582d2000000a0008d
:100fc0000202520083825a000300310002024200f2
:100fd00083824a000000a1000603e900f3ff3a0003
:100fe00000000600889fbe008a9fbe00841f780014
:100ff000a0ff07004f00780011003300f0ff2f0022
:10100000838f6c0006003b00040565000a00a70002
:101010000800370009f0a600100020000800370083
:10102000820f5400838f5c00030039001000200001
:1010300001003e000000200009f0a7000000ea00c7
:101040004f05be004f04be000000e0000000060097
:10105000881f7800030478000300e00007003d00cb
:1010600060001000e080180060011900e0811900a4
:1010700002003b0001f02d000300370004000700d0
:1010800008f0a70001f0a0004f047800000006005f
:10109000889fbe008a9fbe0000827000040271001b
:1010a00004827100260032000004be000200be006f
:1010b0006011b8006b092000950220000182cf006a
:1010c0000a0039000541b1000082cf000700390055
:1010d0000541b1000982cf00040039000541b1008b
:1010e0000882cf00010039000541b10005425200dd
:1010f000120032000a003b0082817100610164002d
:101100008100d1000080d3008984d3000884d300fb
:101110008b05e8000442e800f7ff3a0007003700bb
:101120000804440089844c00000048008180480085
:101130008b05e9000442e900f9ff3a0012ff0700bd
:101140004f05be004f04be0000000600800178007d
:1011500002003700b15978000201e9000200e00006
:10116000fcff3a0000000600800178000200370012
:10117000815978000201e9000200e000fcff3a001a
:101180000000060000017800820178003204e000cf
:10119000fdff3a0003017800b1417800035978005f
:1011a0000304e000fcff3a000000060000017800a4
:1011b000b1417800035978000304e000fcff3a00d5
:1011c0000000060080007800010178003104e00092
:0c11d000fdff3a00000051000000060086
:020000040000fa
:1011dc005049000043320000344600004a31000000
:1011ec003238000047430000303000003620000049
:1011fc005553000042200000766900007274000014
:10120c00756100006c200000434f00004d78000019
:10121c00200d00000a530000544f00005020000025
:10122c0063680000617200006765000020620000c6
:10123c00617400007465000072790000200d0000dc
:10124c000a000000312000003a200000566900001e
:10125c006e2000003d200000002000005620000001
:10126c000d0a0000003b0000000d00000a00000009
:10127c00322000003a200000546500006d70000020
:10128c002044000069650000203d000020000000a3
:10129c00206400006567000020430000200d000062
:1012ac000a000000332000003a20000056620000c3
:1012bc0061740000203d000020000000342000007c
:1012cc003a2000004962000061740000203d0000db
:1012dc002000000020410000200d00000a0000004a
:1012ec00352000003a200000535400004154000007
:1012fc00452000003b200000006300006820000037
:10130c007375000073700000203a0000206f00001d
:10131c0066660000203b00002000000063680000af
:10132c002073000075730000702000003a2000004c
:10133c006f6e0000203b0000200000007072000067
:10134c0065630000682000003a2000006f66000012
:10135c00662000003b200000007000007265000059
:10136c0063680000203a0000206f00006e2000002f
:10137c003b20000000630000635f00006376000008
:10138c00203a0000206f000066660000203b000041
:10139c0020000000636300005f6300007620000003
:1013ac003a2000006f6e0000203b0000200000007f
:1013bc0062610000745f00006d69000073730000cf
:1013cc00203a0000206f000066660000203b000001
:1013dc002000000062610000745f00006d69000075
:1013ec0073730000203a0000206f00006e20000094
:1013fc003b20000000620000617400005f7300007d
:10140c00686f000072740000203a0000206f00002a
:10141c0066660000200d00000a00000062610000fa
:10142c00745f0000736800006f720000742000008d
:10143c003a2000006f6e0000200d00000a00000032
:10144c00362000003a200000544d00005f4300009d
:10145c004841000052470000455f00005354000013
:10146c004154000055530000202d00003e20000088
:10147c0000430000432000007769000074680000fe
:10148c00204900004348000041520000474500003d
:10149c005f44000041430000203a0000206f000030
:1014ac0066660000203b0000200000004343000063
:1014bc002077000069740000682000004943000098
:1014cc004841000052470000455f000044410000c5
:1014dc00432000003a2000006f6e0000203b00000b
:1014ec0020000000435600002077000069740000c3
:1014fc00682000005643000048410000524700009d
:10150c00455f000044410000432000003a200000e9
:10151c006f660000662000000d0a0000004300000a
:10152c005620000077690000746800002056000007
:10153c004348000041520000474500005f44000052
:10154c0041430000203a0000206f00006e20000094
:10155c000d0a000000370000203a00002054000063
:10156c004d5f00005359000053540000454d0000de
:10157c005f530000544100005455000053200000fc
:10158c002d3e000020000000636800006172000026
:10159c0067650000725f0000656e0000616200000c
:1015ac006c650000642000003a2000006f660000ab
:1015bc00662000003b200000006300006861000012
:1015cc0072670000657200005f6500006e610000cc
:1015dc00626c000065640000203a0000206f00007f
:1015ec006e2000003b200000006f00006b5f0000cd
:1015fc00746f00005f630000686100007267000098
:10160c00652000003a2000006f6600006620000094
:10161c003b200000006f00006b5f0000746f000047
:10162c005f630000686100007267000065200000c5
:10163c003a2000006f6e0000203b000020000000ec
:10164c0074680000657200006d6100006c5f000042
:10165c007368000075740000646f0000776e000002
:10166c00203a0000206f000066660000203b00005e
:10167c002000000074680000657200006d610000bd
:10168c006c5f00007368000075740000646f0000ec
:10169c00776e0000203a0000206f00006e200000e2
:1016ac003b20000000560000696e0000203e000048
:1016bc002056000062610000742000003a200000f7
:1016cc006f660000662000000d0a00000056000046
:1016dc00696e0000203e0000205600006261000090
:1016ec00742000003a2000006f6e0000200d0000f6
:1016fc000a000000382000003a200000646100005d
:10170c0074610000203d000020000000204100001a
:10171c00206f000072200000562000000d0a00000f
:10172c00006f0000666600003b0000006f6e00005a
:10173c003b0000006f660000660000006f6e00004a
:10174c0000430000432000006f6e000000430000c7
:10175c00562000006f6e000000430000432f000075
:10176c004356000020650000727200006f7200008a
:10177c00004900004348000041520000474500006a
:10178c005f54000041520000474500005420000007
:10179c003d2000000051000074200000696e000024
:1017ac007465000072660000616300006520000033
:1017bc004f4e0000200d00000a0000005174000084
:1017cc00206900006e740000657200006661000004
:1017dc0063650000204f000046460000200d00000d
:1017ec000a000000000000000000000000000000e3
:1017fc0000530000544100005254000020630000cc
:10180c0068610000726700006520000062610000e2
:10181c007474000065720000792000000d0a00004d
:10182c0000530000544f000050200000636800007b
:10183c0061720000676500002062000061740000a6
:10184c007465000072790000200d00000a00000091
:10185c000a2d00002d2d00002d2d00002d2d000037
:10186c002d2d00002d2d00002d2d00002d2d000004
:10187c002d2d00002d2d00002d2d00002d2d0000f4
:10188c002d2d00002d2d00002d2d00002d2d0000e4
:10189c002d2d00002d2d00000d0a00004d650000bf
:1018ac006e750000203a0000200d00000a2d00008b
:1018bc002d2d00002d2d00000d0a00003120000000
:1018cc00203a000020560000696e0000200d000038
:1018dc000a320000202000003a2000004469000079
:1018ec0065200000542000000d0a00003320000089
:1018fc00203a0000205600006261000074200000b5
:10190c000d0a000034200000203a0000204900009d
:10191c0062610000742000000d0a000035200000f8
:10192c00203a000020530000746100007465000030
:10193c00200d00000a360000202000003a20000094
:10194c00544d00005f430000484100005247000026
:10195c00455f0000535400004154000055530000f3
:10196c00200d00000a370000202000003a20000063
:10197c00544d00005f5300005953000054450000c3
:10198c004d5f0000535400004154000055530000bb
:10199c00200d00000a380000202000003a20000032
:1019ac00544d00005f4900002f5600005f430000bb
:1019bc004841000052470000455f000044410000d0
:1019cc00432000000d0a0000003900002020000018
:1019dc003a200000562f0000492c000074690000ca
:1019ec006d650000732c00007374000061740000be
:1019fc0075730000200d00000a310000302000003b
:101a0c003a200000544d00005f490000434800009c
:101a1c0041520000474500005f5400004152000055
:101a2c0047450000542000000d0a00003131000031
:101a3c00203a000020530000544100005254000092
:101a4c002f530000544f000050200000636800002a
:101a5c006172000067650000200d00000a32000072
:101a6c00302000003a200000517400002069000072
:101a7c006e74000065720000666100006365000012
:101a8c00204f00004e2f00004f4600004620000063
:101a9c000d0a00002d2d00002d2d00002d2d000015
:101aac002d2d00002d2d00002d2d00002d2d0000c2
:101abc002d2d00002d2d00002d2d00002d2d0000b2
:101acc002d2d00002d2d00002d2d00002d2d0000a2
:101adc002d2d00002d2d00002d0d00000a00000002
:101aec0012010000000200000200000000080000cb
:101afc00d80400000a0000000001000001020000f0
:101b0c000001000009020000430000000201000077
:101b1c0000c00000320900000400000000010000b9
:101b2c00020200000100000005240000001000006b
:101b3c00010400002402000002050000240600003d
:101b4c000001000005240000010000000107000056
:101b5c0005810000030a00000002000009040000d7
:101b6c0001000000020a0000000000000007000055
:101b7c000502000002400000000000000705000004
:101b8c00820200004000000000000000040300007e
:101b9c0009040000340300004d000000690000003f
:101bac0063000000720000006f0000006300000082
:101bbc0068000000690000007000000020000000b8
:101bcc005400000065000000630000006800000085
:101bdc006e0000006f0000006c0000006f00000041
:101bec0067000000790000002000000049000000a0
:101bfc006e000000630000002e00000016030000c1
:101c0c005700000050000000540000005f0000006e
:101c1c0052000000580000005f000000530000005c
:101c2c00410000004d000000888d0000cc8d0000ac
:101c3c00d08d0000048e00000d0a000056620000da
:101c4c0061740000203d0000203300002e3900009c
:101c5c0034200000562000003b20000049620000a8
:101c6c0061740000203d0000203000002e3900007f
:101c7c003132000020410000203b000020540000c5
:101c8c00203d000020330000362000006465000079
:101c9c0067200000432000000d0a00000000000037
:101cac00312000003a200000566900006e20000030
:081cbc003d20000000000000c3
:020000040000fa
:101cc4004e04fa00881f7800e0ff2f00700f980080
:101cd4000000eb00001798000000eb0010179800bc
:101ce4006000b80020179800311798008e00780023
:101cf4008102b0001d0009008018eb006000b800ec
:101d040020379800313798008e0078008106b000a3
:101d1400000009008018eb008058eb0080bf280009
:101d24009040780031ef98008e007800c106b00032
:101d3400050009008058eb006000b800103f9800cf
:101d4400213f98008e0078006107b0000000090070
:101d54008018eb008058eb0080bf2800904078008a
:101d640011ff98008e007800a107b000050009005b
:101d74008058eb006000b800008798001187980035
:101d84008e0078004108b000000009008018eb00c4
:101d94008058eb0080bf280090407800714799007c
:101da4008e0078008108b000050009008058eb001f
:101db4006000b80070879800018f98008e0078004a
:101dc4002109b000010009008018eb008058eb00e5
:101dd40080bf280090407800715799008e007800e9
:101de4008109b000120009008058eb0080bf280070
:101df40090407800316f99008e007800c10ab000dd
:101e0400080009008058eb0080bf2800904078004b
:101e1400517799008e007800610bb000080009002a
:101e24008058eb0080bf280090407800717f9900b3
:101e34008e007800010cb000f80009008058eb0017
:101e440080bf280090407800117f9b008e007800ae
:101e5400a11bb000020009008058eb0080bf2800dd
:101e640090407800517f9b008e007800e11bb00009
:101e7400fd0009008058eb000000eb00000f780023
:101e84000000eb00609f9a000000eb001007980030
:101e94000000eb00709f9a000000eb002007980000
:101ea4000000eb00300798006000b800600798005d
:101eb400710798000000eb00400798000040eb0019
:101ec400005798006000b800100f9800210f980088
:101ed400b1190700f4e2a800f4c2a800e4e2a800e3
:101ee4000003eb0085022000f40020002300200002
:101ef400f201200031002000400120009b12070065
:101f04000000eb00300f980080072000400f98007d
:101f14000000000000408000ff0f5000fdff36006d
:101f240040248000620060000000e000f9ff3a00f5
:101f3400f4e2a900be0890004e089000808f500083
:101f440006003100000220000e00400080007800ee
:101f5400e08e28000e18070002003700300620002b
:101f6400700f9800e02b20000e0040000001780064
:101f74000110200040012000141107000100370067
:101f8400000000007e989200e10f5000fcff3a0030
:101f94000000eb00709f9a00e02b20000e00400030
:101fa400000178008000eb00900220000711070078
:101fb40001003700000000007e989200e10f5000fd
:101fc400fcff3a000000eb00709f9a00e02b200019
:101fd4000e0040000001780071002000a0012000e4
:101fe400fa10070001003700000000007e989200fc
:101ff400e10f5000fcff3a000000eb00709f9a00d4
:102004006000b800500f9800610f9800010037007d
:1020140000000000be0890004e089000808f500021
:10202400030031007e004700e91707007e14070013
:10203400400220000e004000010420002a1807007e
:10204400400620000e004000710020002618070002
:10205400f00b20000e004000a10f20002218070002
:102064006000b80060079800710798007e0890002f
:10207400eb0f500005003a00904280000000e000a1
:1020840002003a0010002000904288009042800034
:10209400e10f500001003a00861207007e0890000c
:1020a4000000e0002e003a000e1090000000e00056
:1020b4000f003a001e1090000000e0000c003a00ef
:1020c400d01b20000e004000f20f2000800078009a
:1020d400100020009b060700210220008e80400093
:1020e400d01b20000e004000a91707008d06370002
:1020f4001e109000e10f500087063a006233200062
:102104000e0141006000b8000089be00e4004100f7
:102114007c0009008018eb008058eb00603320003d
:102124000e004000f20f2000800078002000200004
:1021340084060700010220008e80400060332000e6
:102144000e004000921707000e109000e10f50009f
:1021540073063a000000eb00101798007106370070
:102164007e089000e10f50005f003a006e989200e4
:102174000000e00006003a00c02b20000e004000e2
:1021840080007800b0032000000f070065063700c8
:102194006e989200e10f500062063a00002c200075
:1021a4000e004000b1032000300f0700002c200077
:1021b4000e0040001000be00420220000e0141004b
:1021c400d0100700400620000e00400000017800f7
:1021d40000f8270051792400ca1007004e0090002f
:1021e4000000e00019003a00f00b20000e0040004f
:1021f400b200200081922800d3fb07004102200096
:102204008e804000f00b20000e004000dcfb070035
:10221400f00b20000e004000e9fb0700f10b20004a
:102224008e8040000080400062002000319328002e
:10223400c5fb0700010220008e804000f00b200047
:102244000e00400052170700210037004102200011
:102254008e804000f00b20000e004000d2fb0700ef
:10226400f00b20000e004000d5fb0700f10b20000e
:102274008e804000008040002200200091932800be
:10228400b1fb0700410620008e804000f00b2000c7
:102294000e004000bafb0700f00b20000e004000c7
:1022a400c7fb0700f10b20008e8040000080400037
:1022b40032002000b1932800a3fb07000102200094
:1022c4008e804000f00b20000e0040003017070005
:1022d4000e109000e10f500012063a000000eb00cf
:1022e400609f9a000f0637007e089000e20f5000ae
:1022f4003c003a006e9892000000e00006003a00ac
:10230400c02b20000e00400080007800f003200065
:102314009e0e0700030637006e989200e10f5000ee
:1023240000063a00082c20000e04440060432000fc
:1023340000004700f1032000cc0e0700604320009a
:10234400000047000b000900301c78008801b10030
:102354008001b100002c20000e0040001000be00df
:10236400420220000e01410066100700f00b20001d
:102374000e00400002012000e193280072fb0700d8
:10238400410220008e804000f00b20000e0040002f
:102394007bfb0700f00b20000e00400088fb0700c9
:1023a400f10b20008e80400000804000a20020003d
:1023b400e194280064fb0700010220008e804000a5
:1023c400f00b20000e004000f11607000e109000e4
:1023d400e10f5000d3053a000000eb00609f9a0023
:1023e400d00537007e089000e30f500068003a00e3
:1023f4006e9892000000e00006003a00c02b200016
:102404000e00400080007800a00320005f0e07004b
:10241400c40537006e989200e10f5000c1053a00e0
:10242400082c20000e0444006043200000004700f4
:10243400a10320008d0e0700604320000000470028
:102444000b000900301c78008801b1008001b10044
:10245400002c20000e0040001000be0042022000ac
:102464000e01410027100700002c20000e00400040
:10247400b008900020089000420620000e014100a0
:10248400201007004e0090000000e00019003a0000
:10249400f00b20000e004000c200200081952800af
:1024a40029fb0700410220008e804000f00b200031
:1024b4000e00400032fb0700f00b20000e0040002d
:1024c4003ffb0700f10b20008e804000008040009d
:1024d40062002000319328001bfb0700010220004a
:1024e4008e804000f00b20000e004000a81607006c
:1024f40021003700410220008e804000f00b2000b4
:102504000e00400028fb0700f00b20000e004000e6
:102514002bfb0700f10b20008e8040000080400060
:10252400220020009193280007fb070041062000a9
:102534008e804000f00b20000e00400010fb0700ce
:10254400f00b20000e0040001dfb0700f10b2000e3
:102554008e8040000080400032002000b1932800ab
:10256400f9fa0700010220008e804000f00b2000e1
:102574000e004000861607000e109000e10f500078
:1025840068053a000000eb00609f9a00650537007b
:102594007e089000e40f500068003a006e989200a4
:1025a4000000e00006003a00c02b20000e004000ae
:1025b40080007800d0032000f40d0700590537008f
:1025c4006e989200e10f500056053a00082c200046
:1025d4000e0444006043200000004700d1032000a3
:1025e400220e070060432000000047000b00090092
:1025f400301c78008801b1008001b100002c20005b
:102604000e0040001000be00420220000e014100f6
:10261400bc0f0700002c20000e004000b008900002
:1026240020089000420620000e014100b50f07006b
:102634004e0090000000e00019003a00f00b20006a
:102644000e004000c200200041962800befa070098
:10265400410220008e804000f00b20000e0040005c
:10266400c7fa0700f00b20000e004000d4fa070060
:10267400f10b20008e8040000080400062002000aa
:1026840001972800b0fa0700010220008e80400064
:10269400f00b20000e0040003d160700210037001b
:1026a400410220008e804000f00b20000e0040000c
:1026b400bdfa0700f00b20000e004000c0fa07002e
:1026c400f10b20008e80400000804000220020009a
:1026d400919328009cfa0700410620008e80400058
:1026e400f00b20000e004000a5fa0700f00b2000bc
:1026f4000e004000b2fa0700f10b20008e8040006b
:102704000080400032002000b19328008efa0700b8
:10271400010220008e804000f00b20000e004000db
:102724001b1607000e109000e10f5000fd043a0044
:102734000000eb00609f9a00fa0437007e089000c6
:10274400e50f5000b5003a006e9892000000e000da
:1027540006003a00c02b20000e00400080007800e4
:1027640040032000890d0700ee0437006e989200a4
:10277400e10f5000eb043a00082c20000e04440042
:10278400604320000000470041032000b70d07000c
:1027940060432000000047000b000900301c780053
:1027a4008801b1008001b100623320000e014100b4
:1027b4006000b8000089be00e40041007a0009000e
:1027c4008018eb00603320000e004000d20020008f
:1027d400619728005cfa0700002c20000e004000de
:1027e4001000be006011b8003cf907000000e000d2
:1027f4000a003a00603320000e00400070fa07001f
:10280400613320008e8040000080400012012000cf
:10281400319828004cfa0700090037006033200083
:102824000e00400066fa0700613320008e804000ed
:1028340000804000020120004199280042fa07006c
:10284400002c20000e004000b000900020009000fa
:102854006011b80021f907000000e0000a003a0006
:10286400603320000e00400055fa07006133200059
:102874008e80400000804000f2002000419a280031
:1028840031fa070009003700603320000e004000d1
:102894004bfa0700613320008e8040000080400026
:1028a400e2002000319b280027fa0700002c2000ba
:1028b4000e004000d0009000400090006011b8006d
:1028c40006f907000000e0000a003a006033200027
:1028d4000e0040003afa0700613320008e80400069
:1028e40000804000f2002000119c280016fa070026
:1028f40009003700603320000e00400030fa070062
:10290400613320008e80400000804000e2002000ff
:10291400019d28000cfa0700002c20000e00400046
:10292400f0009000600090006011b800ebf8070020
:102934000000e0000a003a00603320000e0040006e
:102944001ffa0700613320008e80400000804000a1
:1029540022012000e19d2800fbf90700090037004f
:10296400603320000e00400015fa07006133200098
:102974008e8040000080400012012000019f28004a
:10298400f1f90700002c20000e0040009008900090
:10299400000890006011b800d0f807000000e000c3
:1029a4000a003a00603320000e00400004fa0700d9
:1029b400613320008e8040000080400032012000fe
:1029c40011a02800e0f90700090037006033200057
:1029d4000e004000faf90700613320008e804000a9
:1029e400008040002201200041a12800d6f9070000
:1029f400010220008e804000603320000e00400061
:102a0400631507000e109000e10f500045043a00d2
:102a14000000eb00609f9a00420437007e0890009b
:102a2400e60f500065003a006e9892000000e00046
:102a340006003a00c02b20000e0040008000780001
:102a440050032000d10c0700360437006e98920022
:102a5400e10f500033043a00082c20000e04440017
:102a6400604320000000470051032000ff0c0700d2
:102a740060432000000047000b000900301c780070
:102a84008801b1008001b100623320000e014100d1
:102a94006000b8000089be00e40041007a0009002b
:102aa4008018eb00603320000e00400092012000eb
:102ab40061a22800a4f90700002c20000e004000a9
:102ac400d0009000400090006011b80083f8070027
:102ad4000000e0000a003a00603320000e004000cd
:102ae400b7f90700613320008e8040000080400069
:102af400d2012000f1a3280093f907000900370050
:102b0400603320000e004000adf90700613320005f
:102b14008e80400000804000c2012000c1a5280032
:102b240089f90700002c20000e004000f0009000fe
:102b3400600090006011b80068f807000000e00031
:102b44000a003a00603320000e0040009cf90700a0
:102b5400613320008e80400000804000d2012000bc
:102b640081a7280078f907000900370060332000a6
:102b74000e00400092f90700613320008e8040006f
:102b840000804000c201200051a928006ef907000e
:102b9400010220008e804000603320000e004000bf
:102ba400fb1407000e109000e10f5000dd033a0003
:102bb4000000eb00609f9a00da0337007e08900063
:102bc400e70f50009a003a006e9892000000e0006f
:102bd40006003a00c02b20000e0040008000780060
:102be40090032000690c0700ce0337006e98920012
:102bf400e10f5000cb033a00082c20000e044400df
:102c0400604320000000470091032000970c070058
:102c140060432000000047000b000900301c7800ce
:102c24008801b1008001b100623320000e0141002f
:102c34006000b8000089be00e40041007a00090089
:102c44008018eb00603320000e0040009201200049
:102c540011ab28003cf90700002c20000e004000b6
:102c64001000be006011b8001cf807000000e0006e
:102c74000a003a00603320000e00400050f90700bb
:102c8400613320008e8040000080400092012000cb
:102c9400a1ac28002cf9070009003700603320009c
:102ca4000e00400046f90700613320008e8040008a
:102cb400008040008201200031ae280022f9070084
:102cc400002c20000e004000b00090002000900076
:102cd4006011b80001f807000000e0000a003a00a3
:102ce400603320000e00400035f9070061332000f6
:102cf4008e8040000080400062012000b1af2800b7
:102d040011f9070009003700603320000e0040006d
:102d14002bf90700613320008e80400000804000c2
:102d24005201200011b1280007f90700002c2000ef
:102d34000e004000d0009000400090006011b800e8
:102d4400e6f707000000e0000a003a0060332000c4
:102d54000e0040001af90700613320008e80400005
:102d640000804000a201200061b22800f6f80700ac
:102d740009003700603320000e00400010f90700fe
:102d8400613320008e8040000080400092012000ca
:102d940001b42800ecf80700002c20000e004000cd
:102da400f0009000600090006011b800cbf70700bd
:102db4000000e0000a003a00603320000e004000ea
:102dc400fff80700613320008e804000008040003f
:102dd4004201200091b52800dbf807000900370004
:102de400603320000e004000f5f807006133200036
:102df4008e8040000080400032012000d1b62800bf
:102e0400d1f80700010220008e80400060332000ca
:102e14000e0040005e1407000e109000e10f5000f9
:102e240040033a000000eb00609f9a003d03370026
:102e34007e089000e80f50006b003a006e989200f4
:102e44000000e0001c003a003e0090000000e0009a
:102e54000b003a00c02b20000e00400080007800d8
:102e640040042000c90b070040042000000f780034
:102e74003e0090000000e800300798002903370066
:102e84003e009000e20f500026033a00c02b2000c1
:102e94000e0040008000780050042000bb0b0700a7
:102ea40050042000000f78003e0090000000e8006d
:102eb400300798001b0337006e989200e10f500012
:102ec40018033a00082c20000e044400604320003c
:102ed400000047009e007800e40b070060432000d8
:102ee400000047000b000900301c78008801b10085
:102ef4008001b100002c20000e0040001000be0034
:102f0400420220000e0141007e0d0700f00b20005c
:102f14000e004000c200200001b828008af8070013
:102f2400410220008e804000f00b20000e00400083
:102f340093f80700f00b20000e004000a0f80700f3
:102f4400f10b20008e80400000804000b200200081
:102f5400c1b828007cf807003e009000e10f500043
:102f640012003a001e1090000000e00006003a0033
:102f7400210220008e804000f00b20000e00400053
:102f840003140700e70237001e109000e10f500001
:102f9400e4023a000000eb00609f9a003e009000bb
:102fa4000000e80030079800de0237003e00900081
:102fb400e30f5000db023a00010220008e80400043
:102fc400f00b20000e004000f11307000000eb009e
:102fd400300798000000eb00101798000000eb0089
:102fe400609f9a00cf0237007e089000e90f5000de
:102ff4002b023a006e9892000000e00009003a00ab
:103004001e0090000000e00006003a00c02b2000e3
:103014000e00400080007800b00320005b0b070026
:10302400620137006e989200e10f50001a003a00d6
:103034001e0090000000e00017003a00082c200059
:103044000e0444006043200000004700b103200048
:10305400860b070060432000000047000b000900b6
:10306400301c78008801b1008001b100002c2000e0
:103074000e0040001000be00b20620000e01410008
:10308400200d070010002000100798000000eb003e
:10309400609f9a00450137006e9892000000e0009e
:1030a40009003a001e009000e10f500006003a00ab
:1030b400c02b20000e00400080007800a0032000f8
:1030c400320b0700390137006e989200e10f50006f
:1030d40021003a001e009000e10f50001e003a004b
:1030e400082c20000e044400604320000000470028
:1030f400a10320005d0b070060432000000047008f
:103104000b000900301c78008801b1008001b10077
:10311400002c20000e0040001000be0022072000fa
:103124000e014100f70c0700002c20000e004000a7
:10313400b008900020089000020820000e01410011
:10314400f00c070020002000100798000000eb009e
:10315400609f9a00150137006e9892000000e0000d
:1031640009003a001e009000e20f500006003a00e9
:10317400c02b20000e00400080007800d003200007
:10318400020b0700090137006e989200e10f50000e
:1031940021003a001e009000e20f50001e003a0089
:1031a400082c20000e044400604320000000470067
:1031b400d10320002d0b07006043200000004700ce
:1031c4000b000900301c78008801b1008001b100b7
:1031d400002c20000e0040001000be0092072000ca
:1031e4000e014100c70c0700002c20000e00400017
:1031f400b008900020089000720820000e014100e1
:10320400c00c070030002000100798000000eb00fd
:10321400609f9a00e50037006e9892000000e0007d
:1032240009003a001e009000e30f500006003a0027
:10323400c02b20000e0040008000780040032000d6
:10324400d20a0700d90037006e989200e10f5000af
:1032540041003a001e009000e30f50003e003a0087
:10326400082c20000e0444006043200000004700a6
:1032740041032000fd0a07006043200000004700ce
:103284000b000900301c78008801b1008001b100f6
:10329400002c20000e0040001000be006011b80099
:1032a4008ef607000000e00006003a00e008200067
:1032b4000e0040005200200071b92800a2f7070058
:1032c40005003700e00820000e0040004200200006
:1032d400c1b928009cf70700002c20000e00400014
:1032e400b0009000200090006011b8007bf6070049
:1032f4000000e0000a003a00e00820000e00400050
:10330400aff70700e10820008e80400000804000f5
:103314004200200001ba28008bf70700090037009b
:10332400e00820000e004000a5f70700e108200097
:103334008e804000008040003200200041ba280006
:1033440081f7070040002000100798000000eb0000
:10335400609f9a00950037006e9892000000e0008c
:1033640009003a001e009000e40f500006003a00e5
:10337400c02b20000e004000800078005003200085
:10338400820a0700890037006e989200e10f50000e
:1033940037003a001e009000e40f500034003a0059
:1033a400082c20000e044400604320000000470065
:1033b40051032000ad0a07006043200000004700cd
:1033c4000b000900301c78008801b1008001b100b5
:1033d400002c20000e004000d0009000400090001f
:1033e4000200200003f823003cf607000000e00080
:1033f40006003a00700920000e0040006200200020
:1034040071ba280050f7070014003700002c200080
:103414000e004000f00090006000900002002000c8
:1034240003f823002df607000000e00006003a0030
:10343400700920000e00400062002000d1ba28006c
:1034440041f7070005003700700920000e00400016
:10345400c200200031bb28003bf7070050002000c9
:10346400100798000000eb00609f9a004f0037009f
:103474006e9892000000e00009003a001e009000df
:10348400e50f500006003a00c02b20000e0040005b
:1034940080007800000420003c0a07004300370045
:1034a4006e989200e10f50001a003a001e0090003e
:1034b400e50f500017003a00082c20000e044400c9
:1034c400604320000000470001042000670a070051
:1034d40060432000000047000b000900301c780006
:1034e4008801b1008001b100002c20000e004000d2
:1034f4001000be00b20a20000e014100010c0700ba
:1035040060002000100798000000eb00609f9a0004
:10351400260037006e9892000000e00009003a008f
:103524001e009000e60f500006003a00c02b200059
:103534000e00400080007800f0032000130a07000a
:103544001a0037006e989200e10f500017003a00fd
:103554001e009000e60f500014003a00082c2000d2
:103564000e0444006043200000004700f1032000e3
:103574003e0a070060432000000047000b000900da
:10358400301c78008801b1008001b100002c2000bb
:103594000e0040001000be00520b20000e0141003e
:1035a400d80b070070002000100798006e98920056
:1035b400e10f50005b013a001e009000e70f50003d
:1035c40058013a000000eb0050b79a006233200023
:1035d4000e0141006000b8000089be00e400410013
:1035e4002a0009008018eb0025ea2100a22e200001
:1035f4000e014100b10620008e804000603320009f
:103604000e004000020278007300200001017800df
:10361400a10520000500010025ea2100a22e2000ba
:103624000e014100210720008e80400060332000fd
:103634000e004000020278007300200001017800af
:10364400a10520000500010025ea2100a22e20008a
:103654000e014100010820008e80400060332000ec
:103664000e0040000202780073002000010178007f
:10367400a10520000500010025ea2100a22e20005a
:103684000e014100910720008e804000603320002d
:103694000e0040000202780073002000010178004f
:1036a400a10520000500010025ea2100a22e20002a
:1036b4000e014100710820008e804000603320001c
:1036c4000e0040000202780073002000010178001f
:1036d400a10520000500010025ea2100a22e2000fa
:1036e4000e014100e10820008e804000603320007c
:1036f4000e004000020278009300200001017800cf
:10370400a10520000500010025ea2100a22e2000c9
:103714000e014100710920008e80400060332000ba
:103724000e004000020278004301200001017800ed
:10373400a10520000500010025ea2100a22e200099
:103744000e014100b10a20008e8040006033200049
:103754000e00400002027800a3002000010178005e
:10376400a10520000500010025ea2100a22e200069
:103774000e014100510b20008e8040006033200078
:103784000e00400002027800a3002000010178002e
:10379400a1052000050001005eb092006133200005
:1037a4008e804000d2c0b300827078005eb0920078
:1037b4000000e80050b79a005eb092006133200028
:1037c4008e804000a2c0b300827078000102200005
:1037d4008e804000603320000e004000ec11070092
:1037e4000e109000e10f5000ce003a000000eb00f4
:1037f400609f9a000000eb0010079800b0062000bc
:103804000e0040007100200037120700200720003e
:103814000e00400071002000331207000008200051
:103824000e004000710020002f12070090072000b6
:103834000e004000710020002b12070070082000c9
:103844000e0040007100200027120700e00820004d
:103854000e00400091002000231207007009200090
:103864000e004000410120001f120700b00a200092
:103874000e004000a10020001b120700500b200086
:103884000e004000a100200017120700500b20007a
:103894000e004000a105200013120700a10037000c
:1038a4007e089000ea0f50003c003a006e989200a7
:1038b4000000e00006003a00c02b20000e0040008b
:1038c40080007800a001200030090700950037002f
:1038d4006e989200e10f500092003a00082c2000ec
:1038e4000e0444006043200000004700a1012000b2
:1038f4005e09070060432000000047000b00090038
:10390400301c78008801b1008001b100002c200037
:103914000e0040001000be00420220000e014100d3
:10392400f80a0700f00b20000e00400022012000de
:10393400f1bb280004f60700410220008e804000fd
:10394400f00b20000e0040000df60700f00b2000e5
:103954000e0040001af60700f10b20008e80400094
:10396400008040006200200001972800f6f507005f
:10397400010220008e804000f00b20000e00400069
:10398400831107000e109000e10f500065003a000b
:103994000000eb00609f9a00620037007e089000f0
:1039a400eb0f500041003a0000102000500798002f
:1039b400c22e20000e0141006000b8000089be0044
:1039c400e4004100090009008018eb008058eb0076
:1039d400503020000e004000f1bf280017000900fd
:1039e400315878008001b1008101b100d03120004c
:1039f4000e00400071c128001600090031587800fb
:103a04007001b1007101b1002e0090000000e000cf
:103a14000a003a00513020008e804000c02e200061
:103a24000e004000e0f507000000eb00500798008e
:103a3400100020002007980009003700d131200031
:103a44008e804000c02e20000e004000d6f50700f6
:103a540000102000500798000000eb002007980099
:103a6400c12e20008e804000f00b20000e0040008c
:103a7400cdf50700010220008e804000f00b2000ed
:103a84000e0040004211070010002000201f9b0080
:103a9400403320000e00400000017800de0090005a
:103aa40040012000490a07001e0037007e089000ec
:103ab400f40f50001b003a004e0090000000e0009c
:103ac40008003a001000200040079800f00b200086
:103ad4000e0040003201200011bd28009af50700b5
:103ae400070037000000eb0040079800f00b2000af
:103af4000e0040004201200041be280092f507005c
:103b0400010220008e804000f00b20000e004000d7
:103b14001f110700030037000000000001003700f8
:103b2400000000000e109000e10f500038f93a0038
:103b3400e0ff2f00700f98000000eb0000179800c2
:103b440034f937004e01fa004027990051279900b3
:103b540062279900ee2091005e2091006211070017
:103b6400e0c22800bc000900305f7800de0bb10021
:103b7400d00bb100b0ce2800d10b2000810047004b
:103b84008a000900b0587800b008b1004e209100b6
:103b9400e10f500004003a008e0078005e2091008e
:103ba40081f507000c0037004e209100e20f500011
:103bb40006003a00d00b20000e0040008000780080
:103bc4005e20910078f50700030037008e0078002e
:103bd4005e20910074f507000080fa0000000600e2
:103be4000400fa00881f7800000f7800110798007d
:103bf400a00320009e007800808f500029003a0026
:103c04001e0090001000be0018c0b3000200200087
:103c14000309240033f407000000e00001003d0024
:103c24000044eb000804e00005003200d0cc2c0076
:103c3400c1dc2b00f0428800014388000f003700ec
:103c44001e0090001000be0018c0b3000200200047
:103c54000302240021f407000000e0000100340006
:103c64000044eb000804e00004003200d0cc2c0037
:103c7400c1dc2300f0428800014388001e0090004c
:103c84001002be00f0428000014380000001be002b
:103c94000400be0072f307001e0190000089be00fc
:103ca4000b003700d00320009e007800808f500066
:103cb400070032001e0190006000b8000089be00b9
:103cc4001e0190006000b8002001980031019800a6
:103cd4001e009000b0009000200090000200200020
:103ce40003f823005ef307001e01900020019800f2
:103cf400310198001e009000b00090002000900058
:103d040018c0b3000200200013562400f5f3070086
:103d14000000e00001003c000044eb000804e00067
:103d2400040032001e0190006000b80020019800d9
:103d3400310198004f0478000080fa00000006006a
:103d44000e00fa00200798003107980042079800f7
:103d540053079800640798000000eb00000f7800f8
:103d64000000eb00100798006e009000100f780020
:103d74001e0078000000e000050032002e009000d4
:103d84001e004000b1c3b300014878001e0fe800d4
:103d94000000eb001007980015003700ce009000db
:103da4001e00900000804000104078000004e000f5
:103db4000c0032002e0090001e0040004e019000c6
:103dc4009e009000810041009140780001487800f5
:103dd4009e00e8003e009000808f500001003100fa
:103de4001e0fe8001e0090000000e8001007980075
:103df4009e0090005e009000808f5000e7ff390025
:103e04006e0090001e0878000080fa000000060092
:103e14000200fa009ec0a900e8e2a8000080eb00be
:103e2400702488000080eb0050248800aa24ef004e
:103e3400420020008000eb00c04a2000c9f40700c3
:103e44002000200030258800a824ef008644a90023
:103e5400f009200080248800f009200060248800f4
:103e640082c4a8008804a80000a020004800de0046
:103e7400c02488000040eb00004f780007003700a2
:103e84001e80fb00c200dd0000a020000081400075
:103e94006000b8000089be001e4fe8001e40780094
:103ea400eb4f5000f6ff36009424a8009624ef0050
:103eb40094a4a9009424a900800020005024880020
:103ec400209920008040eb00014878008099200070
:103ed4008040eb00014878009099200090407800e1
:103ee400e0c0600001487800a0992000904078006c
:103ef400e0c0600001487800502480006800600041
:103f04000000e000ecff3a0010c0b30013e8b70073
:103f140010c0b30014e8b7001568ef001668ef008e
:103f24000d68ef000040eb00004f780015003700eb
:103f34001e80fb0080004000a0982000008040000c
:103f44008000eb00010878001e80fb008000400028
:103f540040982000008040008000eb0001087800b9
:103f64001e80fb00d19920000041eb008270780094
:103f74001e80fb00019a20000041eb008270780053
:103f84001e4fe8001e407800e24f5000e8ff360064
:103f940080a02000504c8800d000200050258800cc
:103fa400309a20001050880000a0200081c0b30087
:103fb4000148780010a0200041c0b30001487800f7
:103fc40010a0200010407800804078000174a00008
:103fd40010a02000014878000268ef001828ef00c4
:103fe4001a28ef001c68ef000028ef000080fa0098
:103ff400000006000200fa0000408000e10f5000bb
:104004000b003a00a124800000042000008060001e
:104014000000e00006003a000080eb005024880015
:104024008c04a8008c84a800200020000040880094
:1040340000248000700060000000e00007003200ef
:1040440010248000700060000000e00003003200d3
:104054000001200000248800bc04070040248000e4
:10406400620060000000e000020032008ec0a9007f
:10407400a100370050248000610060000000e000cf
:104084000a00320060248000610060000000e0004b
:10409400060032005eff07009ec0a800400020001a
:1040a4000040880010002000502488005024800024
:1040b400700060000000e000050032006024800011
:1040c400700060000000e00001003200920407006c
:1040d4000124800000042000008060000000e00053
:1040e400030032000004200000248800ee060700cc
:1040f40050248000640060000000e00014003200de
:1041040060248000640060000000e00004003200cd
:10411400120020008000eb0030072000b0100700e0
:10412400400020005024880011c8bf000004e000b3
:104134000300320011c8bf000040e90011e8b700d5
:1041440011c8bf000004e00001003a00a301070009
:104154005124800000082000008060000000e0007e
:104164000600320061248000000820000080600006
:104174000000e000010032004b04070050248000de
:10418400620060000000e0000c0032006024800047
:10419400620060000000e00008003200120020000d
:1041a4008000eb00f0ff27008d1007000080eb007b
:1041b40070248800200020005024880000408000e3
:1041c400e30f500002003e008ec0a9004a003700f1
:1041d40060248000680060000000e00045003200b8
:1041e4000040eb00004f78003d0037005024800071
:1041f400680060000000e0003d0032009024800070
:10420400004078000ee8b7000ec8bf000080fb0035
:104214004400de00004078000fe8b7008000200072
:10422400502488000ec8bf00684060000004e0000d
:1042340011003a000fc8bf000081fb008080fb0022
:10424400009a2000008040009040780061c0600027
:104254000004a200e1406000009a20000000410038
:10426400e1c06000104178000204a10081407100a7
:1042740001487800100037000fc8bf000081fb0020
:104284008080fb00d099200000804000904078009e
:1042940061c060000004a200e1406000d0992000e9
:1042a40000004100e1c06000104178000204a10058
:1042b40081407100014878000fc8bf000004e0008d
:1042c40002003a002d040700040037000001eb004f
:1042d400e180200020072000411007001e4fe80065
:1042e4001e407800e34f5000c0ff36000100370045
:1042f400000000008ec0a9000080fa000000060043
:104304000400fa0020479800314798003e4090008e
:104314000080fb00680060000000e0000300320041
:104324008040eb002e4090009b0107003e4090002f
:104334000080fb00640060000000e0000300320025
:1043440011c0b3002e40900093010700a14a200041
:104354002e4090000080fb0000004000008f4000d1
:104364001e007800be409000014878000080fa00ea
:10437400000006000800fa00204798003147980022
:1043840022079800634798003e4090000004e00034
:10439400070032002e4090000080fb0080004000a7
:1043a400a098200000804000100f7800060037001d
:1043b4002e4090000080fb008000400040982000c8
:1043c40000804000100f78001e0078000000e0001c
:1043d40002003a000000eb0037003700ae00900006
:1043e4001e007800110098001e007800ee40900036
:1043f400014878001e0078001040900002c4b30009
:10440400824060001e007800114098001e00780071
:1044140010409000804078000134a0001e00780015
:10442400114098001e0078001040900080407800f1
:104434000174a0001e007800114098003e409000d6
:104444000004e0000e0032002e4090000080fb00cb
:10445400ae4090008180fb0001814000a1982000c3
:1044640081004100910078000120a2000001400079
:10447400a098200000004100010878000d003700da
:104484002e4090000080fb00ae4090008180fb0035
:104494000181400041982000810041009100780092
:1044a4000120a200000140004098200000004100cb
:1044b400010878001e0078000080fa000000060061
:1044c4000400fa0020479800314798002e409000dd
:1044d4000004e00017003a003040800081c0b300bf
:1044e4000148780030408000319a20001100980083
:1044f40030408000c1c0b3001140980030408000bb
:1045040031408000914090000174a0001140980057
:10451400504c800041c0b30011409800504c8000c2
:10452400514c8000914090000174a000114098000b
:104534002e0037002e4090000080fb000000400059
:10454400800078003e4090000080fb000080400026
:104554004300dd008000780000a02000008f4000b0
:104564001e00780010409000804078000124a000d4
:104574001e007800114098001e0078001040900042
:10458400804078000174a0001e007800114098005b
:104594002e4090000080fb00000040008000780066
:1045a4003e4090000080fb00008040004300dd009e
:1045b400e400400000a02000008f40001e007800ae
:1045c40010409000804078000124a0001e00780074
:1045d400114098001e007800104090008040780040
:1045e4000174a0001e007800114098000080fa00b9
:1045f400000006000200fa00004f7800a1248000a9
:1046040000022000008060000000e0005100320041
:104614001e80fb0080004000a09820000080400025
:10462400100278001e80fb0080004000a09820004b
:1046340000804000100078001001be00000420003b
:1046440001002000820278000301780080017800d4
:104654000100780083826200000061008000eb00aa
:10466400c000dd00000020000001be006128b80089
:104674000001710081817100028abe001e80fb006e
:1046840080004000a09820000080400010027800c4
:104694001e80fb0080004000a098200000804000a5
:1046a400100078001001be0000042000010020006a
:1046b4000000690081806900008abe001e80fb0042
:1046c4009e80fb0001814000a198200081004100f0
:1046d400910078000120a20000014000a098200071
:1046e40000004100010878001e80fb0080004000ab
:1046f400a098200000804000900078001e80fb00fd
:1047040000014000a0982000000041001000780043
:10471400104090000044b200904098001e80fb00be
:1047240080004000a09820000080400090007800a5
:104734001e80fb0000014000a09820000000410002
:10474400100078001041900000c4b30000406900dc
:10475400904098000080fa00000006000000fa0073
:104764009424ef008c24ef000028ef000080fa006e
:10477400000006000000fa00004080000000e00095
:1047840014003a009424ef008c24ef002000200051
:1047940030258800a824ef008644a900f0092000f1
:1047a40080248800f00920006024880082c4a800c6
:1047b4009ec0a800010037009404a800a024800033
:1047c400610060000000e000fbff320010002000e8
:1047d400004088000080fa00000006000000fa0093
:1047e40013c8bf000004a2000004e000340032003b
:1047f40010c0b30013e8b70014c8bf000004a2003f
:104804000004e0002e00320010c0b30014e8b7002a
:1048140009c8bf00e24f50000c003a00504c800021
:104824008040eb0001487800504c800081c4b30004
:1048340011409800504c8000514c800091409000f1
:104844000174a000114098001d00370009c8bf0082
:10485400e14f50001a003a001068ef002040800039
:1048640081c0b3000148780020408000319a2000c4
:10487400110098002040800041c0b300114098000e
:104884002040800021408000914090000174a000ed
:104894001140980010c0b30010e8b7003040800009
:1048a40081c0b3000148780030408000319a200074
:1048b400110098003040800001c8b30011409800f6
:1048c4000080fa00000006000000fa001568ef00fe
:1048d4001668ef0009c8bf00e24f50000f003a000d
:1048e4003040800081c0b30001487800304080002f
:1048f400b19a2000110098003040800081c4b300b8
:104904001140980030408000314080009140900078
:104914000174a000114098001d003700909a2000f7
:104924001080fb00a19a20009180fb00c808dd00e4
:104934000100700080007800a04c8000808f50003f
:1049440007003100909a20001080fb00a19a2000fb
:104954009180fb00c808dd0001007000a04c8800b5
:1049640096000700504c8000b19a20001100980076
:10497400504c800081c4b30011409800504c80001a
:10498400514c8000914090000174a00011409800a7
:104994000080fa00000006000400fa002047980096
:1049a4003147980000a02000000f78002e409000ae
:1049b4000080fb0000004000800078003e40900032
:1049c4000080fb00008040004300dd001e0f40001b
:1049d4001e0078009000780001f0a1000108780022
:1049e4003e4090000004e00007003a002e40900092
:1049f4000080fb00800040004098200000804000c0
:104a04001e087800060037002e4090000080fb004e
:104a140080004000a0982000008040001e0878001c
:104a24001e0078009000780001e0a10001087800e1
:104a34009e007800648040009000780001e0a000af
:104a4400010878000080fa00000006000000fa0067
:104a540094a4a900914c800000082000008060000c
:104a64000000e00027003a00809920009040780080
:104a740000c8b30000c060000004e0000a00320077
:104a840020c0b30009e8b70016c8bf000004a200a4
:104a94000004e000010032008bff07001468ef00ff
:104aa4001368ef00430037003040800081c0b3003a
:104ab4000148780030408000319a200011009800ad
:104ac40030408000c1c0b3001140980030408000e5
:104ad40031408000914090000174a0001140980082
:104ae400504c800041c0b30011409800504c8000ed
:104af400514c8000914090000174a0001140980036
:104b04002c003700309a20009040780000c8b30091
:104b140000c060000004e0000f00320010c0b300c9
:104b240009e8b70015c8bf000004a2000004e000b3
:104b34000100320064ff07001468ef001368ef00ff
:104b440012c8bf000004a2000004e00019003200f3
:104b540022ff07001700370020c0b30009e8b700a0
:104b64003040800081c0b3000148780030408000ac
:104b7400319a2000110098003040800041c0b300f9
:104b840011409800304080003140800091409000f6
:104b94000174a000114098001468ef001368ef003e
:104ba40012c8bf000004a2000004e00001003200ab
:104bb4000aff07000080fa00000006000200fa0065
:104bc40080c0b300004f7800a04c8000e70f500075
:104bd4000d003e00a04c8000004f780008c8bf00c4
:104be4000004e00003003a0010c0b30008e8b70076
:104bf4000500370008c8bf00e14f500002003a002a
:104c040020c0b30008e8b700a14c80001e80fb0060
:104c140000805000a04c8800504c80001e48780052
:104c2400b09a200050408800904c800061006000e1
:104c34000000e00017003a000900370051408000ee
:104c4400804c800010417800824878008100e800a0
:104c5400514088000000e800804c88001e4fe900a5
:104c64001e4078000004e000f4ff3a000c00370016
:104c740051408000804c80001041780082487800c8
:104c84008100e800514088000000e800804c880062
:104c94001e4fe9001e4078000004e000f4ff3a00d3
:104ca4000080fa00000006000200fa0020408000a4
:104cb400104f78009e80fb00909920001080fb002c
:104cc400a29920001281fb004811dd00020070004f
:104cd400808f500007003600909920001080fb0060
:104ce400a19920009180fb00c808dd00010070003c
:104cf400004f7800909920001080fb00a1992000bb
:104d04009180fb00c808dd0001007000800078007d
:104d14001e80fb0000805000f10f200001016000a4
:104d24009199200091417800e0c1610002c17100b5
:104d340082487800c800de00a09920001041780065
:104d44006041610081407100014878000040eb003f
:104d5400104798001c003700609920001080fb0069
:104d6400719920009180fb00c808dd0001007000eb
:104d74009e4090008180fb00b29a2000e2c078003f
:104d8400014878000000e800f10f200001016000f4
:104d94006199200091417800e0c1610002c1710075
:104da40082487800c800de00709920001041780025
:104db4006041610081407100014878001e4090000c
:104dc4000040e800104798001e4090009e4f50009d
:104dd400e1ff3900909920001080fb00a199200088
:104de4009180fb00c808dd00010070000000e000b5
:104df4001e0032003040800081c0b30001487800ba
:104e040030408000b19a20001100980020408000ba
:104e14009000780000002400008060000000e000a2
:104e240009003a003040800081c4b300114098006a
:104e34003040800031408000914090000174a00017
:104e4400114098002f0037003040800081c0b3002b
:104e54001140980030408000314080009140900023
:104e64000174a000114098002600370030408000f3
:104e740081c0b3000148780030408000319a20009e
:104e8400110098003040800041c0b30011409800e8
:104e94003040800031408000914090000174a000b7
:104ea40011409800b09920001080fb00c1992000a7
:104eb4009180fb00c808dd00010070000000e000e4
:104ec40007003200b09920001080fb00c199200037
:104ed4009180fb00c808dd000100700000000100a3
:104ee40080992000904078000174a1000148780066
:104ef40012c8bf000004a2000004e0000100320058
:104f040036fe07000080fa00000006000200fa00e6
:104f1400904c80000070a000904c8800420020005b
:104f24008000eb00c04a20008ef00700020320003e
:104f34008000eb0000a020008af007009424a80061
:104f44000040eb00004f7800090037001e80fb0092
:104f5400d19920000041eb00827078001e80fb0094
:104f6400019a20000041eb00827078001e4fe80097
:104f74001e407800e24f5000f4ff3600220020006b
:104f84008000eb002098200076f007009424a9000c
:104f940080a02000504c880000a020002040880001
:104fa4002040800030408800509a20001040780053
:104fb40002e8b70002c8bf000004e00003003a00a2
:104fc4000001200000408800060037001200200085
:104fd4002180200010002000010d070000022000a5
:104fe400004088000080fa00000006000000fa007b
:104ff400309a20009040780000c8b30080cf500061
:1050040047003a002099200001ccb3000148780001
:10501400609a2000104078000080fb00e20f5000ee
:1050240009003200e30f500023003200e10f50006a
:1050340037003a0060d72800804c88002001200007
:10504400a04c880036003700509a200010407800a9
:105054000004e00014003a00509a20001040780048
:105064000080fb000000400080007800a0e12800e0
:105074000080400010007800804c8800804c800044
:105084000080e800904078004099200001487800b2
:10509400804c8000630040009040780050992000cc
:1050a400014878001e003700209920008040eb0062
:1050b400014878001a003700509a20001040780008
:1050c400e24f50000e003e00509a2000104078003d
:1050d4000080fb000000400080007800c0e1280050
:1050e4000080400010007800804c8800804c8000d4
:1050f400104078000080fb00a04c880008003700b6
:10510400209920008040eb0001487800040037001b
:10511400209920008040eb00014878000000000046
:105124000080fa00000006000200fa00b09a200095
:105134008040eb0001487800c09a20008040eb00da
:1051440001487800309a2000904078007fc06000c9
:105154000080fb00e10f500011003200e20f50000c
:10516400130032000000e00040003a00904c800040
:105174000070a000904c88000cc8bf000004e00040
:1051840035003200b09a200010407800804078004a
:105194000114a000b09a20000148780033003700c1
:1051a400904c80000070a000904c88002f003700c5
:1051b400904c80000070a000904c8800709a2000f1
:1051c4009040780000c8b30000c060000004e00014
